:100000000C94D8050C94F5050C94BE060C94F505DB
:100010000C94F5050C94F5050C9471200C94F505E1
:100020000C94F5050C94F5050C94F5050C94F50568
:100030000C94F5050C94F5050C94FA200C94F50538
:100040000C94F5050C94F5050C94F5050C94F50548
:100050000C94F5050C94F5050C94F5050C94F50538
:100060000C94F5050C94F505E30BE30B0F0C0F0C4A
:10007000540D540D540D540D650CDB0CEC0CEC0CB4
:10008000581CCA1C601C2A1C2E1C641C311C671CBA
:10009000721C3C1CC01C401C761C441C7A1CA41CFA
:1000A000481C7E1CAE1C4E1C841C8E1C351C6B1CFC
:1000B000381C6E1C531C891C9A1CBA1CBC1C261CA8
:1000C0005C1CD31C861E8C1E7A1E801E921E981EDF
:1000D0009E1EB6B6B6B6B6B6B6B6B6B6B6B6B6B670
:1000E000B695B596D5B6B680818283848586878895
:1000F000898A8B8C8D8E8F9091929394A0A1A2A3CC
:10010000A4A5A6A7A8A9AAABACADAEAFB0B1B2B337
:10011000B4C0C1C2C3C4C5C6C7C8C9CACBCCCDCE82
:10012000CFD0D1D2D3D4004461746120746F2062E7
:100130006520646973706C617965643A2025730A7F
:10014000000A0025632000526563656976656420B6
:10015000646174613A200052656365697665642064
:1001600064617461206C656E6774683A2025640A66
:1001700000A900AA00010001000100010001000126
:10018000002B0014001A000800150017001C0021A5
:100190005204001600070009000A000B00E10038B5
:1001A00000E4001B00060019000500E000E2002248
:1001B00052E6002C002C002C0000003400A8001394
:1001C0000012000C0018000000E3002A0028000FB5
:1001D000000E000D0000001D00E500370036001085
:1001E00000110029001E001F002000210022002312
:1001F0000001000100350031000100010001000193
:100200000001004F00010001000100010001000198
:1002100000510050004A0001004D000000010001A3
:10022000002700260025002400000001004C0034B7
:1002300000330030002F0000000100520038002E73
:10024000002D00010001003A003B003C003D003E53
:10025000003F003900010001000100010001000120
:100260000001000100010001000100010001000186
:100270000001000100010001000100010000000177
:100280000001004300420041004000000001000165
:100290000001000100010001000000010001000157
:1002A0000001000100010001000100010001000146
:1002B0000001000100010001000100010001000136
:1002C0000001000100010001000100010001000126
:1002D0000001000100010001000100010001000017
:1002E0000001000100010001000100010000000107
:1002F00000010001000100010001000000010001F7
:1003000000010001000100010044454255473A2028
:1003100064697361626C65642E0A00444542554706
:100320003A20656E61626C65642E0A000A00253011
:100330003258006C65645F7461736B3A20004F6ED5
:100340006573686F743A206163746976653A202535
:10035000640A000A0025303862003A200025303255
:1003600058000A722F632030313233343536370A61
:10037000006F6C65645F6F666620636D6420666104
:10038000696C65640A0000AE6F6C65645F6F6E2017
:10039000636D64206661696C65640A0000AF6F6C10
:1003A00065645F72656E6465723930206461746182
:1003B000206661696C65640A006F6C65645F7265D4
:1003C0006E6465722064617461206661696C656445
:1003D0000A006F6C65645F72656E646572206F669B
:1003E0006673657420636F6D6D616E64206661690C
:1003F0006C65640A00646973706C61795F7365741D
:10040000757032206661696C65640A0000DA0281E9
:10041000FFD9F1DB20A4A62EAF646973706C6179FB
:100420005F666C6970706564206661696C65640AFA
:100430000000A0C0D3006F6C65645F696E697420B2
:10044000636D64206E6F726D616C20726F74617485
:10045000696F6E206661696C65640A0000A1C8D38B
:10046000006F6C65645F696E697420636D642073EE
:1004700065742031206661696C65640A0000AED540
:1004800080A81F408D1420000000000000003E5B8B
:100490004F5B3E003E6B4F6B3E001C3E7C3E1C00A3
:1004A000183C7E3C18001C577D571C001C5E7F5E6C
:1004B0001C0000183C180000FFE7C3E7FF0000180D
:1004C00024180000FFE7DBE7FF0030483A060E0083
:1004D000262979292600407F05050700407F05254C
:1004E0003F005A3CE73C5A007F3E1C1C0800081C99
:1004F0001C3E7F0014227F2214005F5F005F5F00BC
:1005000006097F017F00006689956A00606060606F
:10051000600094A2FFA2940008047E04080010204A
:100520007E20100008082A1C0800081C2A08080061
:100530001E10101010000C1E0C1E0C0030383E381F
:100540003000060E3E0E0600000000000000000015
:100550005F000000000700070000147F147F1400F4
:10056000242A7F2A12002313086462003649562089
:100570005000000807030000001C22410000004159
:10058000221C00002A1C7F1C2A0008083E080800C4
:100590000080703000000808080808000000606053
:1005A00000002010080402003E5149453E00004270
:1005B0007F4000007249494946002141494D3300BE
:1005C0001814127F10002745454539003C4A494917
:1005D0003100412111090700364949493600464991
:1005E00049291E00000014000000004034000000F3
:1005F00000081422410014141414140000412214A1
:1006000008000201590906003E415D594E007C1266
:1006100011127C007F49494936003E414141220088
:100620007F4141413E007F49494941007F09090915
:1006300001003E41415173007F0808087F000041DE
:100640007F4100002040413F01007F08142241000B
:100650007F40404040007F021C027F007F04081062
:100660007F003E4141413E007F09090906003E41AD
:1006700051215E007F091929460026494949320067
:1006800003017F0103003F4040403F001F20402006
:100690001F003F4038403F00631408146300030408
:1006A000780403006159494D4300007F41414100F6
:1006B000020408102000004141417F0004020102B1
:1006C0000400404040404000000307080000205460
:1006D000547840007F28444438003844444428007B
:1006E000384444287E0038545454180000087E09C9
:1006F00002001824241C78007F08040478000044B9
:100700007D4000002040403D00007F102844000054
:1007100000417F4000007C04780478007C080404D9
:1007200078003844444438007C18242418001824E5
:1007300024187C007C080404080048545454240005
:1007400004043F4424003C4040207C001C20402006
:100750001C003C4030403C004428102844004C9091
:1007600090907C004464544C4400000836410000E2
:10077000000077000000004136080000020102047A
:1007800002003C2623263C00000000000080C0E060
:10079000F0F0300000C060F0F0F0300080C020F0D9
:1007A000F0F020000000000080C0E0703018B8F8C1
:1007B000F00000000000DC7E3FBEF0F0E000000032
:1007C00000000080C0E070101818F8F06000000011
:1007D00000C060F0F8F83000000080E0F0F8F83079
:1007E0000000000080E0F0FCFF3F0F0100000080EF
:1007F000C0E0F0F878000000000080C06030904059
:10080000203070E0C0000040404040404040404048
:100810004040000000E0FEFFFEF8C00000000000C5
:10082000E0FCFFFEF0000000000000000000013EC0
:10083000E080700E0100000000073CE080780700B7
:10084000000000000000000000180C06C3F9FE3F85
:10085000C7711806C3F07C1FC7711806C3F8FE3FA6
:100860000F0180C0F0F8FEDF47636030381E0F07CD
:1008700081402018060381F0FC7F1F0780C0E0F84C
:10088000FC3E0F0301000000000301806010080619
:10089000E3FCFF3F0701C0308CE3FF7F1F0380C0F4
:1008A00030188CE3F9FF3F070180C030180CC3F10A
:1008B000FC7F0F0380C0F0FCFE3F0701003EC180BB
:1008C00080E0FC3F8F4040C0F0FC7E4E0000000006
:1008D00000000000F8FFFF1F071FFFFEF0C0F8FF39
:1008E0007F0F077FFFFEFC04047880000000C03803
:1008F0000C1C6080000000F00C04F41C80C0FCE6BE
:10090000C3C1C1C3E6FCC0800000383F3F1F0703DE
:100910000000383E3F1F0E030000307F7F3F190C60
:100920000603010F1F3F7160607030180804020158
:1009300000000000387E7F3F3B18040301000F1FBA
:1009400031202020201018080402010000001C3F64
:100950007F7F31180603183E3F3F1B080402010049
:10096000001E3F3F3F10080402010000183E3F3FB9
:10097000190C060301000F1F3160606030181C0F56
:1009800007030101000000183C3C1C0000000000AF
:100990000000001F1F1F0700000000031F1F0F01A2
:1009A00000000000071F1F1EF8000F70300EC13836
:1009B000070E70831C601E03C03E01003F7FFFFFD7
:1009C000F9C0C0F9FFFF7F3F0A00253032582000F0
:1009D0006B6579626F6172645F7265706F72743A91
:1009E00020005241573A206275666665722066752E
:1009F0006C6C0A005241573A20696E76616C6964EA
:100A0000206C656E6774680A005345545F4C45441A
:100A10003A20253032580A000A0056454E444F52BB
:100A20003A00554E4B4E4F574E3A005345545F4C8B
:100A300045443A005345545F5245504F52543A0092
:100A40005345545F49444C453A20253032580047BD
:100A500045545F49444C453A004745545F52455020
:100A60004F52543A006B6275663A2066756C6C0A98
:100A700000562D5553423A206B6275665B25642DF6
:100A80003E25645D2825303258290A00090262009B
:100A9000030100A0FA09040000010301010009217B
:100AA000010100012240000705810308000109043B
:100AB00001000203000000092101010001222200BF
:100AC0000705840308000107050403080001090461
:100AD000020002030000000921110100012222008E
:100AE000070583030800010705030308000112013D
:100AF00010010000000837133173000101020001EA
:100B000012034D00650072006300750074006900F7
:100B10006F00000012034D0065006300680057007D
:100B200069006C0064000000040309040631FF0939
:100B300074A1010975150026FF0095207508810232
:100B40000976150026FF00952075089102C0066001
:100B5000FF0961A1010962150026FF0095207508B3
:100B600081020963150026FF00952075089102C0D7
:100B700005010906A101050719E029E7150025016E
:100B80009508750181029501750881030507190013
:100B900029FF150026FF0095067508810005081934
:100BA000012905950575019102950175039103C011
:100BB00011241FBECFEFD8E0DEBFCDBF11E0A0E013
:100BC000B1E0EAEEFCE402C005900D92AA35B1074F
:100BD000D9F725E0AAE5B1E001C01D92A73CB20714
:100BE000E1F70E94B6180C9473260C940000FF9352
:100BF000EF93E0915A01F0915B01309709F009956C
:100C0000EF91FF910895FC018591803011F0EFDFA5
:100C1000FBCF0895FF27E0E230E247FF0CC041958B
:100C200097FF09C0EDE26095709580959095611DE4
:100C3000711D811D911D27FF02C0219530E350E2F7
:100C4000AA27660F771F881F991FAA1FA41710F0E5
:100C5000A41B63955A95A9F7AA3008F0A95FA05D77
:100C6000AF93F395611571058105910541F7ED325B
:100C700011F4EF93F395F21718F43F93F395FBCF2C
:100C80008F91B5DFFA95E1F70895E991F991859192
:100C9000803021F0853219F0AADFF9CF089520E0E5
:100CA000E89455915532C1F3503311F4689455913D
:100CB0005A3348F4505390F3220F022E220F220F82
:100CC000200D250FF4CF0EF421958991999153367B
:100CD00019F3533729F1533559F1BC018827992766
:100CE000E8945C3621F48991999168945591543631
:100CF00039F446EF7EF077FF0DC08FEF9FEF0AC00B
:100D000055374AE039F0583540E121F0523642E09B
:100D100009F00895FF93EF937DDFEF91FF91B7CF37
:100D2000FF93EF93FC0181918030B9F360DFFBCF3B
:100D3000FF93EF9368DFF1CFDF93CF93CDB7DEB7AB
:100D40002596A3DFCF91DF910895A82FB92F80E0DA
:100D500090E041E050EA609530E009C02D91822793
:100D60009795879510F084279527305EC8F36F5FBD
:100D7000A8F30895EADF8D939D930895CF93CFB79D
:100D8000CF93DF93C3954B9BE9F74B9B10C04B9BD5
:100D90000EC04B9B0CC04B9B0AC04B9B08C04B9B8F
:100DA00006C0C0919E05C395C0939E058EC06F93EB
:100DB000C0919D05DD27CB55DA4F2F9365E54B9B01
:100DC00003C02F916F91E1CF0F931F934F9320E0BA
:100DD00040E15F9309B10C7003FB27F93F9350E0AA
:100DE0003BE039C01C7040642F77012F5F5F1EC04D
:100DF000406819B11C702F7752501FC0406409B170
:100E00002F770C70D1F15F5F00C023C0406219B131
:100E10002F771C7091F15F5F00C025C00C70102708
:100E2000515012F45D5F0000115027952C3F19B10D
:100E3000C8F61C700127015027952C3FC8F64227A1
:100E4000499309B10C7010274F73115027952C3F0F
:100E5000A8F64695469519B11C7079F00127015006
:100E600027952C3F98F66B5A60F3315009B1B0F6D4
:100E700000C012E01CBB00271CC03B503195C31BB7
:100E8000D04012E01CBB0881033C21F10B3411F16E
:100E900020919A051981110F1213EDCF4A81441F39
:100EA000093679F10D3211F0013E29F74F7009F042
:100EB000042F0093A3053F915F914F911F910F91D4
:100EC0002F916F91CCB3C1FD5DCFDF91CF91CFBF9B
:100ED000CF9118952091A305222369F31091A105C4
:100EE000112309F049C034300AF448C03093A105F9
:100EF00020939C0510919D053BE0311B30939D058F
:100F00003DC00091A1050130BCF50AE54F7049F4E0
:100F10003091320134FD33C000933201C7E7D5E090
:100F200032C0433059F0443091F03091820534FDA5
:100F300026C000938205C3E8D5E025C03091BB05EB
:100F400034FD1DC00093BB05CCEBD5E01CC0309137
:100F50008E0534FD14C000938E05CFE8D5E013C094
:100F6000052710E000C000000BB91AC0052710E0EB
:100F7000221F1DC010E021C04AE502C032ED432F00
:100F8000C4E1D0E032E01AB11C605B9A0BB11AB92F
:100F90005CE020E865E320FF05270BB9279517954E
:100FA0001C3FF0F66695B8F7B1F720FF05270BB99F
:100FB000279517951C3FD0F62795179517FF0527FE
:100FC00000001C3F0BB9B0F629913A9519F7037F41
:100FD0001091A205110FC651D0400BB911F010931A
:100FE0009A0512E01CBB08601AB1137F402F437FA3
:100FF00054E05A95F1F70BB91AB94BB95CCF82E0BE
:101000000895CF930E949508C82F882329F060E0A7
:1010100082ED90E00E947F1A8C2FCF91089582E09C
:101020000895A0E0B0E0E7E1F8E00C94C8257C0169
:10103000962E6DB67EB6062F10E0680181E0C81AC4
:10104000D108EDB7FEB7E01BF10B0FB6F894FEBF69
:101050000FBEEDBF8DB79EB701965C01A80160E0A1
:1010600070E00E941A2682E4F50180831F929F920D
:1010700087E591E09F938F930E949C0687E491E01F
:101080009F938F930E949C060F900F900F900F904C
:101090000F900F90570183E4882E81E0982EC501B0
:1010A0008E199F098017910774F4F50181915F01F2
:1010B0001F928F939F928F920E949C060F900F9089
:1010C0000F900F90ECCF81E491E09F938F930E945B
:1010D0009C06F7013196A0E0B1E00F900F90CF0190
:1010E0008E199F09801791071CF481918D93F7CF7A
:1010F00080E091E09F938F9387E291E09F938F939D
:101100000E949C06F601E050FF4F108281E0809320
:101110005E010F900F900F900F900FB6F8947EBE67
:101120000FBE6DBEEEE00C94E42580915C019091C1
:101130005D01039724F010925D0110925C01809193
:101140005E018823C9F00E9410190E94BC1A6091A8
:101150005C0180E00E94851960E080E091E00E94DF
:10116000641A10925E0180915C0190915D0101967C
:1011700090935D0180935C0180E008958430B0F429
:101180006730A0F4473090F491E3899FF001112477
:1011900087E0689FE00DF11D1124E40FF11DEE0FB3
:1011A000FF1FEF57FE4F85919491089581E090E0E5
:1011B00008950E94BE080895843088F461110FC01C
:1011C000E82FF0E0EE0FFF1F81E04827E40FF11D4C
:1011D000EE0FFF1FEF58FE4F85919491089581E027
:1011E00090E008950E94DC08089581E0089581E070
:1011F00008950E94F70808950E94F90808950E9432
:10120000F708089508950E9402090895A6E0B0E045
:10121000ECE0F9E00C94D32549835A839E83309106
:10122000640189819A81311115C03E81332359F0BF
:10123000222349F00E94190F182F682F89819A8163
:101240000E94E60E03C00E94000F182F69817A8168
:10125000812F04C00E94190F69817A810E94FA15BA
:101260002696E3E00C94EF25FC01262F4081518166
:1012700062817381848195810E9406090895CF93CC
:10128000DF93EC0161E00E943409BE010E94FC087A
:10129000DF91CF910895CF93DF93EC0160E00E943E
:1012A0003409BE010E940309DF91CF91089508958A
:1012B0000E94BD0D0E9457092FEF84E39CE021504E
:1012C00080409040E1F700C0000008950E94580956
:1012D0000E94202108950E9458090E9435210895F6
:1012E0000F931F93CF93DF938C0161E00E94340929
:1012F000EC01B8010E94FF08882309F45BC0B80123
:10130000CE010E946E1E882309F454C0B801CE019C
:101310000E94021C882309F44DC0B801CE010E942E
:10132000D41D882309F446C0F80185818823E9F19A
:10133000C3308CE7D80779F158F4C130FCE7DF07F8
:1013400061F1A0F4C115DC4781F50E94660932C045
:10135000CB35FCE7DF0739F1CC358CE7D80701F155
:10136000CA35DC4711F50E9453131FC08091EC0170
:10137000C82FC095C170C0FB80F98093EC01CC23CD
:1013800029F08BE193E00E94030614C089E093E00A
:101390000E94030610C00E945B130E946B090AC0E2
:1013A0000E94491302C00E945713C8010E94F50809
:1013B000C82F01C0C0E08C2FDF91CF911F910F91FA
:1013C00008950E9450200E941C0A0E94B81B089594
:1013D0000E94200A0E94592008958295982F9373A5
:1013E00044E0949F900111248C7C86958695282B4F
:1013F000822F8575880F2A7A2695822B0895089565
:1014000081E008950895CF93DF93D82F0E94000ABA
:10141000C82F882319F08D2F0E94020A8C2FDF918C
:10142000CF9108950895CF93C82F0E94FF098C2F64
:101430000E94030ACF91089580E00E94130A089544
:101440000E94AF1F0E94130A0895CF930E94AF1FFE
:10145000C82F80915F01C81789F1C0935F010E9476
:10146000DF2060936001709361018093620190932B
:1014700063018091EC0182FF1EC080FF04C083E302
:1014800093E00E9403068091EC0180FF0CC01F9244
:10149000CF938EE293E09F938F930E949C060F90D0
:1014A0000F900F900F908091EC0180FF04C08CE2B0
:1014B00093E00E9403068C2F0E94130ACF91089597
:1014C000ADE0B0E0E6E6FAE00C94D4254887598711
:1014D0006A877B878C879D8791110E947F12CE013E
:1014E000019627E0FC0111922A95E9F726E0FE011A
:1014F0003896DC0101900D922A95E1F72D8121119A
:101500000AC029813A814B815C816D817E818F8106
:101510000E94C91104C00E943F098111F2CF2D968B
:10152000E2E00C94F025FC012481213021F480813B
:1015300091810E944B0F0895CF93882309F481C0B5
:10154000C82F8238C1F40E94AF1F81FD7AC069E3C1
:1015500080912001909121010E943F200E94AB12B6
:101560002FEF87EE93E0215080409040E1F700C0DC
:10157000000069E333C08338C1F40E94AF1F80FDCF
:1015800060C063E580912001909121010E943F207D
:101590000E94AB122FEF81EE94E0215080409040EA
:1015A000E1F700C0000063E519C08438F1F40E943F
:1015B000AF1F82FD46C067E4809120019091210118
:1015C0000E943F200E94AB122FEF81EE94E0215049
:1015D00080409040E1F700C0000067E48091200166
:1015E000909121010E9442202AC08CEF8C0F813AF9
:1015F000D0F46C2F80912001909121010E9409204C
:10160000882349F06C2F80912001909121010E9444
:1016100042200E94AB126C2F8091200190912101F9
:101620000E943F200CC080E28C0F883050F4C770BD
:1016300081E001C0880FCA95EAF70E9462120E94F9
:10164000AB12CF910895882309F44DC0682F8238DA
:1016500079F40E94AF1F81FF46C069E380912001A9
:10166000909121010E943F200E94AB1269E326C0A5
:10167000833879F40E94AF1F80FF35C063E5809105
:101680002001909121010E943F200E94AB1263E54E
:1016900015C0843879F40E94AF1F82FF24C067E42C
:1016A00080912001909121010E943F200E94AB1265
:1016B00067E404C08CEF860F813A38F480912001F2
:1016C000909121010E9442200CC080E2860F883058
:1016D00050F4677081E001C0880F6A95EAF70E94B4
:1016E00068120E94AB1208951F93CF93DF93182FB7
:1016F000EB010E949C0A209741F08FE99FE001973F
:10170000F1F700C000002197F6CF812F0E94230B34
:10171000DF91CF911F910895893319F06AE070E04D
:1017200002C060E570E00E94740B0895882321F0E8
:101730000E9462120E94AB120895882321F00E9439
:1017400068120E94AB120895A0E0B0E0EAEAFBE064
:101750000C94CE257C01D62FC72FFC011581068164
:1017600002950F700E9458128823E9F01123D9F0D6
:101770008C2F807F803451F080E28D0F883098F07C
:10178000011104C08C2F807E803269F080915E034D
:1017900082FF09C082E00E9409130E94581291E062
:1017A000D82ED92601C0D12CCC2EC2948FE0C822CD
:1017B0008C2D90E08C30910508F076C1FC01EC5C3A
:1017C000FF4F0C94BE258C2F807FCF70882311F0A3
:1017D000C295C07F112399F0CC2309F44CC180E25B
:1017E0008D0F883010F0D11104C08C2F0E9462122E
:1017F00003C08C2F0E9472120E94AB123CC18D2F2D
:101800000E94230BCC2309F44FC180E28D0F883056
:1018100038F1DD2329F18C2F0E94781224C08C2FFF
:10182000807FCF70803211F0C295C07FDD2319F028
:10183000D13099F13CC080915E0382FD17C0112325
:1018400049F0CC2329F08C2F0E9462120E94AB1227
:1018500080E012C180E00E94230BCC2309F424C154
:101860008C2F0E9468120E94AB121EC1112349F0F6
:10187000002309F1013009F017C18C2F0E94891251
:1018800013C1011111C18C2F0E949D0B8C2F0E943E
:1018900095128C2F0E94DC1207C1112321F0063013
:1018A00008F002C108C0053008F0FEC00AC01123CC
:1018B00031F00111E0C08C2F0E94960BF5C0011190
:1018C000E0C08C2F0E949D0BEFC08C2F8370B1F570
:1018D0001111EEC04D2F429546954770440F440FAD
:1018E0008D2F8F7090E09C01042E02C0220F331FB9
:1018F0000A94E2F7D4FF0AC08FE090E002C0880F9C
:10190000991F4A95E2F78095909502C080E090E09B
:10191000C695C695C370822B932BC23049F058F4FC
:10192000C13019F00E94190EC3C00E94100EC0C031
:101930000E94220EBDC00E940D0EBAC0112319F0E4
:101940008C2F817001C08695882309F4B1C04D2F7A
:10195000429546954770440F440F8D2F8F7090E04D
:101960009C01042E02C0220F331F0A94E2F7D4FF19
:101970000AC08FE090E002C0880F991F4A95E2F7F5
:101980008095909502C080E090E0C695C695C370A2
:10199000822B932BC23049F058F4C13019F00E94C9
:1019A000810E86C00E94780E83C00E948A0E80C07D
:1019B0000E942E0E7DC0CF70112339F08C2F0E9413
:1019C000460E8D2F0E94960B73C08D2F0E949D0B8B
:1019D0008C2F0E94560E6CC0D23F21F128F4D03FCC
:1019E00041F0D13FC1F043C0D33F19F1D43F79F06A
:1019F0003EC0112341F0053008F056C08C2F8F7186
:101A00000E94680E51C0063008F04EC0F7CF80919A
:101A10005E0382FD18C0112339F08C2F8F710E9454
:101A2000460E42C01123C9F38C2F8F710E94560EAF
:101A30003BC0112329F08C2F8F710E943A0E34C0C5
:101A40000E94350E31C0112349F0CF718C2F0E94B6
:101A5000460E63E08C2F0E94EB1226C081E00E94AC
:101A60000913023008F182E00E9409131DC01123FE
:101A700031F0002391F28D2F0E949C0A15C00023A3
:101A800099F2D93341F4FFEF27EE83E0F150204083
:101A90008040E1F704C0EFE3FCE93197F1F700C0C3
:101AA00000008D2F0E94230B88EF8C0D843020F4D2
:101AB0000E94AF1F0E94130ADD2089F00E94541279
:101AC00080FD0DC0F70115820E944E120E94460E45
:101AD000C7010E948C0D0E944E120E94560ECDB777
:101AE000DEB7E8E00C94EA250F931F93CF93DF93C2
:101AF000EC01688179818D810E94560F8C010E94D2
:101B0000930E0E94FE0DB801CE010E94A40BDF913E
:101B1000CF911F910F910895CF93DF93FC01248102
:101B20002223D1F0EC010E94700981110FC00E94A4
:101B30005812882389F08D81882371F080915E038B
:101B400082FF0AC082E00E94091306C0CE010E94F3
:101B5000740DCE010E944B09DF91CF9108950E9430
:101B60007F120E94AB120895809120019091210173
:101B70000E9445200E94AF0D08950E946F120E949E
:101B8000B40D089592959F70963079F010F49250AC
:101B900001C09A50923068F4803F69F018F4883E92
:101BA00040F409C0843F29F406C0883E20F0813FFC
:101BB00011F080E0089581E00895FC012481222342
:101BC00039F0808191810E944B0F0E94C20D0895CF
:101BD00080E00895A6E0B0E0E0EFFDE00C94D425AD
:101BE0002696E2E00C94F025A7E0B0E0EAEFFDE0F5
:101BF0000C94D4252796E2E00C94F02508950895DE
:101C00000E94FF0D08950E94000E08950E94030E89
:101C1000909388018093870108950E94060E08958D
:101C20002091870130918801822B932B0E94060E10
:101C300008952091870130918801822393230E9487
:101C4000060E0895209187013091880182279327FD
:101C50000E94060E08950E94FF0D08950E942B0E0B
:101C60009093860180938501089580E090E00E9422
:101C70002E0E089521E030E0A90102C0440F551F47
:101C80008A95E2F7CA010E942E0E089521E030E005
:101C900002C0220F331F8A95E2F78091850190914F
:101CA0008601822B932B0E942E0E089521E030E0B6
:101CB00002C0220F331F8A95E2F72095309580915C
:101CC000850190918601822393230E942E0E089510
:101CD00021E030E002C0220F331F8A95E2F78091A5
:101CE000850190918601822793270E942E0E0895E8
:101CF0002091850130918601822B932B0E942E0E1C
:101D000008952091850130918601822393230E94BA
:101D10002E0E089520918501309186018227932708
:101D20000E942E0E08950895962F9770A1E001C08D
:101D3000AA0F9A95EAF793E0769567959A95E1F759
:101D4000660F771F660F771FFA01E60FF71F40E057
:101D500050E0682F70E090819B01042E02C0369500
:101D600027950A94E2F72170219529272A2329270C
:101D700021934F5F5F4F4430510569F70895FB0190
:101D8000782F777023E0969587952A95E1F7880F4D
:101D9000991F880F991FE80FF91F40E050E080E07D
:101DA000219130E0072E02C0369527950A94E2F77C
:101DB00021703327042E01C0220F0A94EAF7822BE8
:101DC0004F5F5F4F4430510559F70895282F862FF4
:101DD000973060F4273050F4622F70E027E0929F34
:101DE000600D711D112449E651E007C09C5F9230DF
:101DF00030F4622F70E045E651E00E94940E0895A1
:101E0000292F973058F4873048F490E069E671E064
:101E100037E0239F800D911D112406C02C5F2230D6
:101E200030F465E671E090E00E94BF0E089580E016
:101E30000895A0E0B0E0EFE1FFE00C94CD257C0137
:101E40000091850110918601809187019091880110
:101E5000082B192BCFE0D0E0CC24C394D12CC601A1
:101E60000C2E02C0880F991F0A94E2F78023912359
:101E7000892B21F4219798F7B12C07C0BC2EB7010C
:101E80008C2F0E9414160197A9F38B2DCDB7DEB7C6
:101E9000E9E00C94E925CF93DF93EC010E94190F40
:101EA000BE010E941416DF91CF9108951F93CF9326
:101EB000DF93EB0190916401992321F0CB010E9403
:101EC0004B0F13C0882349F0CB010E94190F182F24
:101ED000682FCE010E94E60E04C0CB010E94000FC5
:101EE000182FBE01812F0E941416DF91CF911F91F0
:101EF00008951F93CF93DF93C091890117E08091DC
:101F00008A01C817A1F0D0E01C9FF0011D9FF00DC1
:101F10001124E557FE4F2081318142815381648134
:101F2000758186810E94F40D2196C770E8CFDF91FC
:101F3000CF911F9108952091C3013091C401409128
:101F4000C5015091C6016091C7017091C80180918F
:101F5000C9010E94F40D0895CF93DF938091C901C8
:101F600082958F7009F04EC08091C801882309F4D2
:101F700049C08091890140918A015091C4016091CA
:101F8000C301C091C501D091C60177E08417D1F19A
:101F900090E0789FF001799FF00D1124DF01A557A3
:101FA000BE4F14962C911497222349F111962C912F
:101FB0001197251324C02C91261321C015962C911E
:101FC000159721111CC012962D913C9113972C1B33
:101FD0003D0B283C310598F48091C9018F708061D8
:101FE0008093C901EF56FE4F80818F70806180839E
:101FF00083EC91E00E948C0D0E94790F03C0019642
:102000008770C4CFDF91CF9108952091890190917D
:102010008A0157E02917A9F030E0529FF001539F41
:10202000F00D1124E557FE4F7181761306C07081C3
:10203000781303C07581741306C02F5F3F4F27705C
:10204000E9CF80E0089581E00895A4E1B0E0EBE2FB
:10205000F0E10C94CA258C0186E0F801DE011F96A0
:1020600001900D928A95E1F7F8018481E58093EC67
:10207000A92E91E0B92E9091C701911118C0882323
:1020800009F480C1EE20D9F1C8010E94DD0DF82EBF
:102090008823A9F187E0F801D50101900D928A9576
:1020A000E1F7C5010E94930A0E94AC0F98C0F801A5
:1020B000C080D18082809380F090C8012091C501BA
:1020C0003091C601A401421B530BFF2009F406C145
:1020D000483C510508F0AFC0882309F455C18091F0
:1020E000C901282F207F9091C401222361F09D1502
:1020F00009F462C0C8010E94DD0D811173C0C801DE
:102100000E948C0D3FC19D1115C09091C3019C117F
:1021100011C0E1100FC08F7080618093C9010E94CF
:102120009B0F83EC91E00E948C0D8091C901F80116
:10213000868326C1E1103AC040E06D2D8C2D0E94AF
:10214000051040E06D2D8C2D0E940510E82E8111A8
:1021500017C1CF86D88A8F8598890E944B0F292F67
:1021600022952F70243020F49F70223028F009C06F
:102170002A50223080F014C0992349F0811107C001
:1021800013C0992321F0F8019681907F69F0805E59
:10219000883030F409C0803F38F0815F833020F010
:1021A000C8010E948C0DEF2CFE2CEEC08091C9015D
:1021B00081608093C901E4C09091C3019C119ACFC2
:1021C000E11098CFF8018683C8010E948C0D87E04A
:1021D000F801A3ECB1E001900D928A95E1F70E941D
:1021E0009B0FD2C0EE2009F48ACF2091C901822F23
:1021F00082958F7090E002978CF08091C30190914E
:10220000C401998788879B868A868091C7018C87BD
:102210001D862E87CE0108960E948C0D87E0F8015E
:10222000A3ECB1E001900D928A95E1F70E94AC0F0A
:102230000E949B0FA7C09091C901292F207FA1F474
:10224000682D9A8A898AA6017A899E2D0E94EA0DB4
:1022500083EC91E00E948C0D87E0F50111928A9544
:10226000E9F70E949B0F8CC0882309F48DC08091F0
:10227000C4018D1111C08091C3018C110DC0E110FA
:102280000BC0F8019683C8010E948C0D87E0F50110
:1022900011928A95E9F778C0C8010E94DD0D882364
:1022A00009F42DCFEE2009F42ACF2091C901822F05
:1022B00082958F7090E002970CF4B0CF8091C301AB
:1022C0009091C4019A8389839C828B828091C701FB
:1022D0008D831E822F83CE0101969ECF483C5105EF
:1022E00008F040C0882309F44DC0FE2CEE2009F40C
:1022F00006CF8091C4018D1127C08091C3018C113C
:1023000023C09091C90190FD16C0892F82958F70CE
:10231000282F30E02115310571F0F80196832F3018
:10232000310509F451CF8F5F982F9295907F868168
:102330008F70892B48CF87E0F801A3ECB1E00190C2
:102340000D928A95E1F720C0C8010E94DD0D811130
:1023500065CF8091C90181608093C901C8010E9445
:102360008C0D12C0682D9A8A898AA6017A899E2DC1
:102370000E94EA0D87E0F50111928A95E9F72FCFC7
:10238000F12C02C0FF24F3948F2D6496ECE00C94A2
:10239000E625AEE0B0E0EFECF1E10C94D325288720
:1023A00039874A875B876C877D878E87CE01089641
:1023B0000E942510882361F06C856623A9F1288589
:1023C00039854A855B857D858E850E94F40D2CC0FC
:1023D00087E0FE013896DE01119601900D928A95F4
:1023E000E1F76C85662301F120918A0130E0C90193
:1023F0000196877099274091890150E084179507CD
:10240000E1F16D8397E0929FD001939FB00D11246D
:10241000A557BE4FFE01319601900D929A95E1F7B6
:1024200080938A010E94790F17E080918901909131
:102430008A01891779F1189FC001112485579E4F91
:102440000E942510882331F1E09189011E9FF0013F
:102450001124E557FE4F20813181428153816481EF
:10246000758186810E94F40D8091890190E001962A
:102470008770992780938901D8CF0E94BD0D109253
:102480008A0110928901E3ECF1E087E0DF011D92FF
:102490008A95E9F72E96E3E00C94EF258091CA0126
:1024A00086958695869508958091CA0187700895CE
:1024B0009091CA01977081E009F480E008958091BD
:1024C000D60108959091D601892B8093D601089565
:1024D00080959091D60189238093D601089510921A
:1024E000D60108959091D501892B8093D501089547
:1024F00080959091D50189238093D50108951092FC
:10250000D501089508950E94821208950E948312B1
:1025100008959091CC01292F2823821729F0982B18
:102520009093CC010E94861208959091CC01292F9E
:10253000282331F0809589238093CC010E94861254
:1025400008958091CC01882329F01092CC0180E07D
:102550000E9486120895E0912001F091210180915E
:10256000D6018083E0912001F0912101908180913A
:10257000D501892B80838091CC01882381F0E09163
:102580002001F09121019081892B8083809120018D
:10259000909121010E94FD1F81110E94A112809142
:1025A0002001909121010E94BC1F08950E94821277
:1025B00008950E94D61208959091CB01292F2823C7
:1025C00031F0809589238093CB010E94D912089520
:1025D0000E948212089590915E0392FF11C098E0CC
:1025E000899F90011124262B2093CA010E94460E38
:1025F0008091CA018695869586950E94E812089575
:102600000E94460E08951092CA0180E00E94E812CE
:1026100008959091CA01809589238093CA01282F3B
:10262000277069F4981759F090915E0392FF07C0E4
:102630008695869586950E94560E0E9403130895EE
:10264000CF9390915E0392FB222720F92817F9F08F
:10265000C82F892FC0FB82F980935E0380915D03B0
:1026600090915E030E947C1382E00E940913809186
:10267000EC0180FF0CC01F92CF938EE393E09F93F9
:102680008F930E949C060F900F900F900F90CF9108
:10269000089580915E0382FB882780F991E0892765
:1026A0000E942013089581E00E942013089580E085
:1026B0000E94201308956FEF7FEF80E090E00E946A
:1026C0005D26089580E090E00E94292621E0863E64
:1026D0009E4F09F020E0822F089582E090E00E9452
:1026E0002126089583E090E00E942126089584E049
:1026F00090E00E9429260895BC0184E090E00E94A9
:102700005D260895AB01BC018FE090E00E94512648
:102710000895AB01BC0183E190E00E945126089529
:1027200060E070E0CB010E948913089560E070E0E2
:10273000CB010E9482130E9490130895A8E0B0E09C
:10274000E4EAF3E10C94D42566EE7EEF80E090E0BD
:102750000E945D2660E082E090E00E943F2660E0FB
:1027600083E090E00E943F2610928801109287013A
:1027700060E074E184E090E00E945D2660E086E025
:1027800090E00E943F266FEF87E090E00E943F2696
:1027900040E050E0BA0188E090E00E94512660E0FD
:1027A00084E290E00E943F2660E087E190E00E9492
:1027B0003F2660E08CE090E00E943F2660E08DE0E4
:1027C00090E00E943F2619821A821B821C821D8281
:1027D0001E821F82188648E050E068E170E0CE015A
:1027E00001960E942F2640E050E0BA0180E290E07E
:1027F0000E9451260E9496132896E2E00C94F02540
:102800000E949E130895682F8EE090E00E943F265C
:102810000895A6E0B0E0EFE0F4E10C94D2250E9428
:10282000D3208C018091D7019091D8010817190706
:1028300081F019821A820E94D320682F49815A811F
:10284000792F80E090E00E94600A1093D8010093F5
:10285000D7012696E4E00C94EE250E94DF206093D9
:10286000E8017093E9018093EA019093EB01609392
:10287000E4017093E5018093E6019093E7010895E8
:102880000E94DF206093E8017093E9018093EA01E0
:102890009093EB016093E0017093E1018093E2017A
:1028A0009093E301089581E0089581E008950E94E6
:1028B0005514089508950E945A1408950E945A14B8
:1028C00008950E945E1408950E945A1408950E946B
:1028D000641408950E945A1408958FE992E20E94A8
:1028E000A51F0E946A140E94671408950E945B1439
:1028F0000E945A1408950E9415170E94120A089502
:102900000E94CA200E94F31C0E9424180E947B147B
:1029100080E00E9425190E9461140895A6E0B0E0AD
:10292000E4E9F4E10C94CB250E945314811104C016
:102930000E94091410E054C00E943A1889EDE82E54
:1029400081E0F82E670100E0F60111916F01802F00
:102950000E94331781270F5F073019F08823A1F3F6
:1029600002C0882329F38091EC0181FD0E94391770
:102970000E945714A82E10E099249394812F0E944E
:102980003317B82EF701C080C82609F100E0DD2416
:10299000D3948C2D8D21A9F0AA2099F009831A8354
:1029A0000E94D3209C838B839D8291E08B2D8D216F
:1029B00009F490E049815A816B817C818D810E946C
:1029C000600A0F5FDD0C073021F7F701B0821F5F4F
:1029D000FFEFEF1AFF0A173089F60E942D1411E05D
:1029E0000E94101D882319F00E94401411E00E94DB
:1029F000D61B11110E94911A0E94250A2696EBE01F
:102A00000C94E7251F93CF93DF930E941916EC01D6
:102A1000C11582E5D807C8F5C11590E5D90708F0BA
:102A2000BBC0C83ED105C0F4C03ED10508F0DDC032
:102A3000C53AD10550F4C430D10508F0D6C021976D
:102A400009F0D0C081E090E0D1C0CD3CD10508F4C0
:102A5000C9C0CE019065CAC0C11580E4D80708F08E
:102A60005AC0C11590E2D90708F0AFC0C11581E086
:102A7000D80708F4B7C08D2F0E94B516182FCE01C5
:102A800099270E9419161F71ABC0C03892E5D9076B
:102A900020F5C03682E5D80708F061C0C03492E561
:102AA000D90708F04AC0C03282E5D807F0F54C2FAC
:102AB0004695469590E2499FA0011124C37021E0FC
:102AC00030E0C90102C0880F991FCA95E2F7EA01F8
:102AD000C82BD92BCE019D6889C0C03C92E5D9078F
:102AE00068F48C2F8F71C03AD24508F04CC090E04A
:102AF000D82FCC27CE01846F906A78C0C03E82E583
:102B0000D80708F06FC0CF71DD27DC2FCC27CE01AE
:102B1000806F906A6BC0CE0199270E941916CC274E
:102B2000DF70D06A8C2B9D2B61C0CF71D0E0DC2F81
:102B3000CC27CE01816F906A59C08C2F8F718695FA
:102B4000869590E2899F90011124C37081E090E006
:102B500002C0880F991FCA95E2F79C6811C08C2F9C
:102B60008F718695869590E2899F90011124C3709C
:102B700081E090E002C0880F991FCA95E2F79A6839
:102B8000822B932B33C00E94B5168F7190E0D82F03
:102B9000CC27CE0190622AC08C2F8F710E94B5166F
:102BA00095E0D695C7959A95E1F7CF70D0E0DC2FE8
:102BB000CC27282F30E084FF05C084E0220F331F8C
:102BC0008A95E1F7D069CE01DBCF8D2F8F710E94FE
:102BD000B516182FCE0199270E9419161F71906201
:102BE000912B04C080E090E001C0CE01DF91CF9135
:102BF0001F910895462F672F773028F4473088F4C7
:102C00000E94D90808957D3F21F441110AC041E096
:102C100004C07C3F31F4411104C060E00E94F2081E
:102C2000089580E090E008950E94FA150E94021530
:102C300008958238910569F1B0F48133910509F462
:102C400075C048F48932910509F467C08A3291054C
:102C500009F471C008958533910509F459C0893389
:102C60009105B9F00895833E910589F138F4803ECD
:102C70009105D1F0823E910529F10895863E910596
:102C8000C9F1873E9105D9F1843E910509F06CC0E8
:102C900027C020915D0320FD57C021FD55C0209124
:102CA0005E0323FD5BC0089580915D0380FD48C0F5
:102CB00080915E0380FF48C080915D0384FD46C023
:102CC00083EE51C080915D0382FF3CC0F5CF8091BF
:102CD0005D0382FD37C080915E0380FD35C0ECCF7F
:102CE00080915E0381FF36C080915D0384FD2EC01C
:102CF00087EE39C080915D0383FF2AC0F5CF8091B4
:102D00005D0383FD25C080915E0381FD23C0ECCF70
:102D100080915D0385FD22C01FC080915D0385FD0C
:102D20001BC080915E0383FF19C00AC080915D03C0
:102D300086FD16C017C080915D0386FD13C010C0CC
:102D400089E311C082EE0FC080EE0DC080E00BC0A1
:102D500086EE09C084EE07C085E305C089E203C0A2
:102D60008AE201C081E390E0089590915D0392FFB3
:102D70000DC0282F2871283019F4877F846006C081
:102D8000282F2471243011F48B7F886093FF0DC0AD
:102D9000282F2871283119F4877E846106C0282FD6
:102DA0002471243111F48B7E886120915E0320FF11
:102DB0000DC0382F3871383019F4877F816006C014
:102DC000382F3171313011F48E7F886021FF0DC0B2
:102DD000282F2871283119F4877E816106C0282F99
:102DE0002171213111F48E7E886194FD877E0895D2
:102DF0000E945B1308950E943A182FEF86E791E036
:102E0000215080409040E1F700C000000E943A1835
:102E100080E00E94331780FF04C00E94F8160E94D1
:102E2000202108950E94FB1608950E9462138111CB
:102E300002C00E9400140E946D138093EC010E9456
:102E4000771390935E0380935D030E9412170E9494
:102E5000721390E00E940D0E809185019091860181
:102E60000E942B0E0895E82FF0E0EA59FC4F808174
:102E70000895A0E0B0E0EFE3F7E10C94CE2582E600
:102E800093E00E94030686E6E82E83E0F82EC0E079
:102E9000D0E09DE5C92E93E0D92E05E513E0DF9340
:102EA000CF93DF92CF920E949C068AE593E00E9426
:102EB0000306F70181917F010E94ED091F928F9314
:102EC0001F930F930E949C0683E593E00E940306E4
:102ED00021968DB79EB708960FB6F8949EBF0FBE89
:102EE0008DBFC730D105D9F6CDB7DEB7E8E00C9479
:102EF000EA2580EA8A95F1F7089500C008950E94B6
:102F00007917089508950E94821708950E948317E3
:102F100008950E94821708950E9489170895F894D1
:102F2000E82FE295EF70F0E031A1282F2F7081E0BB
:102F300090E001C0880F2A95EAF7982F9095932387
:102F400091A392A1892B82A3789408950F931F9344
:102F5000CF93DF93CAE3D1E089918F3F11F00E94B4
:102F60008F1781E0C134D807B9F7C3E3D1E00AE392
:102F700011E089918F3F11F00E948F170C171D07E8
:102F8000C1F7DF91CF911F910F910895A0E0B0E0BC
:102F9000ECECF7E10C94CE258C01C62FD0E0CE01ED
:102FA000865C9E4F7C01FC0190819F3F09F447C0E5
:102FB000D62EF894E92FE295EF70F0E081A19F7092
:102FC00021E030E001C0220F9A95EAF7822B81A31D
:102FD00082A12095282322A378940E947D17E3E301
:102FE000F1E04AE351E031E0C12C21912F3F89F01B
:102FF000A22FA295AF70B0E090968C9190E02F70C8
:1030000002C0959587952A95E2F780FD02C0832F2F
:1030100001C080E0C82A330F4E175F0731F7F70170
:1030200080818F3F11F00E948F1761E0C11001C0B5
:1030300060E08D2D0E947F17C00FD11FC882CDB7D1
:10304000DEB7E8E00C94EA250E94A61787E0E6E6E2
:10305000F3E0DF01982F1D929A95E9F7EFE5F3E091
:10306000DF011D928A95E9F787E00E9475180E949A
:103070008C170895A7E0B0E0E0E4F8E10C94D125C6
:103080008E010F5F1F4F87E0F80111928A95E9F7D3
:10309000F12C6F2DC8010E94C617F394F7E0FF12C0
:1030A000F8CF47E050E0B8018FE593E00E94042696
:1030B00021E0009709F420E0892B41F087E0F80136
:1030C000AFE5B3E001900D928A95E1F747E066E63F
:1030D00073E08FE593E00E947618182F0E94861700
:1030E000812F2796E5E00C94ED250895EF92FF924D
:1030F0000F931F93CF93DF937C018B01C42F222367
:1031000049F081E08093EF010E94D3209093EE017B
:103110008093ED018091EF01811102C080E01AC01F
:103120008091ED019091EE010E94EB200597B0F3A4
:10313000D0E0AE01B701C8010E940426892B39F006
:10314000AE01B701C8010E94112681E001C080E0F4
:103150001092EF01CDB7DEB7E6E00C94EC250E94AB
:1031600050210E9480140E94612108950E947020C5
:103170000E9440210E946D140E94AF180E946F218E
:103180000E947614FBCFAB0124E630E0BC0188E757
:103190000E94591F21E0892B09F020E0822F089519
:1031A000EF92FF920F931F93CF93DF93EC017B017C
:1031B00064E670E088E70E94B71E8C01EC0EFD1EED
:1031C000CE15DF0541F40E94A11F81E00115110514
:1031D00069F080E00BC017FDF6CFFE01849164E634
:1031E00070E00E942A1F8C012196EACFCDB7DEB78E
:1031F000E6E00C94EC250F931F939B0104E610E08E
:10320000AC0160E488E70E947A1F21E0892B09F075
:1032100020E0822F1F910F9108950E94B11E089502
:10322000EDE6F3E080E092E0DF019C011D92215089
:103230003040E1F7F0937205E09371058FEF9FEF57
:1032400090931C0280931B020895CF930E94FF0766
:103250000E940F088093170280FD02C080E801C021
:1032600080E2809316020E940D196BE070E08DE7FA
:1032700094E00E94D018C82F811103C081E694E029
:103280000FC08091170265E070E081FD0CC08CE5F5
:1032900094E00E94D018C82F81110FC086E394E0FB
:1032A0000E9403062FC081E394E00E94D018C82F2B
:1032B000811103C089E194E0F3CF6DE070E08CE010
:1032C00094E00E94D018C82F811103C085EF93E0CD
:1032D000E7CF0E94DF20DC01CB01805A9541AF4F40
:1032E000BF4F80936D0590936E05A0936F05B093CB
:1032F00070050E94101981E080931A0280931902D0
:10330000109218028C2FCF9108952091160236E06A
:10331000839FC0011124629F800D911D112481158E
:1033200022E0920714F080E090E083599C4F909344
:103330007205809371050895209171053091720591
:103340002756334040911602642F70E0C9010E9455
:103350009625481B463010F4240F311D211582E0BC
:10336000380710F020E030E023593C4F30937205CD
:103370002093710508951F93CF93DF93162F8A3002
:1033800011F481E003C08D3021F480E00E94331AF3
:1033900066C0C0917105D091720596E0FE01A0EF64
:1033A000B1E001900D929A95E1F7803E30F086E011
:1033B000FE0111928A95E9F70BC0F6E08F9FB001EC
:1033C000112468577B4F46E050E0CE010E94FB2558
:1033D000111135C0C0917105D091720546E050E0E1
:1033E000BE0180EF91E00E940426892BB1F1CD56F9
:1033F000D3409E0185E0369527958A95E1F781E0D7
:1034000090E0AC0102C0440F551F2A95E2F72091CD
:103410001B0230911C02242B352B259645E0D695B6
:10342000C7954A95E1F702C0880F991FCA95E2F740
:10343000822B932B90931C0280931B020EC0E09171
:103440007105F09172059F012A5F3F4F2E173F07CC
:1034500009F2808180958193F9CF0E949C19DF91B8
:10346000CF911F910895CF93E82F2091710530914E
:1034700072052D56334040911602642F70E0C90149
:103480000E949625481B842FEE2359F066E00E9487
:103490008A25C82FC150B0F060E080E20E94BB19BD
:1034A000F9CFA901480F511D4115524018F080E095
:1034B00020E030E0280F311D23593C4F3093720536
:1034C00020937105CF910895FF920F931F93CF938F
:1034D000DF93EC01F62EFC0101900020E9F78F014B
:1034E00001501109C017D10728F46F2D89910E944E
:1034F000BB19F8CFCDB7DEB7E5E00C94ED251F93EF
:10350000CF93DF93EC01162FFE018491882329F0DD
:10351000612F0E94BB192196F7CFDF91CF911F91A8
:10352000089580911A02882321F10E94DF20DC0196
:10353000CB01805A9541AF4FBF4F80936D0590935B
:103540006E05A0936F05B0937005809119028111EB
:1035500010C062E070E08CE993E00E94D018811105
:1035600005C088E893E00E94030603C081E08093D1
:103570001902809119020895A0E0B0E0E2ECFAE1AE
:103580000C94C62580911B0290911C02892B09F492
:10359000EAC080911A02882309F4E5C080911802DC
:1035A0008111E1C00E94911A20911B0230911C02EE
:1035B0002115310509F4D7C090E041E050E0C92F52
:1035C000D0E08A01092E02C0000F111F0A94E2F711
:1035D000B80162237323672B11F49F5FF0CF8091B2
:1035E00017029E01F5E0220F331FFA95E1F780FFE5
:1035F00013C0E5E036952795EA95E1F7220F220FF3
:10360000220F2093240110922701295F2093250186
:1036100083E08093280111C0220F232F221F330B38
:1036200031959295990F90769093240120932701DC
:10363000915E909325012093280167E070E082E27B
:1036400091E00E94C318882309F483C08091170277
:1036500080FF64C080E2E6EFF1E0DF011D928A9511
:10366000E9F76E0155E0CC0CDD1C5A95E1F7A5E4B5
:10367000B1E061E4462E61E0562E89E491E07724C2
:1036800073942D91E20139912E01B601630F711DE2
:1036900063597C4F30E02A503E4FF90147E0A42E99
:1036A000AF01421B530B872C01C0880C4A95EAF7E7
:1036B0007B01912CE701B9907E01B8204A2D491970
:1036C0004770642E042E000C550BDB2D01C0DD0F5E
:1036D0006A94EAF76D2E5195419551094770552727
:1036E00001C0B6944A95EAF7BD2A4081B42AB08257
:1036F000939448E09412DECFAA943196CFEFAC12A7
:10370000CFCF8A179B0709F0BCCF60E270E086EF4D
:1037100091E00E94FB1881110FC021C0CE0125E06D
:10372000880F991F2A95E1F760E270E083599C4F5A
:103730000E94FB18882381F00095109580911B0250
:1037400090911C020823192310931C0200931B0262
:103750000AC082ED93E005C089EB93E002C08EE9D8
:1037600093E00E940306CDB7DEB7E0E10C94E225BA
:1037700080911A02909119028823A9F0992389F067
:1037800062E070E086E893E00E94D018811107C0E3
:1037900081E793E00E940306809119020895109238
:1037A00019029091190281E0892708950F931F93C0
:1037B00080911A02882319F160E080E00E94851947
:1037C0000E9401080E94BC1A809119028823B9F056
:1037D0000E94DF2000916D0510916E0520916F050C
:1037E00030917005DC01CB01801B910BA20BB30B58
:1037F0008F3F9F4FAF4FBF4710F40E94B81B1F91E0
:103800000F910895CF93DF93FC01DB0115968C9106
:10381000882309F4DDC09F0130572332310508F0B9
:10382000D8C0EF010E94771390935E0380935D03ED
:10383000FE01E150F047E232F10520F4E05CFF4F79
:103840000C94BE2580915D038160AAC080915E03C7
:103850008860B2C080915D038260A2C080915D03E8
:1038600020C080915D0388609BC080915E031EC074
:1038700080915E038260A0C080915D03806190C0F2
:1038800080915D0380628CC080915D03806488C0FC
:103890000E94BD0D80915D03806882C080915D03B0
:1038A000886084607DC080915E038260816084C096
:1038B00080915D038E7F74C080915E03877F7CC0A2
:1038C00080915D038D7F6CC080915D0320C08091ED
:1038D0005D03877F65C080915E031EC080915E039B
:1038E0008D7F6AC080915D038F7E5AC080915D0399
:1038F0008F7D56C080915D038F7B52C00E94BD0DAD
:1039000080915D038F774CC080915D03877F8B7FB3
:1039100047C080915E038D7F8E7F4EC080915D0396
:1039200082FB222720F991E0922790FB82F990FBFD
:1039300083F936C080915E03982F909591708E7FA9
:10394000892B90FB81F938C080915D0386FB22278B
:1039500020F991E0922790FB86F922C00E94BD0DCC
:1039600080915D0387FB222720F991E0922790FB4D
:1039700087F916C081E001C080E00E9403141EC0D8
:1039800080915D0384FB222720F991E0922790FB30
:1039900084F906C080915D03982F909590FB80F983
:1039A00080935D030BC080915E0383FB222720F987
:1039B00091E0922790FB83F980935E0380915D03F1
:1039C00090915E030E947C130E94BD0D80E001C0B7
:1039D00081E0DF91CF9108958FE891E00197F1F7B1
:1039E00000C00000089581E080931E0224982C9A64
:1039F00025982D9A0E94EC1C30911E02E0E2F2E024
:103A000090E0931761F083B1829581701D9902C097
:103A100020E001C022E0822B81939F5FF2CF0895C6
:103A2000A8E1B0E0E6E1FDE10C94C72510E000E07C
:103A300082E0982E94E0A92EB12C2DEF822E7724CF
:103A400073943CEF632E43E0542E80911E021817AE
:103A500008F0A5C0E12EF12CE3B1E295E1701D99CB
:103A600002C080E001C082E08E2BD701A05EBD4F76
:103A7000EC912E2F237030E0482F082E000C550BB0
:103A80002417350709F489C0EE0FEE0FE82BEC93ED
:103A9000EF70F0E0E75BFE4FC701815E9D4F6C0168
:103AA0009081F6018081890F80838430A4F1F70131
:103AB000E35EFD4F80818F5F80830E94D3201D874E
:103AC0006E86682F8F87988B598A7A8A412F5CEF90
:103AD000792F83E091E00E94600A8FE39CE90197CF
:103AE000F1F700C000000E94D3201B8B6C8A682F66
:103AF0008D8B9E8B5F8A188E412F5CEF792F83E030
:103B000090E00E94600AEFE3FCE93197F1F700C012
:103B1000000021E001C020E0F60180818D3F9CF58E
:103B2000F701E35EFD4F8081815080830E94D320A6
:103B300019838A82682F8B839C839D827E82412F8A
:103B40005DEF792F82E091E00E94600A8FE39CE9AB
:103B50000197F1F700C000000E94D3201F838886E0
:103B6000682F89879A879B861C86412F5DEF792F66
:103B700082E090E00E94600AEFE3FCE93197F1F700
:103B800000C0000021E0F6018081082E000C990B96
:103B9000B5010E94AA258083022B1F5F56CF802F7C
:103BA0006896EFE00C94E325CF93DF9386319C4732
:103BB00041F5EB010E945F12982F8D812091200129
:103BC00030912101882379F09A7A81E009F480E02C
:103BD00080932102911102C069E201C065E3C9012D
:103BE0000E943F200AC080912102811102C069E237
:103BF00001C065E3C9010E9442200E94AB1280E02F
:103C000001C081E0DF91CF9108950F931F93CF936F
:103C1000DF93C42FD22FFC0185818823B1F040931C
:103C200024020E94D320909323028093220280E2F8
:103C30008C0F883008F04DC0C77081E001C0880F3C
:103C4000CA95EAF70E94960B44C08091240248135B
:103C500030C080912202909123020E94EB20883C88
:103C6000910538F510E21D0FCD17B9F080E28C0FE9
:103C7000883040F4C77081E001C0880FCA95EAF728
:103C80000E949D0B183010F581E09D2F977001C0A8
:103C9000880F9A95EAF70E94960B802F0E948C0B52
:103CA0001830B8F4D77081E001C0880FDA95EAF7D0
:103CB0000AC080E28C0F883060F4C77081E001C0D8
:103CC000880FCA95EAF70E949D0B03C0802F0E94BF
:103CD0008C0BDF91CF911F910F9108950F93FC01F1
:103CE000E851FC47E730F10590F5CB01EE59FF4F65
:103CF0000C94BE2506E221EE41EE6AE17CE723C08A
:103D000007E225EE45EE6BE17CE71DC006E221EE01
:103D100040EE68E17CE717C007E225EE44EE69E17A
:103D20007CE711C006E221EE42EE6CE17CE70BC0BD
:103D300007E225EE46EE6DE17CE705C008E221E0F2
:103D400045EE6EE17CE70E94051E80E008C0FB01A5
:103D50008581882319F01092240201C081E00F911F
:103D600008951092B9008CE08093B8000895A0E007
:103D7000B0E0EDEBFEE10C94CB25B82EEB010E94F8
:103D8000D3206C01C431D10558F0CF3F8FEFD80755
:103D900059F0CE0164E170E00E9496257B0107C0D6
:103DA000EE24E394F12C03C025E0E22EF12C84E80C
:103DB000A82E94EA992E1092BC009092BC000E940A
:103DC000D3208C018091BC0087FD07C0C8010E94F0
:103DD000EB20E816F906B0F729C08091B900887F7A
:103DE000883041F08091B900887F803119F00FEF61
:103DF0001FEF1EC0B092BB00A092BC000E94D32057
:103E00008C018091BC0087FD07C0C8010E94EB2097
:103E1000E816F906B0F70AC08091B900887F8831AA
:103E200011F0803421F700E010E00EC00EEF1FEF1C
:103E3000CF3F8FEFD80709F4BECFC6010E94EB2019
:103E4000C817D90708F0B7CFC801CDB7DEB7EBE088
:103E50000C94E7250F931F93CF93DF93EB0180938F
:103E6000BB0084E88093BC000E94D3208C01809129
:103E7000BC0087FD0DC0CF3F8FEFD807C1F3C8014D
:103E80000E94EB20C817D90790F78EEF9FEF0CC068
:103E90002091B900287F81E090E0283211F480E081
:103EA00090E0919581959109DF91CF911F910F91AC
:103EB0000895A0E0B0E0EFE5FFE10C94CE256B01A2
:103EC0008A017901B9010E94B71EE6010C0D1D1D82
:103ED000C017D10741F424E92093BC00CDB7DEB769
:103EE000E8E00C94EA2597FDF6CFB70189910E948E
:103EF0002A1FEECFA0E0B0E0E0E8FFE10C94CE2571
:103F0000C62F6A017901B8010E94B71E97FD11C042
:103F1000B8018C2F0E942A1FE601EC0CFD1CCE1567
:103F2000DF0539F097FD05C0B80189910E942A1F6D
:103F3000F6CF24E92093BC00CDB7DEB7E8E00C94BF
:103F4000EA2584E98093BC00089590935B018093F7
:103F50005A01089590932602809325020895E091D6
:103F60002502F0912602309729F00190F081E02D92
:103F70000995089580E00895EF92FF920F931F93A3
:103F8000CF93DF93E0912502F0912602309781F1E3
:103F90008C010280F381E02D09958091EC0182FF74
:103FA00027C080FF04C080ED99E00E940306E8016D
:103FB00018E08AECE82E89E0F82E8091EC0180FF71
:103FC0000BC088811F928F93FF92EF920E949C06F4
:103FD0000F900F900F900F90115021961111EDCF6F
:103FE0008091EC0180FF04C088EC99E00E940306F8
:103FF000CDB7DEB7E6E00C94EC25FC01329697E0F5
:1040000080E0915029F021912223D9F38F5FF9CFDD
:104010000895662349F0FC013296089621916217B3
:1040200029F0E817F907D1F780E0089581E00895B5
:104030009C01FC0132969FEF80E04191461789F088
:104040009F3F19F4411101C0982F8F5F8630A9F767
:104050009F3F39F0F901E90FF11D97FDFA95628351
:10406000089508959C012A5F3F4FFC014281461349
:1040700001C01282019682179307B9F708950E9432
:10408000182008950E9432200895029626E0FC012F
:1040900011922A95E9F7089508950E944C200895F9
:1040A0000E944D2008950E944C2008950E944C20AB
:1040B00008950E944C200895CF930E9456200E949C
:1040C0003A180E945320C0E08C2F0E9433178111B0
:1040D00004C0CF5FC730C1F701C081E0CF91089520
:1040E00008951F920F920FB60F9211248F939F93F2
:1040F000AF93BF9380912702811113C08091730504
:1041000090917405A0917505B09176054196A11D19
:10411000B11D8093730590937405A0937505B093BA
:104120007605BF91AF919F918F910F900FBE0F9029
:104130001F90189580912A02882331F10E94E1098D
:104140001092270220E488E190E00FB6F894A89539
:10415000809360000FBE2093600083B7817F8460EE
:1041600083BF83B7816083BF7894889583B78E7F40
:1041700083BF0FB6F894A895809160008861809302
:104180006000109260000FBE08950E94BD0D0E9455
:10419000E809089582E084BD93E095BD9AEF97BD4C
:1041A00080936E0008952FB7F894809173059091D5
:1041B0007405A0917505B09176052FBF08952FB7AE
:1041C000F8946091730570917405809175059091D4
:1041D00076052FBF08959C014FB7F8948091730521
:1041E00090917405A0917505B09176054FBF821B23
:1041F000930B089578941F920F920FB60F9211248B
:104200008F939F93AF93BF938091730590917405A3
:10421000A0917505B09176050196A11DB11D809301
:10422000730590937405A0937505B0937605BF91BF
:10423000AF919F918F910F900FBE0F901F90189587
:1042400098E088E10FB6F894A895809360000FBEBF
:1042500090936000A895F894D8E0CEEF28E32993D6
:1042600020E0299314BEFFCF089598E088E10FB6AF
:10427000F894A895809360000FBE90936000FFCFE4
:104280000E94D320909329028093280290E080E836
:104290000FB6F89480936100909361000FBE08956B
:1042A0000E946F25539A80E0815041F0A895EFE974
:1042B000FFE03197F1F700C00000F6CF53987894F3
:1042C00008950E9410230E94AA1F2FEF80E792E01A
:1042D000215080409040E1F700C000000895809197
:1042E0009E05882389F010929E050E94D32090930A
:1042F00029028093280280912A028823D9F1109202
:104300002A020E94C52011C080912A02811111C089
:1043100080912802909129020E94EB20069728F0B4
:1043200081E080932A020E949A2080912A028823A9
:1043300009F10E949A200E945C20882309F43DC064
:10434000F8942AB15B9A822F8C608AB99BB18CE079
:1043500098279BB93FE748E391E0315040409040B7
:10436000E1F700C000009BB189278BB92AB95B989F
:10437000789408950E9478248091A405882329F0D8
:104380008091820584FD0E948E140E940B220E945F
:1043900078248091A405882329F080918E0584FDDE
:1043A0000E9493220E9478248091A405882329F0FA
:1043B0008091BB0584FD0E94B72208959FB7F894B1
:1043C00081E03091DC022091DB02321301C080E0F9
:1043D0009FBF08958091DA0208950F931F93CF93A2
:1043E000DF938C01D62FC6E08091BB0584FD05C00C
:1043F000C15049F00E947824F7CF6D2FC8010E9468
:10440000732481E001C080E0DF91CF911F910F9173
:10441000089508950895CF93DF93CAE0D0E0809186
:10442000820584FF3DC080915702909158029817F1
:1044300009F441C028E0829FC001112468E0875A36
:104440009D4F0E946E248091570290E001968F70DC
:104450009927809357022091EC0122FF2CC020FF66
:104460002AC040915802242F30E0281B390B4817EE
:1044700010F4205F3F4F3F932F931F924F939F93D2
:104480008F9381E79AE09F938F930E949C068DB74C
:104490009EB708960FB6F8949EBF0FBE8DBF0BC097
:1044A0000E9478248FE99FE00197F1F700C0000097
:1044B000219709F0B4CFDF91CF910895CF93DF9387
:1044C000EC01A0915802B0E0CD0101968F709927C0
:1044D00020915702281781F093E0AA0FBB1F9A95ED
:1044E000E1F7A75ABD4F98E0FE0101900D929A9511
:1044F000E1F78093580208C08091EC0180FF04C06E
:1045000085E69AE00E9403060E9478240E940B220E
:1045100088E0FE01AFE4B2E001900D928A95E1F7E8
:10452000DF91CF91089580912E02803239F460E2BC
:104530008FE292E00E94110810922E0208956FB748
:10454000F8949091DC02492F50E09A012F5F3F4F81
:104550002F7733277091DB02721731F0FA01E352A3
:10456000FD4F80832093DC026FBF80E00895A0E2BE
:10457000B0E0EDEBF2E20C94CE258091A405882307
:1045800009F44AC00E94DE21882309F445C08E0147
:104590000F5F1F4F80E2F80111928A95E9F77801C9
:1045A0006E01F9E0CF0ED11C0E94DE218823F1F0CC
:1045B000EC14FD04D9F03FB7F8948091DB029091A0
:1045C000DC02981304C09093DB0220E00AC090E064
:1045D000FC01E352FD4F208101968F77992780934C
:1045E000DB023FBFF70121937F01DECF7E01F1E2C5
:1045F000EF0EF11C68E0C8010E94ED21882329F02C
:10460000085F1F4F0E151F05A9F760E080E090E0DE
:104610000E94ED210E947824A096E8E00C94EA25FF
:1046200089E291E00895CF93DF93EC019881907631
:104630008091EC01903209F062C09981913099F437
:1046400080FF04C089E59AE00E9403068C819D8169
:10465000892B09F05AC08FE492E09093A0058093D3
:104660009F0588E05EC0923071F480FF04C08FE443
:104670009AE00E94030689ED92E09093A005809352
:104680009F0581E04EC09A3091F49B819093D902AE
:1046900080FF46C01F929F9380E49AE09F938F9380
:1046A0000E949C060F900F900F900F902EC0993093
:1046B00009F580FF04C084E39AE00E9403068A8122
:1046C0009B818115924051F58C819D81892B31F51B
:1046D0008091EC0180FF04C08BE29AE00E94030607
:1046E00081E080932D028E819F8190932C02809394
:1046F0002B0214C080FF14C082E29AE004C080FF45
:104700000FC08AE19AE00E9403068091EC0180FFCD
:1047100007C088E19AE00E94030602C08FEF01C043
:1047200080E0DF91CF910895CF93DF9320912B020A
:1047300030912C02232BF9F020912D022130D9F455
:10474000EC018091EC0180FF0DC088811F928F9356
:1047500089E09AE09F938F930E949C060F900F90A0
:104760000F900F9088818093DA0210922C021092A1
:104770002B0281E001C08FEFDF91CF910895683067
:1047800059F08091EC0180FF04C084EF99E00E9411
:10479000030610922E02089520912E02A22FB0E05F
:1047A000A931B1053CF08091EC0180FFF2CF82EE9F
:1047B00099E0EDCFFC01A15DBD4F089631913D938D
:1047C000E817F907D9F7285F20932E020895FC0116
:1047D00093819330B1F068F4913081F0923009F018
:1047E00059C08CE89AE09093A00580939F0582E6DB
:1047F0000895913201F1923291F14CC08EEE9AE01F
:1048000014C08281813079F030F0823009F042C0EA
:1048100080E09BE00AC088E29BE09093A005809333
:104820009F0584E0089584E19BE09093A005809328
:104830009F0582E108958281813049F028F082301D
:1048400049F587ED9AE005C08EE99AE002C087EB52
:104850009AE09093A00580939F0589E00895848154
:1048600095818130910571F028F0029799F48CE2DE
:104870009BE00AC080E79BE09093A00580939F0592
:1048800080E408958EE49BE09093A00580939F05BB
:1048900082E2089580E008951F93CF93DF93162F4F
:1048A000EA01288124FF05C0398128E823272983CC
:1048B00002C02AE52883212FFC01CE010296DC01EB
:1048C00031913D9321501216DCF3612F0E94BA06FC
:1048D0001C5F1883DF91CF911F91089542E855E046
:1048E0000E944C2408954BEB55E00E944C240895FF
:1048F000CF93DF936091A105635067FD93C08091D2
:104900009D05CCE0D0E0C81BD109CB55DA4F809192
:104910009C05803120F4CE010E94BF2381C08D32DE
:1049200009F06EC0683009F07BC083EC8093770596
:104930008AE58093320110929B058881807621F070
:10494000CE010E94132349C09A811092800589816B
:10495000811106C01092810520E835E082E038C060
:10496000853019F49093A20530C08630A1F48B8174
:10497000813041F0823031F0833021F0813211F00A
:10498000823221F4CE010E94E72301C080E090E44E
:1049900090939B0522C0883089F0893019F4909358
:1049A000A40513C08A3069F08B3079F48BE48093CE
:1049B00083058093BC0580938F0507C024EA35E00A
:1049C00002C020E835E081E003C020E835E080E067
:1049D0003093A00520939F0509C08F3F39F498813B
:1049E00097FD8E8190E890939B0507C09F81911160
:1049F00004C09E81981708F4892F8093310110C05C
:104A000080919B0587FF0CC0CE010E9494238F3FAD
:104A100021F48EE18093320103C0811110923101A3
:104A20001092A1058091320184FF4CC08091310128
:104A30008F3F09F447C0C82F893008F0C8E08C1BAD
:104A4000809331019091770588E8892780937705D5
:104A5000CC2359F180919F059091A00520919B0551
:104A600026FF12C0A7E7B5E02C2FAC0147575540F1
:104A7000FA01EA0FFB1FE4911196EC931197215074
:104A800011962111F5CF08C0E8E7F5E0DC012C2FE5
:104A90003D9131932150E1F701962FEF2C0F820FBA
:104AA000911D9093A00580939F056C2F88E795E05A
:104AB0000E94BA06CC5FCC3019F08FEF80933101A1
:104AC000C093320184E199B19C7031F48150D9F7DF
:104AD0001092A20510929A05DF91CF910895CF937D
:104AE000DF93E9E6F0E0808188608083E99AC2E89C
:104AF000D5E08BE48983ABEBB5E011968C931197ED
:104B0000EEE8F5E081838AE588838C938083DF91EA
:104B1000CF910895991B79E004C0991F961708F06A
:104B2000961B881F7A95C9F780950895AA1BBB1B11
:104B300051E107C0AA1FBB1FA617B70710F0A61B9D
:104B4000B70B881F991F5A95A9F780959095BC01BE
:104B5000CD01089597FB072E16F4009407D077FD3A
:104B600009D00E94962507FC05D03EF490958195CA
:104B70009F4F0895709561957F4F0895EE0FFF1F29
:104B80000590F491E02D09942F923F924F925F92FD
:104B90006F927F928F929F92AF92BF92CF92DF924D
:104BA000EF92FF920F931F93CF93DF93CDB7DEB7B2
:104BB000CA1BDB0B0FB6F894DEBF0FBECDBF099446
:104BC0002A88398848885F846E847D848C849B849D
:104BD000AA84B984C884DF80EE80FD800C811B81AB
:104BE000AA81B981CE0FD11D0FB6F894DEBF0FBEDA
:104BF000CDBFED010895FB01DC0102C005900D92CF
:104C000041505040D8F70895FB01DC0104C08D915C
:104C10000190801921F441505040C8F7881B990B2E
:104C20000895FB01DC0102C001900D9241505040FB
:104C3000D8F70895DC0101C06D9341505040E0F772
:104C40000895F999FECF92BD81BDF89A992780B554
:104C50000895A8E1B0E042E050E00C946526DC0144
:104C6000A40FB51F4150504048F0CB01840F951F51
:104C70002E910E94402641505040D0F70895262F93
:104C8000F999FECF92BD81BDF89A019700B4021642
:104C900039F01FBA20BD0FB6F894FA9AF99A0FBEF0
:104CA00008950396272F0E9440260E943F26252F15
:104CB0000E944026242F0C9440260196272F0E9404
:104CC00040260C943F26DC01CB01FC01F999FECF74
:104CD00006C0F2BDE1BDF89A319600B40D92415084
:0A4CE0005040B8F70895F894FFCF94
:104CEA004E6F204461746100000000000000000063
:104CFA0000000000000000000000000000000000AA
:104D0A00CD010021007F220003EA215E2209220A46
:104D1A0022FF5A30979695313233909194636061AD
:104D2A0062000810181810080000FF0100010000B6
:0A4D3A00FFFF0000010001FF000070
:00000001FF
