:100000000C94CE040C94EB040C9406050C94EB04B5
:100010000C94EB040C94EB040C94C2200C94EB04B1
:100020000C94EB040C94EB040C94EB040C94EB0494
:100030000C94EB040C94EB040C944B210C94EB0407
:100040000C94EB040C94EB040C94EB040C94EB0474
:100050000C94EB040C94EB040C94EB040C94EB0464
:100060000C94EB040C94EB04A209A209CE09CE096E
:10007000240A420A360B360B470ABD0ACE0ACE0ABC
:100080007D1CEF1C851C4F1C531C891C561C8C1C92
:10009000971C611CE51C651C9B1C691C9F1CC91CD2
:1000A0006D1CA31CD31C731CA91CB31C5A1C901CD4
:1000B0005D1C931C781CAE1CBF1CDF1CE11C4B1C80
:1000C000811CF81CAB1EB11E9F1EA51EB71EBD1EB7
:1000D000C31EB6B6B6B6B6B6B6B6B6B6B6B6B6B64B
:1000E000B695B596D5B6B680818283848586878895
:1000F000898A8B8C8D8E8F9091929394A0A1A2A3CC
:10010000A4A5A6A7A8A9AAABACADAEAFB0B1B2B337
:10011000B4C0C1C2C3C4C5C6C7C8C9CACBCCCDCE82
:10012000CFD0D1D2D3D400A900AA00010001000190
:10013000000100010001002B0014001A0008001546
:100140000017001C00215204001600070009000AD5
:10015000000B00E1003800E4001B00060019000558
:1001600000E000E2002252E6002C002C002C0000EF
:10017000003400A800130012000C0018000000E377
:10018000002A0028000F000E000D0000001D00E5F1
:1001900000370036001000110029001E001F00204B
:1001A0000021002200230001000100350031000180
:1001B0000001000100010001004F000100010001E9
:1001C00000010001000100510050004A0001004DF3
:1001D0000000000100010027002600250024000087
:1001E0000001004C003400330030002F00000001FB
:1001F00000520038002E002D00010001003A003BA3
:10020000003C003D003E003F0039000100010001BC
:1002100000010001000100010001000100010001D6
:1002200000010001000100010001000100010001C6
:1002300000010000000100010043004200410040B5
:1002400000000001000100010001000100010000A8
:100250000001000100010001000100010001000196
:100260000001000100010001000100010001000186
:100270000001000100010001000100010001000176
:100280000001000100010001000100010001000166
:100290000001000100000001000100010001000157
:1002A0000001000000010001000100010001000147
:1002B0000000000100010001000100010001000038
:1002C000AE00AF00DA0281FFD9F1DB20A4A62EAF89
:1002D00000A0C0D30000A1C8D30000AED580A81FE5
:1002E000408D1420000000000000003E5B4F5B3E8C
:1002F000003E6B4F6B3E001C3E7C3E1C00183C7E5B
:100300003C18001C577D571C001C5E7F5E1C0000C3
:10031000183C180000FFE7C3E7FF0000182418008E
:1003200000FFE7DBE7FF0030483A060E0026297998
:10033000292600407F05050700407F05253F005A1C
:100340003CE73C5A007F3E1C1C0800081C1C3E7FFA
:100350000014227F2214005F5F005F5F0006097FA8
:10036000017F00006689956A0060606060600094AB
:10037000A2FFA2940008047E04080010207E201032
:100380000008082A1C0800081C2A0808001E101073
:100390001010000C1E0C1E0C0030383E38300006C9
:1003A0000E3E0E060000000000000000005F00008E
:1003B00000000700070000147F147F1400242A7F28
:1003C0002A120023130864620036495620500000A8
:1003D0000807030000001C224100000041221C000D
:1003E000002A1C7F1C2A0008083E080800008070B4
:1003F00030000008080808080000006060000020C5
:1004000010080402003E5149453E0000427F400072
:10041000007249494946002141494D3300181412E0
:100420007F10002745454539003C4A494931004184
:100430002111090700364949493600464949291E14
:100440000000001400000000403400000000081408
:100450002241001414141414000041221408000254
:1004600001590906003E415D594E007C1211127C73
:10047000007F49494936003E41414122007F4141C8
:10048000413E007F49494941007F09090901003E79
:1004900041415173007F0808087F0000417F4100FF
:1004A000002040413F01007F08142241007F40406E
:1004B0004040007F021C027F007F0408107F003E46
:1004C0004141413E007F09090906003E4151215E3C
:1004D000007F091929460026494949320003017F56
:1004E0000103003F4040403F001F2040201F003FCD
:1004F0004038403F00631408146300030478040389
:10050000006159494D4300007F4141410002040808
:10051000102000004141417F00040201020400401C
:100520004040404000000307080000205454784039
:10053000007F284444380038444444280038444468
:10054000287E0038545454180000087E0902001810
:1005500024241C78007F080404780000447D4000B7
:10056000002040403D00007F102844000000417FF3
:100570004000007C04780478007C0804047800388B
:1005800044444438007C1824241800182424187C7F
:10059000007C080404080048545454240004043F18
:1005A0004424003C4040207C001C2040201C003C97
:1005B0004030403C004428102844004C9090907CEF
:1005C000004464544C4400000836410000000077A9
:1005D0000000000041360800000201020402003C55
:1005E0002623263C00000000000080C0E0F0F03030
:1005F0000000C060F0F0F0300080C020F0F0F0208B
:10060000000000000080C0E0703018B8F8F0000072
:10061000000000DC7E3FBEF0F0E0000000000000C3
:1006200080C0E070101818F8F06000000000C06092
:10063000F0F8F83000000080E0F0F8F8300000003A
:100640000080E0F0FCFF3F0F0100000080C0E0F000
:10065000F878000000000080C060309040203070CA
:10066000E0C000004040404040404040404040002A
:100670000000E0FEFFFEF8C00000000000E0FCFF0C
:10068000FEF0000000000000000000013EE080706D
:100690000E0100000000073CE08078070000000029
:1006A000000000000000180C06C3F9FE3FC77118D7
:1006B00006C3F07C1FC7711806C3F8FE3F0F018008
:1006C000C0F0F8FEDF47636030381E0F078140201E
:1006D00018060381F0FC7F1F0780C0E0F8FC3E0F86
:1006E00003010000000003018060100806E3FCFF26
:1006F0003F0701C0308CE3FF7F1F0380C030188CA0
:10070000E3F9FF3F070180C030180CC3F1FC7F0FF5
:100710000380C0F0FCFE3F0701003EC18080E0FC8A
:100720003F8F4040C0F0FC7E4E0000000000000003
:1007300000F8FFFF1F071FFFFEF0C0F8FF7F0F0745
:100740007FFFFEFC04047880000000C0380C1C60B1
:1007500080000000F00C04F41C80C0FCE6C3C1C1A2
:10076000C3E6FCC0800000383F3F1F07030000388D
:100770003E3F1F0E030000307F7F3F190C06030130
:100780000F1F3F7160607030180804020100000004
:1007900000387E7F3F3B18040301000F1F312020EB
:1007A00020201018080402010000001C3F7F7F3148
:1007B000180603183E3F3F1B0804020100001E3FBD
:1007C0003F3F10080402010000183E3F3F190C068D
:1007D0000301000F1F3160606030181C0F07030118
:1007E00001000000183C3C1C00000000000000005C
:1007F0001F1F1F0700000000031F1F0F0100000044
:1008000000071F1F1EF8000F70300EC138070E7052
:10081000831C601E03C03E01003F7FFFFFF9C0C084
:10082000F9FFFF7F3F09025B00030100A0FA090402
:100830000000010301010009210101000122400023
:1008400007058103080001090401000203000000FC
:10085000092101010001222200070584030800018B
:100860000705040308000109040200010300000059
:10087000092101010001227B000705830308000113
:10088000120110010000000837133173000101024A
:10089000000112034D0065007200630075007400D2
:1008A00069006F00000012034D00650063006800DE
:1008B000570069006C00640000000403090406602E
:1008C000FF0961A1010962150026FF009520750846
:1008D00081020963150026FF00952075089102C06A
:1008E00005010902A10185020901A10005091901FB
:1008F00029081500250195087501810205010930B7
:1009000009311581257F9502750881060938158101
:10091000257F950175088106050C0A380215812589
:100920007F950175088106C0C005010980A1018578
:100930000319012AB700150126B70095017510812A
:1009400000C0050C0901A101850419012AA00215A6
:100950000126A002950175108100C005010906A1BC
:1009600001050719E029E7150025019508750181A2
:10097000029501750881030507190029FF15002656
:10098000FF009506750881000508190129059505E0
:1009900075019102950175039103C00011241FBEDA
:1009A000CFEFD8E0DEBFCDBF11E0A0E0B1E0ECE2D8
:1009B000FBE402C005900D92A23DB107D9F725E0F6
:1009C000A2EDB1E001C01D92AC3CB207E1F70E947C
:1009D0007A160C9494250C940000A82FB92F80E06F
:1009E00090E041E050EA609530E009C02D91822707
:1009F0009795879510F084279527305EC8F36F5F31
:100A0000A8F30895EADF8D939D930895CF93CFB710
:100A1000CF93DF93C3954B9BE9F74B9B10C04B9B48
:100A20000EC04B9B0CC04B9B0AC04B9B08C04B9B02
:100A300006C0C091A305C395C093A3058EC06F9354
:100A4000C091A205DD27C655DA4F2F9365E54B9B74
:100A500003C02F916F91E1CF0F931F934F9320E02D
:100A600040E15F9309B10C7003FB27F93F9350E01D
:100A70003BE039C01C7040642F77012F5F5F1EC0C0
:100A8000406819B11C702F7752501FC0406409B1E3
:100A90002F770C70D1F15F5F00C023C0406219B1A5
:100AA0002F771C7091F15F5F00C025C00C7010277C
:100AB000515012F45D5F0000115027952C3F19B181
:100AC000C8F61C700127015027952C3FC8F6422715
:100AD000499309B10C7010274F73115027952C3F83
:100AE000A8F64695469519B11C7079F0012701507A
:100AF00027952C3F98F66B5A60F3315009B1B0F648
:100B000000C012E01CBB00271CC03B503195C31B2A
:100B1000D04012E01CBB0881033C21F10B3411F1E1
:100B200020919F051981110F1213EDCF4A81441FA7
:100B3000093679F10D3211F0013E29F74F7009F0B5
:100B4000042F0093A8053F915F914F911F910F9142
:100B50002F916F91CCB3C1FD5DCFDF91CF91CFBF0E
:100B6000CF9118952091A805222369F31091A6052D
:100B7000112309F049C034300AF448C03093A60567
:100B80002093A1051091A2053BE0311B3093A205F3
:100B90003DC00091A6050130BCF50AE54F7049F44F
:100BA00030911A0134FD33C000931A01CCE7D5E02F
:100BB00032C0433059F0443091F03091870534FD14
:100BC00026C000938705C8E8D5E025C03091C00550
:100BD00034FD1DC00093C005C1ECD5E01CC03091B0
:100BE000930534FD14C000939305C4E9D5E013C008
:100BF000052710E000C000000BB91AC0052710E05F
:100C0000221F1DC010E021C04AE502C032ED432F73
:100C1000C4E1D0E032E01AB11C605B9A0BB11AB9A2
:100C20005CE020E865E320FF05270BB927951795C1
:100C30001C3FF0F66695B8F7B1F720FF05270BB912
:100C4000279517951C3FD0F62795179517FF052771
:100C500000001C3F0BB9B0F629913A9519F7037FB4
:100C60001091A705110FC651D0400BB911F0109388
:100C70009F0512E01CBB08601AB1137F402F437F11
:100C800054E05A95F1F70BB91AB94BB95CCF82E031
:100C90000895CF930E947106C82F882329F060E041
:100CA00082ED90E00E94BC1A8C2FCF91089582E0D3
:100CB0000895CF93DF93FC012081213079F4EC017A
:100CC0000E945F190E94F41A60E08BE191E00E949B
:100CD000A11A60E0CE0101960E94A11ADF91CF9186
:100CE00008958091D40181110CC00E945F190E9467
:100CF000F41A60E086E291E00E94A11A81E08093FC
:100D0000D40180E008958430B0F46730A0F4473017
:100D100090F491E3899FF001112487E0689FE00D32
:100D2000F11D1124E40FF11DEE0FFF1FE95CFE4FD2
:100D300085919491089581E090E008950E94830642
:100D40000895843088F461110FC0E82FF0E0EE0FB1
:100D5000FF1F81E04827E40FF11DEE0FFF1FE95D43
:100D6000FE4F85919491089581E090E008950E944E
:100D7000A106089581E0089581E008950E94BC06CF
:100D800008950E94BE0608950E94BC060895089525
:100D90000E94C7060895A6E0B0E0E1EDF6E00C94ED
:100DA000FB2449835A839E833091DA0189819A8199
:100DB000311115C03E81332359F0222349F00E949E
:100DC000070D182F682F89819A810E94D40C03C0C7
:100DD0000E94EE0C182F69817A81812F04C00E9435
:100DE000070D69817A810E94FB132696E3E00C943B
:100DF0001725FC01262F40815181628173818481F6
:100E000095810E94CB060895CF93DF93EC0161E0BA
:100E10000E94F906BE010E94C106DF91CF9108959C
:100E2000CF93DF93EC0160E00E94F906BE010E94BF
:100E3000C806DF91CF91089508950E94AB0B0E94E0
:100E40001C072FEF84E39CE0215080409040E1F7A5
:100E500000C0000008950E941D070E94712108959E
:100E60000E941D070E94862108950F931F93CF9320
:100E7000DF938C0161E00E94F906EC01B8010E9449
:100E8000C406882309F442C0B801CE010E94931E13
:100E90008823E1F1B801CE010E94271C8823B1F11B
:100EA000B801CE010E94F91D882381F1F8018581E6
:100EB000882341F1C3308CE7D807D1F040F4C11545
:100EC000FCE7DF0791F0C130DC47A1F01BC0CB3558
:100ED000ECE7DE07A9F0CC35FCE7DF0771F0CA3597
:100EE000DC4781F40E942D110DC00E942B070EC01B
:100EF0000E9435110E94300709C00E94231102C0D0
:100F00000E943111C8010E94BA0601C080E0DF9141
:100F1000CF911F910F9108950E94A1200E94B507C3
:100F20000E94E11B08950E94B9070E94AA2008951B
:100F3000089581E008950895CF93DF93D82F0E94FC
:100F40009907C82F882319F08D2F0E949B078C2F9B
:100F5000DF91CF9108950895CF93C82F0E949807ED
:100F60008C2F0E949C07CF91089580E00E94AC07CF
:100F700008950E94D41F0E94AC070895CF930E9449
:100F8000D41FC82F8091D501C81779F0C093D5011F
:100F90000E9430216093D6017093D7018093D801CD
:100FA0009093D9018C2F0E94AC07CF910895ADE0AA
:100FB000B0E0EDEDF7E00C94FC24488759876A8790
:100FC0007B878C879D8791110E946D10CE010196C1
:100FD00027E0FC0111922A95E9F726E0FE013896F8
:100FE000DC0101900D922A95E1F72D8121110AC0B3
:100FF00029813A814B815C816D817E818F810E9444
:10100000B70F04C00E9404078111F2CF2D96E2E0D1
:101010000C941825FC012481213021F480819181D8
:101020000E94390D0895662319F00E94FF1602C030
:101030000E945A170E94D1170895CF93882309F46C
:10104000A4C0C82F8238C1F40E94D41F81FD9DC066
:1010500069E380910001909101010E9486200E9425
:1010600099102FEF87EE93E0215080409040E1F7F8
:1010700000C0000069E319C0833801F50E94D41F45
:1010800080FD83C063E580910001909101010E9481
:1010900086200E9499102FEF81EE94E0215080402D
:1010A0009040E1F700C0000063E58091000190915D
:1010B00001010E9489200E94991067C08438C1F400
:1010C0000E94D41F82FD61C067E48091000190916D
:1010D00001010E9486200E9499102FEF81EE94E07A
:1010E000215080409040E1F700C0000067E4DDCF70
:1010F0008CEF8C0F813AD0F46C2F8091000190918D
:1011000001010E945020882349F06C2F809100013A
:10111000909101010E9489200E9499106C2F80916A
:101120000001909101010E948620C5CF80E28C0FC2
:10113000883048F4C77081E001C0880FCA95EAF78B
:101140000E945010B8CFEBE5EC0FE33040F4F0E034
:10115000E059FE4F808190E00E94FA1F16C0E8E53A
:10116000EC0FEB3150F4F0E0EE0FFF1FE65CFE4FAA
:10117000808191810E941F2008C083E38C0F8331FE
:1011800020F461E08C2F0E941308CF9108958823EA
:1011900009F468C0823879F40E94D41F81FF62C0CC
:1011A00069E380910001909101010E9486200E94D4
:1011B000991069E310C08338B9F40E94D41F80FFEE
:1011C00051C063E580910001909101010E94862049
:1011D0000E94991063E580910001909101010E94A5
:1011E00089200E9499100895843879F40E94D41FB0
:1011F00082FF38C067E480910001909101010E9454
:1012000086200E94991067E4E6CF9CEF980F913AF0
:1012100010F4682FE0CF90E2980F983050F4877068
:1012200091E001C0990F8A95EAF7892F0E94561024
:10123000D8CF9BE5980F933028F480E090E00E948F
:10124000FA1F089598E5980F9B3128F480E090E00C
:101250000E941F20089593E3980F933118F460E0E3
:101260000E94130808951F93CF93DF93182FEB016B
:101270000E941D08209741F08FE99FE00197F1F748
:1012800000C000002197F6CF812F0E94C708DF9190
:10129000CF911F910895893319F06AE070E002C080
:1012A00060E570E00E9433090895882321F00E94D0
:1012B00050100E9499100895882321F00E94561022
:1012C0000E9499100895A0E0B0E0E9E6F9E00C94DE
:1012D000F6247C01162FC72FFC01D58106810295CB
:1012E0000F700E9446108823E9F0DD23D9F08C2F7F
:1012F000807F803451F080E2810F883098F00111B6
:1013000004C08C2F807E803269F08091630382FF5D
:1013100009C082E00E94F7100E94461091E0D82E8A
:10132000D92601C0D12CCC2EC2948FE0C8228C2D9E
:1013300090E08C30910508F099C1FC01EC5CFF4F06
:101340000C94E6248C2F807FCF70882311F0C295F7
:10135000C07FDD2399F0CC2309F46FC180E2810FB7
:10136000883010F0111104C08C2F0E94501003C05F
:101370008C2F0E9460100E9499105FC1812F0E94E3
:10138000C708CC2309F472C180E2810F883038F19C
:10139000112329F18C2F0E94661024C08C2F807F8E
:1013A000CF70803211F0C295C07F112319F0113037
:1013B00099F13CC08091630382FD17C0DD2349F0A1
:1013C000CC2329F08C2F0E9450100E94991080E0AD
:1013D00035C180E00E94C708CC2309F447C18C2F97
:1013E0000E9456100E94991041C1DD2349F000234C
:1013F00009F1013009F03AC18C2F0E94771036C1F3
:10140000011134C18C2F0E945C098C2F0E94831023
:101410008C2F0E94CA102AC1DD2321F0063008F06B
:1014200025C108C0053008F021C10AC0DD2331F014
:10143000011103C18C2F0E94550918C1011103C16C
:101440008C2F0E945C0912C18C2F86958695837023
:1014500019F0813061F00AC1DD2321F0812F9C2F2A
:10146000937002C080E090E00E94FA1F07C1DD2364
:1014700021F0812F9C2F937002C080E090E00E94A9
:101480001F20FCC06D2F812F0E941308F7C08C2FE6
:101490008370B1F5D111EEC0412F4295469547704A
:1014A000440F440F812F8F7090E09C01042E02C0E6
:1014B000220F331F0A94E2F714FF0AC08FE090E076
:1014C00002C0880F991F4A95E2F78095909502C057
:1014D00080E090E0C695C695C370822B932BC230F6
:1014E00049F058F4C13019F00E94070CC3C00E94A3
:1014F000FE0BC0C00E94100CBDC00E94FB0BBAC006
:10150000DD2319F08C2F817001C08695882309F4A2
:10151000B1C0412F429546954770440F440F812F2B
:101520008F7090E09C01042E02C0220F331F0A949A
:10153000E2F714FF0AC08FE090E002C0880F991F05
:101540004A95E2F78095909502C080E090E0C695BC
:10155000C695C370822B932BC23049F058F4C1302A
:1015600019F00E946F0C86C00E94660C83C00E9416
:10157000780C80C00E941C0C7DC0CF70DD2339F038
:101580008C2F0E94340C812F0E94550973C0812F2B
:101590000E945C098C2F0E94440C6CC0123F21F108
:1015A00028F4103F41F0113FC1F043C0133F19F13F
:1015B000143F79F03EC0DD2341F0053008F056C0FD
:1015C0008C2F8F710E94560C51C0063008F04EC00F
:1015D000F7CF8091630382FD18C0DD2339F08C2F93
:1015E0008F710E94340C42C0DD23C9F38C2F8F71A0
:1015F0000E94440C3BC0DD2329F08C2F8F710E9488
:10160000280C34C00E94230C31C0DD2349F0CF7177
:101610008C2F0E94340C63E08C2F0E94D91026C0BE
:1016200081E00E94F710023008F182E00E94F7107A
:101630001DC0DD2331F0002391F2812F0E941D088F
:1016400015C0002399F2193341F4FFEF27EE83E030
:10165000F15020408040E1F704C0EFE3FCE931970E
:10166000F1F700C00000812F0E94C70888EF8C0DA1
:10167000843020F40E94D41F0E94AC07DD2089F042
:101680000E94421080FD0DC0F70115820E943C109F
:101690000E94340CC7010E946E0B0E943C100E94F5
:1016A000440CCDB7DEB7E8E00C9412250F931F93DE
:1016B000CF93DF93EC01688179818D810E94440D85
:1016C0008C010E94810C0E94EC0BB801CE010E949B
:1016D0006309DF91CF911F910F910895CF93DF930D
:1016E000FC0124812223D1F0EC010E9435078111F5
:1016F0000FC00E944610882389F08D81882371F0E5
:101700008091630382FF0AC082E00E94F71006C046
:10171000CE010E94560BCE010E941007DF91CF919F
:10172000089580E090E00E94FA1F80E090E00E941F
:101730001F200E946D100E9499100E94F0170E94B5
:10174000D117089580910001909101010E948C2091
:101750000E94910B08950E945D100E94A20B0895B3
:1017600092959F70963079F010F4925001C09A5083
:10177000923068F4803F69F018F4883E40F409C064
:10178000843F29F406C0883E20F0813F11F080E0BC
:10179000089581E00895FC012481222339F080819D
:1017A00091810E94390D0E94B00B089580E0089548
:1017B000A6E0B0E0EEEDFBE00C94FC242696E2E01F
:1017C0000C941825A7E0B0E0E8EEFBE00C94FC24B4
:1017D0002796E2E00C941825089508950E94ED0BD9
:1017E00008950E94EE0B08950E94F10B9093FE0164
:1017F0008093FD0108950E94F40B08952091FD014E
:101800003091FE01822B932B0E94F40B08952091BE
:10181000FD013091FE01822393230E94F40B089571
:101820002091FD013091FE01822793270E94F40B45
:1018300008950E94ED0B08950E94190C9093FC01ED
:101840008093FB01089580E090E00E941C0C0895B5
:1018500021E030E0A90102C0440F551F8A95E2F74C
:10186000CA010E941C0C089521E030E002C0220F42
:10187000331F8A95E2F78091FB019091FC01822B46
:10188000932B0E941C0C089521E030E002C0220F2F
:10189000331F8A95E2F7209530958091FB01909156
:1018A000FC01822393230E941C0C089521E030E068
:1018B00002C0220F331F8A95E2F78091FB019091BD
:1018C000FC01822793270E941C0C08952091FB01A4
:1018D0003091FC01822B932B0E941C0C08952091C7
:1018E000FB013091FC01822393230E941C0C08957C
:1018F0002091FB013091FC01822793270E941C0C50
:1019000008950895962F9770A1E001C0AA0F9A95A7
:10191000EAF793E0769567959A95E1F7660F771F5A
:10192000660F771FFA01E60FF71F40E050E0682FBF
:1019300070E090819B01042E02C0369527950A9491
:10194000E2F72170219529272A23292721934F5F28
:101950005F4F4430510569F70895FB01782F777088
:1019600023E0969587952A95E1F7880F991F880FB0
:10197000991FE80FF91F40E050E080E0219130E02E
:10198000072E02C0369527950A94E2F72170332777
:10199000042E01C0220F0A94EAF7822B4F5F5F4F9B
:1019A0004430510559F70895282F862F973060F459
:1019B000273050F4622F70E027E0929F600D711D78
:1019C00011244FED51E007C09C5F923030F4622F3C
:1019D00070E04BED51E00E94820C0895292F973062
:1019E00058F4873048F490E06FED71E037E0239FC2
:1019F000800D911D112406C02C5F223030F46BED58
:101A000071E090E00E94AD0C089580E00895A0E0A0
:101A1000B0E0EDE0FDE00C94F5247C010091FB01C9
:101A20001091FC018091FD019091FE01082B192B72
:101A3000CFE0D0E0CC24C394D12CC6010C2E02C040
:101A4000880F991F0A94E2F780239123892B21F4B0
:101A5000219798F7B12C07C0BC2EB7018C2F0E949C
:101A600015140197A9F38B2DCDB7DEB7E9E00C94DF
:101A70001125CF93DF93EC010E94070DBE010E9458
:101A80001514DF91CF9108951F93CF93DF93EB014E
:101A90009091DA01992321F0CB010E94390D13C0F6
:101AA000882349F0CB010E94070D182F682FCE0123
:101AB0000E94D40C04C0CB010E94EE0C182FBE0172
:101AC000812F0E941514DF91CF911F9108951F93CC
:101AD000CF93DF93C091FF0117E080910002C817F8
:101AE000A1F0D0E01C9FF0011D9FF00D1124EF5FCD
:101AF000FD4F2081318142815381648175818681CE
:101B00000E94E20B2196C770E8CFDF91CF911F9121
:101B100008952091390230913A0240913B02509150
:101B20003C0260913D0270913E0280913F020E9412
:101B3000E20B0895CF93DF9380913F0282958F70DF
:101B400009F04EC080913E02882309F449C080917B
:101B5000FF014091000250913A0260913902C09118
:101B60003B02D0913C0277E08417D1F190E0789F5E
:101B7000F001799FF00D1124DF01AF5FBD4F149686
:101B80002C911497222349F111962C91119725132A
:101B900024C02C91261321C015962C911597211144
:101BA0001CC012962D913C9113972C1B3D0B283C89
:101BB000310598F480913F028F70806180933F02DD
:101BC000E95FFD4F80818F708061808389E392E0BF
:101BD0000E946E0B0E94670D03C001968770C4CFF0
:101BE000DF91CF9108952091FF019091000257E07D
:101BF0002917A9F030E0529FF001539FF00D1124F6
:101C0000EF5FFD4F7181761306C07081781303C0BA
:101C10007581741306C02F5F3F4F2770E9CF80E0B6
:101C2000089581E00895A4E1B0E0E9E1FEE00C94BC
:101C3000F2248C0186E0F801DE011F9601900D92DE
:101C40008A95E1F7F8018481E58099E3A92E92E075
:101C5000B92E90913D02911118C0882309F480C1DA
:101C6000EE20D9F1C8010E94CB0BF82E8823A9F1F0
:101C700087E0F801D50101900D928A95E1F7C50141
:101C80000E940A080E949A0D98C0F801C080D18075
:101C900082809380F0903E0220913B0230913C0282
:101CA000A401421B530BFF2009F406C1483C510517
:101CB00008F0AFC0882309F455C180913F02282F56
:101CC000207F90913A02222361F09D1509F462C0B1
:101CD000C8010E94CB0B811173C0C8010E946E0B1A
:101CE0003FC19D1115C0909139029C1111C0E110A6
:101CF0000FC08F70806180933F020E94890D89E33D
:101D000092E00E946E0B80913F02F801868326C10B
:101D1000E1103AC040E06D2D8C2D0E94F30D40E0A3
:101D20006D2D8C2D0E94F30DE82E811117C1CF86E9
:101D3000D88A8F8598890E94390D292F22952F7076
:101D4000243020F49F70223028F009C02A5022301D
:101D500080F014C0992349F0811107C013C0992362
:101D600021F0F8019681907F69F0805E883030F430
:101D700009C0803F38F0815F833020F0C8010E94A5
:101D80006E0BEF2CFE2CEEC080913F0281608093A1
:101D90003F02E4C0909139029C119ACFE11098CF94
:101DA000F8018683C8010E946E0B87E0F801A9E361
:101DB000B2E001900D928A95E1F70E94890DD2C0A0
:101DC000EE2009F48ACF20913F02822F82958F70F6
:101DD00090E002978CF08091390290913A029987B5
:101DE00088879B868A8680913D028C871D862E87F8
:101DF000CE0108960E946E0B87E0F801A9E3B2E0DD
:101E000001900D928A95E1F70E949A0D0E94890D2A
:101E1000A7C090913F02292F207FA1F4682D9A8AB4
:101E2000898AA6017A899E2D0E94D80B89E392E0C7
:101E30000E946E0B87E0F50111928A95E9F70E94E6
:101E4000890D8CC0882309F48DC080913A028D11D0
:101E500011C0809139028C110DC0E1100BC0F80146
:101E60009683C8010E946E0B87E0F50111928A9556
:101E7000E9F778C0C8010E94CB0B882309F42DCF65
:101E8000EE2009F42ACF20913F02822F82958F7095
:101E900090E002970CF4B0CF8091390290913A0211
:101EA0009A8389839C828B8280913D028D831E82DE
:101EB0002F83CE0101969ECF483C510508F040C0CB
:101EC000882309F44DC0FE2CEE2009F406CF809142
:101ED0003A028D1127C0809139028C1123C0909154
:101EE0003F0290FD16C0892F82958F70282F30E019
:101EF0002115310571F0F80196832F30310509F471
:101F000051CF8F5F982F9295907F86818F70892B0C
:101F100048CF87E0F801A9E3B2E001900D928A95DD
:101F2000E1F720C0C8010E94CB0B811165CF8091E1
:101F30003F02816080933F02C8010E946E0B12C075
:101F4000682D9A8A898AA6017A899E2D0E94D80BCB
:101F500087E0F50111928A95E9F72FCFF12C02C0A5
:101F6000FF24F3948F2D6496ECE00C940E25AEE0E4
:101F7000B0E0EDEBFFE00C94FB24288739874A871B
:101F80005B876C877D878E87CE0108960E94130E33
:101F9000882361F06C856623A9F1288539854A85F7
:101FA0005B857D858E850E94E20B2CC087E0FE015B
:101FB0003896DE01119601900D928A95E1F76C85B5
:101FC000662301F12091000230E0C901019687707B
:101FD00099274091FF0150E084179507E1F16D8347
:101FE00097E0929FD001939FB00D1124AF5FBD4F3A
:101FF000FE01319601900D929A95E1F780930002CF
:102000000E94670D17E08091FF01909100028917EF
:1020100079F1189FC00111248F5F9D4F0E94130E0C
:10202000882331F1E091FF011E9FF0011124EF5F41
:10203000FD4F208131814281538164817581868188
:102040000E94E20B8091FF0190E001968770992732
:102050008093FF01D8CF0E94AB0B10920002109228
:10206000FF01E9E3F2E087E0DF011D928A95E9F7DD
:102070002E96E3E00C941725809140028695869574
:10208000869508958091400287700895909140024E
:10209000977081E009F480E0089580914C020895E2
:1020A00090914C02892B80934C02089580959091D9
:1020B0004C02892380934C02089510924C0208959B
:1020C00090914B02892B80934B02089580959091BB
:1020D0004B02892380934B02089510924B0208957E
:1020E00008950E94701008950E94711008959091B3
:1020F0004202292F2823821729F0982B909342021D
:102100000E947410089590914202292F282331F0E3
:1021100080958923809342020E94741008958091D3
:102120004202882329F01092420280E00E9474103B
:102130000895E0910001F091010180914C028083AB
:10214000E0910001F0910101908180914B02892B77
:10215000808380914202882381F0E0910001F09118
:1021600001019081892B8083809100019091010170
:102170000E94442081110E948F1080910001909153
:1021800001010E94E11F08950E94701008950E94AD
:10219000C410089590914102292F282331F0809591
:1021A0008923809341020E94C71008950E947010F5
:1021B00008959091630392FF11C098E0899F900168
:1021C0001124262B209340020E94340C809140025F
:1021D0008695869586950E94D61008950E94340CA7
:1021E00008951092400280E00E94D61008959091C8
:1021F00040028095892380934002282F277069F43C
:10220000981759F09091630392FF07C086958695C1
:1022100086950E94440C0E94F110089590916303EA
:1022200092FB222720F9281769F080FB92F99093FE
:10223000630380916203909163030E94561182E0D0
:102240000E94F71008958091630382FB882780F92C
:1022500091E089270E940E11089581E00E940E11DD
:10226000089580E00E940E1108956FEF7FEF80E0E7
:1022700090E00E947E25089580E090E00E944A252B
:1022800021E0863E9E4F09F020E0822F089582E0F3
:1022900090E00E944225089583E090E00E9442254C
:1022A000089584E090E00E944A250895BC0184E0EE
:1022B00090E00E947E250895AB01BC018FE090E084
:1022C0000E9472250895AB01BC0183E190E00E9459
:1022D0007225089560E070E0CB010E9463110895BB
:1022E00060E070E0CB010E945C110E946A110895C9
:1022F000A8E0B0E0EEE7F1E10C94FC2466EE7EEF9E
:1023000080E090E00E947E2560E082E090E00E9404
:10231000602560E083E090E00E9460251092FE015D
:102320001092FD0160E074E184E090E00E947E255F
:1023300060E086E090E00E9460256FEF87E090E02B
:102340000E94602540E050E0BA0188E090E00E94E1
:10235000722560E084E290E00E94602560E087E101
:1023600090E00E94602560E08CE090E00E94602593
:1023700060E08DE090E00E94602519821A821B8245
:102380001C821D821E821F82188648E050E068E190
:1023900070E0CE0101960E94502540E050E0BA0165
:1023A00080E290E00E9472250E9470112896E2E07F
:1023B0000C9418250E9478110895682F8EE090E003
:1023C0000E9460250895A6E0B0E0E9EEF1E10C94EA
:1023D000FA240E9424218C0180914D0290914E029A
:1023E0000817190781F019821A820E942421682F88
:1023F00049815A81792F80E090E00E94D70710939D
:102400004E0200934D022696E4E00C9416250E949D
:10241000302160935E0270935F028093600290931C
:10242000610260935A0270935B0280935C02909306
:102430005D0208950E94302160935E0270935F02F6
:1024400080936002909361026093560270935702EA
:102450008093580290935902089581E0089581E095
:1024600008950E942F12089508950E94341208952D
:102470000E94341208950E94381208950E94341266
:1024800008950E943E1208950E943412089589EF23
:1024900094E10E94CA1F0E9444120E9441120895B2
:1024A0000E9435120E94341208950E9418150E944D
:1024B000AB0708950E941B210E94181D0E94E81579
:1024C0000E94551280E00E9474190E943B120895E8
:1024D000A6E0B0E0EEE6F2E10C94F3240E942D12A7
:1024E000811104C00E94E31110E054C00E94FE1547
:1024F0008FE4E82E82E0F82E670100E0F6011191EA
:102500006F01802F0E94361581270F5F073019F069
:102510008823A1F302C0882329F38091620281FD00
:102520000E943C150E943112A82E10E09924939429
:10253000812F0E943615B82EF701C080C82609F1F8
:1025400000E0DD24D3948C2D8D21A9F0AA2099F0F0
:1025500009831A830E9424219C838B839D8291E0AE
:102560008B2D8D2109F490E049815A816B817C810A
:102570008D810E94D7070F5FDD0C073021F7F7012F
:10258000B0821F5FFFEFEF1AFF0A173089F60E9433
:10259000071211E00E94351D882319F00E941A12BB
:1025A00011E00E94FB1B11110E94CE1A0E9412180A
:1025B0000E94BE072696EBE00C940F251F93CF9345
:1025C000DF930E941A14EC01C11580E5D807E8F5E5
:1025D000C11590E4D90708F0A8C0C03ED10530F578
:1025E000CD3CD10508F094C0C83AD10578F4C53A7D
:1025F000D10508F083C0C130D10509F47CC008F4CE
:10260000F2C0C430D10508F0F1C0EDC0C33CD10523
:1026100008F0E9C0C85AD0E0CC0FDD1FCD58DE4F1E
:102620000990D881C02DCE019464E1C0C11580E22B
:10263000D80708F0CBC0C11591E0D90708F06BC0EE
:10264000C83ED10508F4D2C0CEC0C03682E5D80756
:1026500028F5C03492E5D90708F079C0C03282E588
:10266000D80708F06CC0C11592E5D90708F481C0FD
:102670004C2F4695469580E2489FA0011124C370D7
:1026800021E030E0C90102C0880F991FCA95E2F726
:10269000EA01C82BD92BCE019D68A9C0C03A82E5BA
:1026A000D807B8F48C2F8F71C03892E5D90708F09D
:1026B0007BC08695869590E2899F90011124C37016
:1026C00081E090E002C0880F991FCA95E2F79A68EE
:1026D00068C0C03C82E5D80708F46DC0C03E92E5F2
:1026E000D90708F080C0CF71DD27DC2FCC27CE01C1
:1026F000806F906A7CC081E090E079C0C55AD0E0DC
:10270000C755DE4F8881C82FD0E0CE0190646FC0DE
:10271000CE0190656CC08D2F0E94B614182FCE018B
:1027200099270E941A141F715CC0CE0199270E943C
:102730001A14CC27DF70D06A8C2B9D2B58C0CF7118
:10274000D0E0DC2FCC27CE01816F906A50C08C2F57
:102750008F718695869590E2899F90011124C370B0
:1027600081E090E002C0880F991FCA95E2F79C684B
:1027700018C08C2F8F710E94B61495E0D695C7951E
:102780009A95E1F7CF70D0E0DC2FCC27282F30E0EE
:1027900084FF05C084E0220F331F8A95E1F7D069DA
:1027A000CE01822B932B23C090E0D82FCC27CE01D3
:1027B000846F906A1CC08C2F8F710E94B6148F7129
:1027C00090E0D82FCC27CE01906211C08D2F8F7151
:1027D0000E94B614182FCE0199270E941A141F7157
:1027E0009062912B04C080E090E001C0CE01DF91A7
:1027F000CF911F910895462F672F773028F44730E7
:1028000088F40E949E0608957D3F21F441110AC07C
:1028100041E004C07C3F31F4411104C060E00E94FB
:10282000B706089580E090E008950E94FB130E948F
:10283000DE1208958238910569F1B0F48133910573
:1028400009F475C048F48932910509F467C08A32E9
:10285000910509F471C008958533910509F459C0B3
:1028600089339105B9F00895833E910589F138F4D3
:10287000803E9105D1F0823E910529F10895863E72
:102880009105C9F1873E9105D9F1843E910509F082
:102890006CC027C02091620320FD57C021FD55C0A8
:1028A0002091630323FD5BC008958091620380FD46
:1028B00048C08091630380FF48C08091620384FD1B
:1028C00046C083EE51C08091620382FF3CC0F5CFC9
:1028D0008091620382FD37C08091630380FD35C023
:1028E000ECCF8091630381FF36C08091620384FD49
:1028F0002EC087EE39C08091620383FF2AC0F5CFD6
:102900008091620383FD25C08091630381FD23C014
:10291000ECCF8091620385FD22C01FC080916203CD
:1029200085FD1BC08091630383FF19C00AC080919D
:10293000620386FD16C017C08091620386FD13C036
:1029400010C089E311C082EE0FC080EE0DC080E0A0
:102950000BC086EE09C084EE07C085E305C089E29E
:1029600003C08AE201C081E390E008959091620380
:1029700092FF0DC0282F2871283019F4877F8460BA
:1029800006C0282F2471243011F48B7F886093FFB8
:102990000DC0282F2871283119F4877E846106C064
:1029A000282F2471243111F48B7E886120916303D8
:1029B00020FF0DC0382F3871383019F4877F8160BF
:1029C00006C0382F3171313011F48E7F886021FFBD
:1029D0000DC0282F2871283119F4877E816106C027
:1029E000282F2171213111F48E7E886194FD877E1C
:1029F000089580E008950E94351108950E94FE1503
:102A00002FEF86E791E0215080409040E1F700C031
:102A100000000E94FE1580E00E94361580FF04C071
:102A20000E94FB140E94712108950E94FE140895D3
:102A30000E943C11811102C00E94DA110E944711CC
:102A4000809362020E94511190936303809362030A
:102A50000E9415150E944C1190E00E94FB0B809182
:102A6000FB019091FC010E94190C0895E82FF0E001
:102A7000E559FC4F80810895089580EA8A95F1F721
:102A8000089500C008950E943D15089508950E947C
:102A9000461508950E94471508950E944615089509
:102AA0000E944D150895F894E82FE295EF70F0E03C
:102AB00031A1282F2F7081E090E001C0880F2A9566
:102AC000EAF7982F9095932391A392A1892B82A343
:102AD000789408950F931F93CF93DF93C3EBD1E0C6
:102AE00089918F3F11F00E94531581E0CA3BD807AE
:102AF000B9F7CCEAD1E003EB11E089918F3F11F0F7
:102B00000E9453150C171D07C1F7DF91CF911F913C
:102B10000F910895A0E0B0E0E0E9F5E10C94F6240F
:102B20008C01C62FD0E0CE018D549E4F7C01FC015C
:102B300090819F3F09F447C0D62EF894E92FE29583
:102B4000EF70F0E081A19F7021E030E001C0220F22
:102B50009A95EAF7822B81A382A12095282322A3AC
:102B600078940E944115ECEAF1E043EB51E031E04A
:102B7000C12C21912F3F89F0A22FA295AF70B0E018
:102B800090968C9190E02F7002C0959587952A952C
:102B9000E2F780FD02C0832F01C080E0C82A330F16
:102BA0004E175F0731F7F70180818F3F11F00E94C8
:102BB000531561E0C11001C060E08D2D0E944315E6
:102BC000C00FD11FC882CDB7DEB7E8E00C94122544
:102BD0000E946A1587E0EBE6F3E0DF01982F1D9273
:102BE0009A95E9F7E4E6F3E0DF011D928A95E9F7AB
:102BF00087E00E9439160E9450150895A7E0B0E0C2
:102C0000E4E0F6E10C94F9248E010F5F1F4F87E09A
:102C1000F80111928A95E9F7F12C6F2DC8010E94F5
:102C20008A15F394F7E0FF12F8CF47E050E0B801BF
:102C300084E693E00E942C2521E0009709F420E02F
:102C4000892B41F087E0F801A4E6B3E001900D92F2
:102C50008A95E1F747E06BE673E084E693E00E9433
:102C60003A16182F0E944A15812F2796E5E00C94FA
:102C700015250895EF92FF920F931F93CF93DF9343
:102C80007C018B01C42F222349F081E080936502EF
:102C90000E942421909364028093630280916502D4
:102CA000811102C080E01AC0809163029091640299
:102CB0000E943C210597B0F3D0E0AE01B701C801F6
:102CC0000E942C25892B39F0AE01B701C8010E9462
:102CD000392581E001C080E010926502CDB7DEB7F2
:102CE000E6E00C9414250E94A1210E945A120E9431
:102CF000B22108950E94C1200E9491210E94471292
:102D00000E9473160E94C0210E945012FBCF809136
:102D10006C0280FF06C06091070170E0660F771FAC
:102D200026C081FF04C06091070184E005C082FFD6
:102D300007C06091070188E0689FB001112417C0A7
:102D400090916B029923D1F060910601961788F754
:102D50002091070188E0289F90011124929FA001F3
:102D6000939F500D112470E0CA010E94D224603854
:102D7000710540F46115710519F406C068E070E052
:102D8000862F08958FE7089581E0089580916C0261
:102D900080FF08C06091030170E075956795759597
:102DA000679521C081FF06C06091030170E07595B1
:102DB000679519C082FF04C06091030170E010C0E4
:102DC00090916A02992399F0609102019617A0F7F9
:102DD00080910301899FC001112470E00E94D224D8
:102DE0006038710540F46115710519F406C061E0A1
:102DF00070E0862F08958FE7089581E008958D3C57
:102E000021F40E948716819504C08E3C29F40E940B
:102E100087168093700208958F3C21F40E948716D4
:102E2000819504C0803D29F40E94871680936F022B
:102E30000895893D19F40E94C61605C08A3D31F4F3
:102E40000E94C61681958093710208958B3D21F4EE
:102E50000E94C616819504C08C3D29F40E94C616B6
:102E60008093720208959FE2980F983078F421E0E1
:102E700030E0A90102C0440F551F9A95E2F7CA013C
:102E800090916E02892B80936E0208958D3D21F4FE
:102E900080916C0281600BC08E3D21F480916C02A8
:102EA000826005C08F3D29F480916C02846080931C
:102EB0006C0208958D3C39F49091700297FF35C0F3
:102EC0001092700259C08E3C29F49091700219162C
:102ED000BCF32BC090916F028F3C29F497FF25C063
:102EE00010926F0249C0803D19F41916CCF31DC031
:102EF00090917102893D29F41916BCF41092710267
:102F00003BC08A3D19F497FF10C0F8CF8B3D39F4D0
:102F10009091720297FF09C0109272022DC08C3DF1
:102F200021F4909172021916BCF39FE2980F983029
:102F300080F421E030E0A90102C0440F551F9A95AA
:102F4000E2F7CA01809590916E02892380936E0208
:102F500013C08D3D21F480916C028E7F0BC08E3D9D
:102F600021F480916C028D7F05C08F3D29F4809102
:102F70006C028B7F80936C0280916F02811106C07E
:102F800080917002811102C010926B0280917102D7
:102F9000811106C080917202811102C010926A02F2
:102FA00008950E94242120916F02211104C02091D4
:102FB0007002222321F0909369028093680220918D
:102FC0007102211104C020917202222321F09093FA
:102FD0006702809366028DE692E00E94EC1F0895DE
:102FE000EDE6F2E086E0DF011D928A95E9F71092A6
:102FF0006B0210926A0210926C020895FC018281A9
:1030000081110DC0838181110AC08481811107C0A3
:1030100091E08581811101C090E0892F01C081E09C
:1030200081700895A6E0B0E0E8E1F8E10C94FB249B
:1030300086E0EDE6F2E0DE01119601900D928A95B0
:10304000E1F710926F0210927002109271021092CA
:1030500072028B81811104C08C81882309F45FC0C6
:1030600080916802909169020E943C21AC0190918C
:103070006B02992339F02091080130E024173507BD
:1030800058F04DC0209109018AE0289F9001112439
:103090002417350718F043C09F3F19F09F5F9093A6
:1030A0006B021B81112361F00E948716111614F028
:1030B0009FEF01C091E0989F902D112490936F0293
:1030C0001C81112361F00E948716111614F09FEFE6
:1030D00001C091E0989F902D11249093700230913F
:1030E0006F023323E1F0209170022223C1F045EBFF
:1030F0003403C0011124992319F090936F0203C087
:1031000081E080936F0235EB2303C00111249923E2
:1031100019F09093700203C081E0809370028D815A
:10312000811104C08E81882309F45FC080916602FA
:10313000909167020E943C21AC0190916A02992310
:1031400039F02091040130E02417350758F04DC0C4
:10315000209105018AE0289F90011124241735074A
:1031600018F043C09F3F19F09F5F90936A021D8142
:10317000112361F00E94C616111614F09FEF01C0D2
:1031800091E0989F902D1124909371021E8111233C
:1031900061F00E94C616111614F09FEF01C091E075
:1031A000989F902D112490937202309171023323D5
:1031B000E1F0209172022223C1F045EB3403C001FB
:1031C0001124992319F09093710203C081E0809338
:1031D000710235EB2303C0011124992319F0909358
:1031E000720203C081E080937202BE016F5F7F4F65
:1031F0008DE692E00E949320811105C08DE692E059
:103200000E94FE1781110E94D11786E0FE013196BF
:10321000ADE6B2E001900D928A95E1F72696E3E0E3
:103220000C941725AB0124E630E0BC0188E70E942E
:103230007E1F21E0892B09F020E0822F0895EF9274
:10324000FF920F931F93CF93DF93EC017B0164E612
:1032500070E088E70E94DC1E8C01EC0EFD1ECE158E
:10326000DF0541F40E94C61F81E00115110569F0D8
:1032700080E00BC017FDF6CFFE01849164E670E09C
:103280000E944F1F8C012196EACFCDB7DEB7E6E052
:103290000C9414250F931F939B0104E610E0AC01DE
:1032A00060E488E70E949F1F21E0892B09F020E05D
:1032B000822F1F910F9108950E94D61E0895E2E774
:1032C000F3E080E092E0DF019C011D92215030404C
:1032D000E1F7F0937705E09376058FEF9FEF9093FA
:1032E0009F0280939E020895CF930E9447060E94FA
:1032F000570680939A0280FD02C080E801C080E2F8
:10330000809399020E945C196BE070E08AED92E074
:103310000E941F19811102C0C0E031C080919A0241
:1033200065E070E081FD03C085ED92E002C080EDB4
:1033300092E00E941F19882379F36DE070E083EC1E
:1033400092E00E941F19C82F882331F30E94302178
:10335000DC01CB01805A9541AF4FBF4F809372057E
:1033600090937305A0937405B09375050E945F193F
:1033700081E080939D0280939C0210929B028C2F8F
:10338000CF9108952091990236E0839FC0011124C6
:10339000629F800D911D1124811522E0920714F087
:1033A00080E090E08E589C4F90937705809376054F
:1033B000089520917605309177052C563340409141
:1033C0009902642F70E0C9010E94BE24481B463058
:1033D00010F4240F311D211582E0380710F020E091
:1033E00030E02E583C4F30937705209376050895B2
:1033F0001F93CF93DF93162F8A3011F481E003C01F
:103400008D3021F480E00E94701A66C0C09176056C
:10341000D091770596E0FE01A3E7B2E001900D920E
:103420009A95E1F7803E30F086E0FE0111928A9590
:10343000E9F70BC0F6E08F9FB00111246B517D4F6F
:1034400046E050E0CE010E942325111135C0C09105
:103450007605D091770546E050E0BE0183E792E023
:103460000E942C25892BB1F1C257D3409E0185E0E3
:10347000369527958A95E1F781E090E0AC0102C08E
:10348000440F551F2A95E2F720919E0230919F022A
:10349000242B352B259645E0D695C7954A95E1F71F
:1034A00002C0880F991FCA95E2F7822B932B909345
:1034B0009F0280939E020EC0E0917605F091770501
:1034C0009F012A5F3F4F2E173F0709F280818095A9
:1034D0008193F9CF0E94D919DF91CF911F9108955F
:1034E000CF93E82F2091760530917705225733400E
:1034F00040919902642F70E0C9010E94BE24481BCC
:10350000842FEE2359F066E00E94B224C82FC150E8
:10351000B0F060E080E20E94F819F9CFA901480FED
:10352000511D4115524018F080E020E030E0280F96
:10353000311D2E583C4F3093770520937605CF915F
:103540000895FF920F931F93CF93DF93EC01F62E14
:10355000FC0101900020E9F78F0101501109C0170B
:10356000D10728F46F2D89910E94F819F8CFCDB7B3
:10357000DEB7E5E00C9415251F93CF93DF93EC01A4
:10358000162FFE018491882329F0612F0E94F819DB
:103590002196F7CFDF91CF911F91089580919D02E1
:1035A0008823F9F00E943021DC01CB01805A95413B
:1035B000AF4FBF4F8093720590937305A09374052E
:1035C000B093750580919C0281110BC062E070E0A0
:1035D00081EC92E00E941F19882319F081E080930A
:1035E0009C0280919C020895A0E0B0E0EAEFFAE12D
:1035F0000C94EE2480919E0290919F02892B09F4F5
:10360000DBC080919D02882309F4D6C080919B0283
:103610008111D2C00E94CE1A20919E0230919F0249
:103620002115310509F4C8C090E041E050E0C92FF0
:10363000D0E08A01092E02C0000F111F0A94E2F7A0
:10364000B80162237323672B11F49F5FF0CF809141
:103650009A029E01F5E0220F331FFA95E1F780FFF1
:1036600013C0E5E036952795EA95E1F7220F220F82
:10367000220F20930C0110920F01295F20930D015E
:1036800083E08093100111C0220F232F221F330BE0
:1036900031959295990F907690930C0120930F019C
:1036A000915E90930D012093100167E070E08AE035
:1036B00091E00E941219882309F47EC080919A0239
:1036C00080FF60C080E2E9E7F2E0DF011D928A95A9
:1036D000E9F76E0155E0CC0CDD1C5A95E1F7AEEB35
:1036E000B1E06AEB462E61E0562E82EC91E0772441
:1036F00073942D91E20139912E01B601630F711D72
:103700006E587C4F30E027583D4FF90147E0A42E1A
:10371000AF01421B530B872C01C0880C4A95EAF776
:103720007B01912CE701B9907E01B8204A2D4919FF
:103730004770642E042E000C550BDB2D01C0DD0FED
:103740006A94EAF76D2E51954195510947705527B6
:1037500001C0B6944A95EAF7BD2A4081B42AB082E6
:10376000939448E09412DECFAA943196CFEFAC1236
:10377000CFCF8A179B0709F0BCCF60E270E089E7E2
:1037800092E00AC0CE0125E0880F991F2A95E1F743
:1037900060E270E08E589C4F0E944A19882361F0C5
:1037A0000095109580919E0290919F020823192305
:1037B00010939F0200939E02CDB7DEB7E0E10C9418
:1037C0000A2580919D0290919C02882389F099237B
:1037D00069F062E070E08FEB92E00E941F198111A6
:1037E00003C080919C02089510929C0290919C02CB
:1037F00081E0892708950F931F9380919D0288236C
:1038000019F160E080E00E94C2190E9449060E94FE
:10381000F41A80919C028823B9F00E943021009113
:103820007205109173052091740530917505DC01C6
:10383000CB01801B910BA20BB30B8F3F9F4FAF4F60
:10384000BF4710F40E94E11B1F910F910895CF9381
:10385000DF93FC01DB0115968C91882309F4DDC010
:103860009F0130572332310508F0D8C0EF010E9484
:1038700051119093630380936203FE01E150F0477E
:10388000E232F10520F4E05CFF4F0C94E6248091D5
:1038900062038160AAC0809163038860B2C0809196
:1038A00062038260A2C08091620320C080916203A3
:1038B00088609BC0809163031EC080916303826017
:1038C000A0C080916203806190C080916203806299
:1038D0008CC080916203806488C00E94AB0B809191
:1038E0006203806882C080916203886084607DC0CA
:1038F000809163038260816084C0809162038E7FC7
:1039000074C080916303877F7CC0809162038D7F48
:103910006CC08091620320C080916203877F65C084
:10392000809163031EC0809163038D7F6AC0809184
:1039300062038F7E5AC0809162038F7D56C0809152
:1039400062038F7B52C00E94AB0B809162038F7722
:103950004CC080916203877F8B7F47C08091630357
:103960008D7F8E7F4EC08091620382FB222720F9DB
:1039700091E0922790FB82F990FB83F936C0809109
:103980006303982F909591708E7F892B90FB81F91E
:1039900038C08091620386FB222720F991E09227AC
:1039A00090FB86F922C00E94AB0B8091620387FBDB
:1039B000222720F991E0922790FB87F916C081E039
:1039C00001C080E00E94DD111EC08091620384FB73
:1039D000222720F991E0922790FB84F906C080917C
:1039E0006203982F909590FB80F9809362030BC03F
:1039F0008091630383FB222720F991E0922790FBBB
:103A000083F98093630380916203909163030E9422
:103A100056110E94AB0B80E001C081E0DF91CF9195
:103A200008958FE891E00197F1F700C00000089534
:103A300081E08093A10224982C9A25982D9A0E94C7
:103A4000111D3091A102E3EAF2E090E0931761F0DA
:103A500083B1829581701D9902C020E001C022E0EF
:103A6000822B81939F5FF2CF0895A8E1B0E0EBE352
:103A7000FDE10C94EF2410E000E082E0982E94E049
:103A8000A92EB12C2DEF822E772473943CEF632E58
:103A900043E0542E8091A102181708F0A5C0E12E32
:103AA000F12CE3B1E295E1701D9902C080E001C004
:103AB00082E08E2BD701AD55BD4FEC912E2F237098
:103AC00030E0482F082E000C550B2417350709F459
:103AD00089C0EE0FEE0FE82BEC93EF70F0E0EE53A1
:103AE000FE4FC7018E559D4F6C019081F60180817C
:103AF000890F80838430A4F1F701E056FD4F808167
:103B00008F5F80830E9424211D876E86682F8F8798
:103B1000988B598A7A8A412F5CEF792F83E091E064
:103B20000E94D7078FE39CE90197F1F700C00000DE
:103B30000E9424211B8B6C8A682F8D8B9E8B5F8A41
:103B4000188E412F5CEF792F83E090E00E94D70719
:103B5000EFE3FCE93197F1F700C0000021E001C07C
:103B600020E0F60180818D3F9CF5F701E056FD4F86
:103B70008081815080830E94242119838A82682F4A
:103B80008B839C839D827E82412F5DEF792F82E023
:103B900091E00E94D7078FE39CE90197F1F700C0FD
:103BA00000000E9424211F838886682F89879A87B6
:103BB0009B861C86412F5DEF792F82E090E00E946A
:103BC000D707EFE3FCE93197F1F700C0000021E0EF
:103BD000F6018081082E000C990BB5010E94D224B9
:103BE0008083022B1F5F56CF802F6896EFE00C94E6
:103BF0000B25CF93DF9386319C4741F5EB010E9463
:103C00004D10982F8D812091000130910101882362
:103C100079F09A7A81E009F480E08093A40291110E
:103C200002C069E201C065E3C9010E9486200AC0A2
:103C30008091A402811102C069E201C065E3C9015B
:103C40000E9489200E94991080E001C081E0DF91EC
:103C5000CF9108950F931F93CF93DF93C42FD22F4B
:103C6000FC0185818823B1F04093A7020E942421A2
:103C70009093A6028093A50280E28C0F883008F012
:103C80004DC0C77081E001C0880FCA95EAF70E9455
:103C9000550944C08091A702481330C08091A50205
:103CA0009091A6020E943C21883C910538F510E2D3
:103CB0001D0FCD17B9F080E28C0F883040F4C7702B
:103CC00081E001C0880FCA95EAF70E945C091830AC
:103CD00010F581E09D2F977001C0880F9A95EAF743
:103CE0000E945509802F0E944B091830B8F4D770F4
:103CF00081E001C0880FDA95EAF70AC080E28C0FF4
:103D0000883060F4C77081E001C0880FCA95EAF777
:103D10000E945C0903C0802F0E944B09DF91CF9164
:103D20001F910F9108950F93FC01E851FC47E73074
:103D3000F10590F5CB01EE59FF4F0C94E62406E215
:103D400021EE41EE6AE17CE723C007E225EE45EE75
:103D50006BE17CE71DC006E221EE40EE68E17CE706
:103D600017C007E225EE44EE69E17CE711C006E2E8
:103D700021EE42EE6CE17CE70BC007E225EE46EE59
:103D80006DE17CE705C008E221E045EE6EE17CE7ED
:103D90000E942A1E80E008C0FB018581882319F05B
:103DA0001092A70201C081E00F9108951092B9000E
:103DB0008CE08093B8000895A0E0B0E0E2EEFEE170
:103DC0000C94F324B82EEB010E9424216C01C43121
:103DD000D10558F0CF3F8FEFD80759F0CE0164E1FD
:103DE00070E00E94BE247B0107C0EE24E394F12C16
:103DF00003C025E0E22EF12C84E8A82E94EA992E47
:103E00001092BC009092BC000E9424218C018091F1
:103E1000BC0087FD07C0C8010E943C21E816F906D6
:103E2000B0F729C08091B900887F883041F0809137
:103E3000B900887F803119F00FEF1FEF1EC0B092DC
:103E4000BB00A092BC000E9424218C018091BC0088
:103E500087FD07C0C8010E943C21E816F906B0F7AB
:103E60000AC08091B900887F883111F0803421F731
:103E700000E010E00EC00EEF1FEFCF3F8FEFD8072E
:103E800009F4BECFC6010E943C21C817D90708F02B
:103E9000B7CFC801CDB7DEB7EBE00C940F250F9379
:103EA0001F93CF93DF93EB018093BB0084E8809353
:103EB000BC000E9424218C018091BC0087FD0DC0B4
:103EC000CF3F8FEFD807C1F3C8010E943C21C8172C
:103ED000D90790F78EEF9FEF0CC02091B900287F93
:103EE00081E090E0283211F480E090E09195819596
:103EF0009109DF91CF911F910F910895A0E0B0E05B
:103F0000E4E8FFE10C94F6246B018A017901B90120
:103F10000E94DC1EE6010C0D1D1DC017D10741F4E7
:103F200024E92093BC00CDB7DEB7E8E00C9412255D
:103F300097FDF6CFB70189910E944F1FEECFA0E009
:103F4000B0E0E5EAFFE10C94F624C62F6A0179019E
:103F5000B8010E94DC1E97FD11C0B8018C2F0E9491
:103F60004F1FE601EC0CFD1CCE15DF0539F097FD67
:103F700005C0B80189910E944F1FF6CF24E9209314
:103F8000BC00CDB7DEB7E8E00C94122584E980933D
:103F9000BC0008959093D3018093D201089590932B
:103FA000AD028093AC020895E091AC02F091AD02B5
:103FB000309729F00190F081E02D0995089580E077
:103FC0000895E091AC02F091AD02309721F00280AB
:103FD000F381E02D09950895E091AC02F091AD02D6
:103FE000309739F022E0DC012C930480F581E02D3C
:103FF00009950895A3E0B0E0E0E0F0E20C94FC2421
:104000002091AA023091AB0228173907A1F09093B2
:10401000AB028093AA02E091AC02F091AD0230971E
:1040200051F023E029839B838A830680F781E02D6A
:10403000CE01019609952396E2E00C941825A3E0A1
:10404000B0E0E5E2F0E20C94FC242091A80230916B
:10405000A90228173907A1F09093A9028093A8021A
:10406000E091AC02F091AD02309751F024E0298349
:104070009B838A830680F781E02DCE010196099506
:104080002396E2E00C941825FC01329697E080E03C
:10409000915029F021912223D9F38F5FF9CF089510
:1040A000662349F0FC01329608962191621729F0A7
:1040B000E817F907D1F780E0089581E008959C01A1
:1040C000FC0132969FEF80E04191461789F09F3FB7
:1040D00019F4411101C0982F8F5F8630A9F79F3FD7
:1040E00039F0F901E90FF11D97FDFA956283089502
:1040F00008959C012A5F3F4FFC014281461301C095
:104100001282019682179307B9F708950E945F20E3
:1041100008950E9479200895029626E0FC011192EC
:104120002A95E9F7089546E050E00E942C2521E009
:10413000892B09F420E0822F089508950E949D2084
:1041400008950E949E2008950E949D2008950E9437
:104150009D2008950E949D200895CF930E94A7203E
:104160000E94FE150E94A420C0E08C2F0E943615EC
:10417000811104C0CF5FC730C1F701C081E0CF918A
:10418000089508951F920F920FB60F9211248F93E6
:104190009F93AF93BF938091AE02811113C0809122
:1041A000780590917905A0917A05B0917B054196AB
:1041B000A11DB11D8093780590937905A0937A0590
:1041C000B0937B05BF91AF919F918F910F900FBEE0
:1041D0000F901F9018958091B102882331F10E94B1
:1041E0008C071092AE0220E488E190E00FB6F894BC
:1041F000A895809360000FBE2093600083B7817FF5
:10420000846083BF83B7816083BF7894889583B7C8
:104210008E7F83BF0FB6F894A89580916000886167
:1042200080936000109260000FBE08950E94AB0B57
:104230000E949307089582E084BD93E095BD9AEFB4
:1042400097BD80936E0008952FB7F89480917805FC
:1042500090917905A0917A05B0917B052FBF0895C3
:104260002FB7F894609178057091790580917A055F
:1042700090917B052FBF08959C014FB7F8948091D2
:10428000780590917905A0917A05B0917B054FBF93
:10429000821B930B089578941F920F920FB60F9282
:1042A00011248F939F93AF93BF9380917805909142
:1042B0007905A0917A05B0917B050196A11DB11DEC
:1042C0008093780590937905A0937A05B0937B0548
:1042D000BF91AF919F918F910F900FBE0F901F9044
:1042E000189598E088E10FB6F894A895809360003F
:1042F0000FBE90936000A895F894D8E0CEEF28E325
:10430000299320E0299314BEFFCF089598E088E117
:104310000FB6F894A895809360000FBE909360004C
:10432000FFCF0E9424219093B0028093AF0290E0CF
:1043300080E80FB6F89480936100909361000FBEFF
:1043400008950E949724539A80E0815041F0A895E7
:10435000EFE9FFE03197F1F700C00000F6CF539886
:10436000789408950E949B220E94CF1F2FEF80E730
:1043700092E0215080409040E1F700C00000089595
:104380008091A305882389F01092A3050E9424211F
:104390009093B0028093AF028091B1028823D1F153
:1043A0001092B1020E94162111C08091B1028111B8
:1043B00011C08091AF029091B0020E943C210697FB
:1043C00028F081E08093B1020E94EB208091B1023D
:1043D000882301F10E94EB200E94AD20882391F1F7
:1043E000F8942AB15B9A822F8C608AB99BB18CE0D9
:1043F00098279BB93FE748E391E031504040904017
:10440000E1F700C000009BB189278BB92AB95B98FE
:10441000789408950E94A0238091A905882329F00B
:104420008091870584FD0E9468120E9436220E94B6
:10443000A0238091A905882329F08091930584FD0C
:104440000E948F2208958091610308952091C005F4
:1044500024FF03C063E00E949B2308952091C005C0
:1044600024FF03C066E00E949B230895CF93DF934F
:10447000CAE0D0E08091870584FF18C08091DE02F9
:104480009091DF029817E1F028E0829FC00111248B
:1044900068E080529D4F0E9496238091DE0290E05A
:1044A00001968F7099278093DE020AC00E94A02394
:1044B0008FE99FE00197F1F700C000002197D1F646
:1044C000DF91CF910895CF93DF93EC01A091DF02AC
:1044D000B0E0CD0101968F7099272091DE02281758
:1044E00079F093E0AA0FBB1F9A95E1F7A052BD4F58
:1044F00098E0FE0101900D929A95E1F78093DF021A
:104500000E94A0230E94362288E0FE01A6EDB2E0C0
:1045100001900D928A95E1F7DF91CF9108958091F6
:10452000B502803239F460E286EB92E00E945906CF
:104530001092B502089581E191E00895FC01808117
:1045400080768032A1F58181813061F4848195810A
:10455000892B69F586ED92E09093A5058093A405DB
:1045600088E00895823041F480E693E09093A505B9
:104570008093A40581E008958A3021F4838180939B
:10458000600315C0893099F482819381811592402E
:1045900081F484819581892B61F481E08093B40258
:1045A000868197819093B3028093B20202C080E02B
:1045B00008958FEF08952091B2023091B302232B1A
:1045C00071F02091B402213051F4FC01808180937C
:1045D00061031092B3021092B20281E008958FEF4E
:1045E0000895683019F01092B50208952091B5022F
:1045F000A22FB0E0A931B105B4F7FC01AA54BD4F18
:10460000089631913D93E817F907D9F7285F209371
:10461000B5020895FC0193819330B1F068F49130B4
:1046200081F0923009F05EC085E298E09093A50594
:104630008093A4058BE50895913201F1923291F1B6
:1046400051C080E898E014C08281813079F030F068
:10465000823009F047C082E998E00AC08AEB98E00E
:104660009093A5058093A40584E0089586EA98E0D8
:104670009093A5058093A40582E1089582818130FD
:1046800049F028F0823071F580E798E005C087E3B3
:1046900098E002C080E598E09093A5058093A4057A
:1046A00089E00895848195818130910599F050F0D9
:1046B0000297C1F480EE98E09093A5058093A4053D
:1046C0008BE708958BE599E09093A5058093A40569
:1046D00080E408958EEB98E09093A5058093A4055F
:1046E00082E2089580E008951F93CF93DF93162F01
:1046F000EA01288124FF05C0398128E8232729837E
:1047000002C02AE52883212FFC01CE010296DC019C
:1047100031913D9321501216DCF3612F0E94020566
:104720001C5F1883DF91CF911F91089547E855E0F2
:104730000E947423089540EC55E00E94742308956C
:10474000CF93DF936091A605635067FD93C080917E
:10475000A205CCE0D0E0C81BD109C655DA4F809144
:10476000A105803120F4CE010E94F12281C08D325A
:1047700009F06EC0683009F07BC083EC80937C0543
:104780008AE580931A011092A0058881807621F035
:10479000CE010E949E2249C09A811092850589818E
:1047A000811106C01092860525E835E082E038C008
:1047B000853019F49093A70530C08630A1F48B8121
:1047C000813041F0823031F0833021F0813211F0BC
:1047D000823221F4CE010E940A2301C080E090E4DD
:1047E0009093A00522C0883089F0893019F4909305
:1047F000A90513C08A3069F08B3079F48BE480937B
:1048000088058093C1058093940507C029EA35E0A7
:1048100002C025E835E081E003C025E835E080E00E
:104820003093A5052093A40509C08F3F39F49881E2
:1048300097FD8E8190E89093A00507C09F8191110C
:1048400004C09E81981708F4892F8093190110C025
:104850008091A00587FF0CC0CE010E94DB228F3F14
:1048600021F48EE180931A0103C081111092190185
:104870001092A60580911A0184FF4CC08091190105
:104880008F3F09F447C0C82F893008F0C8E08C1B5F
:104890008093190190917C0588E8892780937C0595
:1048A000CC2359F18091A4059091A5052091A005F4
:1048B00026FF12C0ACE7B5E02C2FAC014C57554099
:1048C000FA01EA0FFB1FE4911196EC931197215026
:1048D00011962111F5CF08C0EDE7F5E0DC012C2F92
:1048E0003D9131932150E1F701962FEF2C0F820F6C
:1048F000911D9093A5058093A4056C2F8DE795E0FD
:104900000E940205CC5FCC3019F08FEF8093190123
:10491000C0931A0184E199B19C7031F48150D9F7A8
:104920001092A70510929F05DF91CF910895CF9324
:10493000DF93E9E6F0E0808188608083E99AC7E848
:10494000D5E08BE48983A0ECB5E011968C931197A8
:10495000E3E9F5E081838AE588838C938083DF91A6
:10496000CF910895991B79E004C0991F961708F01C
:10497000961B881F7A95C9F780950895AA1BBB1BC3
:1049800051E107C0AA1FBB1FA617B70710F0A61B4F
:10499000B70B881F991F5A95A9F780959095BC0170
:1049A000CD01089597FB072E16F4009407D077FDEC
:1049B00009D00E94BE2407FC05D03EF49095819555
:1049C0009F4F0895709561957F4F0895EE0FFF1FDB
:1049D0000590F491E02D09942F923F924F925F92AF
:1049E0006F927F928F929F92AF92BF92CF92DF92FF
:1049F000EF92FF920F931F93CF93DF93CDB7DEB764
:104A0000CA1BDB0B0FB6F894DEBF0FBECDBF0994F7
:104A10002A88398848885F846E847D848C849B844E
:104A2000AA84B984C884DF80EE80FD800C811B815C
:104A3000AA81B981CE0FD11D0FB6F894DEBF0FBE8B
:104A4000CDBFED010895FB01DC0102C005900D9280
:104A500041505040D8F70895FB01DC0104C08D910E
:104A60000190801921F441505040C8F7881B990BE0
:104A70000895FB01DC0102C001900D9241505040AD
:104A8000D8F70895F999FECF92BD81BDF89A99277C
:104A900080B50895A8E1B0E042E050E00C9486258E
:104AA000DC01A40FB51F4150504048F0CB01840FEA
:104AB000951F2E910E94612541505040D0F70895D6
:104AC000262FF999FECF92BD81BDF89A019700B4C7
:104AD000021639F01FBA20BD0FB6F894FA9AF99A67
:104AE0000FBE08950396272F0E9461250E9460251E
:104AF000252F0E946125242F0C9461250196272FD4
:104B00000E9461250C946025DC01CB01FC01F99920
:104B1000FECF06C0F2BDE1BDF89A319600B40D9209
:0C4B200041505040B8F70895F894FFCFC2
:104B2C004302280850011E0A14010021007F2200B4
:104B3C0003232263222E222622FF5A5265636569C3
:104B4C007665643A200057616974696E6720666FF8
:104B5C007220646174612E2E2E00E200E900EA00DE
:104B6C00B500B600B700CD008301CC008A019201DC
:104B7C0094012102230224022502260227022A0282
:104B8C00B300B4006F0070009F01CB019F02A00224
:104B9C00818283E200E900EA00B500B600B700CDDF
:104BAC00008301CC008A019201940121022302248A
:104BBC00022502260227022A02B300B4006F0070FD
:104BCC00009F01CB019F02A00281828330979695B2
:104BDC0031323390919463606162000810181810A0
:104BEC00080000FF0100010000FFFF0000010001B0
:024BFC00FF00B8
:00000001FF
