:100000000C94B0040C94CD040C94E8040C94CD042E
:100010000C94CD040C94CD040C946B200C94CD0462
:100020000C94CD040C94CD040C94CD040C94CD040C
:100030000C94CD040C94CD040C94F4200C94CD04B9
:100040000C94CD040C94CD040C94CD040C94CD04EC
:100050000C94CD040C94CD040C94CD040C94CD04DC
:100060000C94CD040C94CD045F095F098B098B09B6
:10007000E109FF09F30AF30A040A7A0A8B0A8B0AD8
:10008000261C981C2E1CF81BFC1B321CFF1B351C4D
:10009000401C0A1C8E1C0E1C441C121C481C721C8A
:1000A000161C4C1C7C1C1C1C521C5C1C031C391C8C
:1000B000061C3C1C211C571C681C881C8A1CF41B39
:1000C0002A1CA11C541E5A1E481E4E1E601E661E6F
:1000D0006C1EB6B6B6B6B6B6B6B6B6B6B6B6B6B6A2
:1000E000B695B596D5B6B680818283848586878895
:1000F000898A8B8C8D8E8F9091929394A0A1A2A3CC
:10010000A4A5A6A7A8A9AAABACADAEAFB0B1B2B337
:10011000B4C0C1C2C3C4C5C6C7C8C9CACBCCCDCE82
:10012000CFD0D1D2D3D4004E69636C617300A900E3
:10013000AA000100010001000100010001002B00E4
:1001400014001A000800150017001C0021520400BA
:100150001600070009000A000B00E1003800E40067
:100160001B00060019000500E000E2002252E60034
:100170002C002C002C0000003400A80013001200FA
:100180000C0018000000E3002A0028000F000E00F9
:100190000D0000001D00E5003700360010001100C2
:1001A00029001E001F002000210022002300010062
:1001B00001003500310001000100010001000100D3
:1001C0004F00010001000100010001000100510089
:1001D00050004A0001004D0000000100010027000E
:1001E000260025002400000001004C0034003300EC
:1001F00030002F0000000100520038002E002D00BA
:10020000010001003A003B003C003D003E003F0081
:10021000390001000100010001000100010001009E
:1002200001000100010001000100010001000100C6
:1002300001000100010001000100000001000100B7
:1002400043004200410040000000010001000100A5
:100250000100010001000000010001000100010097
:100260000100010001000100010001000100010086
:100270000100010001000100010001000100010076
:100280000100010001000100010001000100010066
:100290000100010001000100010001000000010057
:1002A0000100010001000100010000000100010047
:1002B0000100010001000100000001000100010037
:1002C00001000100010000AE00AF00DA0281FFD999
:1002D000F1DB20A4A62EAF00A0C0D30000A1C8D39C
:1002E0000000AED580A81F408D1420000000000043
:1002F00000003E5B4F5B3E003E6B4F6B3E001C3E82
:100300007C3E1C00183C7E3C18001C577D571C008E
:100310001C5E7F5E1C0000183C180000FFE7C3E76E
:10032000FF00001824180000FFE7DBE7FF0030485B
:100330003A060E00262979292600407F0505070088
:10034000407F05253F005A3CE73C5A007F3E1C1C7D
:100350000800081C1C3E7F0014227F2214005F5FEF
:10036000005F5F0006097F017F00006689956A00D3
:1003700060606060600094A2FFA2940008047E04A4
:10038000080010207E20100008082A1C0800081C05
:100390002A0808001E10101010000C1E0C1E0C0065
:1003A00030383E383000060E3E0E060000000000D9
:1003B000000000005F000000000700070000147F3D
:1003C000147F1400242A7F2A120023130864620079
:1003D000364956205000000807030000001C224147
:1003E00000000041221C00002A1C7F1C2A00080873
:1003F0003E08080000807030000008080808080067
:100400000000606000002010080402003E514945D1
:100410003E0000427F4000007249494946002141A8
:10042000494D33001814127F100027454545390007
:100430003C4A4949310041211109070036494949DF
:100440003600464949291E00000014000000004003
:100450003400000000081422410014141414140085
:100460000041221408000201590906003E415D596D
:100470004E007C1211127C007F49494936003E41F2
:10048000414122007F4141413E007F4949494100AD
:100490007F09090901003E41415173007F080808A6
:1004A0007F0000417F4100002040413F01007F0864
:1004B000142241007F40404040007F021C027F0028
:1004C0007F0408107F003E4141413E007F09090939
:1004D00006003E4151215E007F0919294600264948
:1004E0004949320003017F0103003F4040403F0083
:1004F0001F2040201F003F4038403F006314081475
:1005000063000304780403006159494D4300007FF0
:1005100041414100020408102000004141417F0098
:10052000040201020400404040404000000307086C
:1005300000002054547840007F2844443800384458
:1005400044442800384444287E0038545454180049
:1005500000087E0902001824241C78007F08040487
:10056000780000447D4000002040403D00007F10A6
:100570002844000000417F4000007C04780478009B
:100580007C08040478003844444438007C1824244F
:100590001800182424187C007C080404080048541F
:1005A0005454240004043F4424003C4040207C0078
:1005B0001C2040201C003C4030403C0044281028B7
:1005C00044004C9090907C004464544C44000008DB
:1005D00036410000000077000000004136080000AE
:1005E0000201020402003C2623263C000000000019
:1005F0000080C0E0F0F0300000C060F0F0F03000AB
:1006000080C020F0F0F020000000000080C0E0700A
:100610003018B8F8F00000000000DC7E3FBEF0F0BB
:10062000E000000000000080C0E070101818F8F032
:100630006000000000C060F0F8F83000000080E0CA
:10064000F0F8F8300000000080E0F0FCFF3F0F0100
:1006500000000080C0E0F0F878000000000080C0DA
:1006600060309040203070E0C0000040404040408A
:10067000404040404040000000E0FEFFFEF8C00067
:1006800000000000E0FCFFFEF000000000000000A1
:100690000000013EE080700E0100000000073CE019
:1006A00080780700000000000000000000180C0621
:1006B000C3F9FE3FC7711806C3F07C1FC771180647
:1006C000C3F8FE3F0F0180C0F0F8FEDF47636030E3
:1006D000381E0F0781402018060381F0FC7F1F079A
:1006E00080C0E0F8FC3E0F03010000000003018021
:1006F00060100806E3FCFF3F0701C0308CE3FF7F7A
:100700001F0380C030188CE3F9FF3F070180C03021
:10071000180CC3F1FC7F0F0380C0F0FCFE3F070103
:10072000003EC18080E0FC3F8F4040C0F0FC7E4E28
:100730000000000000000000F8FFFF1F071FFFFE81
:10074000F0C0F8FF7F0F077FFFFEFC0404788000F5
:100750000000C0380C1C6080000000F00C04F41C89
:1007600080C0FCE6C3C1C1C3E6FCC0800000383FC6
:100770003F1F07030000383E3F1F0E030000307F7D
:100780007F3F190C0603010F1F3F71606070301826
:100790000804020100000000387E7F3F3B1804037C
:1007A00001000F1F31202020201018080402010032
:1007B00000001C3F7F7F31180603183E3F3F1B0897
:1007C00004020100001E3F3F3F1008040201000028
:1007D000183E3F3F190C060301000F1F3160606097
:1007E00030181C0F07030101000000183C3C1C00DE
:1007F000000000000000001F1F1F07000000000392
:100800001F1F0F0100000000071F1F1EF8000F70C0
:10081000300EC138070E70831C601E03C03E0100FD
:100820003F7FFFFFF9C0C0F9FFFF7F3F09023B0098
:10083000020100A0FA0904000001030101000921DE
:10084000010100012240000705810308000109049D
:1008500001000103000000092101010001227B00C9
:10086000070583030800011201100100000008774A
:100870006D031700010102000112034D00650072B3
:100880000063007500740069006F00000012034DE2
:1008900000650063006800570069006C0064000098
:1008A000000403090405010902A10185020901A14F
:1008B0000005091901290815002501950875018110
:1008C000020501093009311581257F9502750881DE
:1008D0000609381581257F950175088106050C0AE2
:1008E00038021581257F950175088106C0C0050174
:1008F0000980A101850319012AB700150126B70057
:10090000950175108100C0050C0901A1018504192C
:10091000012AA002150126A002950175108100C0D0
:1009200005010906A101050719E029E715002501C0
:100930009508750181029501750881030507190065
:1009400029FF150026FF0095067508810005081986
:10095000012905950575019102950175039103C063
:1009600011241FBECFEFD8E0DEBFCDBF11E0A0E065
:10097000B1E0E2E0FAE402C005900D92A43BB107B9
:10098000D9F725E0A4EBB1E001C01D92AC38B20765
:10099000E1F70E9437160C94FF240C940000A82F56
:1009A000B92F80E090E041E050EA609530E009C066
:1009B0002D9182279795879510F084279527305E93
:1009C000C8F36F5FA8F30895EADF8D939D930895B0
:1009D000CF93CFB7CF93DF93C3954B9BE9F74B9B57
:1009E00010C04B9B0EC04B9B0CC04B9B0AC04B9B3B
:1009F00008C04B9B06C0C0916305C395C0936305B7
:100A00008EC06F93C0916205DD27C659DA4F2F93D0
:100A100065E54B9B03C02F916F91E1CF0F931F931F
:100A20004F9320E040E15F9309B10C7003FB27F97D
:100A30003F9350E03BE039C01C7040642F77012F9A
:100A40005F5F1EC0406819B11C702F7752501FC0E5
:100A5000406409B12F770C70D1F15F5F00C023C0F3
:100A6000406219B12F771C7091F15F5F00C025C003
:100A70000C701027515012F45D5F00001150279543
:100A80002C3F19B1C8F61C700127015027952C3F47
:100A9000C8F64227499309B10C7010274F731150C3
:100AA00027952C3FA8F64695469519B11C7079F00C
:100AB0000127015027952C3F98F66B5A60F331506F
:100AC00009B1B0F600C012E01CBB00271CC03B50AF
:100AD0003195C31BD04012E01CBB0881033C21F1BF
:100AE0000B3411F120915F051981110F1213EDCF15
:100AF0004A81441F093679F10D3211F0013E29F780
:100B00004F7009F0042F009368053F915F914F915A
:100B10001F910F912F916F91CCB3C1FD5DCFDF91EC
:100B2000CF91CFBFCF91189520916805222369F30B
:100B300010916605112309F049C034300AF448C009
:100B40003093660520936105109162053BE0311BEF
:100B5000309362053DC0009166050130BCF50AE5A1
:100B60004F7049F430911A0134FD33C000931A01DB
:100B7000CCE3D5E032C0433059F0443091F03091AD
:100B8000470534FD26C000934705C8E4D5E025C0DD
:100B90003091800534FD1DC000938005C1E8D5E08B
:100BA0001CC03091530534FD14C000935305C4E5B7
:100BB000D5E013C0052710E000C000000BB91AC033
:100BC000052710E0221F1DC010E021C04AE502C029
:100BD00032ED432FC4E1D0E032E01AB11C605B9AE1
:100BE0000BB11AB95CE020E865E320FF05270BB9DB
:100BF000279517951C3FF0F66695B8F7B1F720FFDB
:100C000005270BB9279517951C3FD0F62795179503
:100C100017FF052700001C3F0BB9B0F629913A9544
:100C200019F7037F10916705110FC651D0400BB91A
:100C300011F010935F0512E01CBB08601AB1137F1E
:100C4000402F437F54E05A95F1F70BB91AB94BB9CD
:100C50005CCF82E00895CF930E943906C82F882385
:100C600029F060E082ED90E00E945F1A8C2FCF9116
:100C7000089560E087E291E00E94711A81E0089592
:100C80008430B0F46730A0F4473090F491E3899F4A
:100C9000F001112487E0689FE00DF11D1124E40F9D
:100CA000F11DEE0FFF1FE25CFE4F859194910895B8
:100CB00081E090E008950E9440060895843088F411
:100CC00061110FC0E82FF0E0EE0FFF1F81E0482711
:100CD000E40FF11DEE0FFF1FE25DFE4F8591949131
:100CE000089581E090E008950E945E06089581E0F5
:100CF000089581E008950E94790608950E947B0678
:100D000008950E947906089508950E948406089522
:100D1000A6E0B0E0EEE8F6E00C94662449835A833E
:100D20009E833091BB0189819A81311115C03E812A
:100D3000332359F0222349F00E94C40C182F682F46
:100D400089819A810E94910C03C00E94AB0C182FDC
:100D500069817A81812F04C00E94C40C69817A81E3
:100D60000E94B8132696E3E00C948224FC01262FFF
:100D70004081518162817381848195810E948806BE
:100D80000895CF93DF93EC0161E00E94B606BE01A7
:100D90000E947E06DF91CF910895CF93DF93EC01FF
:100DA00060E00E94B606BE010E948506DF91CF91E9
:100DB000089508950E94680B0E94D9062FEF84E3DE
:100DC0009CE0215080409040E1F700C00000089571
:100DD0000E94DA060E941A2108950E94DA060E94F3
:100DE0002F2108950F931F93CF93DF938C0161E020
:100DF0000E94B606EC01B8010E948106882309F41E
:100E000042C0B801CE010E943C1E8823E1F1B80126
:100E1000CE010E94D01B8823B1F1B801CE010E94FF
:100E2000A21D882381F1F8018581882341F1C33017
:100E30008CE7D807D1F040F4C115FCE7DF0791F04B
:100E4000C130DC47A1F01BC0CB35ECE7DE07A9F0D1
:100E5000CC35FCE7DF0771F0CA35DC4781F40E942E
:100E6000EA100DC00E94E8060EC00E94F2100E9417
:100E7000ED0609C00E94E01002C00E94EE10C801F9
:100E80000E94770601C080E0DF91CF911F910F9102
:100E900008950E944A200E9472070E948A1B0895AA
:100EA0000E9476070E9453200895089581E00895D6
:100EB0000895CF93DF93D82F0E945607C82F882319
:100EC00019F08D2F0E9458078C2FDF91CF91089534
:100ED0000895CF93C82F0E9455078C2F0E94590761
:100EE000CF91089580E00E94690708950E947D1FB8
:100EF0000E9469070895CF930E947D1FC82F80919B
:100F0000B601C81779F0C093B6010E94D92060934A
:100F1000B7017093B8018093B9019093BA018C2FF7
:100F20000E946907CF910895ADE0B0E0EAE9F7E0EB
:100F30000C946724488759876A877B878C879D87AD
:100F400091110E942A10CE01019627E0FC01119216
:100F50002A95E9F726E0FE013896DC0101900D9212
:100F60002A95E1F72D8121110AC029813A814B810F
:100F70005C816D817E818F810E94740F04C00E940C
:100F8000C1068111F2CF2D96E2E00C948324FC017E
:100F90002481213021F4808191810E94F60C0895F2
:100FA000662319F00E94BC1602C00E9417170E9407
:100FB0008E170895CF93882309F4A4C0C82F8238D0
:100FC000C1F40E947D1F81FD9DC069E380910001F5
:100FD000909101010E942F200E9456102FEF87EE62
:100FE00093E0215080409040E1F700C0000069E3A9
:100FF00019C0833801F50E947D1F80FD83C063E521
:1010000080910001909101010E942F200E945610B2
:101010002FEF81EE94E0215080409040E1F700C036
:10102000000063E580910001909101010E9432204F
:101030000E94561067C08438C1F40E947D1F82FD53
:1010400061C067E480910001909101010E942F200E
:101050000E9456102FEF81EE94E021508040904086
:10106000E1F700C0000067E4DDCF8CEF8C0F813A20
:10107000D0F46C2F80910001909101010E94F91F22
:10108000882349F06C2F80910001909101010E940A
:1010900032200E9456106C2F809100019091010126
:1010A0000E942F20C5CF80E28C0F883048F4C77093
:1010B00081E001C0880FCA95EAF70E940D10B8CFF1
:1010C000EBE5EC0FE33040F4F0E0EF5AFE4F8081A7
:1010D00090E00E94A31F16C0E8E5EC0FEB3150F43E
:1010E000F0E0EE0FFF1FE55EFE4F808191810E94D0
:1010F000C81F08C083E38C0F833120F461E08C2F7C
:101100000E94D007CF910895882309F468C08238DF
:1011100079F40E947D1F81FF62C069E38091000124
:10112000909101010E942F200E94561069E310C087
:101130008338B9F40E947D1F80FF51C063E5809120
:101140000001909101010E942F200E94561063E53A
:1011500080910001909101010E9432200E9456105E
:101160000895843879F40E947D1F82FF38C067E4B7
:1011700080910001909101010E942F200E94561041
:1011800067E4E6CF9CEF980F913A10F4682FE0CF18
:1011900090E2980F983050F4877091E001C0990F59
:1011A0008A95EAF7892F0E941310D8CF9BE5980FF4
:1011B000933028F480E090E00E94A31F089598E502
:1011C000980F9B3128F480E090E00E94C81F08959A
:1011D00093E3980F933118F460E00E94D0070895CC
:1011E0001F93CF93DF93182FEB010E94DA0720970C
:1011F00041F08FE99FE00197F1F700C000002197CF
:10120000F6CF812F0E948408DF91CF911F9108951E
:10121000893319F06AE070E002C060E570E00E9476
:10122000F0080895882321F00E940D100E945610A6
:101230000895882321F00E9413100E9456100895EB
:10124000A0E0B0E0E6E2F9E00C9461247C01162F06
:10125000C72FFC01D581068102950F700E940310F3
:101260008823E9F0DD23D9F08C2F807F803451F082
:1012700080E2810F883098F0011104C08C2F807EAD
:10128000803269F08091230382FF09C082E00E94CE
:10129000B4100E94031091E0D82ED92601C0D12CA1
:1012A000CC2EC2948FE0C8228C2D90E08C3091051A
:1012B00008F099C1FC01EC5CFF4F0C9451248C2F79
:1012C000807FCF70882311F0C295C07FDD2399F015
:1012D000CC2309F46FC180E2810F883010F0111126
:1012E00004C08C2F0E940D1003C08C2F0E941D1073
:1012F0000E9456105FC1812F0E948408CC2309F4FC
:1013000072C180E2810F883038F1112329F18C2FCE
:101310000E94231024C08C2F807FCF70803211F068
:10132000C295C07F112319F0113099F13CC0809112
:10133000230382FD17C0DD2349F0CC2329F08C2F35
:101340000E940D100E94561080E035C180E00E947E
:101350008408CC2309F447C18C2F0E9413100E94EB
:10136000561041C1DD2349F0002309F1013009F095
:101370003AC18C2F0E94341036C1011134C18C2F18
:101380000E9419098C2F0E9440108C2F0E948710F8
:101390002AC1DD2321F0063008F025C108C0053040
:1013A00008F021C10AC0DD2331F0011103C18C2FE7
:1013B0000E94120918C1011103C18C2F0E94190942
:1013C00012C18C2F86958695837019F0813061F05B
:1013D0000AC1DD2321F0812F9C2F937002C080E091
:1013E00090E00E94A31F07C1DD2321F0812F9C2FD5
:1013F000937002C080E090E00E94C81FFCC06D2F77
:10140000812F0E94D007F7C08C2F8370B1F5D111C6
:10141000EEC0412F429546954770440F440F812FEF
:101420008F7090E09C01042E02C0220F331F0A949B
:10143000E2F714FF0AC08FE090E002C0880F991F06
:101440004A95E2F78095909502C080E090E0C695BD
:10145000C695C370822B932BC23049F058F4C1302B
:1014600019F00E94C40BC3C00E94BB0BC0C00E94F5
:10147000CD0BBDC00E94B80BBAC0DD2319F08C2F74
:10148000817001C08695882309F4B1C0412F42952F
:1014900046954770440F440F812F8F7090E09C0158
:1014A000042E02C0220F331F0A94E2F714FF0AC071
:1014B0008FE090E002C0880F991F4A95E2F780956F
:1014C000909502C080E090E0C695C695C370822BCF
:1014D000932BC23049F058F4C13019F00E942C0C03
:1014E00086C00E94230C83C00E94350C80C00E94DD
:1014F000D90B7DC0CF70DD2339F08C2F0E94F10B0A
:10150000812F0E94120973C0812F0E9419098C2F0C
:101510000E94010C6CC0123F21F128F4103F41F0F1
:10152000113FC1F043C0133F19F1143F79F03EC0A1
:10153000DD2341F0053008F056C08C2F8F710E94DA
:10154000130C51C0063008F04EC0F7CF8091230332
:1015500082FD18C0DD2339F08C2F8F710E94F10BB2
:1015600042C0DD23C9F38C2F8F710E94010C3BC058
:10157000DD2329F08C2F8F710E94E50B34C00E946F
:10158000E00B31C0DD2349F0CF718C2F0E94F10BAD
:1015900063E08C2F0E94961026C081E00E94B41058
:1015A000023008F182E00E94B4101DC0DD2331F04A
:1015B000002391F2812F0E94DA0715C0002399F2CF
:1015C000193341F4FFEF27EE83E0F15020408040D3
:1015D000E1F704C0EFE3FCE93197F1F700C0000048
:1015E000812F0E94840888EF8C0D843020F40E94A3
:1015F0007D1F0E946907DD2089F00E94FF0F80FD9A
:101600000DC0F70115820E94F90F0E94F10BC7016E
:101610000E942B0B0E94F90F0E94010CCDB7DEB780
:10162000E8E00C947D240F931F93CF93DF93EC019C
:10163000688179818D810E94010D8C010E943E0C90
:101640000E94A90BB801CE010E942009DF91CF9121
:101650001F910F910895CF93DF93FC0124812223E2
:10166000D1F0EC010E94F20681110FC00E9403101C
:10167000882389F08D81882371F08091230382FF74
:101680000AC082E00E94B41006C0CE010E94130B73
:10169000CE010E94CD06DF91CF91089580E090E0C9
:1016A0000E94A31F80E090E00E94C81F0E942A10A1
:1016B0000E9456100E94AD170E948E1708958091C7
:1016C0000001909101010E9435200E944E0B089567
:1016D0000E941A100E945F0B089592959F70963099
:1016E00079F010F4925001C09A50923068F4803F23
:1016F00069F018F4883E40F409C0843F29F406C01C
:10170000883E20F0813F11F080E0089581E0089547
:10171000FC012481222339F0808191810E94F60C02
:101720000E946D0B089580E00895A6E0B0E0EBE91B
:10173000FBE00C9467242696E2E00C948324A7E057
:10174000B0E0E5EAFBE00C9467242796E2E00C9415
:101750008324089508950E94AA0B08950E94AB0B5C
:1017600008950E94AE0B9093DF018093DE010895EF
:101770000E94B10B08952091DE013091DF01822B90
:10178000932B0E94B10B08952091DE013091DF016F
:10179000822393230E94B10B08952091DE013091A2
:1017A000DF01822793270E94B10B08950E94AA0BA4
:1017B00008950E94D60B9093DD018093DC0108957B
:1017C00080E090E00E94D90B089521E030E0A9016B
:1017D00002C0440F551F8A95E2F7CA010E94D90B37
:1017E000089521E030E002C0220F331F8A95E2F70E
:1017F0008091DC019091DD01822B932B0E94D90B0B
:10180000089521E030E002C0220F331F8A95E2F7ED
:10181000209530958091DC019091DD018223932306
:101820000E94D90B089521E030E002C0220F331F3F
:101830008A95E2F78091DC019091DD018227932760
:101840000E94D90B08952091DC013091DD01822B9B
:10185000932B0E94D90B08952091DC013091DD017A
:10186000822393230E94D90B08952091DC013091AB
:10187000DD01822793270E94D90B08950895962FA2
:101880009770A1E001C0AA0F9A95EAF793E07695C8
:1018900067959A95E1F7660F771F660F771FFA0134
:1018A000E60FF71F40E050E0682F70E090819B0149
:1018B000042E02C0369527950A94E2F721702195EF
:1018C00029272A23292721934F5F5F4F4430510551
:1018D00069F70895FB01782F777023E09695879537
:1018E0002A95E1F7880F991F880F991FE80FF91FB4
:1018F00040E050E080E0219130E0072E02C03695B4
:1019000027950A94E2F721703327042E01C0220F95
:101910000A94EAF7822B4F5F5F4F4430510559F725
:101920000895282F862F973060F4273050F4622FC7
:1019300070E027E0929F600D711D112440EC51E092
:1019400007C09C5F923030F4622F70E04CEB51E0A6
:101950000E943F0C0895292F973058F4873048F49F
:1019600090E060EC71E037E0239F800D911D112421
:1019700006C02C5F223030F46CEB71E090E00E94E6
:101980006A0C089580E00895A0E0B0E0EAECFCE085
:101990000C9460247C010091DC011091DD018091A8
:1019A000DE019091DF01082B192BCFE0D0E0CC2491
:1019B000C394D12CC6010C2E02C0880F991F0A9423
:1019C000E2F780239123892B21F4219798F7B12CFA
:1019D00007C0BC2EB7018C2F0E94D2130197A9F328
:1019E0008B2DCDB7DEB7E9E00C947C24CF93DF9349
:1019F000EC010E94C40CBE010E94D213DF91CF9172
:101A000008951F93CF93DF93EB019091BB0199232E
:101A100021F0CB010E94F60C13C0882349F0CB01C2
:101A20000E94C40C182F682FCE010E94910C04C094
:101A3000CB010E94AB0C182FBE01812F0E94D21344
:101A4000DF91CF911F9108951F93CF93DF93C091A2
:101A5000E00117E08091E101C817A1F0D0E01C9FE0
:101A6000F0011D9FF00D1124EE51FE4F20813181B8
:101A7000428153816481758186810E949F0B2196EA
:101A8000C770E8CFDF91CF911F91089520911A027E
:101A900030911B0240911C0250911D0260911E0268
:101AA00070911F02809120020E949F0B0895CF9396
:101AB000DF938091200282958F7009F04EC0809153
:101AC0001F02882309F449C08091E0014091E1019F
:101AD00050911B0260911A02C0911C02D0911D020C
:101AE00077E08417D1F190E0789FF001799FF00DB5
:101AF0001124DF01AE51BE4F14962C91149722236E
:101B000049F111962C911197251324C02C9126137D
:101B100021C015962C91159721111CC012962D915C
:101B20003C9113972C1B3D0B283C310598F4809178
:101B300020028F70806180932002E851FE4F8081E7
:101B40008F70806180838AE192E00E942B0B0E945B
:101B5000240D03C001968770C4CFDF91CF91089503
:101B60002091E0019091E10157E02917A9F030E0C0
:101B7000529FF001539FF00D1124EE51FE4F7181E1
:101B8000761306C07081781303C07581741306C084
:101B90002F5F3F4F2770E9CF80E0089581E00895DF
:101BA000A4E1B0E0E6EDFDE00C945D248C0186E05C
:101BB000F801DE011F9601900D928A95E1F7F80178
:101BC0008481E5809AE1A92E92E0B92E90911E02BF
:101BD000911118C0882309F480C1EE20D9F1C80101
:101BE0000E94880BF82E8823A9F187E0F801D5011F
:101BF00001900D928A95E1F7C5010E94C7070E94E6
:101C0000570D98C0F801C080D18082809380F090F9
:101C10001F0220911C0230911D02A401421B530B94
:101C2000FF2009F406C1483C510508F0AFC08823E5
:101C300009F455C180912002282F207F90911B022A
:101C4000222361F09D1509F462C0C8010E94880B2F
:101C5000811173C0C8010E942B0B3FC19D1115C09B
:101C600090911A029C1111C0E1100FC08F70806119
:101C7000809320020E94460D8AE192E00E942B0B85
:101C800080912002F801868326C1E1103AC040E02D
:101C90006D2D8C2D0E94B00D40E06D2D8C2D0E947D
:101CA000B00DE82E811117C1CF86D88A8F8598890B
:101CB0000E94F60C292F22952F70243020F49F705B
:101CC000223028F009C02A50223080F014C0992315
:101CD00049F0811107C013C0992321F0F8019681C2
:101CE000907F69F0805E883030F409C0803F38F022
:101CF000815F833020F0C8010E942B0BEF2CFE2C5B
:101D0000EEC080912002816080932002E4C0909117
:101D10001A029C119ACFE11098CFF8018683C8016E
:101D20000E942B0B87E0F801AAE1B2E001900D922E
:101D30008A95E1F70E94460DD2C0EE2009F48ACFC1
:101D400020912002822F82958F7090E002978CF074
:101D500080911A0290911B02998788879B868A86B8
:101D600080911E028C871D862E87CE0108960E94C8
:101D70002B0B87E0F801AAE1B2E001900D928A9561
:101D8000E1F70E94570D0E94460DA7C090912002D6
:101D9000292F207FA1F4682D9A8A898AA6017A8941
:101DA0009E2D0E94950B8AE192E00E942B0B87E00A
:101DB000F50111928A95E9F70E94460D8CC088239F
:101DC00009F48DC080911B028D1111C080911A02FF
:101DD0008C110DC0E1100BC0F8019683C8010E9460
:101DE0002B0B87E0F50111928A95E9F778C0C801BD
:101DF0000E94880B882309F42DCFEE2009F42ACF06
:101E000020912002822F82958F7090E002970CF42F
:101E1000B0CF80911A0290911B029A8389839C8291
:101E20008B8280911E028D831E822F83CE010196AC
:101E30009ECF483C510508F040C0882309F44DC0AE
:101E4000FE2CEE2009F406CF80911B028D1127C0D5
:101E500080911A028C1123C09091200290FD16C02F
:101E6000892F82958F70282F30E02115310571F070
:101E7000F80196832F30310509F451CF8F5F982FE9
:101E80009295907F86818F70892B48CF87E0F801EB
:101E9000AAE1B2E001900D928A95E1F720C0C80155
:101EA0000E94880B811165CF809120028160809310
:101EB0002002C8010E942B0B12C0682D9A8A898AC1
:101EC000A6017A899E2D0E94950B87E0F50111925B
:101ED0008A95E9F72FCFF12C02C0FF24F3948F2DC0
:101EE0006496ECE00C947924AEE0B0E0EAE7FFE021
:101EF0000C946624288739874A875B876C877D879F
:101F00008E87CE0108960E94D00D882361F06C85E3
:101F10006623A9F1288539854A855B857D858E856F
:101F20000E949F0B2CC087E0FE013896DE011196BF
:101F300001900D928A95E1F76C85662301F120915D
:101F4000E10130E0C9010196877099274091E001D5
:101F500050E084179507E1F16D8397E0929FD001DF
:101F6000939FB00D1124AE51BE4FFE0131960190EA
:101F70000D929A95E1F78093E1010E94240D17E0FC
:101F80008091E0019091E101891779F1189FC001DA
:101F900011248E519E4F0E94D00D882331F1E09183
:101FA000E0011E9FF0011124EE51FE4F208131818E
:101FB000428153816481758186810E949F0B80914B
:101FC000E00190E00196877099278093E001D8CFD7
:101FD0000E94680B1092E1011092E001EAE1F2E048
:101FE00087E0DF011D928A95E9F72E96E3E00C94D5
:101FF0008224809121028695869586950895809108
:1020000021028770089590912102977081E009F470
:1020100080E0089580912D02089590912D02892BE2
:1020200080932D020895809590912D0289238093AD
:102030002D02089510922D02089590912C02892B63
:1020400080932C020895809590912C02892380938F
:102050002C02089510922C02089508950E942D10CC
:1020600008950E942E10089590912302292F28236D
:10207000821729F0982B909323020E943110089523
:1020800090912302292F282331F080958923809372
:1020900023020E943110089580912302882329F0A1
:1020A0001092230280E00E9431100895E091000117
:1020B000F091010180912D028083E0910001F09167
:1020C0000101908180912C02892B808380912302D1
:1020D000882381F0E0910001F09101019081892B2A
:1020E000808380910001909101010E94ED1F811178
:1020F0000E944C1080910001909101010E948A1F62
:1021000008950E942D1008950E94811008959091C5
:102110002202292F282331F08095892380932202DF
:102120000E94841008950E942D1008959091230319
:1021300092FF11C098E0899F90011124262B2093D3
:1021400021020E94F10B8091210286958695869549
:102150000E94931008950E94F10B0895109221029D
:1021600080E00E9493100895909121028095892328
:1021700080932102282F277069F4981759F09091C5
:10218000230392FF07C08695869586950E94010CD1
:102190000E94AE1008959091230392FB222720F90C
:1021A000281769F080FB92F9909323038091220312
:1021B000909123030E94131182E00E94B4100895AD
:1021C0008091230382FB882780F991E089270E9470
:1021D000CB10089581E00E94CB10089580E00E940A
:1021E000CB1008956FEF7FEF80E090E00E94E9242C
:1021F000089580E090E00E94B52421E0863E9E4F45
:1022000009F020E0822F089582E090E00E94AD2442
:10221000089583E090E00E94AD24089584E090E06A
:102220000E94B5240895BC0184E090E00E94E92456
:102230000895AB01BC018FE090E00E94DD24089579
:10224000AB01BC0183E190E00E94DD24089560E0D1
:1022500070E0CB010E942011089560E070E0CB0196
:102260000E9419110E9427110895A8E0B0E0EBE345
:10227000F1E10C94672466EE7EEF80E090E00E942E
:10228000E92460E082E090E00E94CB2460E083E0FB
:1022900090E00E94CB241092DF011092DE0160E0FA
:1022A00074E184E090E00E94E92460E086E090E040
:1022B0000E94CB246FEF87E090E00E94CB2440E0A7
:1022C00050E0BA0188E090E00E94DD2460E084E202
:1022D00090E00E94CB2460E087E190E00E94CB2454
:1022E00060E08CE090E00E94CB2460E08DE090E024
:1022F0000E94CB2419821A821B821C821D821E829C
:102300001F82188648E050E068E170E0CE01019637
:102310000E94BB2440E050E0BA0180E290E00E94BD
:10232000DD240E942D112896E2E00C9483240E9463
:1023300035110895682F8EE090E00E94CB24089517
:10234000A6E0B0E0E6EAF1E10C9465240E94CD201D
:102350008C0180912E0290912F020817190781F0AD
:1023600019821A820E94CD20682F49815A81792FC3
:1023700080E090E00E94940710932F0200932E02B9
:102380002696E4E00C9481240E94D92060933F02B9
:1023900070934002809341029093420260933B020B
:1023A00070933C0280933D0290933E0208950E94F8
:1023B000D92060933F027093400280934102909332
:1023C00042026093370270933802809339029093EF
:1023D0003A02089581E0089581E008950E94EC1189
:1023E000089508950E94F11108950E94F111089531
:1023F0000E94F51108950E94F11108950E94FB11A9
:1024000008950E94F111089586EB94E10E94731FD4
:102410000E9401120E94FE1108950E94F2110E9472
:10242000F11108950E94D5140E94680708950E9432
:10243000C4200E94C11C0E94A5150E94121280E0B7
:102440000E9432190E94F8110895A6E0B0E0EBE274
:10245000F2E10C945E240E94EA11811104C00E94F2
:10246000A01110E054C00E94BB1580E3E82E82E06A
:10247000F82E670100E0F60111916F01802F0E9494
:10248000F31481270F5F073019F08823A1F302C0EE
:10249000882329F38091430281FD0E94F9140E9450
:1024A000EE11A82E10E099249394812F0E94F3142A
:1024B000B82EF701C080C82609F100E0DD24D394CE
:1024C0008C2D8D21A9F0AA2099F009831A830E94EE
:1024D000CD209C838B839D8291E08B2D8D2109F4EF
:1024E00090E049815A816B817C818D810E949407A3
:1024F0000F5FDD0C073021F7F701B0821F5FFFEFA0
:10250000EF1AFF0A173089F60E94C41111E00E94E9
:10251000DE1C882319F00E94D71111E00E94A41B31
:1025200011110E94771A0E94CF170E947B072696EE
:10253000EBE00C947A241F93CF93DF930E94D71380
:10254000EC01C11580E5D807E8F5C11590E4D9077D
:1025500008F0A8C0C03ED10530F5CD3CD10508F04B
:1025600094C0C83AD10578F4C53AD10508F083C0C3
:10257000C130D10509F47CC008F4F2C0C430D105E3
:1025800008F0F1C0EDC0C33CD10508F0E9C0C85A5D
:10259000D0E0CC0FDD1FCC5ADE4F0990D881C02D82
:1025A000CE019464E1C0C11580E2D80708F0CBC029
:1025B000C11591E0D90708F06BC0C83ED10508F4F9
:1025C000D2C0CEC0C03682E5D80728F5C03492E527
:1025D000D90708F079C0C03282E5D80708F06CC08E
:1025E000C11592E5D90708F481C04C2F4695469550
:1025F00080E2489FA0011124C37021E030E0C901AE
:1026000002C0880F991FCA95E2F7EA01C82BD92B9F
:10261000CE019D68A9C0C03A82E5D807B8F48C2FD6
:102620008F71C03892E5D90708F07BC086958695F2
:1026300090E2899F90011124C37081E090E002C074
:10264000880F991FCA95E2F79A6868C0C03C82E576
:10265000D80708F46DC0C03E92E5D90708F080C0E5
:10266000CF71DD27DC2FCC27CE01806F906A7CC034
:1026700081E090E079C0C55AD0E0C657DE4F88812E
:10268000C82FD0E0CE0190646FC0CE0190656CC0C1
:102690008D2F0E947314182FCE0199270E94D713F3
:1026A0001F715CC0CE0199270E94D713CC27DF7021
:1026B000D06A8C2B9D2B58C0CF71D0E0DC2FCC275B
:1026C000CE01816F906A50C08C2F8F718695869550
:1026D00090E2899F90011124C37081E090E002C0D4
:1026E000880F991FCA95E2F79C6818C08C2F8F71CC
:1026F0000E94731495E0D695C7959A95E1F7CF702F
:10270000D0E0DC2FCC27282F30E084FF05C084E008
:10271000220F331F8A95E1F7D069CE01822B932BCC
:1027200023C090E0D82FCC27CE01846F906A1CC0C4
:102730008C2F8F710E9473148F7190E0D82FCC274B
:10274000CE01906211C08D2F8F710E947314182FCB
:10275000CE0199270E94D7131F719062912B04C05C
:1027600080E090E001C0CE01DF91CF911F910895EC
:10277000462F672F773028F4473088F40E945B0695
:1027800008957D3F21F441110AC041E004C07C3F1F
:1027900031F4411104C060E00E947406089580E0A5
:1027A00090E008950E94B8130E949B120895823809
:1027B000910569F1B0F48133910509F475C048F4CD
:1027C0008932910509F467C08A32910509F471C014
:1027D00008958533910509F459C089339105B9F0FD
:1027E0000895833E910589F138F4803E9105D1F03A
:1027F000823E910529F10895863E9105C9F1873EF3
:102800009105D9F1843E910509F06CC027C0209153
:10281000220320FD57C021FD55C02091230323FD35
:102820005BC008958091220380FD48C080912303FE
:1028300080FF48C08091220384FD46C083EE51C0D2
:102840008091220382FF3CC0F5CF8091220382FD5C
:1028500037C08091230380FD35C0ECCF80912303E6
:1028600081FF36C08091220384FD2EC087EE39C0DF
:102870008091220383FF2AC0F5CF8091220383FD3C
:1028800025C08091230381FD23C0ECCF80912203DA
:1028900085FD22C01FC08091220385FD1BC0809151
:1028A000230383FF19C00AC08091220386FD16C04E
:1028B00017C08091220386FD13C010C089E311C0A8
:1028C00082EE0FC080EE0DC080E00BC086EE09C026
:1028D00084EE07C085E305C089E203C08AE201C037
:1028E00081E390E008959091220392FF0DC0282F7C
:1028F0002871283019F4877F846006C0282F24713E
:10290000243011F48B7F886093FF0DC0282F28712D
:10291000283119F4877E846106C0282F2471243160
:1029200011F48B7E88612091230320FF0DC0382F86
:102930003871383019F4877F816006C0382F3171C3
:10294000313011F48E7F886021FF0DC0282F28714F
:10295000283119F4877E816106C0282F2171213129
:1029600011F48E7E886194FD877E089580E008953D
:102970000E94F21008950E94BB152FEF86E791E0A8
:10298000215080409040E1F700C000000E94BB153C
:1029900080E00E94F31480FF04C00E94B8140E94DB
:1029A0001A2108950E94BB1408950E94F910811104
:1029B00002C00E9497110E940411809343020E945A
:1029C0000E1190932303809322030E94D2140E943D
:1029D000091190E00E94B80B8091DC019091DD011B
:1029E0000E94D60B0895E82FF0E0E55DFC4F808152
:1029F0000895089580EA8A95F1F7089500C0089532
:102A00000E94FA14089508950E94031508950E94E3
:102A1000041508950E94031508950E940A1508954B
:102A2000F894E82FE295EF70F0E031A1282F2F7095
:102A300081E090E001C0880F2A95EAF7982F9095E1
:102A4000932391A392A1892B82A3789408950F9345
:102A50001F93CF93DF93C4E9D1E089918F3F11F0A9
:102A60000E94101581E0CB39D807B9F7CDE8D1E045
:102A700004E911E089918F3F11F00E9410150C17A5
:102A80001D07C1F7DF91CF911F910F910895A0E02D
:102A9000B0E0EDE4F5E10C9461248C01C62FD0E0A8
:102AA000CE018C569E4F7C01FC0190819F3F09F422
:102AB00047C0D62EF894E92FE295EF70F0E081A19F
:102AC0009F7021E030E001C0220F9A95EAF7822B37
:102AD00081A382A12095282322A378940E94FE142A
:102AE000EDE8F1E044E951E031E0C12C21912F3FC4
:102AF00089F0A22FA295AF70B0E090968C9190E0F3
:102B00002F7002C0959587952A95E2F780FD02C047
:102B1000832F01C080E0C82A330F4E175F0731F7BB
:102B2000F70180818F3F11F00E94101561E0C11004
:102B300001C060E08D2D0E940015C00FD11FC8821A
:102B4000CDB7DEB7E8E00C947D240E94271587E01E
:102B5000EBE2F3E0DF01982F1D929A95E9F7E4E2AA
:102B6000F3E0DF011D928A95E9F787E00E94F615F0
:102B70000E940D150895A7E0B0E0E1ECF5E10C949A
:102B800064248E010F5F1F4F87E0F80111928A9530
:102B9000E9F7F12C6F2DC8010E944715F394F7E077
:102BA000FF12F8CF47E050E0B80184E293E00E94C2
:102BB000972421E0009709F420E0892B41F087E079
:102BC000F801A4E2B3E001900D928A95E1F747E0A5
:102BD0006BE273E084E293E00E94F715182F0E94E5
:102BE0000715812F2796E5E00C9480240895EF9235
:102BF000FF920F931F93CF93DF937C018B01C42F20
:102C0000222349F081E0809346020E94CD209093D8
:102C100045028093440280914602811102C080E007
:102C20001AC080914402909145020E94E5200597C8
:102C3000B0F3D0E0AE01B701C8010E949724892B00
:102C400039F0AE01B701C8010E94A42481E001C09F
:102C500080E010924602CDB7DEB7E6E00C947F2408
:102C60000E944A210E9417120E945B2108950E942F
:102C70006A200E943A210E9404120E9430160E948B
:102C800069210E940D12FBCF80914D0280FF06C08A
:102C90006091070170E0660F771F26C081FF04C0B6
:102CA0006091070184E005C082FF07C060910701C1
:102CB00088E0689FB001112417C090914C029923BD
:102CC000D1F060910601961788F72091070188E0FE
:102CD000289F90011124929FA001939F500D1124D1
:102CE00070E0CA010E943D246038710540F461150E
:102CF000710519F406C068E070E0862F08958FE72B
:102D0000089581E0089580914D0280FF08C0609190
:102D1000030170E0759567957595679521C081FFF2
:102D200006C06091030170E07595679519C082FF38
:102D300004C06091030170E010C090914B02992390
:102D400099F0609102019617A0F780910301899F85
:102D5000C001112470E00E943D246038710540F4E8
:102D60006115710519F406C061E070E0862F0895C1
:102D70008FE7089581E008958D3C21F40E94441668
:102D8000819504C08E3C29F40E9444168093510220
:102D900008958F3C21F40E944416819504C0803D23
:102DA00029F40E944416809350020895893D19F435
:102DB0000E94831605C08A3D31F40E9483168195D6
:102DC0008093520208958B3D21F40E9483168195D1
:102DD00004C08C3D29F40E94831680935302089509
:102DE0009FE2980F983078F421E030E0A90102C00A
:102DF000440F551F9A95E2F7CA0190914F02892B13
:102E000080934F0208958D3D21F480914D028160A1
:102E10000BC08E3D21F480914D02826005C08F3D34
:102E200029F480914D02846080934D0208958D3C79
:102E300039F49091510297FF35C01092510259C058
:102E40008E3C29F4909151021916BCF32BC090913D
:102E500050028F3C29F497FF25C01092500249C0C0
:102E6000803D19F41916CCF31DC090915202893D92
:102E700029F41916BCF4109252023BC08A3D19F491
:102E800097FF10C0F8CF8B3D39F49091530297FF14
:102E900009C0109253022DC08C3D21F49091530231
:102EA0001916BCF39FE2980F983080F421E030E0CF
:102EB000A90102C0440F551F9A95E2F7CA018095F7
:102EC00090914F02892380934F0213C08D3D21F4CE
:102ED00080914D028E7F0BC08E3D21F480914D027A
:102EE0008D7F05C08F3D29F480914D028B7F8093AB
:102EF0004D0280915002811106C0809151028111D2
:102F000002C010924C0280915202811106C0809141
:102F10005302811102C010924B0208950E94CD20ED
:102F200020915002211104C020915102222321F04E
:102F300090934A028093490220915202211104C0C9
:102F400020915302222321F090934802809347025C
:102F50008EE492E00E94951F0895EEE4F2E086E090
:102F6000DF011D928A95E9F710924C0210924B02F4
:102F700010924D020895FC01828181110DC0838160
:102F800081110AC08481811107C091E0858181117E
:102F900001C090E0892F01C081E081700895A6E012
:102FA000B0E0E5EDF7E10C94662486E0EEE4F2E0B3
:102FB000DE01119601900D928A95E1F71092500270
:102FC0001092510210925202109253028B81811181
:102FD00004C08C81882309F45FC0809149029091DC
:102FE0004A020E94E520AC0190914C02992339F0ED
:102FF0002091080130E02417350758F04DC020918A
:1030000009018AE0289F900111242417350718F040
:1030100043C09F3F19F09F5F90934C021B81112387
:1030200061F00E944416111614F09FEF01C091E068
:10303000989F902D1124909350021C81112361F0D0
:103040000E944416111614F09FEF01C091E0989F62
:10305000902D112490935102309150023323E1F0CE
:10306000209151022223C1F045EB3403C001112409
:10307000992319F09093500203C081E0809350028D
:1030800035EB2303C0011124992319F090935102C9
:1030900003C081E0809351028D81811104C08E8133
:1030A000882309F45FC080914702909148020E94F2
:1030B000E520AC0190914B02992339F02091040155
:1030C00030E02417350758F04DC0209105018AE003
:1030D000289F900111242417350718F043C09F3F03
:1030E00019F09F5F90934B021D81112361F00E94A4
:1030F0008316111614F09FEF01C091E0989F902D58
:103100001124909352021E81112361F00E948316B4
:10311000111614F09FEF01C091E0989F902D11249B
:1031200090935302309152023323E1F020915302E5
:103130002223C1F045EB3403C0011124992319F077
:103140009093520203C081E08093520235EB230337
:10315000C0011124992319F09093530203C081E018
:1031600080935302BE016F5F7F4F8EE492E00E9416
:103170003C20811105C08EE492E00E94BB178111B2
:103180000E948E1786E0FE013196AEE4B2E0019017
:103190000D928A95E1F72696E3E00C948224AB0128
:1031A00024E630E0BC0188E70E94271F21E0892B3C
:1031B00009F020E0822F0895EF92FF920F931F9362
:1031C000CF93DF93EC017B0164E670E088E70E9417
:1031D000851E8C01EC0EFD1ECE15DF0541F40E940C
:1031E0006F1F81E00115110569F080E00BC017FD2C
:1031F000F6CFFE01849164E670E00E94F81E8C0117
:103200002196EACFCDB7DEB7E6E00C947F240F938A
:103210001F939B0104E610E0AC0160E488E70E9484
:10322000481F21E0892B09F020E0822F1F910F9188
:1032300008950E947F1E08950895E2E3F3E080E080
:1032400092E0DF019C011D9221503040E1F7F093A4
:103250003705E09336058FEF9FEF909380028093C0
:103260007F020895CF930E9429060E941C19809323
:103270007B0280FD02C080E801C080E280937A0278
:103280000E9419196BE070E081EE92E00E94DC1858
:10329000811102C0C0E031C080917B0265E070E026
:1032A00081FD03C08CED92E002C087ED92E00E94A8
:1032B000DC18882379F36DE070E08AEC92E00E94DC
:1032C000DC18C82F882331F30E94D920DC01CB0100
:1032D000805A9541AF4FBF4F80933205909333058D
:1032E000A0933405B09335050E941D1981E08093A9
:1032F0007E0280937D0210927C028C2FCF910895E4
:1033000020917A0236E0839FC0011124629F800DD4
:10331000911D1124811522E0920714F080E090E0C5
:103320008E5C9C4F909337058093360508952091CD
:103330003605309137052C52334040917A02642F84
:1033400070E0C9010E942924481B463010F4240F64
:10335000311D211582E0380710F020E030E02E5CAE
:103360003C4F309337052093360508951F93CF9334
:10337000DF93162F8A3011F481E003C08D3021F4E1
:1033800080E00E942E1A66C0C0913605D0913705A4
:1033900096E0FE01A4E5B2E001900D929A95E1F766
:1033A000803E30F086E0FE0111928A95E9F70BC06D
:1033B000F6E08F9FB001112464517D4F46E050E04C
:1033C000CE010E948E24111135C0C0913605D091D6
:1033D000370546E050E0BE0184E592E00E94972464
:1033E000892BB1F1C253D3409E0185E036952795D4
:1033F0008A95E1F781E090E0AC0102C0440F551FCF
:103400002A95E2F720917F0230918002242B352B00
:10341000259645E0D695C7954A95E1F702C0880FF5
:10342000991FCA95E2F7822B932B90938002809389
:103430007F020EC0E0913605F09137059F012A5FAB
:103440003F4F2E173F0709F2808180958193F9CF76
:103450000E949719DF91CF911F910895CF93E82F84
:1034600020913605309137052253334040917A023E
:10347000642F70E0C9010E942924481B842FEE2389
:1034800059F066E00E941D24C82FC150B0F060E0E2
:1034900080E20E94B619F9CFA901480F511D4115CC
:1034A000524018F080E020E030E0280F311D2E5C03
:1034B0003C4F3093370520933605CF9108951F93E5
:1034C000CF93DF93EC01162FFE018491882329F01E
:1034D000612F0E94B6192196F7CFDF91CF911F91EE
:1034E00008950E945F1A81E00E942E1A089580912B
:1034F0007E028823F9F00E94D920DC01CB01805A9A
:103500009541AF4FBF4F8093320590933305A09301
:103510003405B093350580917D0281110BC062E0C6
:1035200070E088EC92E00E94DC18882319F081E0BA
:1035300080937D0280917D020895A0E0B0E0E3EAEF
:10354000FAE10C94592480917F0290918002892B9A
:1035500009F4DBC080917E02882309F4D6C08091F3
:103560007C028111D2C00E94771A20917F02309193
:1035700080022115310509F4C8C090E041E050E017
:10358000C92FD0E08A01092E02C0000F111F0A9432
:10359000E2F7B80162237323672B11F49F5FF0CF2A
:1035A00080917B029E01F5E0220F331FFA95E1F72F
:1035B00080FF13C0E5E036952795EA95E1F7220FE5
:1035C000220F220F20930C0110920F01295F2093EC
:1035D0000D0183E08093100111C0220F232F221FC1
:1035E000330B31959295990F907690930C0120931F
:1035F0000F01915E90930D012093100167E070E040
:103600008AE091E00E94CF18882309F47EC080915F
:103610007B0280FF60C080E2EAE5F2E0DF011D92FC
:103620008A95E9F76E0155E0CC0CDD1C5A95E1F75F
:10363000AFE9B1E06BE9462E61E0562E83EA91E0F6
:10364000772473942D91E20139912E01B601630F15
:10365000711D6E5C7C4F30E0265A3D4FF90147E00A
:10366000A42EAF01421B530B872C01C0880C4A9536
:10367000EAF77B01912CE701B9907E01B8204A2D31
:1036800049194770642E042E000C550BDB2D01C028
:10369000DD0F6A94EAF76D2E5195419551094770F7
:1036A000552701C0B6944A95EAF7BD2A4081B42A4D
:1036B000B082939448E09412DECFAA943196CFEF73
:1036C000AC12CFCF8A179B0709F0BCCF60E270E045
:1036D0008AE592E00AC0CE0125E0880F991F2A955D
:1036E000E1F760E270E08E5C9C4F0E94071988232E
:1036F00061F00095109580917F02909180020823DF
:1037000019231093800200937F02CDB7DEB7E0E16A
:103710000C94752480917E0290917D02882389F01B
:10372000992369F062E070E086EC92E00E94DC1878
:10373000811103C080917D02089510927D029091C5
:103740007D0281E0892708950F931F9380917E0267
:10375000882319F160E080E00E9480190E942B0606
:103760000E949D1A80917D028823B9F00E94D92081
:1037700000913205109133052091340530913505C3
:10378000DC01CB01801B910BA20BB30B8F3F9F4F32
:10379000AF4FBF4710F40E948A1B1F910F910895ED
:1037A000CF93DF93FC01DB0115968C91882309F4FC
:1037B000DDC09F0130572332310508F0D8C0EF013A
:1037C0000E940E119093230380932203FE01E15087
:1037D000F047E232F10520F4E05CFF4F0C945124F5
:1037E000809122038160AAC0809123038860B2C0C7
:1037F000809122038260A2C08091220320C0809128
:10380000220388609BC0809123031EC08091230304
:103810008260A0C080912203806190C080912203C9
:1038200080628CC080912203806488C00E94680BF3
:1038300080912203806882C0809122038860846026
:103840007DC0809123038260816084C080912203C7
:103850008E7F74C080912303877F7CC08091220378
:103860008D7F6CC08091220320C080912203877FCE
:1038700065C0809123031EC0809123038D7F6AC0A1
:10388000809122038F7E5AC0809122038F7D56C083
:10389000809122038F7B52C00E94680B809122038B
:1038A0008F774CC080912203877F8B7F47C08091A8
:1038B00023038D7F8E7F4EC08091220382FB2227BF
:1038C00020F991E0922790FB82F990FB83F936C0B2
:1038D00080912303982F909591708E7F892B90FB78
:1038E00081F938C08091220386FB222720F991E0DC
:1038F000922790FB86F922C00E94680B80912203D8
:1039000087FB222720F991E0922790FB87F916C0C8
:1039100081E001C080E00E949A111EC080912203C4
:1039200084FB222720F991E0922790FB84F906C0BE
:1039300080912203982F909590FB80F98093220329
:103940000BC08091230383FB222720F991E092276B
:1039500090FB83F9809323038091220390912303AA
:103960000E9413110E94680B80E001C081E0DF918A
:10397000CF9108958FE891E00197F1F700C0000022
:10398000089581E08093820224982C9A25982D9A9C
:103990000E94BA1C30918202E4E8F2E090E09317B2
:1039A00061F083B1829581701D9902C020E001C051
:1039B00022E0822B81939F5FF2CF0895A8E1B0E0CF
:1039C000E4EEFCE10C945A2410E000E082E0982E32
:1039D00094E0A92EB12C2DEF822E772473943CEF26
:1039E000632E43E0542E80918202181708F0A5C080
:1039F000E12EF12CE3B1E295E1701D9902C080E067
:103A000001C082E08E2BD701AC57BD4FEC912E2F19
:103A1000237030E0482F082E000C550B2417350773
:103A200009F489C0EE0FEE0FE82BEC93EF70F0E095
:103A3000ED55FE4FC7018D579D4F6C019081F601EA
:103A40008081890F80838430A4F1F701EF57FD4F07
:103A500080818F5F80830E94CD201D876E86682FB6
:103A60008F87988B598A7A8A412F5CEF792F83E070
:103A700091E00E9494078FE39CE90197F1F700C061
:103A800000000E94CD201B8B6C8A682F8D8B9E8B33
:103A90005F8A188E412F5CEF792F83E090E00E94BF
:103AA0009407EFE3FCE93197F1F700C0000021E053
:103AB00001C020E0F60180818D3F9CF5F701EF57B2
:103AC000FD4F8081815080830E94CD2019838A829E
:103AD000682F8B839C839D827E82412F5DEF792F9F
:103AE00082E091E00E9494078FE39CE90197F1F74F
:103AF00000C000000E94CD201F838886682F898720
:103B00009A879B861C86412F5DEF792F82E090E09B
:103B10000E949407EFE3FCE93197F1F700C0000041
:103B200021E0F6018081082E000C990BB5010E945E
:103B30003D248083022B1F5F56CF802F6896EFE0D5
:103B40000C947624CF93DF9386319C4741F5EB01AB
:103B50000E940A10982F8D8120910001309101015F
:103B6000882379F09A7A81E009F480E080938502D5
:103B7000911102C069E201C065E3C9010E942F20D2
:103B80000AC080918502811102C069E201C065E32B
:103B9000C9010E9432200E94561080E001C081E0DD
:103BA000DF91CF9108950F931F93CF93DF93C42F8D
:103BB000D22FFC0185818823B1F0409388020E94B6
:103BC000CD20909387028093860280E28C0F88300C
:103BD00008F04DC0C77081E001C0880FCA95EAF7B0
:103BE0000E94120944C080918802481330C080911D
:103BF0008602909187020E94E520883C910538F565
:103C000010E21D0FCD17B9F080E28C0F883040F420
:103C1000C77081E001C0880FCA95EAF70E941909B0
:103C2000183010F581E09D2F977001C0880F9A958C
:103C3000EAF70E941209802F0E9408091830B8F490
:103C4000D77081E001C0880FDA95EAF70AC080E2F8
:103C50008C0F883060F4C77081E001C0880FCA956E
:103C6000EAF70E94190903C0802F0E940809DF911A
:103C7000CF911F910F9108950F93FC01E851FC47DC
:103C8000E730F10590F5CB01EE59FF4F0C9451242C
:103C900006E221EE41EE6AE17CE723C007E225EE71
:103CA00045EE6BE17CE71DC006E221EE40EE68E1E7
:103CB0007CE717C007E225EE44EE69E17CE711C01E
:103CC00006E221EE42EE6CE17CE70BC007E225EE56
:103CD00046EE6DE17CE705C008E221E045EE6EE1CD
:103CE0007CE70E94D31D80E008C0FB01858188230A
:103CF00019F01092880201C081E00F91089510928E
:103D0000B9008CE08093B8000895A0E0B0E0EBE843
:103D1000FEE10C945E24B82EEB010E94CD206C01D4
:103D2000C431D10558F0CF3F8FEFD80759F0CE01FD
:103D300064E170E00E9429247B0107C0EE24E39433
:103D4000F12C03C025E0E22EF12C84E8A82E94EAA1
:103D5000992E1092BC009092BC000E94CD208C0144
:103D60008091BC0087FD07C0C8010E94E520E816CD
:103D7000F906B0F729C08091B900887F883041F0FA
:103D80008091B900887F803119F00FEF1FEF1EC0BE
:103D9000B092BB00A092BC000E94CD208C0180910B
:103DA000BC0087FD07C0C8010E94E520E816F9069F
:103DB000B0F70AC08091B900887F883111F0803453
:103DC00021F700E010E00EC00EEF1FEFCF3F8FEFA6
:103DD000D80709F4BECFC6010E94E520C817D9074D
:103DE00008F0B7CFC801CDB7DEB7EBE00C947A246A
:103DF0000F931F93CF93DF93EB018093BB0084E875
:103E00008093BC000E94CD208C018091BC0087FD76
:103E10000DC0CF3F8FEFD807C1F3C8010E94E52046
:103E2000C817D90790F78EEF9FEF0CC02091B9000B
:103E3000287F81E090E0283211F480E090E09195B5
:103E400081959109DF91CF911F910F910895A0E085
:103E5000B0E0EDE2FFE10C9461246B018A0179018D
:103E6000B9010E94851EE6010C0D1D1DC017D1076A
:103E700041F424E92093BC00CDB7DEB7E8E00C9410
:103E80007D2497FDF6CFB70189910E94F81EEECFF1
:103E9000A0E0B0E0EEE4FFE10C946124C62F6A01DB
:103EA0007901B8010E94851E97FD11C0B8018C2FC1
:103EB0000E94F81EE601EC0CFD1CCE15DF0539F062
:103EC00097FD05C0B80189910E94F81EF6CF24E93C
:103ED0002093BC00CDB7DEB7E8E00C947D2484E9E4
:103EE0008093BC0008959093B5018093B401089528
:103EF00090938E0280938D020895E0918D02F0914F
:103F00008E02309729F00190F081E02D09950895F7
:103F100080E00895E0918D02F0918E02309721F0BB
:103F20000280F381E02D09950895E0918D02F091D2
:103F30008E02309739F022E0DC012C930480F58169
:103F4000E02D09950895A3E0B0E0E9EAFFE10C94C3
:103F5000672420918B0230918C0228173907A1F039
:103F600090938C0280938B02E0918D02F0918E02EF
:103F7000309751F023E029839B838A830680F78161
:103F8000E02DCE01019609952396E2E00C9483245E
:103F9000A3E0B0E0EEECFFE10C94672420918902ED
:103FA00030918A0228173907A1F090938A028093F2
:103FB0008902E0918D02F0918E02309751F024E059
:103FC00029839B838A830680F781E02DCE010196A9
:103FD00009952396E2E00C948324FC01329697E045
:103FE00080E0915029F021912223D9F38F5FF9CFFE
:103FF0000895662349F0FC013296089621916217D4
:1040000029F0E817F907D1F780E0089581E00895D5
:104010009C01FC0132969FEF80E04191461789F0A8
:104020009F3F19F4411101C0982F8F5F8630A9F787
:104030009F3F39F0F901E90FF11D97FDFA95628371
:10404000089508959C012A5F3F4FFC014281461369
:1040500001C01282019682179307B9F708950E9452
:10406000082008950E9422200895029626E0FC016F
:1040700011922A95E9F7089546E050E00E949724AE
:1040800021E0892B09F420E0822F089508950E94F1
:10409000462008950E94472008950E9446200895D2
:1040A0000E94462008950E9446200895CF930E94C2
:1040B00050200E94BB150E944D20C0E08C2F0E9412
:1040C000F314811104C0CF5FC730C1F701C081E094
:1040D000CF91089508951F920F920FB60F92112459
:1040E0008F939F93AF93BF9380918F02811113C0E1
:1040F0008091380590913905A0913A05B0913B0522
:104100004196A11DB11D8093380590933905A09368
:104110003A05B0933B05BF91AF919F918F910F905E
:104120000FBE0F901F90189580919202882331F155
:104130000E94490710928F0220E488E190E00FB6B8
:10414000F894A895809360000FBE2093600083B719
:10415000817F846083BF83B7816083BF78948895B3
:1041600083B78E7F83BF0FB6F894A89580916000C7
:10417000886180936000109260000FBE08950E94D5
:10418000680B0E945007089582E084BD93E095BDBE
:104190009AEF97BD80936E0008952FB7F8948091A1
:1041A000380590913905A0913A05B0913B052FBF94
:1041B00008952FB7F8946091380570913905809172
:1041C0003A0590913B052FBF08959C014FB7F89495
:1041D0008091380590913905A0913A05B0913B0541
:1041E0004FBF821B930B089578941F920F920FB6C6
:1041F0000F9211248F939F93AF93BF9380913805B3
:1042000090913905A0913A05B0913B050196A11D09
:10421000B11D8093380590933905A0933A05B0936A
:104220003B05BF91AF919F918F910F900FBE0F9063
:104230001F90189598E088E10FB6F894A8958093A0
:1042400060000FBE90936000A895F894D8E0CEEF80
:1042500028E3299320E0299314BEFFCF089598E026
:1042600088E10FB6F894A895809360000FBE9093F4
:104270006000FFCF0E94CD20909391028093900226
:1042800090E080E80FB6F89480936100909361000D
:104290000FBE08950E940224539A80E0815041F09D
:1042A000A895EFE9FFE03197F1F700C00000F6CFE5
:1042B0005398789408950E942D220E94781F2FEF22
:1042C00080E792E0215080409040E1F700C000007C
:1042D000089580916305882389F0109263050E94F8
:1042E000CD20909391028093900280919202882336
:1042F000D1F1109292020E94BF2011C080919202CF
:10430000811111C080919002909191020E94E5204C
:10431000069728F081E0809392020E949420809179
:104320009202882301F10E9494200E945620882343
:1043300039F1F8942AB15B9A822F8C608AB99BB1CB
:104340008CE098279BB93FE748E391E0315040402B
:104350009040E1F700C000009BB189278BB92AB9D2
:104360005B98789408950E940B23809169058823B7
:1043700029F08091470584FD0E9425120E94D421D6
:1043800008958091210308952091800524FF03C0A2
:1043900063E00E94062308952091800524FF03C056
:1043A00066E00E9406230895CF93DF93CAE0D0E031
:1043B0008091470584FF18C080919E0290919F02D2
:1043C0009817E1F028E0829FC001112468E0805630
:1043D0009D4F0E94012380919E0290E001968F7074
:1043E000992780939E020AC00E940B238FE99FE0C9
:1043F0000197F1F700C000002197D1F6DF91CF912E
:104400000895CF93DF93EC01A0919F02B0E0CD011E
:1044100001968F70992720919E02281779F093E0DA
:10442000AA0FBB1F9A95E1F7A056BD4F98E0FE0179
:1044300001900D929A95E1F780939F020E940B23C1
:104440000E94D42188E0FE01A6E9B2E001900D921D
:104450008A95E1F7DF91CF91089581E191E0089588
:10446000FC01808180768032A1F58181813061F408
:1044700084819581892B69F586E992E090936505A1
:104480008093640588E00895823041F480E293E0EF
:10449000909365058093640581E008958A3021F446
:1044A00083818093200315C0893099F482819381A0
:1044B0008115924081F484819581892B61F481E09A
:1044C00080939502868197819093940280939302C2
:1044D00002C080E008958FEF0895209193023091FB
:1044E0009402232B71F020919502213051F4FC01AC
:1044F000808180932103109294021092930281E0B4
:1045000008958FEF08950895FC0193819330B1F0E1
:1045100068F4913081F0923009F04FC08CE298E05D
:1045200090936505809364058BE308959132F9F0CB
:10453000923269F142C087E698E013C082818130EF
:1045400071F028F08230C9F589E798E00AC081EA65
:1045500098E0909365058093640584E008958DE864
:1045600098E0909365058093640582E108958281C7
:10457000882329F0813009F587E598E002C08EE3B1
:1045800098E0909365058093640589E0089584819F
:104590009581009751F0019781F485EA98E0909316
:1045A0006505809364058BE7089580E299E0909318
:1045B00065058093640580E4089580E008951F9365
:1045C000CF93DF93162FEA01288124FF05C039819C
:1045D00028E82327298302C02AE52883212FFC010C
:1045E000CE010296DC0131913D9321501216DCF38D
:1045F000612F0E94E4041C5F1883DF91CF911F910B
:10460000089547E455E00E94DF22089540E855E010
:104610000E94DF220895CF93DF9360916605635077
:1046200067FD93C080916205CCE0D0E0C81BD10942
:10463000C659DA4F80916105803120F4CE010E9485
:10464000832281C08D3209F06EC0683009F07BC0D2
:1046500083EC80933C058AE580931A0110926005F3
:104660008881807621F0CE010E94302249C09A8153
:10467000109245058981811106C01092460525E4F6
:1046800035E082E038C0853019F49093670530C07A
:104690008630A1F48B81813041F0823031F083305B
:1046A00021F0813211F0823221F4CE010E94842265
:1046B00001C080E090E49093600522C0883089F0CA
:1046C000893019F49093690513C08A3069F08B30F2
:1046D00079F48BE480934805809381058093540599
:1046E00007C029E635E002C025E435E081E003C0DB
:1046F00025E435E080E0309365052093640509C02A
:104700008F3F39F4988197FD8E8190E890936005F2
:1047100007C09F81911104C09E81981708F4892FCA
:104720008093190110C08091600587FF0CC0CE01F5
:104730000E946D228F3F21F48EE180931A0103C005
:104740008111109219011092660580911A0184FF5F
:104750004CC0809119018F3F09F447C0C82F8930A0
:1047600008F0C8E08C1B8093190190913C0588E803
:10477000892780933C05CC2359F180916405909161
:1047800065052091600526FF12C0ACE3B5E02C2F33
:10479000AC014C535540FA01EA0FFB1FE49111960E
:1047A000EC931197215011962111F5CF08C0EDE33C
:1047B000F5E0DC012C2F3D9131932150E1F701967A
:1047C0002FEF2C0F820F911D909365058093640548
:1047D0006C2F8DE395E00E94E404CC5FCC3019F09F
:1047E0008FEF80931901C0931A0184E199B19C70F5
:1047F00031F48150D9F71092670510925F05DF916F
:10480000CF910895CF93DF93E9E6F0E0808188604F
:104810008083E99AC7E4D5E08BE48983A0E8B5E01A
:1048200011968C931197E3E5F5E081838AE58883FF
:104830008C938083DF91CF910895991B79E004C018
:10484000991F961708F0961B881F7A95C9F78095CF
:104850000895AA1BBB1B51E107C0AA1FBB1FA617C7
:10486000B70710F0A61BB70B881F991F5A95A9F719
:1048700080959095BC01CD01089597FB072E16F405
:10488000009407D077FD09D00E94292407FC05D0A9
:104890003EF4909581959F4F0895709561957F4F57
:1048A0000895EE0FFF1F0590F491E02D09942F92CB
:1048B0003F924F925F926F927F928F929F92AF92B0
:1048C000BF92CF92DF92EF92FF920F931F93CF93FD
:1048D000DF93CDB7DEB7CA1BDB0B0FB6F894DEBF94
:1048E0000FBECDBF09942A88398848885F846E84BA
:1048F0007D848C849B84AA84B984C884DF80EE8004
:10490000FD800C811B81AA81B981CE0FD11D0FB60C
:10491000F894DEBF0FBECDBFED010895FB01DC01B1
:1049200002C005900D9241505040D8F70895FB0108
:10493000DC0104C08D910190801921F44150504058
:10494000C8F7881B990B0895FB01DC0102C0019098
:104950000D9241505040D8F70895F999FECF92BD7D
:1049600081BDF89A992780B50895A8E1B0E042E0AA
:1049700050E00C94F124DC01A40FB51F41505040CD
:1049800048F0CB01840F951F2E910E94CC244150FA
:104990005040D0F70895262FF999FECF92BD81BDE2
:1049A000F89A019700B4021639F01FBA20BD0FB66D
:1049B000F894FA9AF99A0FBE08950396272F0E9449
:1049C000CC240E94CB24252F0E94CC24242F0C948D
:1049D000CC240196272F0E94CC240C94CB24DC01FC
:1049E000CB01FC01F999FECF06C0F2BDE1BDF89AFA
:1049F000319600B40D9241505040B8F70895F894A4
:024A0000FFCFE6
:104A02002402280850011E0A14010021007F2200FE
:104A120003C1210122CC21C421FF5AE200E900EAAC
:104A220000B500B600B700CD008301CC008A019228
:104A32000194012102230224022502260227022ACE
:104A420002B300B4006F0070009F01CB019F02A06F
:104A520002818283E200E900EA00B500B600B700F5
:104A6200CD008301CC008A0192019401210223022C
:104A720024022502260227022A02B300B4006F0094
:104A820070009F01CB019F02A00281828330979622
:104A92009531323390919463606162000810181866
:104AA20010080000FF0100010000FFFF00000100EC
:044AB20001FF000000
:00000001FF
