:100000000C94B3050C94D0050C9499060C94D0056F
:100010000C94D0050C94D0050C94EE1F0C94D005D4
:100020000C94D0050C94D0050C94D0050C94D005FC
:100030000C94D0050C94D0050C9477200C94D0052A
:100040000C94D0050C94D0050C94D0050C94D005DC
:100050000C94D0050C94D0050C94D0050C94D005CC
:100060000C94D0050C94D005600B600B8C0B8C0BA2
:10007000D10CD10CD10CD10CE20B580C690C690CD1
:10008000D51B471CDD1BA71BAB1BE11BAE1BE41BD9
:10009000EF1BB91B3D1CBD1BF31BC11BF71B211C18
:1000A000C51BFB1B2B1CCB1B011C0B1CB21BE81B19
:1000B000B51BEB1BD01B061C171C371C391CA31BC4
:1000C000D91B501C031E091EF71DFD1D0F1E151EFA
:1000D0001B1EB6B6B6B6B6B6B6B6B6B6B6B6B6B6F3
:1000E000B695B596D5B6B680818283848586878895
:1000F000898A8B8C8D8E8F9091929394A0A1A2A3CC
:10010000A4A5A6A7A8A9AAABACADAEAFB0B1B2B337
:10011000B4C0C1C2C3C4C5C6C7C8C9CACBCCCDCE82
:10012000CFD0D1D2D3D400A900AA00010001000190
:10013000000100010001002B0014001A0008001546
:100140000017001C00215204001600070009000AD5
:10015000000B00E1003800E4001B00060019000558
:1001600000E000E2002252E6002C002C002C0000EF
:10017000003400A800130012000C0018000000E377
:10018000002A0028000F000E000D0000001D00E5F1
:1001900000370036001000110029001E001F00204B
:1001A0000021002200230001000100350031000180
:1001B0000001000100010001004F000100010001E9
:1001C00000010001000100510050004A0001004DF3
:1001D0000000000100010027002600250024000087
:1001E0000001004C003400330030002F00000001FB
:1001F00000520038002E002D00010001003A003BA3
:10020000003C003D003E003F0039000100010001BC
:1002100000010001000100010001000100010001D6
:1002200000010001000100010001000100010001C6
:1002300000010000000100010043004200410040B5
:1002400000000001000100010001000100010000A8
:100250000001000100010001000100010001000196
:100260000001000100010001000100010001000186
:100270000001000100010001000100010001000176
:100280000001000100010001000100010001000166
:100290000001000100000001000100010001000157
:1002A0000001000000010001000100010001000147
:1002B00000000001000100010001000100010044F4
:1002C000454255473A2064697361626C65642E0A41
:1002D0000044454255473A20656E61626C65642E64
:1002E0000A000A0025303258006C65645F7461733F
:1002F0006B3A20004F6E6573686F743A20616374C7
:100300006976653A2025640A000A002530386200C3
:100310003A200025303258000A722F6320303132E3
:1003200033343536370A006F6C65645F6F6666205C
:10033000636D64206661696C65640A0000AE6F6C71
:1003400065645F6F6E20636D64206661696C6564CF
:100350000A0000AF6F6C65645F72656E6465723928
:10036000302064617461206661696C65640A006FA5
:100370006C65645F72656E6465722064617461208F
:100380006661696C65640A006F6C65645F72656EB6
:10039000646572206F666673657420636F6D6D614E
:1003A0006E64206661696C65640A00646973706CD0
:1003B00061795F736574757032206661696C65641C
:1003C0000A0000DA0281FFD9F1DB20A4A62EAF6477
:1003D0006973706C61795F666C69707065642066C2
:1003E00061696C65640A0000A0C0D3006F6C65642D
:1003F0005F696E697420636D64206E6F726D616CED
:1004000020726F746174696F6E206661696C6564D7
:100410000A0000A1C8D3006F6C65645F696E6974DF
:1004200020636D64207365742031206661696C659A
:10043000640A0000AED580A81F408D142000000083
:10044000000000003E5B4F5B3E003E6B4F6B3E008A
:100450001C3E7C3E1C00183C7E3C18001C577D57FF
:100460001C001C5E7F5E1C0000183C180000FFE7AB
:10047000C3E7FF00001824180000FFE7DBE7FF00D8
:1004800030483A060E00262979292600407F0505C6
:100490000700407F05253F005A3CE73C5A007F3E5D
:1004A0001C1C0800081C1C3E7F0014227F22140024
:1004B0005F5F005F5F0006097F017F00006689952E
:1004C0006A0060606060600094A2FFA2940008046B
:1004D0007E04080010207E20100008082A1C080056
:1004E000081C2A0808001E10101010000C1E0C1EFC
:1004F0000C0030383E383000060E3E0E060000007C
:100500000000000000005F0000000007000700007E
:10051000147F147F1400242A7F2A120023130864F6
:100520006200364956205000000807030000001CF6
:10053000224100000041221C00002A1C7F1C2A00CE
:1005400008083E080800008070300000080808080D
:1005500008000000606000002010080402003E5106
:1005600049453E0000427F4000007249494946002B
:100570002141494D33001814127F1000274545458D
:1005800039003C4A494931004121110907003649E7
:1005900049493600464949291E0000001400000060
:1005A0000040340000000008142241001414141408
:1005B00014000041221408000201590906003E41BE
:1005C0005D594E007C1211127C007F49494936006A
:1005D0003E41414122007F4141413E007F4949491E
:1005E00041007F09090901003E41415173007F0824
:1005F00008087F0000417F4100002040413F01008A
:100600007F08142241007F40404040007F021C02CE
:100610007F007F0408107F003E4141413E007F097A
:10062000090906003E4151215E007F091929460053
:1006300026494949320003017F0103003F40404001
:100640003F001F2040201F003F4038403F00631400
:10065000081463000304780403006159494D430002
:10066000007F414141000204081020000041414147
:100670007F000402010204004040404040000003AB
:10068000070800002054547840007F284444380074
:10069000384444442800384444287E003854545494
:1006A000180000087E0902001824241C78007F0826
:1006B0000404780000447D4000002040403D0000DC
:1006C0007F102844000000417F4000007C04780433
:1006D00078007C08040478003844444438007C18CE
:1006E00024241800182424187C007C080404080022
:1006F00048545454240004043F4424003C40402007
:100700007C001C2040201C003C4030403C00442821
:10071000102844004C9090907C004464544C440059
:100720000008364100000000770000000041360854
:1007300000000201020402003C2623263C000000C7
:1007400000000080C0E0F0F0300000C060F0F0F089
:10075000300080C020F0F0F020000000000080C0D9
:10076000E0703018B8F8F00000000000DC7E3FBEFA
:10077000F0F0E000000000000080C0E070101818E9
:10078000F8F06000000000C060F0F8F830000000F1
:1007900080E0F0F8F8300000000080E0F0FCFF3F5F
:1007A0000F0100000080C0E0F0F8780000000000B9
:1007B00080C060309040203070E0C0000040404079
:1007C0004040404040404040000000E0FEFFFEF856
:1007D000C00000000000E0FCFFFEF0000000000090
:1007E00000000000013EE080700E010000000007E4
:1007F0003CE08078070000000000000000000018C6
:100800000C06C3F9FE3FC7711806C3F07C1FC77101
:100810001806C3F8FE3F0F0180C0F0F8FEDF476303
:100820006030381E0F0781402018060381F0FC7FDE
:100830001F0780C0E0F8FC3E0F030100000000032A
:10084000018060100806E3FCFF3F0701C0308CE325
:10085000FF7F1F0380C030188CE3F9FF3F07018042
:10086000C030180CC3F1FC7F0F0380C0F0FCFE3FCA
:100870000701003EC18080E0FC3F8F4040C0F0FC9B
:100880007E4E0000000000000000F8FFFF1F071F61
:10089000FFFEF0C0F8FF7F0F077FFFFEFC04047827
:1008A00080000000C0380C1C6080000000F00C04C8
:1008B000F41C80C0FCE6C3C1C1C3E6FCC0800000DC
:1008C000383F3F1F07030000383E3F1F0E03000064
:1008D000307F7F3F190C0603010F1F3F716060706E
:1008E00030180804020100000000387E7F3F3B18EA
:1008F000040301000F1F31202020201018080402DB
:10090000010000001C3F7F7F31180603183E3F3F67
:100910001B0804020100001E3F3F3F1008040201B3
:100920000000183E3F3F190C060301000F1F316005
:10093000606030181C0F07030101000000183C3CE8
:100940001C00000000000000001F1F1F0700000027
:1009500000031F1F0F0100000000071F1F1EF800EB
:100960000F70300EC138070E70831C601E03C03E2E
:1009700001003F7FFFFFF9C0C0F9FFFF7F3F0A0082
:100980002530325820006B6579626F6172645F7246
:1009900065706F72743A20005241573A2062756652
:1009A0006665722066756C6C0A005241573A206980
:1009B0006E76616C6964206C656E6774680A0053BA
:1009C00045545F4C45443A20253032580A000A000D
:1009D00056454E444F523A00554E4B4E4F574E3AA5
:1009E000005345545F4C45443A005345545F5245CB
:1009F000504F52543A005345545F49444C453A20B5
:100A000025303258004745545F49444C453A004729
:100A100045545F5245504F52543A006B6275663AE6
:100A20002066756C6C0A00562D5553423A206B6255
:100A300075665B25642D3E25645D28253032582976
:100A40000A0009026200030100A0FA090400000183
:100A50000301010009210101000122400007058175
:100A6000030800010904010002030000000921013C
:100A70000100012222000705840308000107050484
:100A8000030800010904020002030000000921110B
:100A90000100012222000705830308000107050366
:100AA0000308000112011001000000083713317320
:100AB00000010102000112034D0065007200630095
:100AC0007500740069006F00000012034D0065009E
:100AD00063006800570069006C00640000000403B4
:100AE00009040631FF0974A1010975150026FF00EC
:100AF0009520750881020976150026FF009520755E
:100B0000089102C00660FF0961A101096215002673
:100B1000FF009520750881020963150026FF0095E6
:100B20002075089102C005010906A101050719E019
:100B300029E71500250195087501810295017508C1
:100B400081030507190029FF150026FF009506758A
:100B5000088100050819012905950575019102957F
:100B60000175039103C011241FBECFEFD8E0DEBF93
:100B7000CDBF11E0A0E0B1E0E4EEFBE402C00590DF
:100B80000D92AA35B107D9F725E0AAE5B1E001C079
:100B90001D92A53CB207E1F70E9433180C94F02592
:100BA0000C940000FF93EF93E0915A01F0915B01E8
:100BB000309709F00995EF91FF910895FC01859117
:100BC000803011F0EFDFFBCF0895FF27E0E230E245
:100BD00047FF0CC0419597FF09C0EDE26095709505
:100BE00080959095611D711D811D911D27FF02C08B
:100BF000219530E350E2AA27660F771F881F991FBF
:100C0000AA1FA41710F0A41B63955A95A9F7AA3040
:100C100008F0A95FA05DAF93F3956115710581059B
:100C2000910541F7ED3211F4EF93F395F21718F4B3
:100C30003F93F395FBCF8F91B5DFFA95E1F70895D8
:100C4000E991F9918591803021F0853219F0AADF80
:100C5000F9CF089520E0E89455915532C1F350330F
:100C600011F4689455915A3348F4505390F3220F7D
:100C7000022E220F220F200D250FF4CF0EF4219506
:100C800089919991533619F3533729F1533559F115
:100C9000BC0188279927E8945C3621F489919991C1
:100CA00068945591543639F446EF7EF077FF0DC0C5
:100CB0008FEF9FEF0AC055374AE039F0583540E1D1
:100CC00021F0523642E009F00895FF93EF937DDF63
:100CD000EF91FF91B7CFFF93EF93FC0181918030AB
:100CE000B9F360DFFBCFFF93EF9368DFF1CFDF93C2
:100CF000CF93CDB7DEB72596A3DFCF91DF910895CF
:100D0000A82FB92F80E090E041E050EA609530E0F4
:100D100009C02D9182279795879510F084279527F4
:100D2000305EC8F36F5FA8F30895EADF8D939D935B
:100D30000895CF93CFB7CF93DF93C3954B9BE9F73C
:100D40004B9B10C04B9B0EC04B9B0CC04B9B0AC0D7
:100D50004B9B08C04B9B06C0C0919C05C395C0939C
:100D60009C058EC06F93C0919B05DD27CD55DA4F52
:100D70002F9365E54B9B03C02F916F91E1CF0F93AC
:100D80001F934F9320E040E15F9309B10C7003FB88
:100D900027F93F9350E03BE039C01C7040642F7747
:100DA000012F5F5F1EC0406819B11C702F77525031
:100DB0001FC0406409B12F770C70D1F15F5F00C094
:100DC00023C0406219B12F771C7091F15F5F00C0A2
:100DD00025C00C701027515012F45D5F00001150B7
:100DE00027952C3F19B1C8F61C7001270150279593
:100DF0002C3FC8F64227499309B10C7010274F7356
:100E0000115027952C3FA8F64695469519B11C70B0
:100E100079F00127015027952C3F98F66B5A60F323
:100E2000315009B1B0F600C012E01CBB00271CC055
:100E30003B503195C31BD04012E01CBB0881033CE2
:100E400021F10B3411F1209198051981110F121322
:100E5000EDCF4A81441F093679F10D3211F0013E80
:100E600029F74F7009F0042F0093A1053F915F917E
:100E70004F911F910F912F916F91CCB3C1FD5DCF19
:100E8000DF91CF91CFBFCF9118952091A10522235B
:100E900069F310919F05112309F049C034300AF419
:100EA00048C030939F0520939A0510919B053BE025
:100EB000311B30939B053DC000919F050130BCF56F
:100EC0000AE54F7049F43091320134FD33C000938C
:100ED0003201C5E7D5E032C0433059F0443091F0DB
:100EE0003091800534FD26C000938005C1E8D5E02F
:100EF00025C03091B90534FD1DC00093B905CAEB7A
:100F0000D5E01CC030918C0534FD14C000938C05D5
:100F1000CDE8D5E013C0052710E000C000000BB9F4
:100F20001AC0052710E0221F1DC010E021C04AE5AD
:100F300002C032ED432FC4E1D0E032E01AB11C60B0
:100F40005B9A0BB11AB95CE020E865E320FF052746
:100F50000BB9279517951C3FF0F66695B8F7B1F7D2
:100F600020FF05270BB9279517951C3FD0F627952D
:100F7000179517FF052700001C3F0BB9B0F6299104
:100F80003A9519F7037F1091A005110FC651D04073
:100F90000BB911F01093980512E01CBB08601AB150
:100FA000137F402F437F54E05A95F1F70BB91AB9DC
:100FB0004BB95CCF82E00895CF930E942C08C82FD4
:100FC000882329F060E082ED90E00E94FC198C2FCC
:100FD000CF91089582E00895A0E0B0E0E2EFF7E05D
:100FE0000C9447255C01CDB6DEB6062F10E07801E3
:100FF00081E0E81AF108EDB7FEB7E01BF10B0FB680
:10100000F894FEBF0FBEEDBF8DB79EB701964C01A1
:10101000A80160E070E00E94972582E4F4018083DB
:10102000F5013196A0E0B1E0CF018A199B09801744
:1010300091071CF481918D93F7CFF701E050FF4F9A
:10104000108281E080935C010FB6F894DEBE0FBE83
:10105000CDBEECE00C94632580915C01882349F0BF
:101060000E948D180E94391A60E080E091E00E9491
:10107000E11980E008958430B0F46730A0F447307F
:1010800090F491E3899FF001112487E0689FE00DBF
:10109000F11D1124E40FF11DEE0FFF1FE95CFE4F5F
:1010A00085919491089581E090E008950E943B0815
:1010B0000895843088F461110FC0E82FF0E0EE0F3E
:1010C000FF1F81E04827E40FF11DEE0FFF1FE95DD0
:1010D000FE4F85919491089581E090E008950E94DB
:1010E0005908089581E0089581E008950E947408E8
:1010F00008950E94760808950E947408089508953E
:101100000E947F080895A6E0B0E0E9E8F8E00C94BA
:10111000502549835A839E833091620189819A8147
:10112000311115C03E81332359F0222349F00E942A
:10113000960E182F682F89819A810E94630E03C032
:101140000E947D0E182F69817A81812F04C00E9430
:10115000960E69817A810E9477152696E3E00C94B9
:101160006C25FC01262F408151816281738184812D
:1011700095810E9483080895CF93DF93EC0161E08D
:101180000E94B108BE010E947908DF91CF910895B5
:10119000CF93DF93EC0160E00E94B108BE010E9492
:1011A0008008DF91CF91089508950E943A0D0E9422
:1011B000D4082FEF84E39CE0215080409040E1F779
:1011C00000C0000008950E94D5080E949D20089547
:1011D0000E94D5080E94B22008950F931F93CF93C9
:1011E000DF938C0161E00E94B108EC01B8010E941C
:1011F0007C08882309F45BC0B801CE010E94EB1D76
:10120000882309F454C0B801CE010E947F1B8823B3
:1012100009F44DC0B801CE010E94511D882309F484
:1012200046C0F80185818823E9F1C3308CE7D807EF
:1012300079F158F4C130FCE7DF0761F1A0F4C11582
:10124000DC4781F50E94E30832C0CB35FCE7DF07BD
:1012500039F1CC358CE7D80701F1CA35DC4711F5F7
:101260000E94D0121FC08091EA01C82FC095C170A2
:10127000C0FB80F98093EA01CC2329F081ED92E054
:101280000E94DE0514C08FEB92E00E94DE0510C0C4
:101290000E94D8120E94E8080AC00E94C61202C02A
:1012A0000E94D412C8010E947208C82F01C0C0E079
:1012B0008C2FDF91CF911F910F9108950E94CD1F28
:1012C0000E9499090E94351B08950E949D090E9461
:1012D000D61F08958295982F937344E0949F9001B0
:1012E00011248C7C86958695282B822F8575880FF6
:1012F0002A7A2695822B0895089581E0089508950D
:10130000CF93DF93D82F0E947D09C82F882319F02F
:101310008D2F0E947F098C2FDF91CF910895089522
:10132000CF93C82F0E947C098C2F0E948009CF91F7
:10133000089580E00E94900908950E942C1F0E9449
:1013400090090895CF930E942C1FC82F80915D01B2
:10135000C81789F1C0935D010E945C2060935E0113
:1013600070935F0180936001909361018091EA0125
:1013700082FF1EC080FF04C089EE92E00E94DE055D
:101380008091EA0180FF0CC01F92CF9384EE92E01F
:101390009F938F930E9477060F900F900F900F905E
:1013A0008091EA0180FF04C082EE92E00E94DE0597
:1013B0008C2F0E949009CF910895ADE0B0E0E3EE4C
:1013C000F9E00C945125488759876A877B878C8779
:1013D0009D8791110E94FC11CE01019627E0FC012E
:1013E00011922A95E9F726E0FE013896DC0101907A
:1013F0000D922A95E1F72D8121110AC029813A81A8
:101400004B815C816D817E818F810E94461104C079
:101410000E94BC088111F2CF2D96E2E00C946D255C
:10142000FC012481213021F4808191810E94C80E29
:101430000895CF93882309F481C0C82F8238C1F45E
:101440000E942C1F81FD7AC069E380912001909158
:1014500021010E94BC1F0E9428122FEF87EE93E00B
:10146000215080409040E1F700C0000069E333C0A4
:101470008338C1F40E942C1F80FD60C063E5809119
:101480002001909121010E94BC1F0E9428122FEF81
:1014900081EE94E0215080409040E1F700C00000D0
:1014A00063E519C08438F1F40E942C1F82FD46C008
:1014B00067E480912001909121010E94BC1F0E944D
:1014C00028122FEF81EE94E0215080409040E1F708
:1014D00000C0000067E480912001909121010E94EA
:1014E000BF1F2AC08CEF8C0F813AD0F46C2F8091F3
:1014F0002001909121010E94861F882349F06C2FC2
:1015000080912001909121010E94BF1F0E9428120A
:101510006C2F80912001909121010E94BC1F0CC072
:1015200080E28C0F883050F4C77081E001C0880FD2
:10153000CA95EAF70E94DF110E942812CF91089500
:10154000882309F44DC0682F823879F40E942C1F3B
:1015500081FF46C069E380912001909121010E94A2
:10156000BC1F0E94281269E326C0833879F40E94C8
:101570002C1F80FF35C063E58091200190912101EF
:101580000E94BC1F0E94281263E515C0843879F4BC
:101590000E942C1F82FF24C067E48091200190915B
:1015A00021010E94BC1F0E94281267E404C08CEF36
:1015B000860F813A38F480912001909121010E9498
:1015C000BF1F0CC080E2860F883050F4677081E046
:1015D00001C0880F6A95EAF70E94E5110E9428125F
:1015E00008951F93CF93DF93182FEB010E94190AE0
:1015F000209741F08FE99FE00197F1F700C00000CC
:101600002197F6CF812F0E94A00ADF91CF911F91E1
:101610000895893319F06AE070E002C060E570E077
:101620000E94F10A0895882321F00E94DF110E9490
:1016300028120895882321F00E94E5110E942812A3
:101640000895A0E0B0E0E7E2FBE00C944B257C01BC
:10165000D62FC72FFC011581068102950F700E94BD
:10166000D5118823E9F01123D9F08C2F807F8034A5
:1016700051F080E28D0F883098F0011104C08C2F5A
:10168000807E803269F080915C0382FF09C082E035
:101690000E9486120E94D51191E0D82ED92601C051
:1016A000D12CCC2EC2948FE0C8228C2D90E08C30AF
:1016B000910508F076C1FC01EC5CFF4F0C943B25D2
:1016C0008C2F807FCF70882311F0C295C07F1123AB
:1016D00099F0CC2309F44CC180E28D0F883010F0D2
:1016E000D11104C08C2F0E94DF1103C08C2F0E94E7
:1016F000EF110E9428123CC18D2F0E94A00ACC231A
:1017000009F44FC180E28D0F883038F1DD2329F1D3
:101710008C2F0E94F51124C08C2F807FCF708032D7
:1017200011F0C295C07FDD2319F0D13099F13CC092
:1017300080915C0382FD17C0112349F0CC2329F06E
:101740008C2F0E94DF110E94281280E012C180E0DD
:101750000E94A00ACC2309F424C18C2F0E94E51119
:101760000E9428121EC1112349F0002309F1013003
:1017700009F017C18C2F0E94061213C1011111C16B
:101780008C2F0E941A0B8C2F0E9412128C2F0E94F9
:10179000591207C1112321F0063008F002C108C018
:1017A000053008F0FEC00AC0112331F00111E0C07D
:1017B0008C2F0E94130BF5C00111E0C08C2F0E94EA
:1017C0001A0BEFC08C2F8370B1F51111EEC04D2FA5
:1017D000429546954770440F440F8D2F8F7090E0CF
:1017E0009C01042E02C0220F331F0A94E2F7D4FF9B
:1017F0000AC08FE090E002C0880F991F4A95E2F777
:101800008095909502C080E090E0C695C695C37023
:10181000822B932BC23049F058F4C13019F00E944A
:10182000960DC3C00E948D0DC0C00E949F0DBDC00B
:101830000E948A0DBAC0112319F08C2F817001C04B
:101840008695882309F4B1C04D2F4295469547707F
:10185000440F440F8D2F8F7090E09C01042E02C026
:10186000220F331F0A94E2F7D4FF0AC08FE090E002
:1018700002C0880F991F4A95E2F78095909502C0A3
:1018800080E090E0C695C695C370822B932BC23042
:1018900049F058F4C13019F00E94FE0D86C00E9434
:1018A000F50D83C00E94070E80C00E94AB0D7DC065
:1018B000CF70112339F08C2F0E94C30D8D2F0E9401
:1018C000130B73C08D2F0E941A0B8C2F0E94D30D07
:1018D0006CC0D23F21F128F4D03F41F0D13FC1F09C
:1018E00043C0D33F19F1D43F79F03EC0112341F0FA
:1018F000053008F056C08C2F8F710E94E50D51C045
:10190000063008F04EC0F7CF80915C0382FD18C00E
:10191000112339F08C2F8F710E94C30D42C0112307
:10192000C9F38C2F8F710E94D30D3BC0112329F076
:101930008C2F8F710E94B70D34C00E94B20D31C040
:10194000112349F0CF718C2F0E94C30D63E08C2FBF
:101950000E94681226C081E00E948612023008F1BF
:1019600082E00E9486121DC0112331F0002391F203
:101970008D2F0E94190A15C0002399F2D93341F422
:10198000FFEF27EE83E0F15020408040E1F704C0F4
:10199000EFE3FCE93197F1F700C000008D2F0E94C2
:1019A000A00A88EF8C0D843020F40E942C1F0E9426
:1019B0009009DD2089F00E94D11180FD0DC0F70152
:1019C00015820E94CB110E94C30DC7010E94090D10
:1019D0000E94CB110E94D30DCDB7DEB7E8E00C9486
:1019E00067250F931F93CF93DF93EC016881798173
:1019F0008D810E94D30E8C010E94100E0E947B0DDF
:101A0000B801CE010E94210BDF91CF911F910F9160
:101A10000895CF93DF93FC0124812223D1F0EC01C0
:101A20000E94ED0881110FC00E94D511882389F012
:101A30008D81882371F080915C0382FF0AC082E06F
:101A40000E94861206C0CE010E94F10CCE010E94B7
:101A5000C808DF91CF9108950E94FC110E942812BE
:101A6000089580912001909121010E94C21F0E943F
:101A70002C0D08950E94EC110E94310D089592954D
:101A80009F70963079F010F4925001C09A509230C5
:101A900068F4803F69F018F4883E40F409C0843F40
:101AA00029F406C0883E20F0813F11F080E00895BF
:101AB00081E00895FC012481222339F08081918105
:101AC0000E94C80E0E943F0D089580E00895A6E090
:101AD000B0E0EDE6FDE00C9451252696E2E00C9492
:101AE0006D25A7E0B0E0E7E7FDE00C9451252796CF
:101AF000E2E00C946D25089508950E947C0D0895F0
:101B00000E947D0D08950E94800D90938601809320
:101B1000850108950E94830D0895209185013091DB
:101B20008601822B932B0E94830D089520918501BD
:101B300030918601822393230E94830D0895209182
:101B4000850130918601822793270E94830D089595
:101B50000E947C0D08950E94A80D909384018093AB
:101B60008301089580E090E00E94AB0D089521E08C
:101B700030E0A90102C0440F551F8A95E2F7CA015F
:101B80000E94AB0D089521E030E002C0220F331F08
:101B90008A95E2F78091830190918401822B932BA7
:101BA0000E94AB0D089521E030E002C0220F331FE8
:101BB0008A95E2F720953095809183019091840178
:101BC000822393230E94AB0D089521E030E002C0F0
:101BD000220F331F8A95E2F780918301909184014F
:101BE000822793270E94AB0D0895209183013091A5
:101BF0008401822B932B0E94AB0D089520918301C9
:101C000030918401822393230E94AB0D089520918B
:101C1000830130918401822793270E94AB0D0895A0
:101C20000895962F9770A1E001C0AA0F9A95EAF740
:101C300093E0769567959A95E1F7660F771F660FA3
:101C4000771FFA01E60FF71F40E050E0682F70E0C1
:101C500090819B01042E02C0369527950A94E2F7E5
:101C60002170219529272A23292721934F5F5F4F30
:101C70004430510569F70895FB01782F777023E010
:101C8000969587952A95E1F7880F991F880F991FD8
:101C9000E80FF91F40E050E080E0219130E0072E8E
:101CA00002C0369527950A94E2F721703327042E57
:101CB00001C0220F0A94EAF7822B4F5F5F4F443036
:101CC000510559F70895282F862F973060F4273053
:101CD00050F4622F70E027E0929F600D711D112477
:101CE00047E651E007C09C5F923030F4622F70E00D
:101CF00043E651E00E94110E0895292F973058F4C1
:101D0000873048F490E067E671E037E0239F800D6C
:101D1000911D112406C02C5F223030F463E671E07F
:101D200090E00E943C0E089580E00895A0E0B0E0AD
:101D3000ECE9FEE00C944A257C01009183011091AE
:101D400084018091850190918601082B192BCFE0A9
:101D5000D0E0CC24C394D12CC6010C2E02C0880F35
:101D6000991F0A94E2F780239123892B21F421976C
:101D700098F7B12C07C0BC2EB7018C2F0E9491158B
:101D80000197A9F38B2DCDB7DEB7E9E00C9466255A
:101D9000CF93DF93EC010E94960EBE010E94911535
:101DA000DF91CF9108951F93CF93DF93EB01909133
:101DB0006201992321F0CB010E94C80E13C0882331
:101DC00049F0CB010E94960E182F682FCE010E9479
:101DD000630E04C0CB010E947D0E182FBE01812F1F
:101DE0000E949115DF91CF911F9108951F93CF937A
:101DF000DF93C091870117E080918801C817A1F097
:101E0000D0E01C9FF0011D9FF00D1124E757FE4FFD
:101E100020813181428153816481758186810E9454
:101E2000710D2196C770E8CFDF91CF911F91089572
:101E30002091C1013091C2014091C3015091C40170
:101E40006091C5017091C6018091C7010E94710D1A
:101E50000895CF93DF938091C70182958F7009F029
:101E60004EC08091C601882309F449C08091870142
:101E7000409188015091C2016091C101C091C3019C
:101E8000D091C40177E08417D1F190E0789FF00100
:101E9000799FF00D1124DF01A757BE4F14962C91A6
:101EA0001497222349F111962C911197251324C0E0
:101EB0002C91261321C015962C91159721111CC029
:101EC00012962D913C9113972C1B3D0B283C31050C
:101ED00098F48091C7018F7080618093C701E157AA
:101EE000FE4F80818F708061808381EC91E00E9441
:101EF000090D0E94F60E03C001968770C4CFDF91D2
:101F0000CF910895209187019091880157E029177A
:101F1000A9F030E0529FF001539FF00D1124E757D4
:101F2000FE4F7181761306C07081781303C07581EE
:101F3000741306C02F5F3F4F2770E9CF80E00895EC
:101F400081E00895A4E1B0E0E8EAFFE00C944725C1
:101F50008C0186E0F801DE011F9601900D928A95B2
:101F6000E1F7F8018481E58091ECA92E91E0B92E8A
:101F70009091C501911118C0882309F480C1EE2009
:101F8000D9F1C8010E945A0DF82E8823A9F187E0E3
:101F9000F801D50101900D928A95E1F7C5010E94E3
:101FA000100A0E94290F98C0F801C080D180828059
:101FB0009380F090C6012091C3013091C401A40127
:101FC000421B530BFF2009F406C1483C510508F0A1
:101FD000AFC0882309F455C18091C701282F207F05
:101FE0009091C201222361F09D1509F462C0C801DD
:101FF0000E945A0D811173C0C8010E94090D3FC192
:102000009D1115C09091C1019C1111C0E1100FC02C
:102010008F7080618093C7010E94180F81EC91E05E
:102020000E94090D8091C701F801868326C1E11045
:102030003AC040E06D2D8C2D0E94820F40E06D2D46
:102040008C2D0E94820FE82E811117C1CF86D88A6D
:102050008F8598890E94C80E292F22952F702430D1
:1020600020F49F70223028F009C02A50223080F0DE
:1020700014C0992349F0811107C013C0992321F09E
:10208000F8019681907F69F0805E883030F409C055
:10209000803F38F0815F833020F0C8010E94090D35
:1020A000EF2CFE2CEEC08091C70181608093C701A8
:1020B000E4C09091C1019C119ACFE11098CFF80132
:1020C0008683C8010E94090D87E0F801A1ECB1E008
:1020D00001900D928A95E1F70E94180FD2C0EE2070
:1020E00009F48ACF2091C701822F82958F7090E0EA
:1020F00002978CF08091C1019091C20199878887E5
:102100009B868A868091C5018C871D862E87CE018D
:1021100008960E94090D87E0F801A1ECB1E001905A
:102120000D928A95E1F70E94290F0E94180FA7C00F
:102130009091C701292F207FA1F4682D9A8A898A5E
:10214000A6017A899E2D0E94670D81EC91E00E9484
:10215000090D87E0F50111928A95E9F70E94180FA1
:102160008CC0882309F48DC08091C2018D1111C0EB
:102170008091C1018C110DC0E1100BC0F801968354
:10218000C8010E94090D87E0F50111928A95E9F7CF
:1021900078C0C8010E945A0D882309F42DCFEE2083
:1021A00009F42ACF2091C701822F82958F7090E089
:1021B00002970CF4B0CF8091C1019091C2019A8333
:1021C00089839C828B828091C5018D831E822F839F
:1021D000CE0101969ECF483C510508F040C08823AF
:1021E00009F44DC0FE2CEE2009F406CF8091C20107
:1021F0008D1127C08091C1018C1123C09091C7011E
:1022000090FD16C0892F82958F70282F30E0211500
:10221000310571F0F80196832F30310509F451CF63
:102220008F5F982F9295907F86818F70892B48CFF2
:1022300087E0F801A1ECB1E001900D928A95E1F7F9
:1022400020C0C8010E945A0D811165CF8091C7013D
:1022500081608093C701C8010E94090D12C0682DDA
:102260009A8A898AA6017A899E2D0E94670D87E045
:10227000F50111928A95E9F72FCFF12C02C0FF24C6
:10228000F3948F2D6496ECE00C946325AEE0B0E0FF
:10229000ECE4F1E10C945025288739874A875B8765
:1022A0006C877D878E87CE0108960E94A20F8823B7
:1022B00061F06C856623A9F1288539854A855B859F
:1022C0007D858E850E94710D2CC087E0FE013896B9
:1022D000DE01119601900D928A95E1F76C856623D7
:1022E00001F12091880130E0C9010196877099279A
:1022F0004091870150E084179507E1F16D8397E0E5
:10230000929FD001939FB00D1124A757BE4FFE019D
:10231000319601900D929A95E1F7809388010E9481
:10232000F60E17E08091870190918801891779F165
:10233000189FC001112487579E4F0E94A20F882327
:1023400031F1E09187011E9FF0011124E757FE4F04
:1023500020813181428153816481758186810E940F
:10236000710D8091870190E0019687709927809385
:102370008701D8CF0E943A0D1092880110928701F0
:10238000E1ECF1E087E0DF011D928A95E9F72E96F6
:10239000E3E00C946C258091C8018695869586951E
:1023A00008958091C801877008959091C801977031
:1023B00081E009F480E008958091D401089590911E
:1023C000D401892B8093D401089580959091D401F4
:1023D00089238093D40108951092D4010895909197
:1023E000D301892B8093D301089580959091D301D7
:1023F00089238093D30108951092D30108950895FD
:102400000E94FF1108950E94001208959091CA0140
:10241000292F2823821729F0982B9093CA010E9414
:10242000031208959091CA01292F282331F0809535
:1024300089238093CA010E94031208958091CA01E2
:10244000882329F01092CA0180E00E9403120895A7
:10245000E0912001F09121018091D4018083E091ED
:102460002001F091210190818091D301892B8083FB
:102470008091CA01882381F0E0912001F09121012F
:102480009081892B808380912001909121010E946D
:102490007A1F81110E941E128091200190912101CA
:1024A0000E94391F08950E94FF1108950E9453123F
:1024B00008959091C901292F282331F0809589230F
:1024C0008093C9010E94561208950E94FF11089539
:1024D00090915C0392FF11C098E0899F90011124B4
:1024E000262B2093C8010E94C30D8091C8018695B8
:1024F000869586950E94651208950E94C30D0895E1
:102500001092C80180E00E94651208959091C80160
:10251000809589238093C801282F277069F4981724
:1025200059F090915C0392FF07C086958695869539
:102530000E94D30D0E9480120895CF9390915C0366
:1025400092FB222720F92817F9F0C82F892FC0FB0A
:1025500082F980935C0380915B0390915C030E94FD
:10256000F91282E00E9486128091EA0180FF0CC07D
:102570001F92CF9384EF92E09F938F930E947706F0
:102580000F900F900F900F90CF91089580915C0362
:1025900082FB882780F991E089270E949D12089587
:1025A00081E00E949D12089580E00E949D1208958E
:1025B0006FEF7FEF80E090E00E94DA25089580E0E1
:1025C00090E00E94A62521E0863E9E4F09F020E083
:1025D000822F089582E090E00E949E25089583E076
:1025E00090E00E949E25089584E090E00E94A62538
:1025F0000895BC0184E090E00E94DA250895AB01C3
:10260000BC018FE090E00E94CE250895AB01BC0193
:1026100083E190E00E94CE25089560E070E0CB0158
:102620000E940613089560E070E0CB010E94FF1243
:102630000E940D130895A8E0B0E0E1E2F3E10C94EC
:10264000512566EE7EEF80E090E00E94DA2560E0A2
:1026500082E090E00E94BC2560E083E090E00E9470
:10266000BC25109286011092850160E074E184E03F
:1026700090E00E94DA2560E086E090E00E94BC25B0
:102680006FEF87E090E00E94BC2540E050E0BA0187
:1026900088E090E00E94CE2560E084E290E00E9415
:1026A000BC2560E087E190E00E94BC2560E08CE002
:1026B00090E00E94BC2560E08DE090E00E94BC2587
:1026C00019821A821B821C821D821E821F8218861A
:1026D00048E050E068E170E0CE0101960E94AC2530
:1026E00040E050E0BA0180E290E00E94CE250E94D6
:1026F00013132896E2E00C946D250E941B13089595
:10270000682F8EE090E00E94BC250895A6E0B0E01E
:10271000ECE8F3E10C944F250E9450208C0180914D
:10272000D5019091D6010817190781F019821A82F4
:102730000E945020682F49815A81792F80E090E0D3
:102740000E94DD091093D6010093D5012696E4E09E
:102750000C946B250E945C206093E6017093E70166
:102760008093E8019093E9016093E2017093E301A3
:102770008093E4019093E50108950E945C206093AA
:10278000E6017093E7018093E8019093E90160937B
:10279000DE017093DF018093E0019093E1010895E1
:1027A00081E0089581E008950E94D213089508956C
:1027B0000E94D71308950E94D71308950E94DB1337
:1027C00008950E94D71308950E94E11308950E946E
:1027D000D71308958CE192E20E94221F0E94E71312
:1027E0000E94E41308950E94D8130E94D7130895FD
:1027F0000E9492160E948F0908950E9447200E940D
:10280000701C0E94A1170E94F81380E00E94A21879
:102810000E94DE130895A6E0B0E0E1E1F4E10C943B
:1028200048250E94D013811104C00E94861310E035
:1028300054C00E94B71787EDE82E81E0F82E67019B
:1028400000E0F60111916F01802F0E94B0168127E0
:102850000F5F073019F08823A1F302C0882329F302
:102860008091EA0181FD0E94B6160E94D413A82E21
:1028700010E099249394812F0E94B016B82EF7018E
:10288000C080C82609F100E0DD24D3948C2D8D2171
:10289000A9F0AA2099F009831A830E9450209C83F2
:1028A0008B839D8291E08B2D8D2109F490E04981ED
:1028B0005A816B817C818D810E94DD090F5FDD0C67
:1028C000073021F7F701B0821F5FFFEFEF1AFF0A11
:1028D000173089F60E94AA1311E00E948D1C8823EC
:1028E00019F00E94BD1311E00E94531B11110E94A8
:1028F0000E1A0E94A2092696EBE00C9464251F9301
:10290000CF93DF930E949615EC01C11582E5D8079D
:10291000C8F5C11590E5D90708F0BBC0C83ED10580
:10292000C0F4C03ED10508F0DDC0C53AD10550F471
:10293000C430D10508F0D6C0219709F0D0C081E09D
:1029400090E0D1C0CD3CD10508F4C9C0CE0190655E
:10295000CAC0C11580E4D80708F05AC0C11590E27A
:10296000D90708F0AFC0C11581E0D80708F4B7C097
:102970008D2F0E943216182FCE0199270E9496158E
:102980001F71ABC0C03892E5D90720F5C03682E58B
:10299000D80708F061C0C03492E5D90708F04AC0F2
:1029A000C03282E5D807F0F54C2F4695469590E267
:1029B000499FA0011124C37021E030E0C90102C089
:1029C000880F991FCA95E2F7EA01C82BD92BCE01CF
:1029D0009D6889C0C03C92E5D90768F48C2F8F713F
:1029E000C03AD24508F04CC090E0D82FCC27CE0199
:1029F000846F906A78C0C03E82E5D80708F06FC047
:102A0000CF71DD27DC2FCC27CE01806F906A6BC0A1
:102A1000CE0199270E949615CC27DF70D06A8C2BA7
:102A20009D2B61C0CF71D0E0DC2FCC27CE01816F10
:102A3000906A59C08C2F8F718695869590E2899FF8
:102A400090011124C37081E090E002C0880F991FAB
:102A5000CA95E2F79C6811C08C2F8F718695869578
:102A600090E2899F90011124C37081E090E002C040
:102A7000880F991FCA95E2F79A68822B932B33C06F
:102A80000E9432168F7190E0D82FCC27CE01906231
:102A90002AC08C2F8F710E94321695E0D695C7956B
:102AA0009A95E1F7CF70D0E0DC2FCC27282F30E0CB
:102AB00084FF05C084E0220F331F8A95E1F7D069B7
:102AC000CE01DBCF8D2F8F710E943216182FCE01D1
:102AD00099270E9496151F719062912B04C080E087
:102AE00090E001C0CE01DF91CF911F910895462F54
:102AF000672F773028F4473088F40E9456080895ED
:102B00007D3F21F441110AC041E004C07C3F31F413
:102B1000411104C060E00E946F08089580E090E0D9
:102B200008950E9477150E947F14089582389105B8
:102B300069F1B0F48133910509F475C048F4893224
:102B4000910509F467C08A32910509F471C00895AE
:102B50008533910509F459C089339105B9F0089579
:102B6000833E910589F138F4803E9105D1F0823E93
:102B7000910529F10895863E9105C9F1873E910599
:102B8000D9F1843E910509F06CC027C020915B0308
:102B900020FD57C021FD55C020915C0323FD5BC083
:102BA000089580915B0380FD48C080915C0380FFA5
:102BB00048C080915B0384FD46C083EE51C0809184
:102BC0005B0382FF3CC0F5CF80915B0382FD37C081
:102BD00080915C0380FD35C0ECCF80915C0381FF68
:102BE00036C080915B0384FD2EC087EE39C0809192
:102BF0005B0383FF2AC0F5CF80915B0383FD25C073
:102C000080915C0381FD23C0ECCF80915B0385FD47
:102C100022C01FC080915B0385FD1BC080915C03B7
:102C200083FF19C00AC080915B0386FD16C017C0E0
:102C300080915B0386FD13C010C089E311C082EE52
:102C40000FC080EE0DC080E00BC086EE09C084EEA0
:102C500007C085E305C089E203C08AE201C081E3C1
:102C600090E0089590915B0392FF0DC0282F28718A
:102C7000283019F4877F846006C0282F24712430FF
:102C800011F48B7F886093FF0DC0282F28712831A5
:102C900019F4877E846106C0282F2471243111F431
:102CA0008B7E886120915C0320FF0DC0382F387126
:102CB000383019F4877F816006C0382F3171313088
:102CC00011F48E7F886021FF0DC0282F28712831D4
:102CD00019F4877E816106C0282F2171213111F4FA
:102CE0008E7E886194FD877E08950E94D812089593
:102CF0000E94B7172FEF86E791E021508040904067
:102D0000E1F700C000000E94B71780E00E94B016F3
:102D100080FF04C00E9475160E949D2008950E94A5
:102D2000781608950E94DF12811102C00E947D135F
:102D30000E94EA128093EA010E94F41290935C03CD
:102D400080935B030E948F160E94EF1290E00E9416
:102D50008A0D80918301909184010E94A80D0895AD
:102D6000E82FF0E0EC59FC4F80810895A0E0B0E03E
:102D7000ECEBF6E10C944B2588E193E00E94DE0534
:102D800084E6E82E83E0F82EC0E0D0E093E1C92E7F
:102D900093E0D92E0BE013E0DF93CF93DF92CF9235
:102DA0000E94770680E193E00E94DE05F7018191A1
:102DB0007F010E946A091F928F931F930F930E94B5
:102DC000770689E093E00E94DE0521968DB79EB7D5
:102DD00008960FB6F8949EBF0FBE8DBFC730D105C1
:102DE000D9F6CDB7DEB7E8E00C94672580EA8A957E
:102DF000F1F7089500C008950E94F6160895089509
:102E00000E94FF1608950E94001708950E94FF1661
:102E100008950E9406170895F894E82FE295EF7040
:102E2000F0E031A1282F2F7081E090E001C0880FE1
:102E30002A95EAF7982F9095932391A392A1892B35
:102E400082A3789408950F931F93CF93DF93CAE3DF
:102E5000D1E089918F3F11F00E940C1781E0C134BD
:102E6000D807B9F7C3E3D1E00AE311E089918F3FB6
:102E700011F00E940C170C171D07C1F7DF91CF91BD
:102E80001F910F910895A0E0B0E0E9E4F7E10C9400
:102E90004B258C01C62FD0E0CE01865C9E4F7C0175
:102EA000FC0190819F3F09F447C0D62EF894E92F8A
:102EB000E295EF70F0E081A19F7021E030E001C069
:102EC000220F9A95EAF7822B81A382A120952823CD
:102ED00022A378940E94FA16E3E3F1E04AE351E07A
:102EE00031E0C12C21912F3F89F0A22FA295AF7024
:102EF000B0E090968C9190E02F7002C095958795E8
:102F00002A95E2F780FD02C0832F01C080E0C82A25
:102F1000330F4E175F0731F7F70180818F3F11F0B4
:102F20000E940C1761E0C11001C060E08D2D0E946D
:102F3000FC16C00FD11FC882CDB7DEB7E8E00C94F5
:102F400067250E94231787E0E4E6F3E0DF01982F6E
:102F50001D929A95E9F7EDE5F3E0DF011D928A9560
:102F6000E9F787E00E94F2170E9409170895A7E089
:102F7000B0E0EDEBF7E10C944E258E010F5F1F4F93
:102F800087E0F80111928A95E9F7F12C6F2DC801BD
:102F90000E944317F394F7E0FF12F8CF47E050E0A8
:102FA000B8018DE593E00E94812521E0009709F4A6
:102FB00020E0892B41F087E0F801ADE5B3E0019016
:102FC0000D928A95E1F747E064E673E08DE593E0C2
:102FD0000E94F317182F0E940317812F2796E5E010
:102FE0000C946A250895EF92FF920F931F93CF934D
:102FF000DF937C018B01C42F222349F081E0809371
:10300000ED010E9450209093EC018093EB018091A0
:10301000ED01811102C080E01AC08091EB01909116
:10302000EC010E9468200597B0F3D0E0AE01B70133
:10303000C8010E948125892B39F0AE01B701C80172
:103040000E948E2581E001C080E01092ED01CDB795
:10305000DEB7E6E00C9469250E94CD200E94FD13A6
:103060000E94DE2008950E94ED1F0E94BD200E9454
:10307000EA130E942C180E94EC200E94F313FBCF4D
:10308000AB0124E630E0BC0188E70E94D61E21E0B7
:10309000892B09F020E0822F0895EF92FF920F9381
:1030A0001F93CF93DF93EC017B0164E670E088E728
:1030B0000E94341E8C01EC0EFD1ECE15DF0541F47E
:1030C0000E941E1F81E00115110569F080E00BC010
:1030D00017FDF6CFFE01849164E670E00E94A71E02
:1030E0008C012196EACFCDB7DEB7E6E00C946925D6
:1030F0000F931F939B0104E610E0AC0160E488E7A6
:103100000E94F71E21E0892B09F020E0822F1F91F9
:103110000F9108950E942E1E0895EBE6F3E080E0E3
:1031200092E0DF019C011D9221503040E1F7F093C5
:103130007005E0936F058FEF9FEF90931A028093D5
:1031400019020895CF930E94DA070E94EA0780933C
:10315000150280FD02C080E801C080E28093140265
:103160000E948A186BE070E083E394E00E944D189F
:10317000C82F811103C087E194E00FC08091150230
:1031800065E070E081FD0CC082E194E00E944D1882
:10319000C82F81110FC08CEE93E00E94DE052FC076
:1031A00087EE93E00E944D18C82F811103C08FEC69
:1031B00093E0F3CF6DE070E082EC93E00E944D1855
:1031C000C82F811103C08BEA93E0E7CF0E945C20F7
:1031D000DC01CB01805A9541AF4FBF4F80936B0507
:1031E00090936C05A0936D05B0936E050E948D18A9
:1031F00081E08093180280931702109216028C2FA0
:10320000CF9108952091140236E0839FC0011124CC
:10321000629F800D911D1124811522E0920714F008
:1032200080E090E085599C4F9093700580936F05E6
:10323000089520916F0530917005255633404091D7
:103240001402642F70E0C9010E941325481B463008
:1032500010F4240F311D211582E0380710F020E012
:1032600030E025593C4F3093700520936F05089549
:103270001F93CF93DF93162F8A3011F481E003C0A0
:103280008D3021F480E00E94B01966C0C0916F05B6
:10329000D091700596E0FE01AEEEB1E001900D9286
:1032A0009A95E1F7803E30F086E0FE0111928A9512
:1032B000E9F70BC0F6E08F9FB0011124625C7B4FF1
:1032C00046E050E0CE010E947825111135C0C09132
:1032D0006F05D091700546E050E0BE018EEE91E0A2
:1032E0000E948125892BB1F1CB56D3409E0185E008
:1032F000369527958A95E1F781E090E0AC0102C010
:10330000440F551F2A95E2F72091190230911A02B5
:10331000242B352B259645E0D695C7954A95E1F7A0
:1033200002C0880F991FCA95E2F7822B932B9093C6
:103330001A02809319020EC0E0916F05F09170059A
:103340009F012A5F3F4F2E173F0709F2808180952A
:103350008193F9CF0E941919DF91CF911F910895A0
:10336000CF93E82F20916F05309170052B56334095
:1033700040911402642F70E0C9010E941325481B7C
:10338000842FEE2359F066E00E940725C82FC15014
:10339000B0F060E080E20E943819F9CFA901480F2F
:1033A000511D4115524018F080E020E030E0280F18
:1033B000311D25593C4F3093700520936F05CF91F7
:1033C0000895FF920F931F93CF93DF93EC01F62E96
:1033D000FC0101900020E9F78F0101501109C0178D
:1033E000D10728F46F2D89910E943819F8CFCDB7F5
:1033F000DEB7E5E00C946A251F93CF93DF93EC01D1
:10340000162FFE018491882329F0612F0E9438191C
:103410002196F7CFDF91CF911F91089580911802E7
:10342000882321F10E945C20DC01CB01805A954168
:10343000AF4FBF4F80936B0590936C05A0936D05C4
:10344000B0936E0580911702811110C062E070E0A8
:1034500082E593E00E944D18811105C08EE393E050
:103460000E94DE0503C081E080931702809117025D
:103470000895A0E0B0E0EFE3FAE10C9443258091D9
:10348000190290911A02892B09F4EAC0809118025E
:10349000882309F4E5C0809116028111E1C00E94E1
:1034A0000E1A2091190230911A022115310509F4E2
:1034B000D7C090E041E050E0C92FD0E08A01092E4A
:1034C00002C0000F111F0A94E2F7B80162237323B0
:1034D000672B11F49F5FF0CF809115029E01F5E0FC
:1034E000220F331FFA95E1F780FF13C0E5E0369510
:1034F0002795EA95E1F7220F220F220F209324014E
:1035000010922701295F2093250183E080932801F1
:1035100011C0220F232F221F330B31959295990F43
:1035200090769093240120932701915E909325013A
:103530002093280167E070E082E291E00E94401849
:10354000882309F483C08091150280FF64C080E263
:10355000E4EFF1E0DF011D928A95E9F76E0155E095
:10356000CC0CDD1C5A95E1F7A5E4B1E061E4462EF0
:1035700061E0562E89E491E0772473942D91E20165
:1035800039912E01B601630F711D65597C4F30E0F2
:103590002C503E4FF90147E0A42EAF01421B530BC4
:1035A000872C01C0880C4A95EAF77B01912CE70132
:1035B000B9907E01B8204A2D49194770642E042E17
:1035C000000C550BDB2D01C0DD0F6A94EAF76D2E60
:1035D0005195419551094770552701C0B6944A95B8
:1035E000EAF7BD2A4081B42AB082939448E094124D
:1035F000DECFAA943196CFEFAC12CFCF8A179B07BC
:1036000009F0BCCF60E270E084EF91E00E9478188E
:1036100081110FC021C0CE0125E0880F991F2A9586
:10362000E1F760E270E085599C4F0E94781888238A
:1036300081F0009510958091190290911A0208234B
:10364000192310931A02009319020AC088E893E024
:1036500005C08FE693E002C084E593E00E94DE059A
:10366000CDB7DEB7E0E10C945F2580911802909110
:1036700017028823A9F0992389F062E070E08CE3B7
:1036800093E00E944D18811107C087E293E00E94E9
:10369000DE0580911702089510921702909117028B
:1036A00081E0892708950F931F9380911802882342
:1036B00019F160E080E00E9402190E94DC070E947C
:1036C000391A809117028823B9F00E945C2000917A
:1036D0006B0510916C0520916D0530916E05DC0134
:1036E000CB01801B910BA20BB30B8F3F9F4FAF4FB2
:1036F000BF4710F40E94351B1F910F910895CF937F
:10370000DF93FC01DB0115968C91882309F4DDC061
:103710009F0130572332310508F0D8C0EF010E94D5
:10372000F41290935C0380935B03FE01E150F04739
:10373000E232F10520F4E05CFF4F0C943B258091D0
:103740005B038160AAC080915C038860B2C08091F5
:103750005B038260A2C080915B0320C080915B0309
:1037600088609BC080915C031EC080915C03826076
:10377000A0C080915B03806190C080915B038062F8
:103780008CC080915B03806488C00E943A0D809158
:103790005B03806882C080915B03886084607DC029
:1037A00080915C038260816084C080915B038E7F26
:1037B00074C080915C03877F7CC080915B038D7FA8
:1037C0006CC080915B0320C080915B03877F65C0E4
:1037D00080915C031EC080915C038D7F6AC08091E4
:1037E0005B038F7E5AC080915B038F7D56C08091B2
:1037F0005B038F7B52C00E943A0D80915B038F77F1
:103800004CC080915B03877F8B7F47C080915C03B6
:103810008D7F8E7F4EC080915B0382FB222720F933
:1038200091E0922790FB82F990FB83F936C080915A
:103830005C03982F909591708E7F892B90FB81F976
:1038400038C080915B0386FB222720F991E0922704
:1038500090FB86F922C00E943A0D80915B0387FBA2
:10386000222720F991E0922790FB87F916C081E08A
:1038700001C080E00E9480131EC080915B0384FB26
:10388000222720F991E0922790FB84F906C08091CD
:103890005B03982F909590FB80F980935B030BC09E
:1038A00080915C0383FB222720F991E0922790FB13
:1038B00083F980935C0380915B0390915C030E9489
:1038C000F9120E943A0D80E001C081E0DF91CF91B2
:1038D00008958FE891E00197F1F700C00000089586
:1038E00081E080931C0224982C9A25982D9A0E949E
:1038F000691C30911C02EEE1F2E090E0931761F058
:1039000083B1829581701D9902C020E001C022E040
:10391000822B81939F5FF2CF0895A8E1B0E0E3E9A5
:10392000FCE10C94442510E000E082E0982E94E045
:10393000A92EB12C2DEF822E772473943CEF632EA9
:1039400043E0542E80911C02181708F0A5C0E12E08
:10395000F12CE3B1E295E1701D9902C080E001C055
:1039600082E08E2BD701A25EBD4FEC912E2F2370EB
:1039700030E0482F082E000C550B2417350709F4AA
:1039800089C0EE0FEE0FE82BEC93EF70F0E0E75BF1
:10399000FE4FC701835E9D4F6C019081F6018081CF
:1039A000890F80838430A4F1F701E55EFD4F8081AB
:1039B0008F5F80830E9450201D876E86682F8F87BF
:1039C000988B598A7A8A412F5CEF792F83E091E0B6
:1039D0000E94DD098FE39CE90197F1F700C0000028
:1039E0000E9450201B8B6C8A682F8D8B9E8B5F8A68
:1039F000188E412F5CEF792F83E090E00E94DD0963
:103A0000EFE3FCE93197F1F700C0000021E001C0CD
:103A100020E0F60180818D3F9CF5F701E55EFD4FCA
:103A20008081815080830E94502019838A82682F70
:103A30008B839C839D827E82412F5DEF792F82E074
:103A400091E00E94DD098FE39CE90197F1F700C046
:103A500000000E9450201F838886682F89879A87DC
:103A60009B861C86412F5DEF792F82E090E00E94BB
:103A7000DD09EFE3FCE93197F1F700C0000021E038
:103A8000F6018081082E000C990BB5010E942725B4
:103A90008083022B1F5F56CF802F6896EFE00C9437
:103AA0006025CF93DF9386319C4741F5EB010E945F
:103AB000DC11982F8D8120912001309121018823E4
:103AC00079F09A7A81E009F480E080931F029111E5
:103AD00002C069E201C065E3C9010E94BC1F0AC0BF
:103AE00080911F02811102C069E201C065E3C90132
:103AF0000E94BF1F0E94281280E001C081E0DF9178
:103B0000CF9108950F931F93CF93DF93C42FD22F9C
:103B1000FC0185818823B1F0409322020E9450204D
:103B2000909321028093200280E28C0F883008F06D
:103B30004DC0C77081E001C0880FCA95EAF70E94A6
:103B4000130B44C080912202481330C080912002A0
:103B5000909121020E946820883C910538F510E27E
:103B60001D0FCD17B9F080E28C0F883040F4C7707C
:103B700081E001C0880FCA95EAF70E941A0B18303D
:103B800010F581E09D2F977001C0880F9A95EAF794
:103B90000E94130B802F0E94090B1830B8F4D770C5
:103BA00081E001C0880FDA95EAF70AC080E28C0F45
:103BB000883060F4C77081E001C0880FCA95EAF7C9
:103BC0000E941A0B03C0802F0E94090BDF91CF9136
:103BD0001F910F9108950F93FC01E851FC47E730C6
:103BE000F10590F5CB01EE59FF4F0C943B2506E211
:103BF00021EE41EE6AE17CE723C007E225EE45EEC7
:103C00006BE17CE71DC006E221EE40EE68E17CE757
:103C100017C007E225EE44EE69E17CE711C006E239
:103C200021EE42EE6CE17CE70BC007E225EE46EEAA
:103C30006DE17CE705C008E221E045EE6EE17CE73E
:103C40000E94821D80E008C0FB018581882319F055
:103C50001092220201C081E00F9108951092B900E4
:103C60008CE08093B8000895A0E0B0E0EAE3FEE1C4
:103C70000C944825B82EEB010E9450206C01C431F1
:103C8000D10558F0CF3F8FEFD80759F0CE0164E14E
:103C900070E00E9413257B0107C0EE24E394F12C11
:103CA00003C025E0E22EF12C84E8A82E94EA992E98
:103CB0001092BC009092BC000E9450208C01809118
:103CC000BC0087FD07C0C8010E946820E816F906FD
:103CD000B0F729C08091B900887F883041F0809189
:103CE000B900887F803119F00FEF1FEF1EC0B0922E
:103CF000BB00A092BC000E9450208C018091BC00AF
:103D000087FD07C0C8010E946820E816F906B0F7D1
:103D10000AC08091B900887F883111F0803421F782
:103D200000E010E00EC00EEF1FEFCF3F8FEFD8077F
:103D300009F4BECFC6010E946820C817D90708F051
:103D4000B7CFC801CDB7DEB7EBE00C9464250F9375
:103D50001F93CF93DF93EB018093BB0084E88093A4
:103D6000BC000E9450208C018091BC0087FD0DC0DA
:103D7000CF3F8FEFD807C1F3C8010E946820C81752
:103D8000D90790F78EEF9FEF0CC02091B900287FE4
:103D900081E090E0283211F480E090E091958195E7
:103DA0009109DF91CF911F910F910895A0E0B0E0AC
:103DB000ECEDFEE10C944B256B018A017901B90110
:103DC0000E94341EE6010C0D1D1DC017D10741F4E1
:103DD00024E92093BC00CDB7DEB7E8E00C9467255A
:103DE00097FDF6CFB70189910E94A71EEECFA0E004
:103DF000B0E0EDEFFEE10C944B25C62F6A0179018E
:103E0000B8010E94341E97FD11C0B8018C2F0E948A
:103E1000A71EE601EC0CFD1CCE15DF0539F097FD61
:103E200005C0B80189910E94A71EF6CF24E920930E
:103E3000BC00CDB7DEB7E8E00C94672584E9809339
:103E4000BC00089590935B0180935A01089590936C
:103E50002402809323020895E0912302F09124022A
:103E6000309729F00190F081E02D0995089580E0C8
:103E70000895EF92FF920F931F93CF93DF93E091FA
:103E80002302F0912402309781F18C010280F381AA
:103E9000E02D09958091EA0182FF27C080FF04C0D0
:103EA00086E899E00E94DE05E80118E080E8E82E47
:103EB00089E0F82E8091EA0180FF0BC088811F9273
:103EC0008F93FF92EF920E9477060F900F900F90C2
:103ED0000F90115021961111EDCF8091EA0180FFD2
:103EE00004C08EE799E00E94DE05CDB7DEB7E6E0BC
:103EF0000C946925FC01329697E080E0915029F0FE
:103F000021912223D9F38F5FF9CF0895662349F0D9
:103F1000FC01329608962191621729F0E817F907FB
:103F2000D1F780E0089581E008959C01FC0132966C
:103F30009FEF80E04191461789F09F3F19F44111AE
:103F400001C0982F8F5F8630A9F79F3F39F0F901A4
:103F5000E90FF11D97FDFA956283089508959C017C
:103F60002A5F3F4FFC014281461301C01282019635
:103F700082179307B9F708950E94951F08950E942C
:103F8000AF1F0895029626E0FC0111922A95E9F7E9
:103F9000089508950E94C91F08950E94CA1F089598
:103FA0000E94C91F08950E94C91F08950E94C91F39
:103FB0000895CF930E94D31F0E94B7170E94D01F6D
:103FC000C0E08C2F0E94B016811104C0CF5FC730B3
:103FD000C1F701C081E0CF91089508951F920F921B
:103FE0000FB60F9211248F939F93AF93BF9380913D
:103FF0002502811113C08091710590917205A091E5
:104000007305B09174054196A11DB11D8093710592
:1040100090937205A0937305B0937405BF91AF910F
:104020009F918F910F900FBE0F901F9018958091C8
:104030002802882331F10E945E091092250220E4B3
:1040400088E190E00FB6F894A895809360000FBEC9
:104050002093600083B7817F846083BF83B78160D2
:1040600083BF7894889583B78E7F83BF0FB6F8940B
:10407000A895809160008861809360001092600034
:104080000FBE08950E943A0D0E946509089582E0CE
:1040900084BD93E095BD9AEF97BD80936E0008951F
:1040A0002FB7F8948091710590917205A0917305D6
:1040B000B09174052FBF08952FB7F89460917105E2
:1040C0007091720580917305909174052FBF0895CA
:1040D0009C014FB7F8948091710590917205A09161
:1040E0007305B09174054FBF821B930B08957894AC
:1040F0001F920F920FB60F9211248F939F93AF933D
:10410000BF938091710590917205A0917305B09154
:1041100074050196A11DB11D8093710590937205E0
:10412000A0937305B0937405BF91AF919F918F9148
:104130000F900FBE0F901F90189598E088E10FB672
:10414000F894A895809360000FBE90936000A895A6
:10415000F894D8E0CEEF28E3299320E0299314BE09
:10416000FFCF089598E088E10FB6F894A895809362
:1041700060000FBE90936000FFCF0E94502090938C
:1041800027028093260290E080E80FB6F89480938F
:104190006100909361000FBE08950E94EC24539A31
:1041A00080E0815041F0A895EFE9FFE03197F1F709
:1041B00000C00000F6CF5398789408950E948D2295
:1041C0000E94271F2FEF80E792E02150804090400F
:1041D000E1F700C00000089580919C05882389F0D4
:1041E00010929C050E9450209093270280932602F3
:1041F000809128028823D9F1109228020E9442203F
:1042000011C080912802811111C0809126029091E5
:1042100027020E946820069728F081E080932802F8
:104220000E94172080912802882309F10E941720FC
:104230000E94D91F882309F43DC0F8942AB15B9AE3
:10424000822F8C608AB99BB18CE098279BB93FE79D
:1042500048E391E0315040409040E1F700C0000059
:104260009BB189278BB92AB95B98789408950E94ED
:10427000F5238091A205882329F08091800584FD93
:104280000E940B140E9488210E94F5238091A205B0
:10429000882329F080918C0584FD0E9410220E94C1
:1042A000F5238091A205882329F08091B90584FD2A
:1042B0000E94342208959FB7F89481E03091DA0289
:1042C0002091D902321301C080E09FBF08958091F0
:1042D000D80208950F931F93CF93DF938C01D62FAD
:1042E000C6E08091B90584FD05C0C15049F00E9427
:1042F000F523F7CF6D2FC8010E94F02381E001C0A4
:1043000080E0DF91CF911F910F9108950895089556
:10431000CF93DF93CAE0D0E08091800584FF3DC059
:104320008091550290915602981709F441C028E0F7
:10433000829FC001112468E0895A9D4F0E94EB239F
:104340008091550290E001968F70992780935502D5
:104350002091EA0122FF2CC020FF2AC04091560282
:10436000242F30E0281B390B481710F4205F3F4FF3
:104370003F932F931F924F939F938F9387E29AE0DF
:104380009F938F930E9477068DB79EB708960FB6BE
:10439000F8949EBF0FBE8DBF0BC00E94F5238FE91E
:1043A0009FE00197F1F700C00000219709F0B4CF1A
:1043B000DF91CF910895CF93DF93EC01A091560246
:1043C000B0E0CD0101968F709927209155022817F2
:1043D00081F093E0AA0FBB1F9A95E1F7A95ABD4F50
:1043E00098E0FE0101900D929A95E1F780935602B4
:1043F00008C08091EA0180FF04C08BE19AE00E942E
:10440000DE050E94F5230E94882188E0FE01ADE4CC
:10441000B2E001900D928A95E1F7DF91CF91089576
:1044200080912C02803239F460E28DE292E00E94A9
:10443000EC0710922C0208956FB7F8949091DA026D
:10444000492F50E09A012F5F3F4F2F77332770910C
:10445000D902721731F0FA01E552FD4F80832093A3
:10446000DA026FBF80E00895A0E2B0E0EAE3F2E292
:104470000C944B258091A205882309F44AC00E9420
:104480005B21882309F445C08E010F5F1F4F80E236
:10449000F80111928A95E9F778016E01F9E0CF0EE3
:1044A000D11C0E945B218823F1F0EC14FD04D9F0AB
:1044B0003FB7F8948091D9029091DA02981304C022
:1044C0009093D90220E00AC090E0FC01E552FD4F34
:1044D000208101968F7799278093D9023FBFF701FA
:1044E00021937F01DECF7E01F1E2EF0EF11C68E047
:1044F000C8010E946A21882329F0085F1F4F0E150A
:104500001F05A9F760E080E090E00E946A210E9408
:10451000F523A096E8E00C94672589E291E00895E0
:10452000CF93DF93EC01988190768091EA019032ED
:1045300009F062C09981913099F480FF04C08FE046
:104540009AE00E94DE058C819D81892B09F05AC07A
:104550008DE492E090939E0580939D0588E05EC077
:10456000923071F480FF04C085E09AE00E94DE057D
:1045700087ED92E090939E0580939D0581E04EC06B
:104580009A3091F49B819093D70280FF46C01F928E
:104590009F9386EF99E09F938F930E9477060F90E9
:1045A0000F900F900F902EC0993009F580FF04C036
:1045B0008AEE99E00E94DE058A819B8181159240F6
:1045C00051F58C819D81892B31F58091EA0180FF25
:1045D00004C081EE99E00E94DE0581E080932B0209
:1045E0008E819F8190932A028093290214C080FFBC
:1045F00014C088ED99E004C080FF0FC080ED99E001
:104600000E94DE058091EA0180FF07C08EEC99E0F0
:104610000E94DE0502C08FEF01C080E0DF91CF91E4
:104620000895CF93DF932091290230912A02232B02
:10463000F9F020912B022130D9F4EC018091EA01AC
:1046400080FF0DC088811F928F938FEB99E09F931D
:104650008F930E9477060F900F900F900F90888194
:104660008093D80210922A021092290281E001C0A0
:104670008FEFDF91CF910895683059F08091EA0172
:1046800080FF04C08AEA99E00E94DE0510922C02A5
:10469000089520912C02A22FB0E0A931B1053CF081
:1046A0008091EA0180FFF2CF88E999E0EDCFFC012B
:1046B000A35DBD4F089631913D93E817F907D9F7EF
:1046C000285F20932C020895FC0193819330B1F070
:1046D00068F4913081F0923009F059C082E49AE098
:1046E00090939E0580939D0582E60895913201F195
:1046F000923291F14CC084EA9AE014C082818130F8
:1047000079F030F0823009F042C086EB9AE00AC0BE
:104710008EED9AE090939E0580939D0584E0089528
:104720008AEC9AE090939E0580939D0582E108951E
:104730008281813049F028F0823049F58DE89AE095
:1047400005C084E59AE002C08DE69AE090939E054C
:1047500080939D0589E0089584819581813091053C
:1047600071F028F0029799F482EE9AE00AC086E28E
:104770009BE090939E0580939D0580E4089584E0DE
:104780009BE090939E0580939D0582E2089580E0D2
:1047900008951F93CF93DF93162FEA01288124FFFA
:1047A00005C0398128E82327298302C02AE5288308
:1047B000212FFC01CE010296DC0131913D93215065
:1047C0001216DCF3612F0E9495061C5F1883DF919F
:1047D000CF911F91089540E855E00E94C9230895A4
:1047E00049EB55E00E94C9230895CF93DF93609170
:1047F0009F05635067FD93C080919B05CCE0D0E09E
:10480000C81BD109CD55DA4F80919A05803120F42B
:10481000CE010E943C2381C08D3209F06EC0683009
:1048200009F07BC083EC809375058AE580933201A3
:10483000109299058881807621F0CE010E94902205
:1048400049C09A8110927E058981811106C010921B
:104850007F052EE735E082E038C0853019F490936B
:10486000A00530C08630A1F48B81813041F08230C8
:1048700031F0833021F0813211F0823221F4CE0107
:104880000E94642301C080E090E49093990522C0C7
:10489000883089F0893019F49093A20513C08A30CA
:1048A00069F08B3079F48BE4809381058093BA05AD
:1048B00080938D0507C022EA35E002C02EE735E07F
:1048C00081E003C02EE735E080E030939E05209321
:1048D0009D0509C08F3F39F4988197FD8E8190E83E
:1048E0009093990507C09F81911104C09E819817EC
:1048F00008F4892F8093310110C08091990587FFBA
:104900000CC0CE010E9411238F3F21F48EE18093D1
:10491000320103C081111092310110929F058091E4
:10492000320184FF4CC0809131018F3F09F447C0B0
:10493000C82F893008F0C8E08C1B8093310190911A
:10494000750588E8892780937505CC2359F18091F6
:104950009D0590919E052091990526FF12C0A5E71F
:10496000B5E02C2FAC0145575540FA01EA0FFB1F6B
:10497000E4911196EC931197215011962111F5CFE6
:1049800008C0E6E7F5E0DC012C2F3D913193215082
:10499000E1F701962FEF2C0F820F911D90939E054A
:1049A00080939D056C2F86E795E00E949506CC5F6D
:1049B000CC3019F08FEF80933101C093320184E144
:1049C00099B19C7031F48150D9F71092A0051092E2
:1049D0009805DF91CF910895CF93DF93E9E6F0E05A
:1049E000808188608083E99AC0E8D5E08BE4898380
:1049F000A9EBB5E011968C931197ECE8F5E0818373
:104A00008AE588838C938083DF91CF910895991BE9
:104A100079E004C0991F961708F0961B881F7A95B5
:104A2000C9F780950895AA1BBB1B51E107C0AA1FB7
:104A3000BB1FA617B70710F0A61BB70B881F991F3F
:104A40005A95A9F780959095BC01CD01089597FBE3
:104A5000072E16F4009407D077FD09D00E94132585
:104A600007FC05D03EF4909581959F4F0895709571
:104A700061957F4F0895EE0FFF1F0590F491E02D93
:104A800009942F923F924F925F926F927F928F92F2
:104A90009F92AF92BF92CF92DF92EF92FF920F93CD
:104AA0001F93CF93DF93CDB7DEB7CA1BDB0B0FB6D7
:104AB000F894DEBF0FBECDBF09942A883988488894
:104AC0005F846E847D848C849B84AA84B984C8842A
:104AD000DF80EE80FD800C811B81AA81B981CE0F21
:104AE000D11D0FB6F894DEBF0FBECDBFED01089506
:104AF000FB01DC0102C005900D9241505040D8F7F7
:104B00000895FB01DC0104C08D910190801921F40E
:104B100041505040C8F7881B990B0895FB01DC01F8
:104B200002C001900D9241505040D8F70895DC0129
:104B300001C06D9341505040E0F70895F999FECFC0
:104B400092BD81BDF89A992780B50895A8E1B0E09B
:104B500042E050E00C94E225DC01A40FB51F415067
:104B6000504048F0CB01840F951F2E910E94BD2527
:104B700041505040D0F70895262FF999FECF92BDAD
:104B800081BDF89A019700B4021639F01FBA20BD12
:104B90000FB6F894FA9AF99A0FBE08950396272F44
:104BA0000E94BD250E94BC25252F0E94BD25242FD3
:104BB0000C94BD250196272F0E94BD250C94BC2581
:104BC000DC01CB01FC01F999FECF06C0F2BDE1BDCD
:104BD000F89A319600B40D9241505040B8F70895BC
:044BE000F894FFCF77
:104BE4004E6F20446174610000000000000000006A
:104BF40000000000000000000000000000000000B1
:104C0400CB010021007F2200036721DB218621875D
:104C140021FF5A30979695313233909194636061B5
:104C240062000810181810080000FF0100010000BD
:0A4C3400FFFF0000010001FF000077
:00000001FF
