:100000000C94CB050C94E8050C94B1060C94E8050F
:100010000C94E8050C94E8050C9440200C94E80539
:100020000C94E8050C94E8050C94E8050C94E8059C
:100030000C94E8050C94E8050C94C9200C94E80590
:100040000C94E8050C94E8050C94E8050C94E8057C
:100050000C94E8050C94E8050C94E8050C94E8056C
:100060000C94E8050C94E805B20BB20BDE0BDE0B2A
:10007000230D230D230D230D340CAA0CBB0CBB0C3C
:10008000271C991C2F1CF91BFD1B331C001C361C44
:10009000411C0B1C8F1C0F1C451C131C491C731C82
:1000A000171C4D1C7D1C1D1C531C5D1C041C3A1C84
:1000B000071C3D1C221C581C691C891C8B1CF51B31
:1000C0002B1CA21C551E5B1E491E4F1E611E671E67
:1000D0006D1EB6B6B6B6B6B6B6B6B6B6B6B6B6B6A1
:1000E000B695B596D5B6B680818283848586878895
:1000F000898A8B8C8D8E8F9091929394A0A1A2A3CC
:10010000A4A5A6A7A8A9AAABACADAEAFB0B1B2B337
:10011000B4C0C1C2C3C4C5C6C7C8C9CACBCCCDCE82
:10012000CFD0D1D2D3D4000A00256320005265631A
:10013000656976656420646174613A200052656384
:1001400065697665642064617461206C656E6774AE
:10015000683A2025640A00A900AA000100010001F4
:10016000000100010001002B0014001A0008001516
:100170000017001C00215204001600070009000AA5
:10018000000B00E1003800E4001B00060019000528
:1001900000E000E2002252E6002C002C002C0000BF
:1001A000003400A800130012000C0018000000E347
:1001B000002A0028000F000E000D0000001D00E5C1
:1001C00000370036001000110029001E001F00201B
:1001D0000021002200230001000100350031000150
:1001E0000001000100010001004F000100010001B9
:1001F00000010001000100510050004A0001004DC3
:100200000000000100010027002600250024000056
:100210000001004C003400330030002F00000001CA
:1002200000520038002E002D00010001003A003B72
:10023000003C003D003E003F00390001000100018C
:1002400000010001000100010001000100010001A6
:100250000001000100010001000100010001000196
:100260000001000000010001004300420041004085
:100270000000000100010001000100010001000078
:100280000001000100010001000100010001000166
:100290000001000100010001000100010001000156
:1002A0000001000100010001000100010001000146
:1002B0000001000100010001000100010001000136
:1002C0000001000100000001000100010001000127
:1002D0000001000000010001000100010001000117
:1002E00000000001000100010001000100010044C4
:1002F000454255473A2064697361626C65642E0A11
:100300000044454255473A20656E61626C65642E33
:100310000A000A0025303258006C65645F7461730E
:100320006B3A20004F6E6573686F743A2061637496
:100330006976653A2025640A000A00253038620093
:100340003A200025303258000A722F6320303132B3
:1003500033343536370A006F6C65645F6F6666202C
:10036000636D64206661696C65640A0000AE6F6C41
:1003700065645F6F6E20636D64206661696C65649F
:100380000A0000AF6F6C65645F72656E64657239F8
:10039000302064617461206661696C65640A006F75
:1003A0006C65645F72656E6465722064617461205F
:1003B0006661696C65640A006F6C65645F72656E86
:1003C000646572206F666673657420636F6D6D611E
:1003D0006E64206661696C65640A00646973706CA0
:1003E00061795F736574757032206661696C6564EC
:1003F0000A0000DA0281FFD9F1DB20A4A62EAF6447
:100400006973706C61795F666C6970706564206691
:1004100061696C65640A0000A0C0D3006F6C6564FC
:100420005F696E697420636D64206E6F726D616CBC
:1004300020726F746174696F6E206661696C6564A7
:100440000A0000A1C8D3006F6C65645F696E6974AF
:1004500020636D64207365742031206661696C656A
:10046000640A0000AED580A81F408D142000000053
:10047000000000003E5B4F5B3E003E6B4F6B3E005A
:100480001C3E7C3E1C00183C7E3C18001C577D57CF
:100490001C001C5E7F5E1C0000183C180000FFE77B
:1004A000C3E7FF00001824180000FFE7DBE7FF00A8
:1004B00030483A060E00262979292600407F050596
:1004C0000700407F05253F005A3CE73C5A007F3E2D
:1004D0001C1C0800081C1C3E7F0014227F221400F4
:1004E0005F5F005F5F0006097F017F0000668995FE
:1004F0006A0060606060600094A2FFA2940008043B
:100500007E04080010207E20100008082A1C080025
:10051000081C2A0808001E10101010000C1E0C1ECB
:100520000C0030383E383000060E3E0E060000004B
:100530000000000000005F0000000007000700004E
:10054000147F147F1400242A7F2A120023130864C6
:100550006200364956205000000807030000001CC6
:10056000224100000041221C00002A1C7F1C2A009E
:1005700008083E08080000807030000008080808DD
:1005800008000000606000002010080402003E51D6
:1005900049453E0000427F400000724949494600FB
:1005A0002141494D33001814127F1000274545455D
:1005B00039003C4A494931004121110907003649B7
:1005C00049493600464949291E0000001400000030
:1005D00000403400000000081422410014141414D8
:1005E00014000041221408000201590906003E418E
:1005F0005D594E007C1211127C007F49494936003A
:100600003E41414122007F4141413E007F494949ED
:1006100041007F09090901003E41415173007F08F3
:1006200008087F0000417F4100002040413F010059
:100630007F08142241007F40404040007F021C029E
:100640007F007F0408107F003E4141413E007F094A
:10065000090906003E4151215E007F091929460023
:1006600026494949320003017F0103003F404040D1
:100670003F001F2040201F003F4038403F006314D0
:10068000081463000304780403006159494D4300D2
:10069000007F414141000204081020000041414117
:1006A0007F0004020102040040404040400000037B
:1006B000070800002054547840007F284444380044
:1006C000384444442800384444287E003854545464
:1006D000180000087E0902001824241C78007F08F6
:1006E0000404780000447D4000002040403D0000AC
:1006F0007F102844000000417F4000007C04780403
:1007000078007C08040478003844444438007C189D
:1007100024241800182424187C007C0804040800F1
:1007200048545454240004043F4424003C404020D6
:100730007C001C2040201C003C4030403C004428F1
:10074000102844004C9090907C004464544C440029
:100750000008364100000000770000000041360824
:1007600000000201020402003C2623263C00000097
:1007700000000080C0E0F0F0300000C060F0F0F059
:10078000300080C020F0F0F020000000000080C0A9
:10079000E0703018B8F8F00000000000DC7E3FBECA
:1007A000F0F0E000000000000080C0E070101818B9
:1007B000F8F06000000000C060F0F8F830000000C1
:1007C00080E0F0F8F8300000000080E0F0FCFF3F2F
:1007D0000F0100000080C0E0F0F878000000000089
:1007E00080C060309040203070E0C0000040404049
:1007F0004040404040404040000000E0FEFFFEF826
:10080000C00000000000E0FCFFFEF000000000005F
:1008100000000000013EE080700E010000000007B3
:100820003CE0807807000000000000000000001895
:100830000C06C3F9FE3FC7711806C3F07C1FC771D1
:100840001806C3F8FE3F0F0180C0F0F8FEDF4763D3
:100850006030381E0F0781402018060381F0FC7FAE
:100860001F0780C0E0F8FC3E0F03010000000003FA
:10087000018060100806E3FCFF3F0701C0308CE3F5
:10088000FF7F1F0380C030188CE3F9FF3F07018012
:10089000C030180CC3F1FC7F0F0380C0F0FCFE3F9A
:1008A0000701003EC18080E0FC3F8F4040C0F0FC6B
:1008B0007E4E0000000000000000F8FFFF1F071F31
:1008C000FFFEF0C0F8FF7F0F077FFFFEFC040478F7
:1008D00080000000C0380C1C6080000000F00C0498
:1008E000F41C80C0FCE6C3C1C1C3E6FCC0800000AC
:1008F000383F3F1F07030000383E3F1F0E03000034
:10090000307F7F3F190C0603010F1F3F716060703D
:1009100030180804020100000000387E7F3F3B18B9
:10092000040301000F1F31202020201018080402AA
:10093000010000001C3F7F7F31180603183E3F3F37
:100940001B0804020100001E3F3F3F100804020183
:100950000000183E3F3F190C060301000F1F3160D5
:10096000606030181C0F07030101000000183C3CB8
:100970001C00000000000000001F1F1F07000000F7
:1009800000031F1F0F0100000000071F1F1EF800BB
:100990000F70300EC138070E70831C601E03C03EFE
:1009A00001003F7FFFFFF9C0C0F9FFFF7F3F0A0052
:1009B0002530325820006B6579626F6172645F7216
:1009C00065706F72743A20005241573A2062756622
:1009D0006665722066756C6C0A005241573A206950
:1009E0006E76616C6964206C656E6774680A00538A
:1009F00045545F4C45443A20253032580A000A00DD
:100A000056454E444F523A00554E4B4E4F574E3A74
:100A1000005345545F4C45443A005345545F52459A
:100A2000504F52543A005345545F49444C453A2084
:100A300025303258004745545F49444C453A0047F9
:100A400045545F5245504F52543A006B6275663AB6
:100A50002066756C6C0A00562D5553423A206B6225
:100A600075665B25642D3E25645D28253032582946
:100A70000A0009026200030100A0FA090400000153
:100A80000301010009210101000122400007058145
:100A9000030800010904010002030000000921010C
:100AA0000100012222000705840308000107050454
:100AB00003080001090402000203000000092111DB
:100AC0000100012222000705830308000107050336
:100AD00003080001120110010000000837133173F0
:100AE00000010102000112034D0065007200630065
:100AF0007500740069006F00000012034D0065006E
:100B000063006800570069006C0064000000040383
:100B100009040631FF0974A1010975150026FF00BB
:100B20009520750881020976150026FF009520752D
:100B3000089102C00660FF0961A101096215002643
:100B4000FF009520750881020963150026FF0095B6
:100B50002075089102C005010906A101050719E0E9
:100B600029E7150025019508750181029501750891
:100B700081030507190029FF150026FF009506755A
:100B8000088100050819012905950575019102954F
:100B90000175039103C011241FBECFEFD8E0DEBF63
:100BA000CDBF11E0A0E0B1E0E8E8FCE402C00590B0
:100BB0000D92AA35B107D9F725E0AAE5B1E001C049
:100BC0001D92A53CB207E1F70E9485180C944226BD
:100BD0000C940000FF93EF93E0915A01F0915B01B8
:100BE000309709F00995EF91FF910895FC018591E7
:100BF000803011F0EFDFFBCF0895FF27E0E230E215
:100C000047FF0CC0419597FF09C0EDE260957095D4
:100C100080959095611D711D811D911D27FF02C05A
:100C2000219530E350E2AA27660F771F881F991F8E
:100C3000AA1FA41710F0A41B63955A95A9F7AA3010
:100C400008F0A95FA05DAF93F3956115710581056B
:100C5000910541F7ED3211F4EF93F395F21718F483
:100C60003F93F395FBCF8F91B5DFFA95E1F70895A8
:100C7000E991F9918591803021F0853219F0AADF50
:100C8000F9CF089520E0E89455915532C1F35033DF
:100C900011F4689455915A3348F4505390F3220F4D
:100CA000022E220F220F200D250FF4CF0EF42195D6
:100CB00089919991533619F3533729F1533559F1E5
:100CC000BC0188279927E8945C3621F48991999191
:100CD00068945591543639F446EF7EF077FF0DC095
:100CE0008FEF9FEF0AC055374AE039F0583540E1A1
:100CF00021F0523642E009F00895FF93EF937DDF33
:100D0000EF91FF91B7CFFF93EF93FC01819180307A
:100D1000B9F360DFFBCFFF93EF9368DFF1CFDF9391
:100D2000CF93CDB7DEB72596A3DFCF91DF9108959E
:100D3000A82FB92F80E090E041E050EA609530E0C4
:100D400009C02D9182279795879510F084279527C4
:100D5000305EC8F36F5FA8F30895EADF8D939D932B
:100D60000895CF93CFB7CF93DF93C3954B9BE9F70C
:100D70004B9B10C04B9B0EC04B9B0CC04B9B0AC0A7
:100D80004B9B08C04B9B06C0C0919C05C395C0936C
:100D90009C058EC06F93C0919B05DD27CD55DA4F22
:100DA0002F9365E54B9B03C02F916F91E1CF0F937C
:100DB0001F934F9320E040E15F9309B10C7003FB58
:100DC00027F93F9350E03BE039C01C7040642F7717
:100DD000012F5F5F1EC0406819B11C702F77525001
:100DE0001FC0406409B12F770C70D1F15F5F00C064
:100DF00023C0406219B12F771C7091F15F5F00C072
:100E000025C00C701027515012F45D5F0000115086
:100E100027952C3F19B1C8F61C7001270150279562
:100E20002C3FC8F64227499309B10C7010274F7325
:100E3000115027952C3FA8F64695469519B11C7080
:100E400079F00127015027952C3F98F66B5A60F3F3
:100E5000315009B1B0F600C012E01CBB00271CC025
:100E60003B503195C31BD04012E01CBB0881033CB2
:100E700021F10B3411F1209198051981110F1213F2
:100E8000EDCF4A81441F093679F10D3211F0013E50
:100E900029F74F7009F0042F0093A1053F915F914E
:100EA0004F911F910F912F916F91CCB3C1FD5DCFE9
:100EB000DF91CF91CFBFCF9118952091A10522232B
:100EC00069F310919F05112309F049C034300AF4E9
:100ED00048C030939F0520939A0510919B053BE0F5
:100EE000311B30939B053DC000919F050130BCF53F
:100EF0000AE54F7049F43091320134FD33C000935C
:100F00003201C5E7D5E032C0433059F0443091F0AA
:100F10003091800534FD26C000938005C1E8D5E0FE
:100F200025C03091B90534FD1DC00093B905CAEB49
:100F3000D5E01CC030918C0534FD14C000938C05A5
:100F4000CDE8D5E013C0052710E000C000000BB9C4
:100F50001AC0052710E0221F1DC010E021C04AE57D
:100F600002C032ED432FC4E1D0E032E01AB11C6080
:100F70005B9A0BB11AB95CE020E865E320FF052716
:100F80000BB9279517951C3FF0F66695B8F7B1F7A2
:100F900020FF05270BB9279517951C3FD0F62795FD
:100FA000179517FF052700001C3F0BB9B0F62991D4
:100FB0003A9519F7037F1091A005110FC651D04043
:100FC0000BB911F01093980512E01CBB08601AB120
:100FD000137F402F437F54E05A95F1F70BB91AB9AC
:100FE0004BB95CCF82E00895CF930E947E08C82F52
:100FF000882329F060E082ED90E00E944E1A8C2F49
:10100000CF91089582E00895A0E0B0E0EAE0F8E032
:101010000C9497257C01962E6DB67EB6062F10E0B7
:10102000680181E0C81AD108EDB7FEB7E01BF10BEB
:101030000FB6F894FEBF0FBEEDBF8DB79EB70196F9
:101040005C01A80160E070E00E94E92582E4F501FE
:10105000808363E088E00E9454191F929F928DE381
:1010600091E09F938F930E948F068DE291E09F9372
:101070008F930E948F060F900F900F900F900F90FC
:101080000F90570189E2882E81E0982EC5018E19B4
:101090009F098017910774F4F50181915F011F92F8
:1010A0008F939F928F920E948F060F900F900F90B8
:1010B0000F90ECCF87E291E09F938F930E948F0671
:1010C000F7013196A0E0B1E00F900F90CF018E199B
:1010D0009F09801791071CF481918D93F7CFF6013A
:1010E000E050FF4F108281E080935C010FB6F894CE
:1010F0007EBE0FBE6DBEEEE00C94B32580915C0108
:10110000882349F00E94DF180E948B1A60E080E07B
:1011100091E00E94331A80E008958430B0F4673083
:10112000A0F4473090F491E3899FF001112487E007
:10113000689FE00DF11D1124E40FF11DEE0FFF1F5C
:10114000E959FE4F85919491089581E090E00895CA
:101150000E948D080895843088F461110FC0E82F33
:10116000F0E0EE0FFF1F81E04827E40FF11DEE0FC6
:10117000FF1FE95AFE4F85919491089581E090E018
:1011800008950E94AB08089581E0089581E00895D4
:101190000E94C60808950E94C80808950E94C608C3
:1011A000089508950E94D1080895A6E0B0E0EBEDFF
:1011B000F8E00C94A22549835A839E833091620102
:1011C00089819A81311115C03E81332359F0222340
:1011D00049F00E94E80E182F682F89819A810E9499
:1011E000B50E03C00E94CF0E182F69817A81812F1E
:1011F00004C00E94E80E69817A810E94C915269672
:10120000E3E00C94BE25FC01262F408151816281D0
:101210007381848195810E94D5080895CF93DF93CF
:10122000EC0161E00E940309BE010E94CB08DF913E
:10123000CF910895CF93DF93EC0160E00E94030902
:10124000BE010E94D208DF91CF91089508950E94B7
:101250008C0D0E9426092FEF84E39CE021508040F2
:101260009040E1F700C0000008950E9427090E9405
:10127000EF2008950E9427090E94042108950F93EA
:101280001F93CF93DF938C0161E00E940309EC016F
:10129000B8010E94CE08882309F45BC0B801CE01D2
:1012A0000E943D1E882309F454C0B801CE010E945B
:1012B000D11B882309F44DC0B801CE010E94A31DA3
:1012C000882309F446C0F80185818823E9F1C330F9
:1012D0008CE7D80779F158F4C130FCE7DF0761F1FA
:1012E000A0F4C115DC4781F50E94350932C0CB3529
:1012F000FCE7DF0739F1CC358CE7D80701F1CA35B7
:10130000DC4711F50E9422131FC08091EA01C82F0B
:10131000C095C170C0FB80F98093EA01CC2329F00D
:1013200081E093E00E94F60514C08FEE92E00E94E7
:10133000F60510C00E942A130E943A090AC00E94B2
:10134000181302C00E942613C8010E94C408C82FA7
:1013500001C0C0E08C2FDF91CF911F910F910895B4
:101360000E941F200E94EB090E94871B08950E9483
:10137000EF090E94282008958295982F937344E0E6
:10138000949F900111248C7C86958695282B822F22
:101390008575880F2A7A2695822B0895089581E015
:1013A00008950895CF93DF93D82F0E94CF09C82FB7
:1013B000882319F08D2F0E94D1098C2FDF91CF91B6
:1013C00008950895CF93C82F0E94CE098C2F0E94B4
:1013D000D209CF91089580E00E94E20908950E9409
:1013E0007E1F0E94E2090895CF930E947E1FC82F9E
:1013F00080915D01C81789F1C0935D010E94AE2004
:1014000060935E0170935F0180936001909361012E
:101410008091EA0182FF1EC080FF04C089E193E051
:101420000E94F6058091EA0180FF0CC01F92CF93C5
:1014300084E193E09F938F930E948F060F900F900B
:101440000F900F908091EA0180FF04C082E193E049
:101450000E94F6058C2F0E94E209CF910895ADE01D
:10146000B0E0E5E3FAE00C94A325488759876A8742
:101470007B878C879D8791110E944E12CE01019629
:1014800027E0FC0111922A95E9F726E0FE01389643
:10149000DC0101900D922A95E1F72D8121110AC0FE
:1014A00029813A814B815C816D817E818F810E948F
:1014B000981104C00E940E098111F2CF2D96E2E02E
:1014C0000C94BF25FC012481213021F4808191817D
:1014D0000E941A0F0895CF93882309F481C0C82F62
:1014E0008238C1F40E947E1F81FD7AC069E3809139
:1014F0002001909121010E940E200E947A122FEF6C
:1015000087EE93E0215080409040E1F700C000005A
:1015100069E333C08338C1F40E947E1F80FD60C040
:1015200063E580912001909121010E940E200E948C
:101530007A122FEF81EE94E0215080409040E1F745
:1015400000C0000063E519C08438F1F40E947E1FDA
:1015500082FD46C067E480912001909121010E94A4
:101560000E200E947A122FEF81EE94E021508040ED
:101570009040E1F700C0000067E480912001909165
:1015800021010E9411202AC08CEF8C0F813AD0F4E7
:101590006C2F80912001909121010E94D81F8823F7
:1015A00049F06C2F80912001909121010E9411201F
:1015B0000E947A126C2F80912001909121010E944B
:1015C0000E200CC080E28C0F883050F4C77081E090
:1015D00001C0880FCA95EAF70E9431120E947A1260
:1015E000CF910895882309F44DC0682F823879F48B
:1015F0000E947E1F81FF46C069E380912001909187
:1016000021010E940E200E947A1269E326C08338CD
:1016100079F40E947E1F80FF35C063E58091200130
:10162000909121010E940E200E947A1263E515C05C
:10163000843879F40E947E1F82FF24C067E4809181
:101640002001909121010E940E200E947A1267E4ED
:1016500004C08CEF860F813A38F48091200190917C
:1016600021010E9411200CC080E2860F883050F4C6
:10167000677081E001C0880F6A95EAF70E9437120F
:101680000E947A1208951F93CF93DF93182FEB01D6
:101690000E946B0A209741F08FE99FE00197F1F7D4
:1016A00000C000002197F6CF812F0E94F20ADF913F
:1016B000CF911F910895893319F06AE070E002C05C
:1016C00060E570E00E94430B0895882321F00E949A
:1016D00031120E947A120895882321F00E94371255
:1016E0000E947A120895A0E0B0E0E9E7FBE00C94D4
:1016F0009D257C01D62FC72FFC01158106810295FF
:101700000F700E9427128823E9F01123D9F08C2F43
:10171000807F803451F080E28D0F883098F0011185
:1017200004C08C2F807E803269F080915C0382FF40
:1017300009C082E00E94D8120E94271291E0D82EA0
:10174000D92601C0D12CCC2EC2948FE0C8228C2D7A
:1017500090E08C30910508F076C1FC01EC5CFF4F05
:101760000C948D258C2F807FCF70882311F0C2952B
:10177000C07F112399F0CC2309F44CC180E28D0F76
:10178000883010F0D11104C08C2F0E94311203C098
:101790008C2F0E9441120E947A123CC18D2F0E9410
:1017A000F20ACC2309F44FC180E28D0F883038F162
:1017B000DD2329F18C2F0E94471224C08C2F807FBB
:1017C000CF70803211F0C295C07FDD2319F0D13087
:1017D00099F13CC080915C0382FD17C0112349F050
:1017E000CC2329F08C2F0E9431120E947A1280E0C3
:1017F00012C180E00E94F20ACC2309F424C18C2F8C
:101800000E9437120E947A121EC1112349F0002350
:1018100009F1013009F017C18C2F0E94581213C131
:10182000011111C18C2F0E946C0B8C2F0E9464122D
:101830008C2F0E94AB1207C1112321F0063008F053
:1018400002C108C0053008F0FEC00AC0112331F003
:101850000111E0C08C2F0E94650BF5C00111E0C0A2
:101860008C2F0E946C0BEFC08C2F8370B1F511117F
:10187000EEC04D2F429546954770440F440F8D2F73
:101880008F7090E09C01042E02C0220F331F0A9437
:10189000E2F7D4FF0AC08FE090E002C0880F991FE2
:1018A0004A95E2F78095909502C080E090E0C69559
:1018B000C695C370822B932BC23049F058F4C130C7
:1018C00019F00E94E80DC3C00E94DF0DC0C00E9445
:1018D000F10DBDC00E94DC0DBAC0112319F08C2F90
:1018E000817001C08695882309F4B1C04D2F4295BF
:1018F00046954770440F440F8D2F8F7090E09C01E8
:10190000042E02C0220F331F0A94E2F7D4FF0AC04C
:101910008FE090E002C0880F991F4A95E2F780950A
:10192000909502C080E090E0C695C695C370822B6A
:10193000932BC23049F058F4C13019F00E94500E78
:1019400086C00E94470E83C00E94590E80C00E942C
:10195000FD0D7DC0CF70112339F08C2F0E94150E24
:101960008D2F0E94650B73C08D2F0E946C0B8C2FE6
:101970000E94250E6CC0D23F21F128F4D03F41F0E7
:10198000D13FC1F043C0D33F19F1D43F79F03EC0FD
:10199000112341F0053008F056C08C2F8F710E9442
:1019A000370E51C0063008F04EC0F7CF80915C036F
:1019B00082FD18C0112339F08C2F8F710E94150EF3
:1019C00042C01123C9F38C2F8F710E94250E3BC09A
:1019D000112329F08C2F8F710E94090E34C00E94B0
:1019E000040E31C0112349F0CF718C2F0E94150EC7
:1019F00063E08C2F0E94BA1226C081E00E94D812A8
:101A0000023008F182E00E94D8121DC0112331F08B
:101A1000002391F28D2F0E946B0A15C0002399F2CA
:101A2000D93341F4FFEF27EE83E0F15020408040AE
:101A3000E1F704C0EFE3FCE93197F1F700C00000E3
:101A40008D2F0E94F20A88EF8C0D843020F40E94C2
:101A50007E1F0E94E209DD2089F00E94231280FD92
:101A60000DC0F70115820E941D120E94150EC701BC
:101A70000E945B0D0E941D120E94250ECDB7DEB79D
:101A8000E8E00C94B9250F931F93CF93DF93EC01FB
:101A9000688179818D810E94250F8C010E94620EE0
:101AA0000E94CD0DB801CE010E94730BDF91CF9142
:101AB0001F910F910895CF93DF93FC01248122237E
:101AC000D1F0EC010E943F0981110FC00E94271242
:101AD000882389F08D81882371F080915C0382FFD7
:101AE0000AC082E00E94D81206C0CE010E94430DB7
:101AF000CE010E941A09DF91CF9108950E944E12E3
:101B00000E947A12089580912001909121010E94F3
:101B100014200E947E0D08950E943E120E94830DA3
:101B2000089592959F70963079F010F4925001C00C
:101B30009A50923068F4803F69F018F4883E40F47F
:101B400009C0843F29F406C0883E20F0813F11F08F
:101B500080E0089581E00895FC012481222339F07A
:101B6000808191810E941A0F0E94910D089580E05A
:101B70000895A6E0B0E0EFEBFDE00C94A3252696D7
:101B8000E2E00C94BF25A7E0B0E0E9ECFDE00C94A6
:101B9000A3252796E2E00C94BF25089508950E949E
:101BA000CE0D08950E94CF0D08950E94D20D9093FE
:101BB00086018093850108950E94D50D0895209196
:101BC000850130918601822B932B0E94D50D0895BB
:101BD0002091850130918601822393230E94D50DA7
:101BE00008952091850130918601822793270E94D4
:101BF000D50D08950E94CE0D08950E94FA0D909380
:101C0000840180938301089580E090E00E94FD0D9F
:101C1000089521E030E0A90102C0440F551F8A95C4
:101C2000E2F7CA010E94FD0D089521E030E002C0F4
:101C3000220F331F8A95E2F78091830190918401EE
:101C4000822B932B0E94FD0D089521E030E002C00D
:101C5000220F331F8A95E2F72095309580918301FA
:101C600090918401822393230E94FD0D089521E029
:101C700030E002C0220F331F8A95E2F78091830182
:101C800090918401822793270E94FD0D0895209151
:101C9000830130918401822B932B0E94FD0D0895C6
:101CA0002091830130918401822393230E94FD0DB2
:101CB00008952091830130918401822793270E9407
:101CC000FD0D08950895962F9770A1E001C0AA0F09
:101CD0009A95EAF793E0769567959A95E1F7660FFE
:101CE000771F660F771FFA01E60FF71F40E050E0FD
:101CF000682F70E090819B01042E02C036952795D5
:101D00000A94E2F72170219529272A232927219374
:101D10004F5F5F4F4430510569F70895FB01782FFD
:101D2000777023E0969587952A95E1F7880F991F9C
:101D3000880F991FE80FF91F40E050E080E02191E3
:101D400030E0072E02C0369527950A94E2F72170FD
:101D50003327042E01C0220F0A94EAF7822B4F5F2B
:101D60005F4F4430510559F70895282F862F97303B
:101D700060F4273050F4622F70E027E0929F600DEE
:101D8000711D112447E651E007C09C5F923030F48A
:101D9000622F70E043E651E00E94630E0895292F00
:101DA000973058F4873048F490E067E671E037E008
:101DB000239F800D911D112406C02C5F223030F42A
:101DC00063E671E090E00E948E0E089580E0089531
:101DD000A0E0B0E0EEEEFEE00C949C257C010091CA
:101DE0008301109184018091850190918601082BD7
:101DF000192BCFE0D0E0CC24C394D12CC6010C2EFB
:101E000002C0880F991F0A94E2F780239123892B3F
:101E100021F4219798F7B12C07C0BC2EB7018C2F65
:101E20000E94E3150197A9F38B2DCDB7DEB7E9E04A
:101E30000C94B825CF93DF93EC010E94E80EBE010D
:101E40000E94E315DF91CF9108951F93CF93DF9305
:101E5000EB0190916201992321F0CB010E941A0FAE
:101E600013C0882349F0CB010E94E80E182F682F79
:101E7000CE010E94B50E04C0CB010E94CF0E182FD8
:101E8000BE01812F0E94E315DF91CF911F9108952C
:101E90001F93CF93DF93C091870117E08091880152
:101EA000C817A1F0D0E01C9FF0011D9FF00D112478
:101EB000E757FE4F208131814281538164817581D2
:101EC00086810E94C30D2196C770E8CFDF91CF9124
:101ED0001F9108952091C1013091C2014091C30129
:101EE0005091C4016091C5017091C6018091C701F4
:101EF0000E94C30D0895CF93DF938091C70182950F
:101F00008F7009F04EC08091C601882309F449C042
:101F100080918701409188015091C2016091C10177
:101F2000C091C301D091C40177E08417D1F190E052
:101F3000789FF001799FF00D1124DF01A757BE4F64
:101F400014962C911497222349F111962C911197F4
:101F5000251324C02C91261321C015962C9115977A
:101F600021111CC012962D913C9113972C1B3D0BF7
:101F7000283C310598F48091C7018F70806180936F
:101F8000C701E157FE4F80818F708061808381ECB3
:101F900091E00E945B0D0E94480F03C0019687707C
:101FA000C4CFDF91CF91089520918701909188014E
:101FB00057E02917A9F030E0529FF001539FF00D30
:101FC0001124E757FE4F7181761306C07081781394
:101FD00003C07581741306C02F5F3F4F2770E9CF90
:101FE00080E0089581E00895A4E1B0E0EAEFFFE029
:101FF0000C9499258C0186E0F801DE011F96019072
:102000000D928A95E1F7F8018481E58091ECA92E83
:1020100091E0B92E9091C501911118C0882309F45F
:1020200080C1EE20D9F1C8010E94AC0DF82E8823A2
:10203000A9F187E0F801D50101900D928A95E1F7A9
:10204000C5010E94620A0E947B0F98C0F801C080FF
:10205000D18082809380F090C6012091C30130919D
:10206000C401A401421B530BFF2009F406C1483CE4
:10207000510508F0AFC0882309F455C18091C7010C
:10208000282F207F9091C201222361F09D1509F431
:1020900062C0C8010E94AC0D811173C0C8010E94CA
:1020A0005B0D3FC19D1115C09091C1019C1111C0E4
:1020B000E1100FC08F7080618093C7010E946A0F8A
:1020C00081EC91E00E945B0D8091C701F80186834D
:1020D00026C1E1103AC040E06D2D8C2D0E94D40F36
:1020E00040E06D2D8C2D0E94D40FE82E811117C178
:1020F000CF86D88A8F8598890E941A0F292F22951A
:102100002F70243020F49F70223028F009C02A500C
:10211000223080F014C0992349F0811107C013C008
:10212000992321F0F8019681907F69F0805E8830D4
:1021300030F409C0803F38F0815F833020F0C8015F
:102140000E945B0DEF2CFE2CEEC08091C7018160D8
:102150008093C701E4C09091C1019C119ACFE11016
:1021600098CFF8018683C8010E945B0D87E0F801D3
:10217000A1ECB1E001900D928A95E1F70E946A0FFF
:10218000D2C0EE2009F48ACF2091C701822F829518
:102190008F7090E002978CF08091C1019091C20104
:1021A000998788879B868A868091C5018C871D8642
:1021B0002E87CE0108960E945B0D87E0F801A1EC06
:1021C000B1E001900D928A95E1F70E947B0F0E9489
:1021D0006A0FA7C09091C701292F207FA1F4682D15
:1021E0009A8A898AA6017A899E2D0E94B90D81EC6E
:1021F00091E00E945B0D87E0F50111928A95E9F765
:102200000E946A0F8CC0882309F48DC08091C2019E
:102210008D1111C08091C1018C110DC0E1100BC056
:10222000F8019683C8010E945B0D87E0F5011192C9
:102230008A95E9F778C0C8010E94AC0D882309F49B
:102240002DCFEE2009F42ACF2091C701822F82954D
:102250008F7090E002970CF4B0CF8091C101909103
:10226000C2019A8389839C828B828091C5018D8370
:102270001E822F83CE0101969ECF483C510508F067
:1022800040C0882309F44DC0FE2CEE2009F406CF8F
:102290008091C2018D1127C08091C1018C1123C092
:1022A0009091C70190FD16C0892F82958F70282FBD
:1022B00030E02115310571F0F80196832F3031059A
:1022C00009F451CF8F5F982F9295907F86818F7000
:1022D000892B48CF87E0F801A1ECB1E001900D9285
:1022E0008A95E1F720C0C8010E94AC0D811165CF2D
:1022F0008091C70181608093C701C8010E945B0D76
:1023000012C0682D9A8A898AA6017A899E2D0E9418
:10231000B90D87E0F50111928A95E9F72FCFF12CDD
:1023200002C0FF24F3948F2D6496ECE00C94B52545
:10233000AEE0B0E0EEE9F1E10C94A2252887398700
:102340004A875B876C877D878E87CE0108960E94BF
:10235000F40F882361F06C856623A9F128853985FF
:102360004A855B857D858E850E94C30D2CC087E0E4
:10237000FE013896DE01119601900D928A95E1F7E3
:102380006C85662301F12091880130E0C901019636
:10239000877099274091870150E084179507E1F1F4
:1023A0006D8397E0929FD001939FB00D1124A757A2
:1023B000BE4FFE01319601900D929A95E1F7809300
:1023C00088010E94480F17E0809187019091880151
:1023D000891779F1189FC001112487579E4F0E94D9
:1023E000F40F882331F1E09187011E9FF001112441
:1023F000E757FE4F2081318142815381648175818D
:1024000086810E94C30D8091870190E001968770BC
:10241000992780938701D8CF0E948C0D1092880154
:1024200010928701E1ECF1E087E0DF011D928A95CF
:10243000E9F72E96E3E00C94BE258091C8018695BD
:102440008695869508958091C8018770089590912A
:10245000C801977081E009F480E008958091D4016B
:1024600008959091D401892B8093D401089580958B
:102470009091D40189238093D40108951092D401BE
:1024800008959091D301892B8093D301089580956D
:102490009091D30189238093D30108951092D301A1
:1024A000089508950E94511208950E9452120895AD
:1024B0009091CA01292F2823821729F0982B9093F5
:1024C000CA010E94551208959091CA01292F28230C
:1024D00031F0809589238093CA010E945512089596
:1024E0008091CA01882329F01092CA0180E00E94DD
:1024F00055120895E0912001F09121018091D401BD
:102500008083E0912001F091210190818091D3019D
:10251000892B80838091CA01882381F0E09120017A
:10252000F09121019081892B8083809120019091ED
:1025300021010E94CC1F81110E9470128091200104
:10254000909121010E948B1F08950E9451120895BD
:102550000E94A51208959091C901292F282331F0D6
:10256000809589238093C9010E94A81208950E9432
:102570005112089590915C0392FF11C098E0899FD9
:1025800090011124262B2093C8010E94150E8091E2
:10259000C8018695869586950E94B71208950E9477
:1025A000150E08951092C80180E00E94B712089598
:1025B0009091C801809589238093C801282F2770A6
:1025C00069F4981759F090915C0392FF07C08695C3
:1025D000869586950E94250E0E94D2120895CF936B
:1025E00090915C0392FB222720F92817F9F0C82F5D
:1025F000892FC0FB82F980935C0380915B039091EB
:102600005C030E944B1382E00E94D8128091EA0181
:1026100080FF0CC01F92CF9384E293E09F938F932F
:102620000E948F060F900F900F900F90CF910895FA
:1026300080915C0382FB882780F991E089270E94C2
:10264000EF12089581E00E94EF12089580E00E9449
:10265000EF1208956FEF7FEF80E090E00E942C264C
:10266000089580E090E00E94F82521E0863E9E4F8C
:1026700009F020E0822F089582E090E00E94F0258A
:10268000089583E090E00E94F025089584E090E0B2
:102690000E94F8250895BC0184E090E00E942C2659
:1026A0000895AB01BC018FE090E00E9420260895C0
:1026B000AB01BC0183E190E00E942026089560E018
:1026C00070E0CB010E945813089560E070E0CB01E8
:1026D0000E9451130E945F130895A8E0B0E0E3E761
:1026E000F3E10C94A32566EE7EEF80E090E00E947B
:1026F0002C2660E082E090E00E940E2660E083E0FD
:1027000090E00E940E26109286011092850160E0F2
:1027100074E184E090E00E942C2660E086E090E086
:102720000E940E266FEF87E090E00E940E2640E0A8
:1027300050E0BA0188E090E00E94202660E084E248
:1027400090E00E940E2660E087E190E00E940E2655
:1027500060E08CE090E00E940E2660E08DE090E06A
:102760000E940E2619821A821B821C821D821E82E2
:102770001F82188648E050E068E170E0CE010196C3
:102780000E94FE2540E050E0BA0180E290E00E9405
:1027900020260E9465132896E2E00C94BF250E9433
:1027A0006D130895682F8EE090E00E940E26089524
:1027B000A6E0B0E0EEEDF3E10C94A1250E94A2208A
:1027C0008C018091D5019091D6010817190781F0ED
:1027D00019821A820E94A220682F49815A81792F7A
:1027E00080E090E00E942F0A1093D6010093D5015B
:1027F0002696E4E00C94BD250E94AE206093E6018D
:102800007093E7018093E8019093E9016093E201FE
:102810007093E3018093E4019093E50108950E9491
:10282000AE206093E6017093E7018093E8019093F6
:10283000E9016093DE017093DF018093E0019093E2
:10284000E101089581E0089581E008950E94241433
:10285000089508950E94291408950E942914089546
:102860000E942D1408950E94291408950E94331483
:1028700008950E94291408958EE692E20E94741F22
:102880000E9439140E94361408950E942A140E944E
:10289000291408950E94E4160E94E10908950E94F7
:1028A00099200E94C21C0E94F3170E944A1480E0E3
:1028B0000E94F4180E9430140895A6E0B0E0E3E608
:1028C000F4E10C949A250E942214811104C00E9404
:1028D000D81310E054C00E94091887EDE82E81E05B
:1028E000F82E670100E0F60111916F01802F0E9420
:1028F000021781270F5F073019F08823A1F302C068
:10290000882329F38091EA0181FD0E9408170E9423
:102910002614A82E10E099249394812F0E94021768
:10292000B82EF701C080C82609F100E0DD24D39459
:102930008C2D8D21A9F0AA2099F009831A830E9479
:10294000A2209C838B839D8291E08B2D8D2109F4A5
:1029500090E049815A816B817C818D810E942F0A90
:102960000F5FDD0C073021F7F701B0821F5FFFEF2B
:10297000EF1AFF0A173089F60E94FC1311E00E943B
:10298000DF1C882319F00E940F1411E00E94A51B80
:1029900011110E94601A0E94F4092696EBE00C9433
:1029A000B6251F93CF93DF930E94E815EC01C11564
:1029B00082E5D807C8F5C11590E5D90708F0BBC076
:1029C000C83ED105C0F4C03ED10508F0DDC0C53A0F
:1029D000D10550F4C430D10508F0D6C0219709F0D4
:1029E000D0C081E090E0D1C0CD3CD10508F4C9C091
:1029F000CE019065CAC0C11580E4D80708F05AC05E
:102A0000C11590E2D90708F0AFC0C11581E0D80721
:102A100008F4B7C08D2F0E948416182FCE01992775
:102A20000E94E8151F71ABC0C03892E5D90720F5A8
:102A3000C03682E5D80708F061C0C03492E5D907F6
:102A400008F04AC0C03282E5D807F0F54C2F469511
:102A5000469590E2499FA0011124C37021E030E027
:102A6000C90102C0880F991FCA95E2F7EA01C82B75
:102A7000D92BCE019D6889C0C03C92E5D90768F486
:102A80008C2F8F71C03AD24508F04CC090E0D82FFF
:102A9000CC27CE01846F906A78C0C03E82E5D8070B
:102AA00008F06FC0CF71DD27DC2FCC27CE01806FFF
:102AB000906A6BC0CE0199270E94E815CC27DF7081
:102AC000D06A8C2B9D2B61C0CF71D0E0DC2FCC273E
:102AD000CE01816F906A59C08C2F8F718695869533
:102AE00090E2899F90011124C37081E090E002C0C0
:102AF000880F991FCA95E2F79C6811C08C2F8F71BF
:102B00008695869590E2899F90011124C37081E09B
:102B100090E002C0880F991FCA95E2F79A68822B4D
:102B2000932B33C00E9484168F7190E0D82FCC274E
:102B3000CE0190622AC08C2F8F710E94841695E07E
:102B4000D695C7959A95E1F7CF70D0E0DC2FCC27CA
:102B5000282F30E084FF05C084E0220F331F8A95C0
:102B6000E1F7D069CE01DBCF8D2F8F710E948416E3
:102B7000182FCE0199270E94E8151F719062912BA2
:102B800004C080E090E001C0CE01DF91CF911F91A1
:102B90000895462F672F773028F4473088F40E9435
:102BA000A80808957D3F21F441110AC041E004C006
:102BB0007C3F31F4411104C060E00E94C1080895D7
:102BC00080E090E008950E94C9150E94D1140895F4
:102BD0008238910569F1B0F48133910509F475C02B
:102BE00048F48932910509F467C08A32910509F4E5
:102BF00071C008958533910509F459C08933910551
:102C0000B9F00895833E910589F138F4803E91052D
:102C1000D1F0823E910529F10895863E9105C9F1D2
:102C2000873E9105D9F1843E910509F06CC027C01B
:102C300020915B0320FD57C021FD55C020915C030E
:102C400023FD5BC0089580915B0380FD48C08091A7
:102C50005C0380FF48C080915B0384FD46C083EE27
:102C600051C080915B0382FF3CC0F5CF80915B0334
:102C700082FD37C080915C0380FD35C0ECCF809130
:102C80005C0381FF36C080915B0384FD2EC087EE1C
:102C900039C080915B0383FF2AC0F5CF80915B032D
:102CA00083FD25C080915C0381FD23C0ECCF809122
:102CB0005B0385FD22C01FC080915B0385FD1BC0A7
:102CC00080915C0383FF19C00AC080915B0386FD7D
:102CD00016C017C080915B0386FD13C010C089E346
:102CE00011C082EE0FC080EE0DC080E00BC086EEFA
:102CF00009C084EE07C085E305C089E203C08AE20B
:102D000001C081E390E0089590915B0392FF0DC0B4
:102D1000282F2871283019F4877F846006C0282F57
:102D20002471243011F48B7F886093FF0DC0282F0D
:102D30002871283119F4877E846106C0282F2471F8
:102D4000243111F48B7E886120915C0320FF0DC03B
:102D5000382F3871383019F4877F816006C0382FDA
:102D60003171313011F48E7F886021FF0DC0282F22
:102D70002871283119F4877E816106C0282F2171BE
:102D8000213111F48E7E886194FD877E08950E9422
:102D90002A1308950E9409182FEF86E791E0215029
:102DA00080409040E1F700C000000E94091880E0D8
:102DB0000E94021780FF04C00E94C7160E94EF20E5
:102DC00008950E94CA1608950E943113811102C00D
:102DD0000E94CF130E943C138093EA010E94461385
:102DE00090935C0380935B030E94E1160E94411361
:102DF00090E00E94DC0D80918301909184010E94FB
:102E0000FA0D0895E82FF0E0EC59FC4F8081089509
:102E1000A0E0B0E0EEE0F7E10C949D2588E493E0BB
:102E20000E94F60584E6E82E83E0F82EC0E0D0E0AC
:102E300093E4C92E93E0D92E0BE313E0DF93CF93F5
:102E4000DF92CF920E948F0680E493E00E94F60505
:102E5000F70181917F010E94BC091F928F931F93FC
:102E60000F930E948F0689E393E00E94F605219656
:102E70008DB79EB708960FB6F8949EBF0FBE8DBF54
:102E8000C730D105D9F6CDB7DEB7E8E00C94B92547
:102E900080EA8A95F1F7089500C008950E944817C6
:102EA000089508950E94511708950E945217089599
:102EB0000E94511708950E9458170895F894E82F1A
:102EC000E295EF70F0E031A1282F2F7081E090E0C3
:102ED00001C0880F2A95EAF7982F9095932391A324
:102EE00092A1892B82A3789408950F931F93CF9377
:102EF000DF93CAE3D1E089918F3F11F00E945E1702
:102F000081E0C134D807B9F7C3E3D1E00AE311E0A7
:102F100089918F3F11F00E945E170C171D07C1F7B2
:102F2000DF91CF911F910F910895A0E0B0E0EBE900
:102F3000F7E10C949D258C01C62FD0E0CE01865C74
:102F40009E4F7C01FC0190819F3F09F447C0D62E23
:102F5000F894E92FE295EF70F0E081A19F7021E0F5
:102F600030E001C0220F9A95EAF7822B81A382A15B
:102F70002095282322A378940E944C17E3E3F1E0E4
:102F80004AE351E031E0C12C21912F3F89F0A22F7B
:102F9000A295AF70B0E090968C9190E02F7002C037
:102FA000959587952A95E2F780FD02C0832F01C091
:102FB00080E0C82A330F4E175F0731F7F701808191
:102FC0008F3F11F00E945E1761E0C11001C060E008
:102FD0008D2D0E944E17C00FD11FC882CDB7DEB70E
:102FE000E8E00C94B9250E94751787E0E4E6F3E069
:102FF000DF01982F1D929A95E9F7EDE5F3E0DF01E7
:103000001D928A95E9F787E00E9444180E945B1799
:103010000895A7E0B0E0EFE0F8E10C94A0258E0160
:103020000F5F1F4F87E0F80111928A95E9F7F12CA5
:103030006F2DC8010E949517F394F7E0FF12F8CFA7
:1030400047E050E0B8018DE593E00E94D32521E0F0
:10305000009709F420E0892B41F087E0F801ADE505
:10306000B3E001900D928A95E1F747E064E673E0E2
:103070008DE593E00E944518182F0E945517812F67
:103080002796E5E00C94BC250895EF92FF920F93EC
:103090001F93CF93DF937C018B01C42F222349F030
:1030A00081E08093ED010E94A2209093EC01809337
:1030B000EB018091ED01811102C080E01AC0809186
:1030C000EB019091EC010E94BA200597B0F3D0E09B
:1030D000AE01B701C8010E94D325892B39F0AE019A
:1030E000B701C8010E94E02581E001C080E0109294
:1030F000ED01CDB7DEB7E6E00C94BB250E941F21A1
:103100000E944F140E94302108950E943F200E9487
:103110000F210E943C140E947E180E943E210E94B2
:103120004514FBCFAB0124E630E0BC0188E70E94E8
:10313000281F21E0892B09F020E0822F0895EF92CB
:10314000FF920F931F93CF93DF93EC017B0164E613
:1031500070E088E70E94861E8C01EC0EFD1ECE15E5
:10316000DF0541F40E94701F81E00115110569F02F
:1031700080E00BC017FDF6CFFE01849164E670E09D
:103180000E94F91E8C012196EACFCDB7DEB7E6E0AA
:103190000C94BB250F931F939B0104E610E0AC0138
:1031A00060E488E70E94491F21E0892B09F020E0B4
:1031B000822F1F910F9108950E94801E0895EBE6C3
:1031C000F3E080E092E0DF019C011D92215030404D
:1031D000E1F7F0937005E0936F058FEF9FEF909309
:1031E0001A02809319020895CF930E94F2070E9459
:1031F00002088093150280FD02C080E801C080E2D1
:10320000809314020E94DC186BE070E083E694E087
:103210000E949F18C82F811103C087E494E00FC05B
:103220008091150265E070E081FD0CC082E494E0BD
:103230000E949F18C82F81110FC08CE194E00E945A
:10324000F6052FC087E194E00E949F18C82F8111D6
:1032500003C08FEF93E0F3CF6DE070E082EF93E077
:103260000E949F18C82F811103C08BED93E0E7CF18
:103270000E94AE20DC01CB01805A9541AF4FBF4F79
:1032800080936B0590936C05A0936D05B0936E05CC
:103290000E94DF1881E08093180280931702109239
:1032A00016028C2FCF9108952091140236E0839F4F
:1032B000C0011124629F800D911D1124811522E00F
:1032C000920714F080E090E085599C4F9093700530
:1032D00080936F05089520916F05309170052556F4
:1032E000334040911402642F70E0C9010E946525AB
:1032F000481B463010F4240F311D211582E0380799
:1033000010F020E030E025593C4F309370052093B9
:103310006F0508951F93CF93DF93162F8A3011F412
:1033200081E003C08D3021F480E00E94021A66C063
:10333000C0916F05D091700596E0FE01AEEEB1E050
:1033400001900D929A95E1F7803E30F086E0FE0103
:1033500011928A95E9F70BC0F6E08F9FB001112416
:1033600062597B4F46E050E0CE010E94CA25111100
:1033700035C0C0916F05D091700546E050E0BE01A8
:103380008EEE91E00E94D325892BB1F1CB56D3402C
:103390009E0185E0369527958A95E1F781E090E0DA
:1033A000AC0102C0440F551F2A95E2F72091190283
:1033B00030911A02242B352B259645E0D695C795DA
:1033C0004A95E1F702C0880F991FCA95E2F7822B50
:1033D000932B90931A02809319020EC0E0916F050F
:1033E000F09170059F012A5F3F4F2E173F0709F2AA
:1033F000808180958193F9CF0E946B19DF91CF91E5
:103400001F910895CF93E82F20916F05309170059B
:103410002B56334040911402642F70E0C9010E9482
:103420006525481B842FEE2359F066E00E9459253C
:10343000C82FC150B0F060E080E20E948A19F9CF35
:10344000A901480F511D4115524018F080E020E0BD
:1034500030E0280F311D25593C4F309370052093E3
:103460006F05CF910895FF920F931F93CF93DF9332
:10347000EC01F62EFC0101900020E9F78F010150CC
:103480001109C017D10728F46F2D89910E948A195C
:10349000F8CFCDB7DEB7E5E00C94BC251F93CF93F2
:1034A000DF93EC01162FFE018491882329F0612F10
:1034B0000E948A192196F7CFDF91CF911F9108952D
:1034C00080911802882321F10E94AE20DC01CB01FB
:1034D000805A9541AF4FBF4F80936B0590936C0519
:1034E000A0936D05B0936E0580911702811110C0F5
:1034F00062E070E082E893E00E949F18811105C0AD
:103500008EE693E00E94F60503C081E080931702E7
:10351000809117020895A0E0B0E0E1E9FAE10C948F
:1035200095258091190290911A02892B09F4EAC01D
:1035300080911802882309F4E5C080911602811158
:10354000E1C00E94601A2091190230911A022115DF
:10355000310509F4D7C090E041E050E0C92FD0E038
:103560008A01092E02C0000F111F0A94E2F7B80168
:1035700062237323672B11F49F5FF0CF80911502B4
:103580009E01F5E0220F331FFA95E1F780FF13C08B
:10359000E5E036952795EA95E1F7220F220F220FF5
:1035A0002093240110922701295F2093250183E0B5
:1035B0008093280111C0220F232F221F330B319536
:1035C0009295990F90769093240120932701915E14
:1035D000909325012093280167E070E082E291E05A
:1035E0000E949218882309F483C08091150280FFFD
:1035F00064C080E2E4EFF1E0DF011D928A95E9F713
:103600006E0155E0CC0CDD1C5A95E1F7A5E4B1E064
:1036100061E4462E61E0562E89E491E077247394AC
:103620002D91E20139912E01B601630F711D65598B
:103630007C4F30E02C503E4FF90147E0A42EAF0103
:10364000421B530B872C01C0880C4A95EAF77B017B
:10365000912CE701B9907E01B8204A2D4919477095
:10366000642E042E000C550BDB2D01C0DD0F6A9477
:10367000EAF76D2E5195419551094770552701C0C4
:10368000B6944A95EAF7BD2A4081B42AB082939451
:1036900048E09412DECFAA943196CFEFAC12CFCF90
:1036A0008A179B0709F0BCCF60E270E084EF91E0DD
:1036B0000E94CA1881110FC021C0CE0125E0880FD9
:1036C000991F2A95E1F760E270E085599C4F0E94AE
:1036D000CA18882381F00095109580911902909165
:1036E0001A020823192310931A02009319020AC020
:1036F00088EB93E005C08FE993E002C084E893E093
:103700000E94F605CDB7DEB7E0E10C94B1258091BB
:103710001802909117028823A9F0992389F062E09A
:1037200070E08CE693E00E949F18811107C087E546
:1037300093E00E94F60580911702089510921702F7
:103740009091170281E0892708950F931F9380912C
:103750001802882319F160E080E00E9454190E9449
:10376000F4070E948B1A809117028823B9F00E94F7
:10377000AE2000916B0510916C0520916D05309184
:103780006E05DC01CB01801B910BA20BB30B8F3FAD
:103790009F4FAF4FBF4710F40E94871B1F910F919F
:1037A0000895CF93DF93FC01DB0115968C9188235C
:1037B00009F4DDC09F0130572332310508F0D8C02D
:1037C000EF010E94461390935C0380935B03FE011C
:1037D000E150F047E232F10520F4E05CFF4F0C9439
:1037E0008D2580915B038160AAC080915C03886015
:1037F000B2C080915B038260A2C080915B0320C055
:1038000080915B0388609BC080915C031EC08091A7
:103810005C038260A0C080915B03806190C0809156
:103820005B0380628CC080915B03806488C00E94CF
:103830008C0D80915B03806882C080915B038860FF
:1038400084607DC080915C038260816084C08091CF
:103850005B038E7F74C080915C03877F7CC0809106
:103860005B038D7F6CC080915B0320C080915B0304
:10387000877F65C080915C031EC080915C038D7F53
:103880006AC080915B038F7E5AC080915B038F7DFD
:1038900056C080915B038F7B52C00E948C0D80913B
:1038A0005B038F774CC080915B03877F8B7F47C022
:1038B00080915C038D7F8E7F4EC080915B0382FB85
:1038C000222720F991E0922790FB82F990FB83F95F
:1038D00036C080915C03982F909591708E7F892BD4
:1038E00090FB81F938C080915B0386FB222720F989
:1038F00091E0922790FB86F922C00E948C0D809166
:103900005B0387FB222720F991E0922790FB87F940
:1039100016C081E001C080E00E94D2131EC08091D9
:103920005B0384FB222720F991E0922790FB84F926
:1039300006C080915B03982F909590FB80F980934F
:103940005B030BC080915C0383FB222720F991E08D
:10395000922790FB83F980935C0380915B039091A5
:103960005C030E944B130E948C0D80E001C081E03B
:10397000DF91CF9108958FE891E00197F1F700C0B2
:103980000000089581E080931C0224982C9A2598C9
:103990002D9A0E94BB1C30911C02EEE1F2E090E0F7
:1039A000931761F083B1829581701D9902C020E068
:1039B00001C022E0822B81939F5FF2CF0895A8E19E
:1039C000B0E0E5EEFCE10C94962510E000E082E02A
:1039D000982E94E0A92EB12C2DEF822E772473948B
:1039E0003CEF632E43E0542E80911C02181708F020
:1039F000A5C0E12EF12CE3B1E295E1701D9902C062
:103A000080E001C082E08E2BD701A25EBD4FEC9119
:103A10002E2F237030E0482F082E000C550B241752
:103A2000350709F489C0EE0FEE0FE82BEC93EF7029
:103A3000F0E0E75BFE4FC701835E9D4F6C01908114
:103A4000F6018081890F80838430A4F1F701E55E5F
:103A5000FD4F80818F5F80830E94A2201D876E862C
:103A6000682F8F87988B598A7A8A412F5CEF792F3C
:103A700083E091E00E942F0A8FE39CE90197F1F720
:103A800000C000000E94A2201B8B6C8A682F8D8BC7
:103A90009E8B5F8A188E412F5CEF792F83E090E038
:103AA0000E942F0AEFE3FCE93197F1F700C0000014
:103AB00021E001C020E0F60180818D3F9CF5F701F7
:103AC000E55EFD4F8081815080830E94A220198392
:103AD0008A82682F8B839C839D827E82412F5DEF3B
:103AE000792F82E091E00E942F0A8FE39CE90197F1
:103AF000F1F700C000000E94A2201F838886682F73
:103B000089879A879B861C86412F5DEF792F82E0FB
:103B100090E00E942F0AEFE3FCE93197F1F700C033
:103B2000000021E0F6018081082E000C990BB50100
:103B30000E9479258083022B1F5F56CF802F6896C5
:103B4000EFE00C94B225CF93DF9386319C4741F58B
:103B5000EB010E942E12982F8D812091200130912F
:103B60002101882379F09A7A81E009F480E080933A
:103B70001F02911102C069E201C065E3C9010E9400
:103B80000E200AC080911F02811102C069E201C0AB
:103B900065E3C9010E9411200E947A1280E001C0F1
:103BA00081E0DF91CF9108950F931F93CF93DF931F
:103BB000C42FD22FFC0185818823B1F040932202CB
:103BC0000E94A220909321028093200280E28C0F19
:103BD000883008F04DC0C77081E001C0880FCA95D9
:103BE000EAF70E94650B44C080912202481330C05E
:103BF00080912002909121020E94BA20883C910578
:103C000038F510E21D0FCD17B9F080E28C0F883027
:103C100040F4C77081E001C0880FCA95EAF70E949E
:103C20006C0B183010F581E09D2F977001C0880F44
:103C30009A95EAF70E94650B802F0E945B0B183063
:103C4000B8F4D77081E001C0880FDA95EAF70AC0AE
:103C500080E28C0F883060F4C77081E001C0880F6B
:103C6000CA95EAF70E946C0B03C0802F0E945B0B81
:103C7000DF91CF911F910F9108950F93FC01E851AF
:103C8000FC47E730F10590F5CB01EE59FF4F0C945E
:103C90008D2506E221EE41EE6AE17CE723C007E2D2
:103CA00025EE45EE6BE17CE71DC006E221EE40EE1D
:103CB00068E17CE717C007E225EE44EE69E17CE7A6
:103CC00011C006E221EE42EE6CE17CE70BC007E298
:103CD00025EE46EE6DE17CE705C008E221E045EE09
:103CE0006EE17CE70E94D41D80E008C0FB01858165
:103CF000882319F01092220201C081E00F910895EB
:103D00001092B9008CE08093B8000895A0E0B0E074
:103D1000ECE8FEE10C949A25B82EEB010E94A2205B
:103D20006C01C431D10558F0CF3F8FEFD80759F05F
:103D3000CE0164E170E00E9465257B0107C0EE249E
:103D4000E394F12C03C025E0E22EF12C84E8A82EA8
:103D500094EA992E1092BC009092BC000E94A2207E
:103D60008C018091BC0087FD07C0C8010E94BA2069
:103D7000E816F906B0F729C08091B900887F88302D
:103D800041F08091B900887F803119F00FEF1FEF6B
:103D90001EC0B092BB00A092BC000E94A2208C0169
:103DA0008091BC0087FD07C0C8010E94BA20E816B8
:103DB000F906B0F70AC08091B900887F883111F008
:103DC000803421F700E010E00EC00EEF1FEFCF3F70
:103DD0008FEFD80709F4BECFC6010E94BA20C817DA
:103DE000D90708F0B7CFC801CDB7DEB7EBE00C9428
:103DF000B6250F931F93CF93DF93EB018093BB0006
:103E000084E88093BC000E94A2208C018091BC00B9
:103E100087FD0DC0CF3F8FEFD807C1F3C8010E94C7
:103E2000BA20C817D90790F78EEF9FEF0CC02091EA
:103E3000B900287F81E090E0283211F480E090E022
:103E4000919581959109DF91CF911F910F910895DF
:103E5000A0E0B0E0EEE2FFE10C949D256B018A0149
:103E60007901B9010E94861EE6010C0D1D1DC017C7
:103E7000D10741F424E92093BC00CDB7DEB7E8E0D8
:103E80000C94B92597FDF6CFB70189910E94F91ED0
:103E9000EECFA0E0B0E0EFE4FFE10C949D25C62F4B
:103EA0006A017901B8010E94861E97FD11C0B80110
:103EB0008C2F0E94F91EE601EC0CFD1CCE15DF05CF
:103EC00039F097FD05C0B80189910E94F91EF6CF1F
:103ED00024E92093BC00CDB7DEB7E8E00C94B92507
:103EE00084E98093BC00089590935B0180935A010C
:103EF000089590932402809323020895E091230271
:103F0000F0912402309729F00190F081E02D09957D
:103F1000089580E00895EF92FF920F931F93CF933F
:103F2000DF93E0912302F0912402309781F18C011C
:103F30000280F381E02D09958091EA0182FF27C07C
:103F400080FF04C086EB99E00E94F605E80118E0C6
:103F500080EBE82E89E0F82E8091EA0180FF0BC00B
:103F600088811F928F93FF92EF920E948F060F908D
:103F70000F900F900F90115021961111EDCF80915D
:103F8000EA0180FF04C08EEA99E00E94F605CDB7F1
:103F9000DEB7E6E00C94BB25FC01329697E080E0AA
:103FA000915029F021912223D9F38F5FF9CF089501
:103FB000662349F0FC01329608962191621729F098
:103FC000E817F907D1F780E0089581E008959C0192
:103FD000FC0132969FEF80E04191461789F09F3FA8
:103FE00019F4411101C0982F8F5F8630A9F79F3FC8
:103FF00039F0F901E90FF11D97FDFA9562830895F3
:1040000008959C012A5F3F4FFC014281461301C085
:104010001282019682179307B9F708950E94E71F4D
:1040200008950E9401200895029626E0FC01119255
:104030002A95E9F7089508950E941B2008950E948B
:104040001C2008950E941B2008950E941B200895A3
:104050000E941B200895CF930E9425200E940918DA
:104060000E942220C0E08C2F0E940217811104C000
:10407000CF5FC730C1F701C081E0CF9108950895A7
:104080001F920F920FB60F9211248F939F93AF93AD
:10409000BF9380912502811113C080917105909189
:1040A0007205A0917305B09174054196A11DB11DD3
:1040B0008093710590937205A0937305B093740576
:1040C000BF91AF919F918F910F900FBE0F901F9056
:1040D000189580912802882331F10E94B00910922E
:1040E000250220E488E190E00FB6F894A89580932B
:1040F00060000FBE2093600083B7817F846083BF20
:1041000083B7816083BF7894889583B78E7F83BFA0
:104110000FB6F894A8958091600088618093600044
:10412000109260000FBE08950E948C0D0E94B70986
:10413000089582E084BD93E095BD9AEF97BD80938A
:104140006E0008952FB7F8948091710590917205D3
:10415000A0917305B09174052FBF08952FB7F894FF
:10416000609171057091720580917305909174054D
:104170002FBF08959C014FB7F894809171059091DD
:104180007205A0917305B09174054FBF821B930B0C
:10419000089578941F920F920FB60F9211248F9367
:1041A0009F93AF93BF938091710590917205A091F9
:1041B0007305B09174050196A11DB11D8093710521
:1041C00090937205A0937305B0937405BF91AF915E
:1041D0009F918F910F900FBE0F901F90189598E0B0
:1041E00088E10FB6F894A895809360000FBE909375
:1041F0006000A895F894D8E0CEEF28E3299320E05A
:10420000299314BEFFCF089598E088E10FB6F89483
:10421000A895809360000FBE90936000FFCF0E942E
:10422000A220909327028093260290E080E80FB6A8
:10423000F89480936100909361000FBE08950E94EE
:104240003E25539A80E0815041F0A895EFE9FFE0C8
:104250003197F1F700C00000F6CF53987894089595
:104260000E94DF220E94791F2FEF80E792E0215009
:1042700080409040E1F700C00000089580919C05C7
:10428000882389F010929C050E94A2209093270217
:1042900080932602809128028823D9F11092280267
:1042A0000E94942011C080912802811111C0809138
:1042B0002602909127020E94BA20069728F081E0FA
:1042C000809328020E94692080912802882309F1A6
:1042D0000E9469200E942B20882309F43DC0F89495
:1042E0002AB15B9A822F8C608AB99BB18CE09827A7
:1042F0009BB93FE748E391E0315040409040E1F7FF
:1043000000C000009BB189278BB92AB95B987894CB
:1043100008950E9447248091A205882329F0809166
:10432000800584FD0E945D140E94DA210E944724CA
:104330008091A205882329F080918C0584FD0E943C
:1043400062220E9447248091A205882329F080914F
:10435000B90584FD0E94862208959FB7F89481E0F4
:104360003091DA022091D902321301C080E09FBF60
:1043700008958091D80208950F931F93CF93DF93F0
:104380008C01D62FC6E08091B90584FD05C0C150CF
:1043900049F00E944724F7CF6D2FC8010E944224A4
:1043A00081E001C080E0DF91CF911F910F910895CE
:1043B00008950895CF93DF93CAE0D0E080918005FF
:1043C00084FF3DC08091550290915602981709F4E0
:1043D00041C028E0829FC001112468E0895A9D4FA6
:1043E0000E943D248091550290E001968F7099279C
:1043F000809355022091EA0122FF2CC020FF2AC0A1
:1044000040915602242F30E0281B390B481710F436
:10441000205F3F4F3F932F931F924F939F938F9314
:1044200087E59AE09F938F930E948F068DB79EB782
:1044300008960FB6F8949EBF0FBE8DBF0BC00E94AA
:1044400047248FE99FE00197F1F700C00000219712
:1044500009F0B4CFDF91CF910895CF93DF93EC01B2
:10446000A0915602B0E0CD0101968F70992720915E
:104470005502281781F093E0AA0FBB1F9A95E1F728
:10448000A95ABD4F98E0FE0101900D929A95E1F76F
:104490008093560208C08091EA0180FF04C08BE43B
:1044A0009AE00E94F6050E9447240E94DA2188E0E3
:1044B000FE01ADE4B2E001900D928A95E1F7DF9143
:1044C000CF91089580912C02803239F460E28DE220
:1044D00092E00E94040810922C0208956FB7F8949D
:1044E0009091DA02492F50E09A012F5F3F4F2F77CA
:1044F00033277091D902721731F0FA01E552FD4F5E
:1045000080832093DA026FBF80E00895A0E2B0E0DC
:10451000ECE8F2E20C949D258091A205882309F431
:104520004AC00E94AD21882309F445C08E010F5F67
:104530001F4F80E2F80111928A95E9F778016E0128
:10454000F9E0CF0ED11C0E94AD218823F1F0EC14CC
:10455000FD04D9F03FB7F8948091D9029091DA0226
:10456000981304C09093D90220E00AC090E0FC01A7
:10457000E552FD4F208101968F7799278093D902CC
:104580003FBFF70121937F01DECF7E01F1E2EF0E05
:10459000F11C68E0C8010E94BC21882329F0085F53
:1045A0001F4F0E151F05A9F760E080E090E00E9404
:1045B000BC210E944724A096E8E00C94B92589E22A
:1045C00091E00895CF93DF93EC01988190768091EC
:1045D000EA01903209F062C09981913099F480FF2C
:1045E00004C08FE39AE00E94F6058C819D81892B9F
:1045F00009F05AC08DE492E090939E0580939D054A
:1046000088E05EC0923071F480FF04C085E39AE0D8
:104610000E94F60587ED92E090939E0580939D059C
:1046200081E04EC09A3091F49B819093D70280FF35
:1046300046C01F929F9386E29AE09F938F930E94B9
:104640008F060F900F900F900F902EC0993009F5A4
:1046500080FF04C08AE19AE00E94F6058A819B816E
:104660008115924051F58C819D81892B31F5809186
:10467000EA0180FF04C081E19AE00E94F60581E032
:1046800080932B028E819F8190932A02809329022E
:1046900014C080FF14C088E09AE004C080FF0FC0FF
:1046A00080E09AE00E94F6058091EA0180FF07C051
:1046B0008EEF99E00E94F60502C08FEF01C080E006
:1046C000DF91CF910895CF93DF932091290230910C
:1046D0002A02232BF9F020912B022130D9F4EC018E
:1046E0008091EA0180FF0DC088811F928F938FEE29
:1046F00099E09F938F930E948F060F900F900F90D9
:104700000F9088818093D80210922A021092290279
:1047100081E001C08FEFDF91CF910895683059F0AB
:104720008091EA0180FF04C08AED99E00E94F605BD
:1047300010922C02089520912C02A22FB0E0A931F2
:10474000B1053CF08091EA0180FFF2CF88EC99E05E
:10475000EDCFFC01A35DBD4F089631913D93E81765
:10476000F907D9F7285F20932C020895FC01938163
:104770009330B1F068F4913081F0923009F059C073
:1047800082E79AE090939E0580939D0582E60895C6
:10479000913201F1923291F14CC084ED9AE014C053
:1047A0008281813079F030F0823009F042C086EEAB
:1047B0009AE00AC08EE09BE090939E0580939D0551
:1047C00084E008958AEF9AE090939E0580939D057A
:1047D00082E108958281813049F028F0823049F5E4
:1047E0008DEB9AE005C084E89AE002C08DE99AE07A
:1047F00090939E0580939D0589E00895848195811D
:104800008130910571F028F0029799F482E19BE0E4
:104810000AC086E59BE090939E0580939D0580E409
:10482000089584E39BE090939E0580939D0582E22A
:10483000089580E008951F93CF93DF93162FEA0128
:10484000288124FF05C0398128E82327298302C055
:104850002AE52883212FFC01CE010296DC0131914B
:104860003D9321501216DCF3612F0E94AD061C5FB0
:104870001883DF91CF911F91089540E855E00E9481
:104880001B24089549EB55E00E941B240895CF9303
:10489000DF9360919F05635067FD93C080919B05F6
:1048A000CCE0D0E0C81BD109CD55DA4F80919A05F4
:1048B000803120F4CE010E948E2381C08D3209F018
:1048C0006EC0683009F07BC083EC809375058AE583
:1048D00080933201109299058881807621F0CE0173
:1048E0000E94E22249C09A8110927E05898181113D
:1048F00006C010927F052EE735E082E038C0853093
:1049000019F49093A00530C08630A1F48B818130DA
:1049100041F0823031F0833021F0813211F0823267
:1049200021F4CE010E94B62301C080E090E4909370
:10493000990522C0883089F0893019F49093A20536
:1049400013C08A3069F08B3079F48BE48093810551
:104950008093BA0580938D0507C022EA35E002C036
:104960002EE735E081E003C02EE735E080E03093AC
:104970009E0520939D0509C08F3F39F4988197FDCE
:104980008E8190E89093990507C09F81911104C092
:104990009E81981708F4892F8093310110C080916F
:1049A000990587FF0CC0CE010E9463238F3F21F43D
:1049B0008EE18093320103C0811110923101109277
:1049C0009F058091320184FF4CC0809131018F3F5F
:1049D00009F447C0C82F893008F0C8E08C1B8093C9
:1049E00031019091750588E8892780937505CC235E
:1049F00059F180919D0590919E052091990526FF82
:104A000012C0A5E7B5E02C2FAC0145575540FA017F
:104A1000EA0FFB1FE4911196EC9311972150119628
:104A20002111F5CF08C0E6E7F5E0DC012C2F3D9120
:104A300031932150E1F701962FEF2C0F820F911D3A
:104A400090939E0580939D056C2F86E795E00E94CC
:104A5000AD06CC5FCC3019F08FEF80933101C0935D
:104A6000320184E199B19C7031F48150D9F71092F0
:104A7000A00510929805DF91CF910895CF93DF9311
:104A8000E9E6F0E0808188608083E99AC0E8D5E0BB
:104A90008BE48983A9EBB5E011968C931197ECE830
:104AA000F5E081838AE588838C938083DF91CF91C1
:104AB0000895991B79E004C0991F961708F0961B7A
:104AC000881F7A95C9F780950895AA1BBB1B51E1F1
:104AD00007C0AA1FBB1FA617B70710F0A61BB70B6E
:104AE000881F991F5A95A9F780959095BC01CD0113
:104AF000089597FB072E16F4009407D077FD09D090
:104B00000E94652507FC05D03EF4909581959F4F46
:104B10000895709561957F4F0895EE0FFF1F0590E2
:104B2000F491E02D09942F923F924F925F926F92F1
:104B30007F928F929F92AF92BF92CF92DF92EF922D
:104B4000FF920F931F93CF93DF93CDB7DEB7CA1BAE
:104B5000DB0B0FB6F894DEBF0FBECDBF09942A88D9
:104B6000398848885F846E847D848C849B84AA8481
:104B7000B984C884DF80EE80FD800C811B81AA810E
:104B8000B981CE0FD11D0FB6F894DEBF0FBECDBFD9
:104B9000ED010895FB01DC0102C005900D9241502A
:104BA0005040D8F70895FB01DC0104C08D910190BD
:104BB000801921F441505040C8F7881B990B089583
:104BC000FB01DC0102C001900D9241505040D8F72A
:104BD0000895DC0101C06D9341505040E0F7089505
:104BE000F999FECF92BD81BDF89A992780B50895B5
:104BF000A8E1B0E042E050E00C943426DC01A40FC0
:104C0000B51F4150504048F0CB01840F951F2E91A5
:104C10000E940F2641505040D0F70895262FF99951
:104C2000FECF92BD81BDF89A019700B4021639F00B
:104C30001FBA20BD0FB6F894FA9AF99A0FBE0895DC
:104C40000396272F0E940F260E940E26252F0E94D2
:104C50000F26242F0C940F260196272F0E940F2633
:104C60000C940E26DC01CB01FC01F999FECF06C0A5
:104C7000F2BDE1BDF89A319600B40D92415050401A
:084C8000B8F70895F894FFCF86
:104C88004E6F2044617461000000000000000000C5
:104C9800000000000000000000000000000000000C
:104CA800CB010021007F220003B9212D22D821D970
:104CB80021FF5A3097969531323390919463606111
:104CC80062000810181810080000FF010001000019
:0A4CD800FFFF0000010001FF0000D3
:00000001FF
