:100000000C94BB050C94D8050C94A1060C94D8054F
:100010000C94D8050C94D8050C94D41F0C94D805D6
:100020000C94D8050C94D8050C94D8050C94D805DC
:100030000C94D8050C94D8050C945D200C94D8052C
:100040000C94D8050C94D8050C94D8050C94D805BC
:100050000C94D8050C94D8050C94D8050C94D805AC
:100060000C94D8050C94D805460B460B720B720BFA
:10007000B70CB70CB70CB70CC80B3E0C4F0C4F0CA1
:10008000BB1B2D1CC31B8D1B911BC71B941BCA1BA9
:10009000D51B9F1B231CA31BD91BA71BDD1B071CE8
:1000A000AB1BE11B111CB11BE71BF11B981BCE1BEB
:1000B0009B1BD11BB61BEC1BFD1B1D1C1F1C891B96
:1000C000BF1B361CE91DEF1DDD1DE31DF51DFB1DCE
:1000D000011EB6B6B6B6B6B6B6B6B6B6B6B6B6B60D
:1000E000B695B596D5B6B680818283848586878895
:1000F000898A8B8C8D8E8F9091929394A0A1A2A3CC
:10010000A4A5A6A7A8A9AAABACADAEAFB0B1B2B337
:10011000B4C0C1C2C3C4C5C6C7C8C9CACBCCCDCE82
:10012000CFD0D1D2D3D4000A5265636569766564B5
:10013000206461746100A900AA00010001000100AF
:100140000100010001002B0014001A000800150036
:1001500017001C00215204001600070009000A00C5
:100160000B00E1003800E4001B0006001900050048
:10017000E000E2002252E6002C002C002C000000DF
:100180003400A800130012000C0018000000E30067
:100190002A0028000F000E000D0000001D00E500E1
:1001A000370036001000110029001E001F0020003B
:1001B0002100220023000100010035003100010070
:1001C00001000100010001004F00010001000100D9
:1001D000010001000100510050004A0001004D00E3
:1001E0000000010001002700260025002400000077
:1001F00001004C003400330030002F0000000100EB
:10020000520038002E002D00010001003A003B0092
:100210003C003D003E003F003900010001000100AC
:1002200001000100010001000100010001000100C6
:1002300001000100010001000100010001000100B6
:1002400001000000010001004300420041004000A5
:100250000000010001000100010001000100000098
:100260000100010001000100010001000100010086
:100270000100010001000100010001000100010076
:100280000100010001000100010001000100010066
:100290000100010001000100010001000100010056
:1002A0000100010000000100010001000100010047
:1002B0000100000001000100010001000100010037
:1002C000000001000100010001000100010044459F
:1002D0004255473A2064697361626C65642E0A0076
:1002E00044454255473A20656E61626C65642E0A4A
:1002F000000A0025303258006C65645F7461736BCE
:100300003A20004F6E6573686F743A2061637469B8
:1003100076653A2025640A000A0025303862003AE2
:10032000200025303258000A722F632030313233DA
:10033000343536370A006F6C65645F6F666620631C
:100340006D64206661696C65640A0000AE6F6C655F
:10035000645F6F6E20636D64206661696C65640A1A
:100360000000AF6F6C65645F72656E6465723930F2
:100370002064617461206661696C65640A006F6C59
:1003800065645F72656E6465722064617461206685
:1003900061696C65640A006F6C65645F72656E64A8
:1003A0006572206F666673657420636F6D6D616E34
:1003B00064206661696C65640A00646973706C61CD
:1003C000795F736574757032206661696C65640A63
:1003D0000000DA0281FFD9F1DB20A4A62EAF646908
:1003E00073706C61795F666C6970706564206661BA
:1003F000696C65640A0000A0C0D3006F6C65645F1F
:10040000696E697420636D64206E6F726D616C201B
:10041000726F746174696F6E206661696C65640ADD
:100420000000A1C8D3006F6C65645F696E697420B9
:10043000636D64207365742031206661696C656446
:100440000A0000AED580A81F408D142000000000D7
:100450000000003E5B4F5B3E003E6B4F6B3E001C5E
:100460003E7C3E1C00183C7E3C18001C577D571CEF
:10047000001C5E7F5E1C0000183C180000FFE7C3F4
:10048000E7FF00001824180000FFE7DBE7FF00305B
:10049000483A060E00262979292600407F050507DF
:1004A00000407F05253F005A3CE73C5A007F3E1C38
:1004B0001C0800081C1C3E7F0014227F2214005FD1
:1004C0005F005F5F0006097F017F00006689956A13
:1004D0000060606060600094A2FFA2940008047E47
:1004E00004080010207E20100008082A1C080008BC
:1004F0001C2A0808001E10101010000C1E0C1E0CE8
:100500000030383E383000060E3E0E060000000077
:1005100000000000005F000000000700070000145A
:100520007F147F1400242A7F2A1200231308646298
:1005300000364956205000000807030000001C2226
:100540004100000041221C00002A1C7F1C2A0008D8
:10055000083E0808000080703000000808080808FD
:10056000000000606000002010080402003E5149B5
:10057000453E0000427F4000007249494946002143
:1005800041494D33001814127F1000274545453965
:10059000003C4A49493100412111090700364949C7
:1005A000493600464949291E000000140000000099
:1005B00040340000000008142241001414141414E4
:1005C000000041221408000201590906003E415D65
:1005D000594E007C1211127C007F49494936003E79
:1005E00041414122007F4141413E007F494949410B
:1005F000007F09090901003E41415173007F08084D
:10060000087F0000417F4100002040413F01007F02
:1006100008142241007F40404040007F021C027FBE
:10062000007F0408107F003E4141413E007F0909E0
:100630000906003E4151215E007F09192946002626
:10064000494949320003017F0103003F4040403FD8
:10065000001F2040201F003F4038403F0063140827
:100660001463000304780403006159494D430000FA
:100670007F41414100020408102000004141417FB8
:100680000004020102040040404040400000030713
:100690000800002054547840007F28444438003833
:1006A0004444442800384444287E003854545418A4
:1006B0000000087E0902001824241C78007F08042A
:1006C00004780000447D4000002040403D00007F51
:1006D000102844000000417F4000007C047804782A
:1006E000007C08040478003844444438007C182412
:1006F000241800182424187C007C080404080048EE
:10070000545454240004043F4424003C4040207CC2
:10071000001C2040201C003C4030403C004428107D
:100720002844004C9090907C004464544C44000059
:100730000836410000000077000000004136080044
:10074000000201020402003C2623263C00000000B7
:10075000000080C0E0F0F0300000C060F0F0F03049
:100760000080C020F0F0F020000000000080C0E019
:10077000703018B8F8F00000000000DC7E3FBEF0DA
:10078000F0E000000000000080C0E070101818F8D1
:10079000F06000000000C060F0F8F8300000008059
:1007A000E0F0F8F8300000000080E0F0FCFF3F0FC0
:1007B0000100000080C0E0F0F87800000000008038
:1007C000C060309040203070E0C0000040404040A9
:1007D00040404040404040000000E0FEFFFEF8C0C6
:1007E0000000000000E0FCFFFEF000000000000040
:1007F000000000013EE080700E0100000000073C98
:10080000E080780700000000000000000000180CE5
:1008100006C3F9FE3FC7711806C3F07C1FC77118E5
:1008200006C3F8FE3F0F0180C0F0F8FEDF476360AB
:1008300030381E0F0781402018060381F0FC7F1F0F
:100840000780C0E0F8FC3E0F030100000000030138
:100850008060100806E3FCFF3F0701C0308CE3FF17
:100860007F1F0380C030188CE3F9FF3F070180C071
:1008700030180CC3F1FC7F0F0380C0F0FCFE3F0773
:1008800001003EC18080E0FC3F8F4040C0F0FC7E14
:100890004E0000000000000000F8FFFF1F071FFFD0
:1008A000FEF0C0F8FF7F0F077FFFFEFC0404788096
:1008B000000000C0380C1C6080000000F00C04F444
:1008C0001C80C0FCE6C3C1C1C3E6FCC08000003888
:1008D0003F3F1F07030000383E3F1F0E030000305C
:1008E0007F7F3F190C0603010F1F3F71606070305E
:1008F000180804020100000000387E7F3F3B180406
:100900000301000F1F3120202020101808040201CD
:100910000000001C3F7F7F31180603183E3F3F1B3D
:100920000804020100001E3F3F3F100804020100BE
:1009300000183E3F3F190C060301000F1F31606095
:100940006030181C0F07030101000000183C3C1C1C
:1009500000000000000000001F1F1F070000000033
:10096000031F1F0F0100000000071F1F1EF8000FCC
:1009700070300EC138070E70831C601E03C03E012C
:10098000003F7FFFFFF9C0C0F9FFFF7F3F0A00254E
:1009900030325820006B6579626F6172645F7265F6
:1009A000706F72743A20005241573A206275666641
:1009B00065722066756C6C0A005241573A20696E68
:1009C00076616C6964206C656E6774680A005345D3
:1009D000545F4C45443A20253032580A000A0056EC
:1009E000454E444F523A00554E4B4E4F574E3A00EB
:1009F0005345545F4C45443A005345545F5245506B
:100A00004F52543A005345545F49444C453A2025CF
:100A1000303258004745545F49444C453A004745F9
:100A2000545F5245504F52543A006B6275663A20FB
:100A300066756C6C0A00562D5553423A206B6275F0
:100A4000665B25642D3E25645D2825303258290AD1
:100A50000009026200030100A0FA0904000001037A
:100A60000101000921010100012240000705810365
:100A7000080001090401000203000000092101012E
:100A80000001222200070584030800010705040372
:100A900008000109040200020300000009211101FD
:100AA0000001222200070583030800010705030354
:100AB0000800011201100100000008371331730013
:100AC000010102000112034D006500720063007510
:100AD00000740069006F00000012034D00650063A0
:100AE000006800570069006C0064000000040309FE
:100AF000040631FF0974A1010975150026FF009550
:100B000020750881020976150026FF0095207508DA
:100B10009102C00660FF0961A1010962150026FF6C
:100B2000009520750881020963150026FF009520B5
:100B300075089102C005010906A101050719E02900
:100B4000E715002501950875018102950175088159
:100B5000030507190029FF150026FF0095067508F3
:100B60008100050819012905950575019102950176
:100B700075039103C00011241FBECFEFD8E0DEBF84
:100B8000CDBF11E0A0E0B1E0E2EAFBE402C00590D5
:100B90000D92A835B107D9F725E0A8E5B1E001C06D
:100BA0001D92A33CB207E1F70E9419180C94CF25BF
:100BB0000C940000FF93EF93E0915801F0915901DC
:100BC000309709F00995EF91FF910895FC01859107
:100BD000803011F0EFDFFBCF0895FF27E0E230E235
:100BE00047FF0CC0419597FF09C0EDE260957095F5
:100BF00080959095611D711D811D911D27FF02C07B
:100C0000219530E350E2AA27660F771F881F991FAE
:100C1000AA1FA41710F0A41B63955A95A9F7AA3030
:100C200008F0A95FA05DAF93F3956115710581058B
:100C3000910541F7ED3211F4EF93F395F21718F4A3
:100C40003F93F395FBCF8F91B5DFFA95E1F70895C8
:100C5000E991F9918591803021F0853219F0AADF70
:100C6000F9CF089520E0E89455915532C1F35033FF
:100C700011F4689455915A3348F4505390F3220F6D
:100C8000022E220F220F200D250FF4CF0EF42195F6
:100C900089919991533619F3533729F1533559F105
:100CA000BC0188279927E8945C3621F489919991B1
:100CB00068945591543639F446EF7EF077FF0DC0B5
:100CC0008FEF9FEF0AC055374AE039F0583540E1C1
:100CD00021F0523642E009F00895FF93EF937DDF53
:100CE000EF91FF91B7CFFF93EF93FC01819180309B
:100CF000B9F360DFFBCFFF93EF9368DFF1CFDF93B2
:100D0000CF93CDB7DEB72596A3DFCF91DF910895BE
:100D1000A82FB92F80E090E041E050EA609530E0E4
:100D200009C02D9182279795879510F084279527E4
:100D3000305EC8F36F5FA8F30895EADF8D939D934B
:100D40000895CF93CFB7CF93DF93C3954B9BE9F72C
:100D50004B9B10C04B9B0EC04B9B0CC04B9B0AC0C7
:100D60004B9B08C04B9B06C0C0919A05C395C0938E
:100D70009A058EC06F93C0919905DD27CF55DA4F44
:100D80002F9365E54B9B03C02F916F91E1CF0F939C
:100D90001F934F9320E040E15F9309B10C7003FB78
:100DA00027F93F9350E03BE039C01C7040642F7737
:100DB000012F5F5F1EC0406819B11C702F77525021
:100DC0001FC0406409B12F770C70D1F15F5F00C084
:100DD00023C0406219B12F771C7091F15F5F00C092
:100DE00025C00C701027515012F45D5F00001150A7
:100DF00027952C3F19B1C8F61C7001270150279583
:100E00002C3FC8F64227499309B10C7010274F7345
:100E1000115027952C3FA8F64695469519B11C70A0
:100E200079F00127015027952C3F98F66B5A60F313
:100E3000315009B1B0F600C012E01CBB00271CC045
:100E40003B503195C31BD04012E01CBB0881033CD2
:100E500021F10B3411F1209196051981110F121314
:100E6000EDCF4A81441F093679F10D3211F0013E70
:100E700029F74F7009F0042F00939F053F915F9170
:100E80004F911F910F912F916F91CCB3C1FD5DCF09
:100E9000DF91CF91CFBFCF91189520919F0522234D
:100EA00069F310919D05112309F049C034300AF40B
:100EB00048C030939D0520939805109199053BE01B
:100EC000311B309399053DC000919D050130BCF563
:100ED0000AE54F7049F43091120134FD33C000939C
:100EE0001201C3E7D5E032C0433059F0443091F0ED
:100EF00030917E0534FD26C000937E05CFE7D5E016
:100F000025C03091B70534FD1DC00093B705C8EB6F
:100F1000D5E01CC030918A0534FD14C000938A05C9
:100F2000CBE8D5E013C0052710E000C000000BB9E6
:100F30001AC0052710E0221F1DC010E021C04AE59D
:100F400002C032ED432FC4E1D0E032E01AB11C60A0
:100F50005B9A0BB11AB95CE020E865E320FF052736
:100F60000BB9279517951C3FF0F66695B8F7B1F7C2
:100F700020FF05270BB9279517951C3FD0F627951D
:100F8000179517FF052700001C3F0BB9B0F62991F4
:100F90003A9519F7037F10919E05110FC651D04065
:100FA0000BB911F01093960512E01CBB08601AB142
:100FB000137F402F437F54E05A95F1F70BB91AB9CC
:100FC0004BB95CCF82E00895CF930E941008C82FE0
:100FD000882329F060E082ED90E00E94E2198C2FD6
:100FE000CF91089582E00895CF93DF93FC01208193
:100FF000213099F4EC010E9473180E941F1A60E0DE
:1010000083E191E00E94C71960E0CE0101960E9441
:10101000C71987E291E00E94E605DF91CF9108951C
:1010200080915A0181110BC00E9473180E941F1AEF
:1010300060E08EE191E00E94C71910925A0180E0B1
:1010400008958430B0F46730A0F4473090F491E311
:10105000899FF001112487E0689FE00DF11D1124A4
:10106000E40FF11DEE0FFF1FEA5BFE4F8591949197
:10107000089581E090E008950E9421080895843049
:1010800088F461110FC0E82FF0E0EE0FFF1F81E040
:101090004827E40FF11DEE0FFF1FEA5CFE4F85911C
:1010A0009491089581E090E008950E943F0808958A
:1010B00081E0089581E008950E945A0808950E94F1
:1010C0005C0808950E945A08089508950E946508D2
:1010D0000895A6E0B0E0EFE6F8E00C9436254983E9
:1010E0005A839E833091600189819A81311115C0A4
:1010F0003E81332359F0222349F00E947C0E182FA1
:10110000682F89819A810E94490E03C00E94630E54
:10111000182F69817A81812F04C00E947C0E698119
:101120007A810E945D152696E3E00C945225FC011D
:10113000262F4081518162817381848195810E9433
:1011400069080895CF93DF93EC0161E00E9497084E
:10115000BE010E945F08DF91CF910895CF93DF9386
:10116000EC0160E00E949708BE010E946608DF91D2
:10117000CF91089508950E94200D0E94BA082FEF84
:1011800084E39CE0215080409040E1F700C00000E3
:1011900008950E94BB080E94832008950E94BB0806
:1011A0000E94982008950F931F93CF93DF938C0193
:1011B00061E00E949708EC01B8010E946208882350
:1011C00009F45BC0B801CE010E94D11D882309F447
:1011D00054C0B801CE010E94651B882309F44DC09C
:1011E000B801CE010E94371D882309F446C0F801DA
:1011F00085818823E9F1C3308CE7D80779F158F469
:10120000C130FCE7DF0761F1A0F4C115DC4781F5CF
:101210000E94C90832C0CB35FCE7DF0739F1CC3575
:101220008CE7D80701F1CA35DC4711F50E94B612E8
:101230001FC08091E801C82FC095C170C0FB80F924
:101240008093E801CC2329F080EE92E00E94E6052D
:1012500014C08EEC92E00E94E60510C00E94BE12FF
:101260000E94CE080AC00E94AC1202C00E94BA12AC
:10127000C8010E945808C82F01C0C0E08C2FDF9120
:10128000CF911F910F9108950E94B31F0E947F0973
:101290000E941B1B08950E9483090E94BC1F089591
:1012A0008295982F937344E0949F900111248C7C35
:1012B00086958695282B822F8575880F2A7A269504
:1012C000822B0895089581E008950895CF93DF93C8
:1012D000D82F0E946309C82F882319F08D2F0E94F0
:1012E00065098C2FDF91CF9108950895CF93C82F72
:1012F0000E9462098C2F0E946609CF91089580E0B8
:101300000E94760908950E94121F0E94760908958E
:10131000CF930E94121FC82F80915B01C81789F1DB
:10132000C0935B010E94422060935C0170935D0159
:1013300080935E0190935F018091E80182FF1EC05F
:1013400080FF04C088EF92E00E94E6058091E801EA
:1013500080FF0CC01F92CF9383EF92E09F938F93F7
:101360000E947F060F900F900F900F908091E801E0
:1013700080FF04C081EF92E00E94E6058C2F0E945E
:101380007609CF910895ADE0B0E0E9ECF9E00C9476
:101390003725488759876A877B878C879D87911176
:1013A0000E94E211CE01019627E0FC0111922A95DC
:1013B000E9F726E0FE013896DC0101900D922A95AE
:1013C000E1F72D8121110AC029813A814B815C818D
:1013D0006D817E818F810E942C1104C00E94A20821
:1013E0008111F2CF2D96E2E00C945325FC0124816B
:1013F000213021F4808191810E94AE0E0895CF9317
:10140000882309F481C0C82F8238C1F40E94121FBA
:1014100081FD7AC069E380910001909101010E94F1
:10142000A21F0E940E122FEF87EE93E02150804002
:101430009040E1F700C0000069E333C08338C1F495
:101440000E94121F80FD60C063E5809100019091B1
:1014500001010E94A21F0E940E122FEF81EE94E064
:10146000215080409040E1F700C0000063E519C0C2
:101470008438F1F40E94121F82FD46C067E4809117
:101480000001909101010E94A21F0E940E122FEFF5
:1014900081EE94E0215080409040E1F700C00000D0
:1014A00067E480910001909101010E94A51F2AC06C
:1014B0008CEF8C0F813AD0F46C2F809100019091C9
:1014C00001010E946C1F882349F06C2F809100015C
:1014D000909101010E94A51F0E940E126C2F809115
:1014E0000001909101010E94A21F0CC080E28C0FAC
:1014F000883050F4C77081E001C0880FCA95EAF7C0
:101500000E94C5110E940E12CF910895882309F4FC
:101510004DC0682F823879F40E94121F81FF46C0A7
:1015200069E380910001909101010E94A21F0E9435
:101530000E1269E326C0833879F40E94121F80FFDF
:1015400035C063E580910001909101010E94A21FC6
:101550000E940E1263E515C0843879F40E94121FB0
:1015600082FF24C067E480910001909101010E94F4
:10157000A21F0E940E1267E404C08CEF860F813A0E
:1015800038F480910001909101010E94A51F0CC0C8
:1015900080E2860F883050F4677081E001C0880FC8
:1015A0006A95EAF70E94CB110E940E1208951F93CC
:1015B000CF93DF93182FEB010E94FF09209741F092
:1015C0008FE99FE00197F1F700C000002197F6CF67
:1015D000812F0E94860ADF91CF911F910895893350
:1015E00019F06AE070E002C060E570E00E94D70A7E
:1015F0000895882321F00E94C5110E940E120895BB
:10160000882321F00E94CB110E940E120895A0E0C1
:10161000B0E0EDE0FBE00C9431257C01D62FC72F24
:10162000FC011581068102950F700E94BB11882371
:10163000E9F01123D9F08C2F807F803451F080E2C3
:101640008D0F883098F0011104C08C2F807E80327D
:1016500069F080915A0382FF09C082E00E946C12F7
:101660000E94BB1191E0D82ED92601C0D12CCC2EDE
:10167000C2948FE0C8228C2D90E08C30910508F048
:1016800076C1FC01EC5CFF4F0C9421258C2F807FF0
:10169000CF70882311F0C295C07F112399F0CC231D
:1016A00009F44CC180E28D0F883010F0D11104C0D4
:1016B0008C2F0E94C51103C08C2F0E94D5110E944F
:1016C0000E123CC18D2F0E94860ACC2309F44FC113
:1016D00080E28D0F883038F1DD2329F18C2F0E94B4
:1016E000DB1124C08C2F807FCF70803211F0C29527
:1016F000C07FDD2319F0D13099F13CC080915A03AD
:1017000082FD17C0112349F0CC2329F08C2F0E94B1
:10171000C5110E940E1280E012C180E00E94860A6C
:10172000CC2309F424C18C2F0E94CB110E940E12ED
:101730001EC1112349F0002309F1013009F017C13E
:101740008C2F0E94EC1113C1011111C18C2F0E942A
:10175000000B8C2F0E94F8118C2F0E943F1207C1A2
:10176000112321F0063008F002C108C0053008F04E
:10177000FEC00AC0112331F00111E0C08C2F0E947D
:10178000F90AF5C00111E0C08C2F0E94000BEFC0D8
:101790008C2F8370B1F51111EEC04D2F42954695F7
:1017A0004770440F440F8D2F8F7090E09C01042EE2
:1017B00002C0220F331F0A94E2F7D4FF0AC08FE061
:1017C00090E002C0880F991F4A95E2F780959095A6
:1017D00002C080E090E0C695C695C370822B932B23
:1017E000C23049F058F4C13019F00E947C0DC3C0DA
:1017F0000E94730DC0C00E94850DBDC00E94700D77
:10180000BAC0112319F08C2F817001C086958823EE
:1018100009F4B1C04D2F429546954770440F440FCF
:101820008D2F8F7090E09C01042E02C0220F331F79
:101830000A94E2F7D4FF0AC08FE090E002C0880F5C
:10184000991F4A95E2F78095909502C080E090E05C
:10185000C695C695C370822B932BC23049F058F4BD
:10186000C13019F00E94E40D86C00E94DB0D83C0D8
:101870000E94ED0D80C00E94910D7DC0CF7011239C
:1018800039F08C2F0E94A90D8D2F0E94F90A73C088
:101890008D2F0E94000B8C2F0E94B90D6CC0D23F7F
:1018A00021F128F4D03F41F0D13FC1F043C0D33FF4
:1018B00019F1D43F79F03EC0112341F0053008F012
:1018C00056C08C2F8F710E94CB0D51C0063008F08E
:1018D0004EC0F7CF80915A0382FD18C0112339F012
:1018E0008C2F8F710E94A90D42C01123C9F38C2F38
:1018F0008F710E94B90D3BC0112329F08C2F8F717D
:101900000E949D0D34C00E94980D31C0112349F0F2
:10191000CF718C2F0E94A90D63E08C2F0E944E1274
:1019200026C081E00E946C12023008F182E00E9421
:101930006C121DC0112331F0002391F28D2F0E94F3
:10194000FF0915C0002399F2D93341F4FFEF27EEC8
:1019500083E0F15020408040E1F704C0EFE3FCE970
:101960003197F1F700C000008D2F0E94860A88EFA2
:101970008C0D843020F40E94121F0E947609DD2015
:1019800089F00E94B71180FD0DC0F70115820E94F9
:10199000B1110E94A90DC7010E94EF0C0E94B11164
:1019A0000E94B90DCDB7DEB7E8E00C944D250F933A
:1019B0001F93CF93DF93EC01688179818D810E9421
:1019C000B90E8C010E94F60D0E94610DB801CE0186
:1019D0000E94070BDF91CF911F910F910895CF9334
:1019E000DF93FC0124812223D1F0EC010E94D30873
:1019F00081110FC00E94BB11882389F08D8188233B
:101A000071F080915A0382FF0AC082E00E946C123A
:101A100006C0CE010E94D70CCE010E94AE08DF9115
:101A2000CF9108950E94E2110E940E1208958091B4
:101A30000001909101010E94A81F0E94120D0895BB
:101A40000E94D2110E94170D089592959F709630B2
:101A500079F010F4925001C09A50923068F4803FAF
:101A600069F018F4883E40F409C0843F29F406C0A8
:101A7000883E20F0813F11F080E0089581E00895D4
:101A8000FC012481222339F0808191810E94AE0ED5
:101A90000E94250D089580E00895A6E0B0E0E3E5FA
:101AA000FDE00C9437252696E2E00C945325A7E040
:101AB000B0E0EDE5FDE00C9437252796E2E00C94CC
:101AC0005325089508950E94620D08950E94630DA4
:101AD00008950E94660D9093840180938301089578
:101AE0000E94690D08952091830130918401822B19
:101AF000932B0E94690D08952091830130918401F8
:101B0000822393230E94690D0895209183013091CF
:101B10008401822793270E94690D08950E94620D17
:101B200008950E948E0D9093820180938101089503
:101B300080E090E00E94910D089521E030E0A9013D
:101B400002C0440F551F8A95E2F7CA010E94910D09
:101B5000089521E030E002C0220F331F8A95E2F79A
:101B60008091810190918201822B932B0E94910D93
:101B7000089521E030E002C0220F331F8A95E2F77A
:101B80002095309580918101909182018223932349
:101B90000E94910D089521E030E002C0220F331F12
:101BA0008A95E2F7809181019091820182279327A3
:101BB0000E94910D08952091810130918201822B24
:101BC000932B0E94910D0895209181013091820103
:101BD000822393230E94910D0895209181013091D9
:101BE0008201822793270E94910D08950895962FD0
:101BF0009770A1E001C0AA0F9A95EAF793E0769555
:101C000067959A95E1F7660F771F660F771FFA01C0
:101C1000E60FF71F40E050E0682F70E090819B01D5
:101C2000042E02C0369527950A94E2F7217021957B
:101C300029272A23292721934F5F5F4F44305105DD
:101C400069F70895FB01782F777023E096958795C3
:101C50002A95E1F7880F991F880F991FE80FF91F40
:101C600040E050E080E0219130E0072E02C0369540
:101C700027950A94E2F721703327042E01C0220F22
:101C80000A94EAF7822B4F5F5F4F4430510559F7B2
:101C90000895282F862F973060F4273050F4622F54
:101CA00070E027E0929F600D711D112445E651E020
:101CB00007C09C5F923030F4622F70E041E651E043
:101CC0000E94F70D0895292F973058F4873048F473
:101CD00090E065E671E037E0239F800D911D1124AF
:101CE00006C02C5F223030F461E671E090E00E9483
:101CF000220E089580E00895A0E0B0E0E2E8FEE062
:101D00000C9430257C010091810110918201809119
:101D1000830190918401082B192BCFE0D0E0CC24D3
:101D2000C394D12CC6010C2E02C0880F991F0A94AF
:101D3000E2F780239123892B21F4219798F7B12C86
:101D400007C0BC2EB7018C2F0E9477150197A9F30D
:101D50008B2DCDB7DEB7E9E00C944C25CF93DF9304
:101D6000EC010E947C0EBE010E947715DF91CF919D
:101D700008951F93CF93DF93EB0190916001992316
:101D800021F0CB010E94AE0E13C0882349F0CB0195
:101D90000E947C0E182F682FCE010E94490E04C0AD
:101DA000CB010E94630E182FBE01812F0E94771570
:101DB000DF91CF911F9108951F93CF93DF93C0912F
:101DC000850117E080918601C817A1F0D0E01C9F23
:101DD000F0011D9FF00D1124E957FE4F2081318144
:101DE000428153816481758186810E94570D2196BD
:101DF000C770E8CFDF91CF911F9108952091BF0167
:101E00003091C0014091C1015091C2016091C30164
:101E10007091C4018091C5010E94570D0895CF9320
:101E2000DF938091C50182958F7009F04EC080913B
:101E3000C401882309F449C080918501409186013D
:101E40005091C0016091BF01C091C101D091C20108
:101E500077E08417D1F190E0789FF001799FF00D41
:101E60001124DF01A957BE4F14962C9114972223F9
:101E700049F111962C911197251324C02C9126130A
:101E800021C015962C91159721111CC012962D91E9
:101E90003C9113972C1B3D0B283C310598F4809105
:101EA000C5018F7080618093C501E357FE4F80812B
:101EB0008F70806180838FEB91E00E94EF0C0E9415
:101EC000DC0E03C001968770C4CFDF91CF910895D7
:101ED000209185019091860157E02917A9F030E003
:101EE000529FF001539FF00D1124E957FE4F71816D
:101EF000761306C07081781303C07581741306C011
:101F00002F5F3F4F2770E9CF80E0089581E008956B
:101F1000A4E1B0E0EEE8FFE00C942D258C0186E012
:101F2000F801DE011F9601900D928A95E1F7F80104
:101F30008481E5809FEBA92E91E0B92E9091C30199
:101F4000911118C0882309F480C1EE20D9F1C8018D
:101F50000E94400DF82E8823A9F187E0F801D501F1
:101F600001900D928A95E1F7C5010E94F6090E9441
:101F70000F0F98C0F801C080D18082809380F090CC
:101F8000C4012091C1013091C201A401421B530B35
:101F9000FF2009F406C1483C510508F0AFC0882372
:101FA00009F455C18091C501282F207F9091C0016F
:101FB000222361F09D1509F462C0C8010E94400D02
:101FC000811173C0C8010E94EF0C3FC19D1115C063
:101FD0009091BF019C1111C0E1100FC08F70806102
:101FE0008093C5010E94FE0E8FEB91E00E94EF0CE2
:101FF0008091C501F801868326C1E1103AC040E016
:102000006D2D8C2D0E94680F40E06D2D8C2D0E944F
:10201000680FE82E811117C1CF86D88A8F859889DD
:102020000E94AE0E292F22952F70243020F49F702D
:10203000223028F009C02A50223080F014C09923A1
:1020400049F0811107C013C0992321F0F80196814E
:10205000907F69F0805E883030F409C0803F38F0AE
:10206000815F833020F0C8010E94EF0CEF2CFE2C22
:10207000EEC08091C50181608093C501E4C090915C
:10208000BF019C119ACFE11098CFF8018683C80157
:102090000E94EF0C87E0F801AFEBB1E001900D92E8
:1020A0008A95E1F70E94FE0ED2C0EE2009F48ACF95
:1020B0002091C501822F82958F7090E002978CF05D
:1020C0008091BF019091C001998788879B868A86FD
:1020D0008091C3018C871D862E87CE0108960E94B1
:1020E000EF0C87E0F801AFEBB1E001900D928A951B
:1020F000E1F70E940F0F0E94FE0EA7C09091C5014C
:10210000292F207FA1F4682D9A8A898AA6017A89CD
:102110009E2D0E944D0D8FEB91E00E94EF0C87E009
:10212000F50111928A95E9F70E94FE0E8CC0882372
:1021300009F48DC08091C0018D1111C08091BF0143
:102140008C110DC0E1100BC0F8019683C8010E94EC
:10215000EF0C87E0F50111928A95E9F778C0C80184
:102160000E94400D882309F42DCFEE2009F42ACFD8
:102170002091C501822F82958F7090E002970CF418
:10218000B0CF8091BF019091C0019A8389839C82D6
:102190008B828091C3018D831E822F83CE01019695
:1021A0009ECF483C510508F040C0882309F44DC03B
:1021B000FE2CEE2009F406CF8091C0018D1127C0BE
:1021C0008091BF018C1123C09091C50190FD16C074
:1021D000892F82958F70282F30E02115310571F0FD
:1021E000F80196832F30310509F451CF8F5F982F76
:1021F0009295907F86818F70892B48CF87E0F80178
:10220000AFEBB1E001900D928A95E1F720C0C801D3
:102210000E94400D811165CF8091C501816080933E
:10222000C501C8010E94EF0C12C0682D9A8A898AE4
:10223000A6017A899E2D0E944D0D87E0F50111922D
:102240008A95E9F72FCFF12C02C0FF24F3948F2D4C
:102250006496ECE00C944925AEE0B0E0E2E3F1E1F5
:102260000C943625288739874A875B876C877D875A
:102270008E87CE0108960E94880F882361F06C85B6
:102280006623A9F1288539854A855B857D858E85FC
:102290000E94570D2CC087E0FE013896DE01119692
:1022A00001900D928A95E1F76C85662301F12091EA
:1022B000860130E0C9010196877099274091850118
:1022C00050E084179507E1F16D8397E0929FD0016C
:1022D000939FB00D1124A957BE4FFE013196019076
:1022E0000D929A95E1F7809386010E94DC0E17E02B
:1022F0008091850190918601891779F1189FC0011D
:10230000112489579E4F0E94880F882331F1E09154
:1023100085011E9FF0011124E957FE4F2081318174
:10232000428153816481758186810E94570D80911D
:10233000850190E001968770992780938501D8CF19
:102340000E94200D1092860110928501EFEBF1E0C2
:1023500087E0DF011D928A95E9F72E96E3E00C9461
:1023600052258091C601869586958695089580911F
:10237000C601877008959091C601977081E009F4B5
:1023800080E008958091D20108959091D201892B27
:102390008093D201089580959091D20189238093F2
:1023A000D20108951092D20108959091D101892B04
:1023B0008093D101089580959091D10189238093D4
:1023C000D10108951092D101089508950E94E51158
:1023D00008950E94E61108959091C801292F28239D
:1023E000821729F0982B9093C8010E94E911089553
:1023F0009091C801292F282331F08095892380935B
:10240000C8010E94E91108958091C801882329F02C
:102410001092C80180E00E94E9110895E091000146
:10242000F09101018091D2018083E0910001F0914F
:10243000010190818091D101892B80838091C80115
:10244000882381F0E0910001F09101019081892BB6
:10245000808380910001909101010E94601F811191
:102460000E94041280910001909101010E941F1F9F
:1024700008950E94E51108950E94391208959091DF
:10248000C701292F282331F0809589238093C70124
:102490000E943C1208950E94E511089590915A03FC
:1024A00092FF11C098E0899F90011124262B209360
:1024B000C6010E94A90D8091C601869586958695D4
:1024C0000E944B1208950E94A90D08951092C60112
:1024D00080E00E944B1208959091C6018095892357
:1024E0008093C601282F277069F4981759F09091AE
:1024F0005A0392FF07C08695869586950E94B90D6E
:102500000E9466120895CF9390915A0392FB22275E
:1025100020F92817F9F0C82F892FC0FB82F9809382
:102520005A038091590390915A030E94DF1282E06E
:102530000E946C128091E80180FF0CC01F92CF9323
:1025400083E093E09F938F930E947F060F900F90FC
:102550000F900F90CF91089580915A0382FB8827A6
:1025600080F991E089270E948312089581E00E94FA
:102570008312089580E00E94831208956FEF7FEF29
:1025800080E090E00E94B925089580E090E00E94EC
:10259000852521E0863E9E4F09F020E0822F089598
:1025A00082E090E00E947D25089583E090E00E9403
:1025B0007D25089584E090E00E9485250895BC0162
:1025C00084E090E00E94B9250895AB01BC018FE042
:1025D00090E00E94AD250895AB01BC0183E190E03D
:1025E0000E94AD25089560E070E0CB010E94EC12DE
:1025F000089560E070E0CB010E94E5120E94F312A2
:102600000895A8E0B0E0E7E0F3E10C94372566EE2A
:102610007EEF80E090E00E94B92560E082E090E0EB
:102620000E949B2560E083E090E00E949B25109231
:1026300084011092830160E074E184E090E00E94E4
:10264000B92560E086E090E00E949B256FEF87E06F
:1026500090E00E949B2540E050E0BA0188E090E0C5
:102660000E94AD2560E084E290E00E949B2560E03E
:1026700087E190E00E949B2560E08CE090E00E9462
:102680009B2560E08DE090E00E949B2519821A82D4
:102690001B821C821D821E821F82188648E050E029
:1026A00068E170E0CE0101960E948B2540E050E089
:1026B000BA0180E290E00E94AD250E94F9122896AE
:1026C000E2E00C9453250E9401130895682F8EE0D8
:1026D00090E00E949B250895A6E0B0E0E2E7F3E1D8
:1026E0000C9435250E9436208C018091D301909165
:1026F000D4010817190781F019821A820E94362026
:10270000682F49815A81792F80E090E00E94C309A7
:102710001093D4010093D3012696E4E00C94512544
:102720000E9442206093E4017093E5018093E601EA
:102730009093E7016093E0017093E1018093E201DF
:102740009093E30108950E9442206093E401709306
:10275000E5018093E6019093E7016093DC017093BB
:10276000DD018093DE019093DF01089581E00895FB
:1027700081E008950E94B813089508950E94BD1342
:1027800008950E94BD1308950E94C11308950E94E8
:10279000BD1308950E94C71308950E94BD130895A4
:1027A00082E092E20E94081F0E94CD130E94CA1389
:1027B00008950E94BE130E94BD1308950E947816CA
:1027C0000E94750908950E942D200E94561C0E94A7
:1027D00087170E94DE1380E00E9488180E94C413AD
:1027E0000895A6E0B0E0E7EFF3E10C942E250E94F7
:1027F000B613811104C00E946C1310E054C00E94F3
:102800009D1785EDE82E81E0F82E670100E0F601C6
:1028100011916F01802F0E94961681270F5F07305C
:1028200019F08823A1F302C0882329F38091E801DD
:1028300081FD0E949C160E94BA13A82E10E09924D4
:102840009394812F0E949616B82EF701C080C82657
:1028500009F100E0DD24D3948C2D8D21A9F0AA206C
:1028600099F009831A830E9436209C838B839D8272
:1028700091E08B2D8D2109F490E049815A816B8183
:102880007C818D810E94C3090F5FDD0C073021F729
:10289000F701B0821F5FFFEFEF1AFF0A173089F6CA
:1028A0000E94901311E00E94731C882319F00E946B
:1028B000A31311E00E94391B11110E94F4190E9408
:1028C00088092696EBE00C944A251F93CF93DF935B
:1028D0000E947C15EC01C11582E5D807C8F5C11529
:1028E00090E5D90708F0BBC0C83ED105C0F4C03E92
:1028F000D10508F0DDC0C53AD10550F4C430D1058A
:1029000008F0D6C0219709F0D0C081E090E0D1C096
:10291000CD3CD10508F4C9C0CE019065CAC0C1152F
:1029200080E4D80708F05AC0C11590E2D90708F032
:10293000AFC0C11581E0D80708F4B7C08D2F0E9441
:102940001816182FCE0199270E947C151F71ABC055
:10295000C03892E5D90720F5C03682E5D80708F0DF
:1029600061C0C03492E5D90708F04AC0C03282E5A0
:10297000D807F0F54C2F4695469590E2499FA00167
:102980001124C37021E030E0C90102C0880F991FF3
:10299000CA95E2F7EA01C82BD92BCE019D6889C000
:1029A000C03C92E5D90768F48C2F8F71C03AD245AC
:1029B00008F04CC090E0D82FCC27CE01846F906AED
:1029C00078C0C03E82E5D80708F06FC0CF71DD2720
:1029D000DC2FCC27CE01806F906A6BC0CE01992787
:1029E0000E947C15CC27DF70D06A8C2B9D2B61C098
:1029F000CF71D0E0DC2FCC27CE01816F906A59C017
:102A00008C2F8F718695869590E2899F9001112475
:102A1000C37081E090E002C0880F991FCA95E2F769
:102A20009C6811C08C2F8F718695869590E2899F46
:102A300090011124C37081E090E002C0880F991FBB
:102A4000CA95E2F79A68822B932B33C00E9418161E
:102A50008F7190E0D82FCC27CE0190622AC08C2FA6
:102A60008F710E94181695E0D695C7959A95E1F753
:102A7000CF70D0E0DC2FCC27282F30E084FF05C0BA
:102A800084E0220F331F8A95E1F7D069CE01DBCFB6
:102A90008D2F8F710E941816182FCE0199270E9432
:102AA0007C151F719062912B04C080E090E001C002
:102AB000CE01DF91CF911F910895462F672F773078
:102AC00028F4473088F40E943C0808957D3F21F4A3
:102AD00041110AC041E004C07C3F31F4411104C0FF
:102AE00060E00E945508089580E090E008950E94FB
:102AF0005D150E94651408958238910569F1B0F45E
:102B00008133910509F475C048F48932910509F4BF
:102B100067C08A32910509F471C008958533910523
:102B200009F459C089339105B9F00895833E9105A0
:102B300089F138F4803E9105D1F0823E910529F16A
:102B40000895863E9105C9F1873E9105D9F1843EED
:102B5000910509F06CC027C02091590320FD57C092
:102B600021FD55C020915A0323FD5BC0089580913B
:102B7000590380FD48C080915A0380FF48C080916E
:102B8000590384FD46C083EE51C08091590382FFF2
:102B90003CC0F5CF8091590382FD37C080915A0324
:102BA00080FD35C0ECCF80915A0381FF36C0809103
:102BB000590384FD2EC087EE39C08091590383FFED
:102BC0002AC0F5CF8091590383FD25C080915A0317
:102BD00081FD23C0ECCF8091590385FD22C01FC029
:102BE0008091590385FD1BC080915A0383FF19C052
:102BF0000AC08091590386FD16C017C08091590301
:102C000086FD13C010C089E311C082EE0FC080EEB4
:102C10000DC080E00BC086EE09C084EE07C085E3DE
:102C200005C089E203C08AE201C081E390E0089513
:102C30009091590392FF0DC0282F2871283019F464
:102C4000877F846006C0282F2471243011F48B7F85
:102C5000886093FF0DC0282F2871283119F4877ED2
:102C6000846106C0282F2471243111F48B7E886181
:102C700020915A0320FF0DC0382F3871383019F4D5
:102C8000877F816006C0382F3171313011F48E7F1B
:102C9000886021FF0DC0282F2871283119F4877E04
:102CA000816106C0282F2171213111F48E7E886147
:102CB00094FD877E08950E94BE1208950E949D177C
:102CC0002FEF86E791E0215080409040E1F700C06F
:102CD00000000E949D1780E00E94961680FF04C0AD
:102CE0000E945B160E94832008950E945E1608953C
:102CF0000E94C512811102C00E9463130E94D0126B
:102D00008093E8010E94DA1290935A03809359034A
:102D10000E9475160E94D51290E00E94700D80915D
:102D20008101909182010E948E0D0895E82FF0E0BC
:102D3000EE59FC4F80810895A0E0B0E0E2EAF6E1B0
:102D40000C94312587E293E00E94E60582E6E82EA6
:102D500083E0F82EC0E0D0E092E2C92E93E0D92EB5
:102D60000AE113E0DF93CF93DF92CF920E947F06B8
:102D70008FE193E00E94E605F70181917F010E94B7
:102D800050091F928F931F930F930E947F0688E133
:102D900093E00E94E60521968DB79EB708960FB680
:102DA000F8949EBF0FBE8DBFC730D105D9F6CDB701
:102DB000DEB7E8E00C944D2580EA8A95F1F7089596
:102DC00000C008950E94DC16089508950E94E5163B
:102DD00008950E94E61608950E94E51608950E943F
:102DE000EC160895F894E82FE295EF70F0E031A129
:102DF000282F2F7081E090E001C0880F2A95EAF714
:102E0000982F9095932391A392A1892B82A37894D4
:102E100008950F931F93CF93DF93C9E3D1E0899176
:102E20008F3F11F00E94F21681E0C034D807B9F745
:102E3000C2E3D1E009E311E089918F3F11F00E94D4
:102E4000F2160C171D07C1F7DF91CF911F910F915B
:102E50000895A0E0B0E0EFE2F7E10C9431258C0199
:102E6000C62FD0E0CE01875C9E4F7C01FC01908193
:102E70009F3F09F447C0D62EF894E92FE295EF70F2
:102E8000F0E081A19F7021E030E001C0220F9A950F
:102E9000EAF7822B81A382A12095282322A378948C
:102EA0000E94E016E2E3F1E049E351E031E0C12C99
:102EB00021912F3F89F0A22FA295AF70B0E090969C
:102EC0008C9190E02F7002C0959587952A95E2F736
:102ED00080FD02C0832F01C080E0C82A330F4E1747
:102EE0005F0731F7F70180818F3F11F00E94F216E2
:102EF00061E0C11001C060E08D2D0E94E216C00F9C
:102F0000D11FC882CDB7DEB7E8E00C944D250E94F2
:102F1000091787E0E2E6F3E0DF01982F1D929A950A
:102F2000E9F7EBE5F3E0DF011D928A95E9F787E029
:102F30000E94D8170E94EF160895A7E0B0E0E3EAD8
:102F4000F7E10C9434258E010F5F1F4F87E0F801E5
:102F500011928A95E9F7F12C6F2DC8010E9429176B
:102F6000F394F7E0FF12F8CF47E050E0B8018BE5AB
:102F700093E00E94672521E0009709F420E0892B67
:102F800041F087E0F801ABE5B3E001900D928A953E
:102F9000E1F747E062E673E08BE593E00E94D91722
:102FA000182F0E94E916812F2796E5E00C945025F2
:102FB0000895EF92FF920F931F93CF93DF937C01BD
:102FC0008B01C42F222349F081E08093EB010E9402
:102FD00036209093EA018093E9018091EB01811101
:102FE00002C080E01AC08091E9019091EA010E943C
:102FF0004E200597B0F3D0E0AE01B701C8010E94A2
:103000006725892B39F0AE01B701C8010E947425EC
:1030100081E001C080E01092EB01CDB7DEB7E6E0C1
:103020000C944F250E94B3200E94E3130E94C420F9
:1030300008950E94D31F0E94A3200E94D0130E94D3
:1030400012180E94D2200E94D913FBCFAB0124E6B4
:1030500030E0BC0188E70E94BC1E21E0892B09F00A
:1030600020E0822F0895EF92FF920F931F93CF934A
:10307000DF93EC017B0164E670E088E70E941A1E92
:103080008C01EC0EFD1ECE15DF0541F40E94041FDD
:1030900081E00115110569F080E00BC017FDF6CF46
:1030A000FE01849164E670E00E948D1E8C012196E1
:1030B000EACFCDB7DEB7E6E00C944F250F931F9310
:1030C0009B0104E610E0AC0160E488E70E94DD1E8D
:1030D00021E0892B09F020E0822F1F910F910895A4
:1030E0000E94141E0895E9E6F3E080E092E0DF011B
:1030F0009C011D9221503040E1F7F0936E05E09362
:103100006D058FEF9FEF909318028093170208953B
:10311000CF930E94E2070E94F2078093130280FD82
:1031200002C080E801C080E2809312020E94701801
:103130006BE070E082E494E00E943318C82F8111A4
:1031400003C086E294E00FC08091130265E070E056
:1031500081FD0CC081E294E00E943318C82F8111D8
:103160000FC08BEF93E00E94E6052FC086EF93E03F
:103170000E943318C82F811103C08EED93E0F3CF66
:103180006DE070E081ED93E00E943318C82F81114B
:1031900003C08AEB93E0E7CF0E944220DC01CB0121
:1031A000805A9541AF4FBF4F8093690590936A0550
:1031B000A0936B05B0936C050E94731881E0809317
:1031C000160280931502109214028C2FCF9108954D
:1031D0002091120236E0839FC0011124629F800D6E
:1031E000911D1124811522E0920714F080E090E0F7
:1031F00087599C4F90936E0580936D05089520919B
:103200006D0530916E052356334040911202642FB4
:1032100070E0C9010E94F924481B463010F4240FC5
:10322000311D211582E0380710F020E030E02759E9
:103230003C4F30936E0520936D0508951F93CF93F7
:10324000DF93162F8A3011F481E003C08D3021F412
:1032500080E00E94961966C0C0916D05D0916E0500
:1032600096E0FE01ACEEB1E001900D929A95E1F787
:10327000803E30F086E0FE0111928A95E9F70BC09E
:10328000F6E08F9FB0011124635B7B4F46E050E076
:10329000CE010E945E25111135C0C0916D05D091FF
:1032A0006E0546E050E0BE018CEE91E00E9467257D
:1032B000892BB1F1C956D3409E0185E036952795FB
:1032C0008A95E1F781E090E0AC0102C0440F551F00
:1032D0002A95E2F72091170230911802242B352B02
:1032E000259645E0D695C7954A95E1F702C0880F27
:1032F000991FCA95E2F7822B932B90931802809323
:1033000017020EC0E0916D05F0916E059F012A5FD6
:103310003F4F2E173F0709F2808180958193F9CFA7
:103320000E94FF18DF91CF911F910895CF93E82F4E
:1033300020916D0530916E0529563340409112025F
:10334000642F70E0C9010E94F924481B842FEE23EA
:1033500059F066E00E94ED24C82FC150B0F060E043
:1033600080E20E941E19F9CFA901480F511D411595
:10337000524018F080E020E030E0280F311D27593E
:103380003C4F30936E0520936D05CF910895FF92C9
:103390000F931F93CF93DF93EC01F62EFC01019066
:1033A0000020E9F78F0101501109C017D10728F457
:1033B0006F2D89910E941E19F8CFCDB7DEB7E5E0D9
:1033C0000C9450251F93CF93DF93EC01162FFE0131
:1033D0008491882329F0612F0E941E192196F7CF2E
:1033E000DF91CF911F91089580911602882321F1DA
:1033F0000E944220DC01CB01805A9541AF4FBF4F64
:103400008093690590936A05A0936B05B0936C0552
:1034100080911502811110C062E070E081E693E0B6
:103420000E943318811105C08DE493E00E94E605E7
:1034300003C081E080931502809115020895A0E0F9
:10344000B0E0E5E2FAE10C94292580911702909111
:103450001802892B09F4EAC080911602882309F426
:10346000E5C0809114028111E1C00E94F4192091FD
:103470001702309118022115310509F4D7C090E0E8
:1034800041E050E0C92FD0E08A01092E02C0000FB0
:10349000111F0A94E2F7B80162237323672B11F41A
:1034A0009F5FF0CF809113029E01F5E0220F331F42
:1034B000FA95E1F780FF13C0E5E036952795EA9588
:1034C000E1F7220F220F220F20930401109207012F
:1034D000295F2093050183E08093080111C0220F2A
:1034E000232F221F330B31959295990F907690934D
:1034F000040120930701915E909305012093080138
:1035000067E070E082E091E00E942618882309F4C9
:1035100083C08091130280FF64C080E2E2EFF1E09B
:10352000DF011D928A95E9F76E0155E0CC0CDD1C98
:103530005A95E1F7A4E4B1E060E4462E61E0562E2E
:1035400088E491E0772473942D91E20139912E0162
:10355000B601630F711D67597C4F30E02E503E4F0E
:10356000F90147E0A42EAF01421B530B872C01C089
:10357000880C4A95EAF77B01912CE701B9907E010E
:10358000B8204A2D49194770642E042E000C550BA3
:10359000DB2D01C0DD0F6A94EAF76D2E5195419540
:1035A00051094770552701C0B6944A95EAF7BD2ADC
:1035B0004081B42AB082939448E09412DECFAA945A
:1035C0003196CFEFAC12CFCF8A179B0709F0BCCF53
:1035D00060E270E082EF91E00E945E1881110FC0FE
:1035E00021C0CE0125E0880F991F2A95E1F760E2FE
:1035F00070E087599C4F0E945E18882381F00095E7
:1036000010958091170290911802082319231093A6
:103610001802009317020AC087E993E005C08EE7FD
:1036200093E002C083E693E00E94E605CDB7DEB7E3
:10363000E0E10C94452580911602909115028823B3
:10364000A9F0992389F062E070E08BE493E00E9496
:103650003318811107C086E393E00E94E60580914C
:1036600015020895109215029091150281E08927A4
:1036700008950F931F9380911602882319F160E03B
:1036800080E00E94E8180E94E4070E941F1A8091BF
:1036900015028823B9F00E9442200091690510911B
:1036A0006A0520916B0530916C05DC01CB01801B14
:1036B000910BA20BB30B8F3F9F4FAF4FBF4710F43F
:1036C0000E941B1B1F910F910895CF93DF93FC0164
:1036D000DB0115968C91882309F4DDC09F013057DA
:1036E0002332310508F0D8C0EF010E94DA1290931E
:1036F0005A0380935903FE01E150F047E232F1058D
:1037000020F4E05CFF4F0C942125809159038160E7
:10371000AAC080915A038860B2C080915903826028
:10372000A2C08091590320C08091590388609BC03A
:1037300080915A031EC080915A038260A0C080917C
:103740005903806190C08091590380628CC0809140
:103750005903806488C00E94200D809159038068BD
:1037600082C080915903886084607DC080915A0333
:103770008260816084C0809159038E7F74C0809183
:103780005A03877F7CC0809159038D7F6CC08091E4
:10379000590320C080915903877F65C080915A03E7
:1037A0001EC080915A038D7F6AC0809159038F7E1D
:1037B0005AC0809159038F7D56C0809159038F7BE9
:1037C00052C00E94200D809159038F774CC0809188
:1037D0005903877F8B7F47C080915A038D7F8E7FEF
:1037E0004EC08091590382FB222720F991E0922755
:1037F00090FB82F990FB83F936C080915A03982F91
:10380000909591708E7F892B90FB81F938C08091C3
:10381000590386FB222720F991E0922790FB86F935
:1038200022C00E94200D8091590387FB222720F996
:1038300091E0922790FB87F916C081E001C080E0FB
:103840000E9466131EC08091590384FB222720F931
:1038500091E0922790FB84F906C080915903982F3C
:10386000909590FB80F9809359030BC080915A0387
:1038700083FB222720F991E0922790FB83F9809324
:103880005A038091590390915A030E94DF120E94BB
:10389000200D80E001C081E0DF91CF9108958FE895
:1038A00091E00197F1F700C00000089581E0809356
:1038B0001A0224982C9A25982D9A0E944F1C309118
:1038C0001A02ECE1F2E090E0931761F083B1829587
:1038D00081701D9902C020E001C022E0822B8193FB
:1038E0009F5FF2CF0895A8E1B0E0E9E7FCE10C9416
:1038F0002A2510E000E082E0982E94E0A92EB12C59
:103900002DEF822E772473943CEF632E43E0542EE8
:1039100080911A02181708F0A5C0E12EF12CE3B12E
:10392000E295E1701D9902C080E001C082E08E2B1B
:10393000D701A45EBD4FEC912E2F237030E0482FAD
:10394000082E000C550B2417350709F489C0EE0F1B
:10395000EE0FE82BEC93EF70F0E0E85BFE4FC70151
:10396000855E9D4F6C019081F6018081890F808377
:103970008430A4F1F701E75EFD4F80818F5F808383
:103980000E9436201D876E86682F8F87988B598AF4
:103990007A8A412F5CEF792F83E091E00E94C3097E
:1039A0008FE39CE90197F1F700C000000E943620E8
:1039B0001B8B6C8A682F8D8B9E8B5F8A188E412F94
:1039C0005CEF792F83E090E00E94C309EFE3FCE90C
:1039D0003197F1F700C0000021E001C020E0F601BE
:1039E00080818D3F9CF5F701E75EFD4F808181501E
:1039F00080830E94362019838A82682F8B839C8360
:103A00009D827E82412F5DEF792F82E091E00E94BE
:103A1000C3098FE39CE90197F1F700C000000E9401
:103A200036201F838886682F89879A879B861C8605
:103A3000412F5DEF792F82E090E00E94C309EFE310
:103A4000FCE93197F1F700C0000021E0F601808128
:103A5000082E000C990BB5010E940D258083022BC6
:103A60001F5F56CF802F6896EFE00C944625CF93CA
:103A7000DF9386319C4741F5EB010E94C211982FDC
:103A80008D812091000130910101882379F09A7A8B
:103A900081E009F480E080931D02911102C069E287
:103AA00001C065E3C9010E94A21F0AC080911D02E6
:103AB000811102C069E201C065E3C9010E94A51F2E
:103AC0000E940E1280E001C081E0DF91CF91089545
:103AD0000F931F93CF93DF93C42FD22FFC018581C7
:103AE0008823B1F0409320020E94362090931F0259
:103AF00080931E0280E28C0F883008F04DC0C770A2
:103B000081E001C0880FCA95EAF70E94F90A44C013
:103B100080912002481330C080911E0290911F02B4
:103B20000E944E20883C910538F510E21D0FCD17FC
:103B3000B9F080E28C0F883040F4C77081E001C09A
:103B4000880FCA95EAF70E94000B183010F581E043
:103B50009D2F977001C0880F9A95EAF70E94F90A85
:103B6000802F0E94EF0A1830B8F4D77081E001C0AE
:103B7000880FDA95EAF70AC080E28C0F883060F48B
:103B8000C77081E001C0880FCA95EAF70E94000B58
:103B900003C0802F0E94EF0ADF91CF911F910F91F8
:103BA00008950F93FC01E851FC47E730F10590F5CB
:103BB000CB01EE59FF4F0C94212506E221EE41EE98
:103BC0006AE17CE723C007E225EE45EE6BE17CE786
:103BD0001DC006E221EE40EE68E17CE717C007E277
:103BE00025EE44EE69E17CE711C006E221EE42EEEB
:103BF0006CE17CE70BC007E225EE46EE6DE17CE769
:103C000005C008E221E045EE6EE17CE70E94681DF8
:103C100080E008C0FB018581882319F01092200202
:103C200001C081E00F9108951092B9008CE080935B
:103C3000B8000895A0E0B0E0E0E2FEE10C942E258B
:103C4000B82EEB010E9436206C01C431D10558F02A
:103C5000CF3F8FEFD80759F0CE0164E170E00E94AA
:103C6000F9247B0107C0EE24E394F12C03C025E086
:103C7000E22EF12C84E8A82E94EA992E1092BC0032
:103C80009092BC000E9436208C018091BC0087FD80
:103C900007C0C8010E944E20E816F906B0F729C0F7
:103CA0008091B900887F883041F08091B900887F89
:103CB000803119F00FEF1FEF1EC0B092BB00A09231
:103CC000BC000E9436208C018091BC0087FD07C09B
:103CD000C8010E944E20E816F906B0F70AC080918C
:103CE000B900887F883111F0803421F700E010E0BE
:103CF0000EC00EEF1FEFCF3F8FEFD80709F4BECFF6
:103D0000C6010E944E20C817D90708F0B7CFC801D6
:103D1000CDB7DEB7EBE00C944A250F931F93CF93FA
:103D2000DF93EB018093BB0084E88093BC000E948A
:103D300036208C018091BC0087FD0DC0CF3F8FEFF6
:103D4000D807C1F3C8010E944E20C817D90790F7C1
:103D50008EEF9FEF0CC02091B900287F81E090E0AA
:103D6000283211F480E090E0919581959109DF91DE
:103D7000CF911F910F910895A0E0B0E0E2ECFEE139
:103D80000C9431256B018A017901B9010E941A1E38
:103D9000E6010C0D1D1DC017D10741F424E9209345
:103DA000BC00CDB7DEB7E8E00C944D2597FDF6CF0B
:103DB000B70189910E948D1EEECFA0E0B0E0E3EE46
:103DC000FEE10C943125C62F6A017901B8010E94E9
:103DD0001A1E97FD11C0B8018C2F0E948D1EE6019E
:103DE000EC0CFD1CCE15DF0539F097FD05C0B801C0
:103DF00089910E948D1EF6CF24E92093BC00CDB797
:103E0000DEB7E8E00C944D2584E98093BC0008956A
:103E100090935901809358010895909322028093C2
:103E200021020895E0912102F0912202309729F0B9
:103E30000190F081E02D0995089580E00895EF92BA
:103E4000FF920F931F93CF93DF93E0912102F091A4
:103E50002202309781F18C010280F381E02D0995D7
:103E60008091E80182FF27C080FF04C085E999E0C6
:103E70000E94E605E80118E08FE8E82E89E0F82EB8
:103E80008091E80180FF0BC088811F928F93FF9281
:103E9000EF920E947F060F900F900F900F9011509D
:103EA00021961111EDCF8091E80180FF04C08DE8CB
:103EB00099E00E94E605CDB7DEB7E6E00C944F2509
:103EC000FC01329697E080E0915029F02191222365
:103ED000D9F38F5FF9CF0895662349F0FC0132963C
:103EE00008962191621729F0E817F907D1F780E0C9
:103EF000089581E008959C01FC0132969FEF80E0D7
:103F00004191461789F09F3F19F4411101C0982F44
:103F10008F5F8630A9F79F3F39F0F901E90FF11D56
:103F200097FDFA956283089508959C012A5F3F4F9B
:103F3000FC014281461301C0128201968217930749
:103F4000B9F708950E947B1F08950E94951F089558
:103F5000029626E0FC0111922A95E9F7089508954A
:103F60000E94AF1F08950E94B01F08950E94AF1FC6
:103F700008950E94AF1F08950E94AF1F0895CF9328
:103F80000E94B91F0E949D170E94B61FC0E08C2F8F
:103F90000E949616811104C0CF5FC730C1F701C0DF
:103FA00081E0CF91089508951F920F920FB60F925E
:103FB00011248F939F93AF93BF938091230281111C
:103FC00013C080916F0590917005A0917105B0911B
:103FD00072054196A11DB11D80936F0590937005E8
:103FE000A0937105B0937205BF91AF919F918F918E
:103FF0000F900FBE0F901F90189580912602882376
:1040000031F10E9444091092230220E488E190E0FB
:104010000FB6F894A895809360000FBE20936000BF
:1040200083B7817F846083BF83B7816083BF7894C7
:10403000889583B78E7F83BF0FB6F894A89580913B
:104040006000886180936000109260000FBE089548
:104050000E94200D0E944B09089582E084BD93E0E8
:1040600095BD9AEF97BD80936E0008952FB7F89491
:1040700080916F0590917005A0917105B0917205C6
:104080002FBF08952FB7F89460916F057091700558
:1040900080917105909172052FBF08959C014FB7D3
:1040A000F89480916F0590917005A0917105B09181
:1040B00072054FBF821B930B089578941F920F9245
:1040C0000FB60F9211248F939F93AF93BF9380915C
:1040D0006F0590917005A0917105B09172050196E0
:1040E000A11DB11D80936F0590937005A09371057C
:1040F000B0937205BF91AF919F918F910F900FBEBA
:104100000F901F90189598E088E10FB6F894A89545
:10411000809360000FBE90936000A895F894D8E05B
:10412000CEEF28E3299320E0299314BEFFCF089512
:1041300098E088E10FB6F894A895809360000FBED0
:1041400090936000FFCF0E943620909325028093C9
:10415000240290E080E80FB6F89480936100909379
:1041600061000FBE08950E94D224539A80E08150CE
:1041700041F0A895EFE9FFE03197F1F700C00000AA
:10418000F6CF5398789408950E9473220E940D1FD1
:104190002FEF80E792E0215080409040E1F700C08F
:1041A0000000089580919A05882389F010929A055D
:1041B0000E9436209093250280932402809126024B
:1041C0008823D9F1109226020E94282011C08091E4
:1041D0002602811111C080912402909125020E9433
:1041E0004E20069728F081E0809326020E94FD1F52
:1041F00080912602882309F10E94FD1F0E94BF1FA3
:10420000882309F43DC0F8942AB15B9A822F8C6010
:104210008AB99BB18CE098279BB93FE748E391E0CE
:10422000315040409040E1F700C000009BB1892729
:104230008BB92AB95B98789408950E94DB2380910A
:10424000A005882329F080917E0584FD0E94F1134A
:104250000E946E210E94DB238091A005882329F013
:1042600080918A0584FD0E94F6210E94DB238091C3
:10427000A005882329F08091B70584FD0E941A22A9
:1042800008959FB7F89481E03091D8022091D70229
:10429000321301C080E09FBF08958091D602089537
:1042A0000F931F93CF93DF938C01D62FC6E080919D
:1042B000B70584FD05C0C15049F00E94DB23F7CF4C
:1042C0006D2FC8010E94D62381E001C080E0DF91FC
:1042D000CF911F910F91089508950895CF93DF9383
:1042E000CAE0D0E080917E0584FF3DC080915302FA
:1042F00090915402981709F441C028E0829FC001B0
:10430000112468E08B5A9D4F0E94D1238091530263
:1043100090E001968F709927809353022091E801D5
:1043200022FF2CC020FF2AC040915402242F30E0ED
:10433000281B390B481710F4205F3F4F3F932F93F2
:104340001F924F939F938F9386E39AE09F938F934F
:104350000E947F068DB79EB708960FB6F8949EBF51
:104360000FBE8DBF0BC00E94DB238FE99FE001973A
:10437000F1F700C00000219709F0B4CFDF91CF9191
:104380000895CF93DF93EC01A0915402B0E0CD01EA
:1043900001968F70992720915302281781F093E09E
:1043A000AA0FBB1F9A95E1F7AB5ABD4F98E0FE01EB
:1043B00001900D929A95E1F78093540208C0809184
:1043C000E80180FF04C08AE29AE00E94E6050E94AC
:1043D000DB230E946E2188E0FE01ABE4B2E0019095
:1043E0000D928A95E1F7DF91CF91089580912A028D
:1043F000803239F460E28BE292E00E94F40710927E
:104400002A0208956FB7F8949091D802492F50E08E
:104410009A012F5F3F4F2F7733277091D702721782
:1044200031F0FA01E752FD4F80832093D8026FBF2D
:1044300080E00895A0E2B0E0E0E2F2E20C943125E1
:104440008091A005882309F44AC00E944121882355
:1044500009F445C08E010F5F1F4F80E2F8011192F1
:104460008A95E9F778016E01F9E0CF0ED11C0E9420
:1044700041218823F1F0EC14FD04D9F03FB7F89402
:104480008091D7029091D802981304C09093D702DC
:1044900020E00AC090E0FC01E752FD4F2081019628
:1044A0008F7799278093D7023FBFF70121937F0130
:1044B000DECF7E01F1E2EF0EF11C68E0C8010E9440
:1044C0005021882329F0085F1F4F0E151F05A9F7FB
:1044D00060E080E090E00E9450210E94DB23A096E3
:1044E000E8E00C944D2589E091E00895CF93DF93A7
:1044F000EC01988190768091E801903209F062C0D9
:104500009981913099F480FF04C08EE19AE00E9475
:10451000E6058C819D81892B09F05AC08BE492E0DD
:1045200090939C0580939B0588E05EC0923071F467
:1045300080FF04C084E19AE00E94E60585ED92E0E8
:1045400090939C0580939B0581E04EC09A3091F436
:104550009B819093D50280FF46C01F929F9385E078
:104560009AE09F938F930E947F060F900F900F9079
:104570000F902EC0993009F580FF04C089EF99E0B3
:104580000E94E6058A819B818115924051F58C81BC
:104590009D81892B31F58091E80180FF04C080EF77
:1045A00099E00E94E60581E0809329028E819F8137
:1045B000909328028093270214C080FF14C087EED6
:1045C00099E004C080FF0FC08FED99E00E94E605DE
:1045D0008091E80180FF07C08DED99E00E94E6051B
:1045E00002C08FEF01C080E0DF91CF910895CF939B
:1045F000DF932091270230912802232BF9F020919C
:1046000029022130D9F4EC018091E80180FF0DC02E
:1046100088811F928F938EEC99E09F938F930E94D5
:104620007F060F900F900F900F9088818093D60295
:10463000109228021092270281E001C08FEFDF91D3
:10464000CF910895683059F08091E80180FF04C04F
:1046500089EB99E00E94E60510922A0208952091C4
:104660002A02A22FB0E0A931B1053CF08091E80107
:1046700080FFF2CF87EA99E0EDCFFC01A55DBD4F49
:10468000089631913D93E817F907D9F7285F2093F1
:104690002A020895FC0193819330B1F068F49130BF
:1046A00081F0923009F059C081E59AE090939C0521
:1046B00080939B0582E60895913201F1923291F147
:1046C0004CC083EB9AE014C08281813079F030F0E5
:1046D000823009F042C085EC9AE00AC08DEE9AE083
:1046E00090939C0580939B0584E0089589ED9AE062
:1046F00090939C0580939B0582E10895828181308F
:1047000049F028F0823049F58CE99AE005C083E64B
:104710009AE002C08CE79AE090939C0580939B05F9
:1047200089E00895848195818130910571F028F0A8
:10473000029799F481EF9AE00AC085E39BE0909399
:104740009C0580939B0580E4089583E19BE0909312
:104750009C0580939B0582E2089580E008951F9355
:10476000CF93DF93162FEA01288124FF05C03981FA
:1047700028E82327298302C02AE52883212FFC016A
:10478000CE010296DC0131913D9321501216DCF3EB
:10479000612F0E949D061C5F1883DF91CF911F91AE
:1047A00008954EE755E00E94AF23089547EB55E08A
:1047B0000E94AF230895CF93DF9360919D056350CE
:1047C00067FD93C080919905CCE0D0E0C81BD1096A
:1047D000CF55DA4F80919805803120F4CE010E94A8
:1047E000222381C08D3209F06EC0683009F07BC091
:1047F00083EC809373058AE58093120110929705EC
:104800008881807621F0CE010E94762249C09A816B
:1048100010927C058981811106C010927D052CE7DC
:1048200035E082E038C0853019F490939E0530C0A1
:104830008630A1F48B81813041F0823031F08330B9
:1048400021F0813211F0823221F4CE010E944A23FC
:1048500001C080E090E49093970522C0883089F0F1
:10486000893019F49093A00513C08A3069F08B3019
:1048700079F48BE480937F058093B80580938B0552
:1048800007C020EA35E002C02CE735E081E003C034
:104890002CE735E080E030939C0520939B0509C010
:1048A0008F3F39F4988197FD8E8190E8909397051A
:1048B00007C09F81911104C09E81981708F4892F29
:1048C0008093110110C08091970587FF0CC0CE0125
:1048D0000E94F7228F3F21F48EE18093120103C0E2
:1048E00081111092110110929D058091120184FF97
:1048F0004CC0809111018F3F09F447C0C82F893007
:1049000008F0C8E08C1B809311019091730588E832
:10491000892780937305CC2359F180919B05909151
:104920009C052091970526FF12C0A3E7B5E02C2F28
:10493000AC0143575540FA01EA0FFB1FE491119671
:10494000EC931197215011962111F5CF08C0E4E79F
:10495000F5E0DC012C2F3D9131932150E1F70196D8
:104960002FEF2C0F820F911D90939C0580939B0538
:104970006C2F84E795E00E949D06CC5FCC3019F047
:104980008FEF80931101C093120184E199B19C7063
:1049900031F48150D9F710929E0510929605DF915F
:1049A000CF910895CF93DF93E9E6F0E080818860AE
:1049B0008083E99ACEE7D5E08BE48983A7EBB5E065
:1049C00011968C931197EAE8F5E081838AE5888354
:1049D0008C938083DF91CF910895991B79E004C077
:1049E000991F961708F0961B881F7A95C9F780952E
:1049F0000895AA1BBB1B51E107C0AA1FBB1FA61726
:104A0000B70710F0A61BB70B881F991F5A95A9F777
:104A100080959095BC01CD01089597FB072E16F463
:104A2000009407D077FD09D00E94F92407FC05D037
:104A30003EF4909581959F4F0895709561957F4FB5
:104A40000895EE0FFF1F0590F491E02D09942F9229
:104A50003F924F925F926F927F928F929F92AF920E
:104A6000BF92CF92DF92EF92FF920F931F93CF935B
:104A7000DF93CDB7DEB7CA1BDB0B0FB6F894DEBFF2
:104A80000FBECDBF09942A88398848885F846E8418
:104A90007D848C849B84AA84B984C884DF80EE8062
:104AA000FD800C811B81AA81B981CE0FD11D0FB66B
:104AB000F894DEBF0FBECDBFED010895FB01DC0110
:104AC00002C005900D9241505040D8F70895FB0167
:104AD000DC0104C08D910190801921F441505040B7
:104AE000C8F7881B990B0895FB01DC0102C00190F7
:104AF0000D9241505040D8F70895F999FECF92BDDC
:104B000081BDF89A992780B50895A8E1B0E042E008
:104B100050E00C94C125DC01A40FB51F415050405A
:104B200048F0CB01840F951F2E910E949C25415087
:104B30005040D0F70895262FF999FECF92BD81BD40
:104B4000F89A019700B4021639F01FBA20BD0FB6CB
:104B5000F894FA9AF99A0FBE08950396272F0E94A7
:104B60009C250E949B25252F0E949C25242F0C9478
:104B70009C250196272F0E949C250C949B25DC01E7
:104B8000CB01FC01F999FECF06C0F2BDE1BDF89A58
:104B9000319600B40D9241505040B8F70895F89402
:024BA000FFCF45
:104BA200C9010021007F2200034D21C1216C216D2A
:104BB20021FF5A52656365697665643A2000576140
:104BC2006974696E6720666F7220646174612E2E4B
:104BD2002E003097969531323390919463606162E2
:104BE200000810181810080000FF0100010000FF63
:084BF200FF0000010001FF00BB
:00000001FF
