:100000000C94B3050C94D0050C9499060C94D0056F
:100010000C94D0050C94D0050C94ED1F0C94D005D5
:100020000C94D0050C94D0050C94D0050C94D005FC
:100030000C94D0050C94D0050C9476200C94D0052B
:100040000C94D0050C94D0050C94D0050C94D005DC
:100050000C94D0050C94D0050C94D0050C94D005CC
:100060000C94D0050C94D0055F0B5F0B8B0B8B0BA6
:10007000D00CD00CD00CD00CE10B570C680C680CD9
:10008000D41B461CDC1BA61BAA1BE01BAD1BE31BE1
:10009000EE1BB81B3C1CBC1BF21BC01BF61B201C20
:1000A000C41BFA1B2A1CCA1B001C0A1CB11BE71B21
:1000B000B41BEA1BCF1B051C161C361C381CA21BCC
:1000C000D81B4F1C021E081EF61DFC1D0E1E141E02
:1000D0001A1EB6B6B6B6B6B6B6B6B6B6B6B6B6B6F4
:1000E000B695B596D5B6B680818283848586878895
:1000F000898A8B8C8D8E8F9091929394A0A1A2A3CC
:10010000A4A5A6A7A8A9AAABACADAEAFB0B1B2B337
:10011000B4C0C1C2C3C4C5C6C7C8C9CACBCCCDCE82
:10012000CFD0D1D2D3D400A900AA00010001000190
:10013000000100010001002B0014001A0008001546
:100140000017001C00215204001600070009000AD5
:10015000000B00E1003800E4001B00060019000558
:1001600000E000E2002252E6002C002C002C0000EF
:10017000003400A800130012000C0018000000E377
:10018000002A0028000F000E000D0000001D00E5F1
:1001900000370036001000110029001E001F00204B
:1001A0000021002200230001000100350031000180
:1001B0000001000100010001004F000100010001E9
:1001C00000010001000100510050004A0001004DF3
:1001D0000000000100010027002600250024000087
:1001E0000001004C003400330030002F00000001FB
:1001F00000520038002E002D00010001003A003BA3
:10020000003C003D003E003F0039000100010001BC
:1002100000010001000100010001000100010001D6
:1002200000010001000100010001000100010001C6
:1002300000010000000100010043004200410040B5
:1002400000000001000100010001000100010000A8
:100250000001000100010001000100010001000196
:100260000001000100010001000100010001000186
:100270000001000100010001000100010001000176
:100280000001000100010001000100010001000166
:100290000001000100000001000100010001000157
:1002A0000001000000010001000100010001000147
:1002B00000000001000100010001000100010044F4
:1002C000454255473A2064697361626C65642E0A41
:1002D0000044454255473A20656E61626C65642E64
:1002E0000A000A0025303258006C65645F7461733F
:1002F0006B3A20004F6E6573686F743A20616374C7
:100300006976653A2025640A000A002530386200C3
:100310003A200025303258000A722F6320303132E3
:1003200033343536370A006F6C65645F6F6666205C
:10033000636D64206661696C65640A0000AE6F6C71
:1003400065645F6F6E20636D64206661696C6564CF
:100350000A0000AF6F6C65645F72656E6465723928
:10036000302064617461206661696C65640A006FA5
:100370006C65645F72656E6465722064617461208F
:100380006661696C65640A006F6C65645F72656EB6
:10039000646572206F666673657420636F6D6D614E
:1003A0006E64206661696C65640A00646973706CD0
:1003B00061795F736574757032206661696C65641C
:1003C0000A0000DA0281FFD9F1DB20A4A62EAF6477
:1003D0006973706C61795F666C69707065642066C2
:1003E00061696C65640A0000A0C0D3006F6C65642D
:1003F0005F696E697420636D64206E6F726D616CED
:1004000020726F746174696F6E206661696C6564D7
:100410000A0000A1C8D3006F6C65645F696E6974DF
:1004200020636D64207365742031206661696C659A
:10043000640A0000AED580A81F408D142000000083
:10044000000000003E5B4F5B3E003E6B4F6B3E008A
:100450001C3E7C3E1C00183C7E3C18001C577D57FF
:100460001C001C5E7F5E1C0000183C180000FFE7AB
:10047000C3E7FF00001824180000FFE7DBE7FF00D8
:1004800030483A060E00262979292600407F0505C6
:100490000700407F05253F005A3CE73C5A007F3E5D
:1004A0001C1C0800081C1C3E7F0014227F22140024
:1004B0005F5F005F5F0006097F017F00006689952E
:1004C0006A0060606060600094A2FFA2940008046B
:1004D0007E04080010207E20100008082A1C080056
:1004E000081C2A0808001E10101010000C1E0C1EFC
:1004F0000C0030383E383000060E3E0E060000007C
:100500000000000000005F0000000007000700007E
:10051000147F147F1400242A7F2A120023130864F6
:100520006200364956205000000807030000001CF6
:10053000224100000041221C00002A1C7F1C2A00CE
:1005400008083E080800008070300000080808080D
:1005500008000000606000002010080402003E5106
:1005600049453E0000427F4000007249494946002B
:100570002141494D33001814127F1000274545458D
:1005800039003C4A494931004121110907003649E7
:1005900049493600464949291E0000001400000060
:1005A0000040340000000008142241001414141408
:1005B00014000041221408000201590906003E41BE
:1005C0005D594E007C1211127C007F49494936006A
:1005D0003E41414122007F4141413E007F4949491E
:1005E00041007F09090901003E41415173007F0824
:1005F00008087F0000417F4100002040413F01008A
:100600007F08142241007F40404040007F021C02CE
:100610007F007F0408107F003E4141413E007F097A
:10062000090906003E4151215E007F091929460053
:1006300026494949320003017F0103003F40404001
:100640003F001F2040201F003F4038403F00631400
:10065000081463000304780403006159494D430002
:10066000007F414141000204081020000041414147
:100670007F000402010204004040404040000003AB
:10068000070800002054547840007F284444380074
:10069000384444442800384444287E003854545494
:1006A000180000087E0902001824241C78007F0826
:1006B0000404780000447D4000002040403D0000DC
:1006C0007F102844000000417F4000007C04780433
:1006D00078007C08040478003844444438007C18CE
:1006E00024241800182424187C007C080404080022
:1006F00048545454240004043F4424003C40402007
:100700007C001C2040201C003C4030403C00442821
:10071000102844004C9090907C004464544C440059
:100720000008364100000000770000000041360854
:1007300000000201020402003C2623263C000000C7
:1007400000000080C0E0F0F0300000C060F0F0F089
:10075000300080C020F0F0F020000000000080C0D9
:10076000E0703018B8F8F00000000000DC7E3FBEFA
:10077000F0F0E000000000000080C0E070101818E9
:10078000F8F06000000000C060F0F8F830000000F1
:1007900080E0F0F8F8300000000080E0F0FCFF3F5F
:1007A0000F0100000080C0E0F0F8780000000000B9
:1007B00080C060309040203070E0C0000040404079
:1007C0004040404040404040000000E0FEFFFEF856
:1007D000C00000000000E0FCFFFEF0000000000090
:1007E00000000000013EE080700E010000000007E4
:1007F0003CE08078070000000000000000000018C6
:100800000C06C3F9FE3FC7711806C3F07C1FC77101
:100810001806C3F8FE3F0F0180C0F0F8FEDF476303
:100820006030381E0F0781402018060381F0FC7FDE
:100830001F0780C0E0F8FC3E0F030100000000032A
:10084000018060100806E3FCFF3F0701C0308CE325
:10085000FF7F1F0380C030188CE3F9FF3F07018042
:10086000C030180CC3F1FC7F0F0380C0F0FCFE3FCA
:100870000701003EC18080E0FC3F8F4040C0F0FC9B
:100880007E4E0000000000000000F8FFFF1F071F61
:10089000FFFEF0C0F8FF7F0F077FFFFEFC04047827
:1008A00080000000C0380C1C6080000000F00C04C8
:1008B000F41C80C0FCE6C3C1C1C3E6FCC0800000DC
:1008C000383F3F1F07030000383E3F1F0E03000064
:1008D000307F7F3F190C0603010F1F3F716060706E
:1008E00030180804020100000000387E7F3F3B18EA
:1008F000040301000F1F31202020201018080402DB
:10090000010000001C3F7F7F31180603183E3F3F67
:100910001B0804020100001E3F3F3F1008040201B3
:100920000000183E3F3F190C060301000F1F316005
:10093000606030181C0F07030101000000183C3CE8
:100940001C00000000000000001F1F1F0700000027
:1009500000031F1F0F0100000000071F1F1EF800EB
:100960000F70300EC138070E70831C601E03C03E2E
:1009700001003F7FFFFFF9C0C0F9FFFF7F3F0A0082
:100980002530325820006B6579626F6172645F7246
:1009900065706F72743A20005241573A2062756652
:1009A0006665722066756C6C0A005241573A206980
:1009B0006E76616C6964206C656E6774680A0053BA
:1009C00045545F4C45443A20253032580A000A000D
:1009D00056454E444F523A00554E4B4E4F574E3AA5
:1009E000005345545F4C45443A005345545F5245CB
:1009F000504F52543A005345545F49444C453A20B5
:100A000025303258004745545F49444C453A004729
:100A100045545F5245504F52543A006B6275663AE6
:100A20002066756C6C0A00562D5553423A206B6255
:100A300075665B25642D3E25645D28253032582976
:100A40000A0009026200030100A0FA090400000183
:100A50000301010009210101000122400007058175
:100A6000030800010904010002030000000921013C
:100A70000100012222000705840308000107050484
:100A8000030800010904020002030000000921110B
:100A90000100012222000705830308000107050366
:100AA0000308000112011001000000083713317320
:100AB00000010102000112034D0065007200630095
:100AC0007500740069006F00000012034D0065009E
:100AD00063006800570069006C00640000000403B4
:100AE00009040631FF0974A1010975150026FF00EC
:100AF0009520750881020976150026FF009520755E
:100B0000089102C00660FF0961A101096215002673
:100B1000FF009520750881020963150026FF0095E6
:100B20002075089102C005010906A101050719E019
:100B300029E71500250195087501810295017508C1
:100B400081030507190029FF150026FF009506758A
:100B5000088100050819012905950575019102957F
:100B60000175039103C011241FBECFEFD8E0DEBF93
:100B7000CDBF11E0A0E0B1E0E0E4FCE402C00590EC
:100B80000D92AE34B107D9F725E0AEE4B1E001C073
:100B90001D92A93BB207E1F70E9432180C941E2661
:100BA0000C940000FF93EF93E0914E01F0914F0100
:100BB000309709F00995EF91FF910895FC01859117
:100BC000803011F0EFDFFBCF0895FF27E0E230E245
:100BD00047FF0CC0419597FF09C0EDE26095709505
:100BE00080959095611D711D811D911D27FF02C08B
:100BF000219530E350E2AA27660F771F881F991FBF
:100C0000AA1FA41710F0A41B63955A95A9F7AA3040
:100C100008F0A95FA05DAF93F3956115710581059B
:100C2000910541F7ED3211F4EF93F395F21718F4B3
:100C30003F93F395FBCF8F91B5DFFA95E1F70895D8
:100C4000E991F9918591803021F0853219F0AADF80
:100C5000F9CF089520E0E89455915532C1F350330F
:100C600011F4689455915A3348F4505390F3220F7D
:100C7000022E220F220F200D250FF4CF0EF4219506
:100C800089919991533619F3533729F1533559F115
:100C9000BC0188279927E8945C3621F489919991C1
:100CA00068945591543639F446EF7EF077FF0DC0C5
:100CB0008FEF9FEF0AC055374AE039F0583540E1D1
:100CC00021F0523642E009F00895FF93EF937DDF63
:100CD000EF91FF91B7CFFF93EF93FC0181918030AB
:100CE000B9F360DFFBCFFF93EF9368DFF1CFDF93C2
:100CF000CF93CDB7DEB72596A3DFCF91DF910895CF
:100D0000A82FB92F80E090E041E050EA609530E0F4
:100D100009C02D9182279795879510F084279527F4
:100D2000305EC8F36F5FA8F30895EADF8D939D935B
:100D30000895CF93CFB7CF93DF93C3954B9BE9F73C
:100D40004B9B10C04B9B0EC04B9B0CC04B9B0AC0D7
:100D50004B9B08C04B9B06C0C0919005C395C093A8
:100D600090058EC06F93C0918F05DD27C956DA4F6D
:100D70002F9365E54B9B03C02F916F91E1CF0F93AC
:100D80001F934F9320E040E15F9309B10C7003FB88
:100D900027F93F9350E03BE039C01C7040642F7747
:100DA000012F5F5F1EC0406819B11C702F77525031
:100DB0001FC0406409B12F770C70D1F15F5F00C094
:100DC00023C0406219B12F771C7091F15F5F00C0A2
:100DD00025C00C701027515012F45D5F00001150B7
:100DE00027952C3F19B1C8F61C7001270150279593
:100DF0002C3FC8F64227499309B10C7010274F7356
:100E0000115027952C3FA8F64695469519B11C70B0
:100E100079F00127015027952C3F98F66B5A60F323
:100E2000315009B1B0F600C012E01CBB00271CC055
:100E30003B503195C31BD04012E01CBB0881033CE2
:100E400021F10B3411F120918C051981110F12132E
:100E5000EDCF4A81441F093679F10D3211F0013E80
:100E600029F74F7009F0042F009395053F915F918A
:100E70004F911F910F912F916F91CCB3C1FD5DCF19
:100E8000DF91CF91CFBFCF91189520919505222367
:100E900069F310919305112309F049C034300AF425
:100EA00048C03093930520938E0510918F053BE049
:100EB000311B30938F053DC0009193050130BCF587
:100EC0000AE54F7049F43091120134FD33C00093AC
:100ED0001201C9E6D5E032C0433059F0443091F0F8
:100EE0003091740534FD26C000937405C5E7D5E044
:100EF00025C03091AD0534FD1DC00093AD05CEEA8F
:100F0000D5E01CC03091800534FD14C000938005ED
:100F1000C1E8D5E013C0052710E000C000000BB900
:100F20001AC0052710E0221F1DC010E021C04AE5AD
:100F300002C032ED432FC4E1D0E032E01AB11C60B0
:100F40005B9A0BB11AB95CE020E865E320FF052746
:100F50000BB9279517951C3FF0F66695B8F7B1F7D2
:100F600020FF05270BB9279517951C3FD0F627952D
:100F7000179517FF052700001C3F0BB9B0F6299104
:100F80003A9519F7037F10919405110FC651D0407F
:100F90000BB911F010938C0512E01CBB08601AB15C
:100FA000137F402F437F54E05A95F1F70BB91AB9DC
:100FB0004BB95CCF82E00895CF930E942908C82FD7
:100FC000882329F060E082ED90E00E94FB198C2FCD
:100FD000CF91089582E00895AF92BF92CF92DF92B1
:100FE000FF920F931F93CF93DF93CDB7DEB75C01D2
:100FF000F62ECDB6DEB6462F50E08DB79EB7841BD9
:10100000950B0FB6F8949EBF0FBE8DBF0DB71EB7E0
:101010000F5F1F4F60E070E0C8010E94C52582E4A9
:10102000F8018083F5018081813421F46F2DC8019E
:101030000E940F220FB6F894DEBE0FBECDBEDF9128
:10104000CF911F910F91FF90DF90CF90BF90AF9005
:1010500008958091500181110BC00E948C180E944C
:10106000381A60E083E191E00E94E019109250018B
:1010700080E008958430B0F46730A0F4473090F4F5
:1010800091E3899FF001112487E0689FE00DF11D35
:101090001124E40FF11DEE0FFF1FE95CFE4F859157
:1010A0009491089581E090E008950E943A0808958F
:1010B000843088F461110FC0E82FF0E0EE0FFF1FBD
:1010C00081E04827E40FF11DEE0FFF1FE95DFE4FA1
:1010D00085919491089581E090E008950E945808C8
:1010E000089581E0089581E008950E9473080895AD
:1010F0000E94750808950E947308089508950E943B
:101100007E080895A6E0B0E0E8E8F8E00C947E25BB
:1011100049835A839E833091560189819A81311186
:1011200015C03E81332359F0222349F00E94950EC9
:10113000182F682F89819A810E94620E03C00E9435
:101140007C0E182F69817A81812F04C00E94950E30
:1011500069817A810E9476152696E3E00C949A259F
:10116000FC01262F408151816281738184819581A8
:101170000E9482080895CF93DF93EC0161E00E9402
:10118000B008BE010E947808DF91CF910895CF93F7
:10119000DF93EC0160E00E94B008BE010E947F086E
:1011A000DF91CF91089508950E94390D0E94D308D0
:1011B0002FEF84E39CE0215080409040E1F700C095
:1011C000000008950E94D4080E949C2008950E9467
:1011D000D4080E94B12008950F931F93CF93DF93FB
:1011E0008C0161E00E94B008EC01B8010E947B080C
:1011F000882309F45BC0B801CE010E94EA1D882350
:1012000009F454C0B801CE010E947E1B882309F462
:101210004DC0B801CE010E94501D882309F446C07C
:10122000F80185818823E9F1C3308CE7D80779F18B
:1012300058F4C130FCE7DF0761F1A0F4C115DC47C9
:1012400081F50E94E20832C0CB35FCE7DF0739F1B7
:10125000CC358CE7D80701F1CA35DC4711F50E947F
:10126000CF121FC08091DE01C82FC095C170C0FB96
:1012700080F98093DE01CC2329F081ED92E00E9479
:10128000DE0514C08FEB92E00E94DE0510C00E94C4
:10129000D7120E94E7080AC00E94C51202C00E942D
:1012A000D312C8010E947108C82F01C0C0E08C2F62
:1012B000DF91CF911F910F9108950E94CC1F0E9442
:1012C00098090E94341B08950E949C090E94D51F12
:1012D00008958295982F937344E0949F9001112470
:1012E0008C7C86958695282B822F8575880F2A7A87
:1012F0002695822B0895089581E008950895CF934F
:10130000DF93D82F0E947C09C82F882319F08D2FD6
:101310000E947E098C2FDF91CF9108950895CF937D
:10132000C82F0E947B098C2F0E947F09CF910895BE
:1013300080E00E948F0908950E942B1F0E948F0950
:101340000895CF930E942B1FC82F80915101C81779
:1013500089F1C09351010E945B2060935201709308
:10136000530180935401909355018091DE0182FFD7
:101370001EC080FF04C089EE92E00E94DE058091CD
:10138000DE0180FF0CC01F92CF9384EE92E09F930A
:101390008F930E9477060F900F900F900F9080917F
:1013A000DE0180FF04C082EE92E00E94DE058C2FF9
:1013B0000E948F09CF910895ADE0B0E0E2EEF9E030
:1013C0000C947F25488759876A877B878C879D8700
:1013D00091110E94FB11CE01019627E0FC011192B0
:1013E0002A95E9F726E0FE013896DC0101900D927E
:1013F0002A95E1F72D8121110AC029813A814B817B
:101400005C816D817E818F810E94451104C00E94A4
:10141000BB088111F2CF2D96E2E00C949B25FC01D4
:101420002481213021F4808191810E94C70E08958A
:10143000CF93882309F481C0C82F8238C1F40E9459
:101440002B1F81FD7AC069E3809100019091010119
:101450000E94BB1F0E9427122FEF87EE93E02150BE
:1014600080409040E1F700C0000069E333C083385A
:10147000C1F40E942B1F80FD60C063E580910001D4
:10148000909101010E94BB1F0E9427122FEF81EE55
:1014900094E0215080409040E1F700C0000063E5F7
:1014A00019C08438F1F40E942B1F82FD46C067E406
:1014B00080910001909101010E94BB1F0E942712A0
:1014C0002FEF81EE94E0215080409040E1F700C082
:1014D000000067E480910001909101010E94BE1F0D
:1014E0002AC08CEF8C0F813AD0F46C2F80910001D0
:1014F000909101010E94851F882349F06C2F8091F3
:101500000001909101010E94BE1F0E9427126C2FC2
:1015100080910001909101010E94BB1F0CC080E2EC
:101520008C0F883050F4C77081E001C0880FCA95D5
:10153000EAF70E94DE110E942712CF9108958823B6
:1015400009F44DC0682F823879F40E942B1F81FF67
:1015500046C069E380910001909101010E94BB1F88
:101560000E94271269E326C0833879F40E942B1F5A
:1015700080FF35C063E580910001909101010E94D8
:10158000BB1F0E94271263E515C0843879F40E94BE
:101590002B1F82FF24C067E480910001909101011C
:1015A0000E94BB1F0E94271267E404C08CEF860FC5
:1015B000813A38F480910001909101010E94BE1F90
:1015C0000CC080E2860F883050F4677081E001C063
:1015D000880F6A95EAF70E94E4110E942712089585
:1015E0001F93CF93DF93182FEB010E94180A2097C7
:1015F00041F08FE99FE00197F1F700C000002197CB
:10160000F6CF812F0E949F0ADF91CF911F910895FD
:10161000893319F06AE070E002C060E570E00E9472
:10162000F00A0895882321F00E94DE110E942712FB
:101630000895882321F00E94E4110E942712089542
:10164000A0E0B0E0E6E2FBE00C9479257C01D62F27
:10165000C72FFC011581068102950F700E94D411DD
:101660008823E9F01123D9F08C2F807F803451F04A
:1016700080E28D0F883098F0011104C08C2F807E9D
:10168000803269F08091500382FF09C082E00E949D
:1016900085120E94D41191E0D82ED92601C0D12CF8
:1016A000CC2EC2948FE0C8228C2D90E08C30910516
:1016B00008F076C1FC01EC5CFF4F0C9469258C2F7F
:1016C000807FCF70882311F0C295C07F112399F0DD
:1016D000CC2309F44CC180E28D0F883010F0D11179
:1016E00004C08C2F0E94DE1103C08C2F0E94EE11CB
:1016F0000E9427123CC18D2F0E949F0ACC2309F41F
:101700004FC180E28D0F883038F1DD2329F18C2F15
:101710000E94F41124C08C2F807FCF70803211F092
:10172000C295C07FDD2319F0D13099F13CC0809182
:10173000500382FD17C0112349F0CC2329F08C2FD0
:101740000E94DE110E94271280E012C180E00E94F8
:101750009F0ACC2309F424C18C2F0E94E4110E941B
:1017600027121EC1112349F0002309F1013009F0AD
:1017700017C18C2F0E94051213C1011111C18C2FAA
:101780000E94190B8C2F0E9411128C2F0E9458124C
:1017900007C1112321F0063008F002C108C005304E
:1017A00008F0FEC00AC0112331F00111E0C08C2FF7
:1017B0000E94120BF5C00111E0C08C2F0E94190B82
:1017C000EFC08C2F8370B1F51111EEC04D2F4295F3
:1017D00046954770440F440F8D2F8F7090E09C0109
:1017E000042E02C0220F331F0A94E2F7D4FF0AC06E
:1017F0008FE090E002C0880F991F4A95E2F780952C
:10180000909502C080E090E0C695C695C370822B8B
:10181000932BC23049F058F4C13019F00E94950D55
:10182000C3C00E948C0DC0C00E949E0DBDC00E940E
:10183000890DBAC0112319F08C2F817001C08695D3
:10184000882309F4B1C04D2F429546954770440F47
:10185000440F8D2F8F7090E09C01042E02C0220F48
:10186000331F0A94E2F7D4FF0AC08FE090E002C071
:10187000880F991F4A95E2F78095909502C080E005
:1018800090E0C695C695C370822B932BC23049F069
:1018900058F4C13019F00E94FD0D86C00E94F40D6D
:1018A00083C00E94060E80C00E94AA0D7DC0CF702A
:1018B000112339F08C2F0E94C20D8D2F0E94120B24
:1018C00073C08D2F0E94190B8C2F0E94D20D6CC0FB
:1018D000D23F21F128F4D03F41F0D13FC1F043C0C5
:1018E000D33F19F1D43F79F03EC0112341F00530C8
:1018F00008F056C08C2F8F710E94E40D51C0063045
:1019000008F04EC0F7CF8091500382FD18C011231C
:1019100039F08C2F8F710E94C20D42C01123C9F380
:101920008C2F8F710E94D20D3BC0112329F08C2F78
:101930008F710E94B60D34C00E94B10D31C01123C9
:1019400049F0CF718C2F0E94C20D63E08C2F0E9452
:10195000671226C081E00E948512023008F182E001
:101960000E9485121DC0112331F0002391F28D2FAA
:101970000E94180A15C0002399F2D93341F4FFEFF1
:1019800027EE83E0F15020408040E1F704C0EFE310
:10199000FCE93197F1F700C000008D2F0E949F0AEB
:1019A00088EF8C0D843020F40E942B1F0E948F0939
:1019B000DD2089F00E94D01180FD0DC0F701158255
:1019C0000E94CA110E94C20DC7010E94080D0E9408
:1019D000CA110E94D20DCDB7DEB7E8E00C94952570
:1019E0000F931F93CF93DF93EC01688179818D81F1
:1019F0000E94D20E8C010E940F0E0E947A0DB80137
:101A0000CE010E94200BDF91CF911F910F9108957D
:101A1000CF93DF93FC0124812223D1F0EC010E94BB
:101A2000EC0881110FC00E94D411882389F08D81A8
:101A3000882371F08091500382FF0AC082E00E94E7
:101A4000851206C0CE010E94F00CCE010E94C7088C
:101A5000DF91CF9108950E94FB110E9427120895F3
:101A600080910001909101010E94C11F0E942B0DE5
:101A700008950E94EB110E94300D089592959F7079
:101A8000963079F010F4925001C09A50923068F478
:101A9000803F69F018F4883E40F409C0843F29F47F
:101AA00006C0883E20F0813F11F080E0089581E07B
:101AB0000895FC012481222339F0808191810E94C4
:101AC000C70E0E943E0D089580E00895A6E0B0E0A4
:101AD000ECE6FDE00C947F252696E2E00C949B2535
:101AE000A7E0B0E0E6E7FDE00C947F252796E2E072
:101AF0000C949B25089508950E947B0D08950E94E3
:101B00007C0D08950E947F0D90937A018093790156
:101B100008950E94820D08952091790130917A01F3
:101B2000822B932B0E94820D089520917901309190
:101B30007A01822393230E94820D089520917901D6
:101B400030917A01822793270E94820D08950E9486
:101B50007B0D08950E94A70D9093780180937701E3
:101B6000089580E090E00E94AA0D089521E030E001
:101B7000A90102C0440F551F8A95E2F7CA010E94CD
:101B8000AA0D089521E030E002C0220F331F8A958C
:101B9000E2F78091770190917801822B932B0E943C
:101BA000AA0D089521E030E002C0220F331F8A956C
:101BB000E2F720953095809177019091780182230A
:101BC00093230E94AA0D089521E030E002C0220F65
:101BD000331F8A95E2F780917701909178018227EF
:101BE00093270E94AA0D08952091770130917801E2
:101BF000822B932B0E94AA0D08952091770130919A
:101C00007801822393230E94AA0D089520917701E1
:101C100030917801822793270E94AA0D0895089594
:101C2000962F9770A1E001C0AA0F9A95EAF793E06A
:101C3000769567959A95E1F7660F771F660F771F80
:101C4000FA01E60FF71F40E050E0682F70E0908146
:101C50009B01042E02C0369527950A94E2F7217065
:101C6000219529272A23292721934F5F5F4F44304D
:101C7000510569F70895FB01782F777023E0969559
:101C800087952A95E1F7880F991F880F991FE80F0C
:101C9000F91F40E050E080E0219130E0072E02C0C3
:101CA000369527950A94E2F721703327042E01C058
:101CB000220F0A94EAF7822B4F5F5F4F44305105A1
:101CC00059F70895282F862F973060F4273050F465
:101CD000622F70E027E0929F600D711D11244BE58B
:101CE00051E007C09C5F923030F4622F70E047E50E
:101CF00051E00E94100E0895292F973058F4873034
:101D000048F490E06BE571E037E0239F800D911D72
:101D1000112406C02C5F223030F467E571E090E0BA
:101D20000E943B0E089580E00895A0E0B0E0EBE94A
:101D3000FEE00C9478257C010091770110917801E8
:101D40008091790190917A01082B192BCFE0D0E096
:101D5000CC24C394D12CC6010C2E02C0880F991F2D
:101D60000A94E2F780239123892B21F4219798F795
:101D7000B12C07C0BC2EB7018C2F0E949015019783
:101D8000A9F38B2DCDB7DEB7E9E00C949425CF9362
:101D9000DF93EC010E94950EBE010E949015DF9129
:101DA000CF9108951F93CF93DF93EB01909156014C
:101DB000992321F0CB010E94C70E13C0882349F05C
:101DC000CB010E94950E182F682FCE010E94620E43
:101DD00004C0CB010E947C0E182FBE01812F0E94EF
:101DE0009015DF91CF911F9108951F93CF93DF93AB
:101DF000C0917B0117E080917C01C817A1F0D0E071
:101E00001C9FF0011D9FF00D1124E358FE4F20810F
:101E10003181428153816481758186810E94700D78
:101E20002196C770E8CFDF91CF911F91089520913F
:101E3000B5013091B6014091B7015091B801609160
:101E4000B9017091BA018091BB010E94700D089593
:101E5000CF93DF938091BB0182958F7009F04EC0C4
:101E60008091BA01882309F449C080917B01409197
:101E70007C015091B6016091B501C091B701D0913C
:101E8000B80177E08417D1F190E0789FF001799F55
:101E9000F00D1124DF01A358BE4F14962C91149716
:101EA000222349F111962C911197251324C02C91CE
:101EB000261321C015962C91159721111CC012963E
:101EC0002D913C9113972C1B3D0B283C310598F428
:101ED0008091BB018F7080618093BB01ED57FE4FF5
:101EE00080818F708061808385EB91E00E94080D76
:101EF0000E94F50E03C001968770C4CFDF91CF9189
:101F0000089520917B0190917C0157E02917A9F059
:101F100030E0529FF001539FF00D1124E358FE4F23
:101F20007181761306C07081781303C075817413B4
:101F300006C02F5F3F4F2770E9CF80E0089581E012
:101F40000895A4E1B0E0E7EAFFE00C9475258C0168
:101F500086E0F801DE011F9601900D928A95E1F767
:101F6000F8018481E58095EBA92E91E0B92E90913E
:101F7000B901911118C0882309F480C1EE20D9F16C
:101F8000C8010E94590DF82E8823A9F187E0F801B5
:101F9000D50101900D928A95E1F7C5010E940F0AC3
:101FA0000E94280F98C0F801C080D1808280938061
:101FB000F090BA012091B7013091B801A401421B01
:101FC000530BFF2009F406C1483C510508F0AFC08F
:101FD000882309F455C18091BB01282F207F90915F
:101FE000B601222361F09D1509F462C0C8010E9468
:101FF000590D811173C0C8010E94080D3FC19D1188
:1020000015C09091B5019C1111C0E1100FC08F70E7
:1020100080618093BB010E94170F85EB91E00E94C5
:10202000080D8091BB01F801868326C1E1103AC0FA
:1020300040E06D2D8C2D0E94810F40E06D2D8C2D88
:102040000E94810FE82E811117C1CF86D88A8F8513
:1020500098890E94C70E292F22952F70243020F4D2
:102060009F70223028F009C02A50223080F014C01E
:10207000992349F0811107C013C0992321F0F80179
:102080009681907F69F0805E883030F409C0803F8F
:1020900038F0815F833020F0C8010E94080DEF2CDA
:1020A000FE2CEEC08091BB0181608093BB01E4C037
:1020B0009091B5019C119ACFE11098CFF8018683D9
:1020C000C8010E94080D87E0F801A5EBB1E001907E
:1020D0000D928A95E1F70E94170FD2C0EE2009F405
:1020E0008ACF2091BB01822F82958F7090E002975A
:1020F0008CF08091B5019091B601998788879B8675
:102100008A868091B9018C871D862E87CE0108961C
:102110000E94080D87E0F801A5EBB1E001900D9257
:102120008A95E1F70E94280F0E94170FA7C090918F
:10213000BB01292F207FA1F4682D9A8A898AA601E4
:102140007A899E2D0E94660D85EB91E00E94080D14
:1021500087E0F50111928A95E9F70E94170F8CC06C
:10216000882309F48DC08091B6018D1111C0809132
:10217000B5018C110DC0E1100BC0F8019683C801A8
:102180000E94080D87E0F50111928A95E9F778C061
:10219000C8010E94590D882309F42DCFEE2009F4BF
:1021A0002ACF2091BB01822F82958F7090E00297F9
:1021B0000CF4B0CF8091B5019091B6019A838983D8
:1021C0009C828B828091B9018D831E822F83CE01E8
:1021D00001969ECF483C510508F040C0882309F481
:1021E0004DC0FE2CEE2009F406CF8091B6018D1172
:1021F00027C08091B5018C1123C09091BB0190FD47
:1022000016C0892F82958F70282F30E02115310557
:1022100071F0F80196832F30310509F451CF8F5FAB
:10222000982F9295907F86818F70892B48CF87E079
:10223000F801A5EBB1E001900D928A95E1F720C07D
:10224000C8010E94590D811165CF8091BB01816049
:102250008093BB01C8010E94080D12C0682D9A8AA4
:10226000898AA6017A899E2D0E94660D87E0F50174
:1022700011928A95E9F72FCFF12C02C0FF24F39435
:102280008F2D6496ECE00C949125AEE0B0E0EBE489
:10229000F1E10C947E25288739874A875B876C8714
:1022A0007D878E87CE0108960E94A10F882361F05A
:1022B0006C856623A9F1288539854A855B857D85EE
:1022C0008E850E94700D2CC087E0FE013896DE01DD
:1022D000119601900D928A95E1F76C85662301F1C4
:1022E00020917C0130E0C9010196877099274091C7
:1022F0007B0150E084179507E1F16D8397E0929F91
:10230000D001939FB00D1124A358BE4FFE0131960A
:1023100001900D929A95E1F780937C010E94F50E51
:1023200017E080917B0190917C01891779F1189FCA
:10233000C001112483589E4F0E94A10F882331F1C0
:10234000E0917B011E9FF0011124E358FE4F208194
:102350003181428153816481758186810E94700D33
:1023600080917B0190E001968770992780937B0193
:10237000D8CF0E94390D10927C0110927B01E5EBC1
:10238000F1E087E0DF011D928A95E9F72E96E3E000
:102390000C949A258091BC01869586958695089522
:1023A0008091BC01877008959091BC01977081E085
:1023B00009F480E008958091C80108959091C801C2
:1023C000892B8093C801089580959091C801892335
:1023D0008093C80108951092C80108959091C70193
:1023E000892B8093C701089580959091C701892317
:1023F0008093C70108951092C701089508950E941F
:10240000FE1108950E94FF1108959091BE01292F99
:102410002823821729F0982B9093BE010E94021264
:1024200008959091BE01292F282331F080958923AA
:102430008093BE010E94021208958091BE018823FC
:1024400029F01092BE0180E00E9402120895E091EE
:102450000001F09101018091C8018083E0910001A9
:10246000F091010190818091C701892B8083809137
:10247000BE01882381F0E0910001F091010190817B
:10248000892B808380910001909101010E94791F26
:1024900081110E941D1280910001909101010E9402
:1024A000381F08950E94FE1108950E945212089547
:1024B0009091BD01292F282331F0809589238093A5
:1024C000BD010E94551208950E94FE110895909139
:1024D000500392FF11C098E0899F90011124262B90
:1024E0002093BC010E94C20D8091BC018695869507
:1024F00086950E94641208950E94C20D089510925C
:10250000BC0180E00E94641208959091BC01809506
:1025100089238093BC01282F277069F4981759F0FC
:102520009091500392FF07C08695869586950E94EC
:10253000D20D0E947F120895CF939091500392FB89
:10254000222720F92817F9F0C82F892FC0FB82F91C
:102550008093500380914F03909150030E94F81292
:1025600082E00E9485128091DE0180FF0CC01F92E4
:10257000CF9384EF92E09F938F930E9477060F9002
:102580000F900F900F90CF9108958091500382FB90
:10259000882780F991E089270E949C12089581E0A4
:1025A0000E949C12089580E00E949C1208956FEF93
:1025B0007FEF80E090E00E940826089580E090E0A0
:1025C0000E94D42521E0863E9E4F09F020E0822F14
:1025D000089582E090E00E94CC25089583E090E089
:1025E0000E94CC25089584E090E00E94D4250895AF
:1025F000BC0184E090E00E9408260895AB01BC0174
:102600008FE090E00E94FC250895AB01BC0183E1BE
:1026100090E00E94FC25089560E070E0CB010E94EC
:102620000513089560E070E0CB010E94FE120E9445
:102630000C130895A8E0B0E0E0E2F3E10C947F25EC
:1026400066EE7EEF80E090E00E94082660E082E087
:1026500090E00E94EA2560E083E090E00E94EA2595
:1026600010927A011092790160E074E184E090E0C8
:102670000E94082660E086E090E00E94EA256FEF65
:1026800087E090E00E94EA2540E050E0BA0188E04F
:1026900090E00E94FC2560E084E290E00E94EA2540
:1026A00060E087E190E00E94EA2560E08CE090E045
:1026B0000E94EA2560E08DE090E00E94EA25198200
:1026C0001A821B821C821D821E821F82188648E08D
:1026D00050E068E170E0CE0101960E94DA2540E00A
:1026E00050E0BA0180E290E00E94FC250E941213A3
:1026F0002896E2E00C949B250E941A130895682FF7
:102700008EE090E00E94EA250895A6E0B0E0EBE8B4
:10271000F3E10C947D250E944F208C018091C9012A
:102720009091CA010817190781F019821A820E9434
:102730004F20682F49815A81792F80E090E00E94D4
:10274000DC091093CA010093C9012696E4E00C94B9
:1027500099250E945B206093DA017093DB018093DE
:10276000DC019093DD016093D6017093D7018093D3
:10277000D8019093D90108950E945B206093DA01FB
:102780007093DB018093DC019093DD016093D201B3
:102790007093D3018093D4019093D501089581E083
:1027A000089581E008950E94D113089508950E942C
:1027B000D61308950E94D61308950E94DA1308953F
:1027C0000E94D61308950E94E01308950E94D61324
:1027D000089585E492E20E94211F0E94E6130E9460
:1027E000E31308950E94D7130E94D61308950E9400
:1027F00091160E948E0908950E9446200E946F1C27
:102800000E94A0170E94F71380E00E94A1180E9466
:10281000DD130895A6E0B0E0E0E1F4E10C94762544
:102820000E94CF13811104C00E94851310E054C090
:102830000E94B6178BECE82E81E0F82E670100E0CD
:10284000F60111916F01802F0E94AF1681270F5F53
:10285000073019F08823A1F302C0882329F380915F
:10286000DE0181FD0E94B5160E94D313A82E10E050
:1028700099249394812F0E94AF16B82EF701C0803F
:10288000C82609F100E0DD24D3948C2D8D21A9F018
:10289000AA2099F009831A830E944F209C838B837E
:1028A0009D8291E08B2D8D2109F490E049815A8120
:1028B0006B817C818D810E94DC090F5FDD0C07300C
:1028C00021F7F701B0821F5FFFEFEF1AFF0A173001
:1028D00089F60E94A91311E00E948C1C882319F02C
:1028E0000E94BC1311E00E94521B11110E940D1A8C
:1028F0000E94A1092696EBE00C9492251F93CF939A
:10290000DF930E949515EC01C11582E5D807C8F543
:10291000C11590E5D90708F0BBC0C83ED105C0F489
:10292000C03ED10508F0DDC0C53AD10550F4C43031
:10293000D10508F0D6C0219709F0D0C081E090E021
:10294000D1C0CD3CD10508F4C9C0CE019065CAC044
:10295000C11580E4D80708F05AC0C11590E2D90724
:1029600008F0AFC0C11581E0D80708F4B7C08D2FBB
:102970000E943116182FCE0199270E9495151F71BC
:10298000ABC0C03892E5D90720F5C03682E5D8073C
:1029900008F061C0C03492E5D90708F04AC0C032DF
:1029A00082E5D807F0F54C2F4695469590E2499F71
:1029B000A0011124C37021E030E0C90102C0880FDA
:1029C000991FCA95E2F7EA01C82BD92BCE019D6861
:1029D00089C0C03C92E5D90768F48C2F8F71C03A4A
:1029E000D24508F04CC090E0D82FCC27CE01846FA0
:1029F000906A78C0C03E82E5D80708F06FC0CF71FA
:102A0000DD27DC2FCC27CE01806F906A6BC0CE0112
:102A100099270E949515CC27DF70D06A8C2B9D2BAF
:102A200061C0CF71D0E0DC2FCC27CE01816F906ADE
:102A300059C08C2F8F718695869590E2899F900161
:102A40001124C37081E090E002C0880F991FCA95DD
:102A5000E2F79C6811C08C2F8F718695869590E265
:102A6000899F90011124C37081E090E002C0880F1B
:102A7000991FCA95E2F79A68822B932B33C00E9464
:102A800031168F7190E0D82FCC27CE0190622AC0EA
:102A90008C2F8F710E94311695E0D695C7959A9527
:102AA000E1F7CF70D0E0DC2FCC27282F30E084FF77
:102AB00005C084E0220F331F8A95E1F7D069CE016B
:102AC000DBCF8D2F8F710E943116182FCE019927E1
:102AD0000E9495151F719062912B04C080E090E0D8
:102AE00001C0CE01DF91CF911F910895462F672F2E
:102AF000773028F4473088F40E94550808957D3FC8
:102B000021F441110AC041E004C07C3F31F441117D
:102B100004C060E00E946E08089580E090E008958F
:102B20000E9476150E947E1408958238910569F1FD
:102B3000B0F48133910509F475C048F489329105E8
:102B400009F467C08A32910509F471C0089585338C
:102B5000910509F459C089339105B9F00895833E70
:102B6000910589F138F4803E9105D1F0823E9105BE
:102B700029F10895863E9105C9F1873E9105D9F165
:102B8000843E910509F06CC027C020914F0320FDC1
:102B900057C021FD55C02091500323FD5BC008950F
:102BA00080914F0380FD48C08091500380FF48C052
:102BB00080914F0384FD46C083EE51C080914F0346
:102BC00082FF3CC0F5CF80914F0382FD37C08091DA
:102BD000500380FD35C0ECCF8091500381FF36C09B
:102BE00080914F0384FD2EC087EE39C080914F0342
:102BF00083FF2AC0F5CF80914F0383FD25C08091CC
:102C0000500381FD23C0ECCF80914F0385FD22C08E
:102C10001FC080914F0385FD1BC08091500383FF2F
:102C200019C00AC080914F0386FD16C017C080915D
:102C30004F0386FD13C010C089E311C082EE0FC0A0
:102C400080EE0DC080E00BC086EE09C084EE07C0A8
:102C500085E305C089E203C08AE201C081E390E018
:102C6000089590914F0392FF0DC0282F28712830AE
:102C700019F4877F846006C0282F2471243011F452
:102C80008B7F886093FF0DC0282F2871283119F49D
:102C9000877E846106C0282F2471243111F48B7E35
:102CA00088612091500320FF0DC0382F38713830D3
:102CB00019F4877F816006C0382F3171313011F4EB
:102CC0008E7F886021FF0DC0282F2871283119F4CC
:102CD000877E816106C0282F2171213111F48E7EFB
:102CE000886194FD877E08950E94D71208950E94FE
:102CF000B6172FEF86E791E0215080409040E1F732
:102D000000C000000E94B61780E00E94AF1680FF4E
:102D100004C00E9474160E949C2008950E94771699
:102D200008950E94DE12811102C00E947C130E944D
:102D3000E9128093DE010E94F31290935003809376
:102D40004F030E948E160E94EE1290E00E94890DA1
:102D500080917701909178010E94A70D0895E82F46
:102D6000F0E0E85AFC4F80810895A0E0B0E0EBEB82
:102D7000F6E10C94792588E193E00E94DE0588E570
:102D8000E82E83E0F82EC0E0D0E093E1C92E93E076
:102D9000D92E0BE013E0DF93CF93DF92CF920E9406
:102DA000770680E193E00E94DE05F70181917F01C3
:102DB0000E9469091F928F931F930F930E947706B9
:102DC00089E093E00E94DE0521968DB79EB70896B4
:102DD0000FB6F8949EBF0FBE8DBFC730D105D9F690
:102DE000CDB7DEB7E8E00C94952580EA8A95F1F737
:102DF000089500C008950E94F516089508950E9450
:102E0000FE1608950E94FF1608950E94FE1608956A
:102E10000E9405170895F894E82FE295EF70F0E00E
:102E200031A1282F2F7081E090E001C0880F2A95F2
:102E3000EAF7982F9095932391A392A1892B82A3CF
:102E4000789408950F931F93CF93DF93CEE2D1E050
:102E500089918F3F11F00E940B1781E0C533D8078D
:102E6000B9F7C7E2D1E00EE211E089918F3F11F08E
:102E70000E940B170C171D07C1F7DF91CF911F910F
:102E80000F910895A0E0B0E0E8E4F7E10C94792513
:102E90008C01C62FD0E0CE01825D9E4F7C01FC01EB
:102EA00090819F3F09F447C0D62EF894E92FE29510
:102EB000EF70F0E081A19F7021E030E001C0220FAF
:102EC0009A95EAF7822B81A382A12095282322A339
:102ED00078940E94F916E7E2F1E04EE251E031E029
:102EE000C12C21912F3F89F0A22FA295AF70B0E0A5
:102EF00090968C9190E02F7002C0959587952A95B9
:102F0000E2F780FD02C0832F01C080E0C82A330FA2
:102F10004E175F0731F7F70180818F3F11F00E9454
:102F20000B1761E0C11001C060E08D2D0E94FB16FF
:102F3000C00FD11FC882CDB7DEB7E8E00C9495254D
:102F40000E94221787E0E8E5F3E0DF01982F1D9249
:102F50009A95E9F7E1E5F3E0DF011D928A95E9F73B
:102F600087E00E94F1170E9408170895A7E0B0E0DB
:102F7000ECEBF7E10C947C258E010F5F1F4F87E08F
:102F8000F80111928A95E9F7F12C6F2DC8010E9482
:102F90004217F394F7E0FF12F8CF47E050E0B80192
:102FA00081E593E00E94AF2521E0009709F420E03D
:102FB000892B41F087E0F801A1E5B3E001900D9283
:102FC0008A95E1F747E068E573E081E593E00E94C8
:102FD000F217182F0E940217812F2796E5E00C9414
:102FE00098250895EF92FF920F931F93CF93DF934D
:102FF0007C018B01C42F222349F081E08093E10101
:103000000E944F209093E0018093DF018091E101C5
:10301000811102C080E01AC08091DF019091E0012F
:103020000E9467200597B0F3D0E0AE01B701C80158
:103030000E94AF25892B39F0AE01B701C8010E946B
:10304000BC2581E001C080E01092E101CDB7DEB780
:10305000E6E00C9497250E94CC200E94FC130E946D
:10306000DD2008950E94EC1F0E94BC200E94E913FD
:103070000E942B180E94EB200E94F213FBCFAB01A1
:1030800024E630E0BC0188E70E94D51E21E0892BB0
:1030900009F020E0822F0895EF92FF920F931F9383
:1030A000CF93DF93EC017B0164E670E088E70E9438
:1030B000331E8C01EC0EFD1ECE15DF0541F40E947F
:1030C0001D1F81E00115110569F080E00BC017FD9F
:1030D000F6CFFE01849164E670E00E94A61E8C018A
:1030E0002196EACFCDB7DEB7E6E00C9497250F9393
:1030F0001F939B0104E610E0AC0160E488E70E94A6
:10310000F61E21E0892B09F020E0822F1F910F91FC
:1031100008950E942D1E0895EFE5F3E080E092E00F
:10312000DF019C011D9221503040E1F7F0936405CE
:10313000E09363058FEF9FEF90930E0280930D0253
:103140000895CF930E94DA070E94EA07809309024C
:1031500080FD02C080E801C080E2809308020E94E6
:1031600089186BE070E083E394E00E944C18C82F4C
:10317000811103C087E194E00FC08091090265E0EE
:1031800070E081FD0CC082E194E00E944C18C82FD1
:1031900081110FC08CEE93E00E94DE052FC087EEF8
:1031A00093E00E944C18C82F811103C08FEC93E06C
:1031B000F3CF6DE070E082EC93E00E944C18C82FD2
:1031C000811103C08BEA93E0E7CF0E945B20DC0112
:1031D000CB01805A9541AF4FBF4F80935F059093CD
:1031E0006005A0936105B09362050E948C1881E090
:1031F00080930C0280930B0210920A028C2FCF91C5
:1032000008952091080236E0839FC0011124629F37
:10321000800D911D1124811522E0920714F080E0A9
:1032200090E0815A9C4F90936405809363050895C4
:10323000209163053091640529553340409108027F
:10324000642F70E0C9010E944125481B463010F4EC
:10325000240F311D211582E0380710F020E030E006
:10326000215A3C4F309364052093630508951F93C2
:10327000CF93DF93162F8A3011F481E003C08D3095
:1032800021F480E00E94AF1966C0C0916305D0911F
:10329000640596E0FE01A2EEB1E001900D929A95D0
:1032A000E1F7803E30F086E0FE0111928A95E9F761
:1032B0000BC0F6E08F9FB0011124625C7B4F46E0AB
:1032C00050E0CE010E94A625111135C0C0916305C2
:1032D000D091640546E050E0BE0182EE91E00E948C
:1032E000AF25892BB1F1CF55D3409E0185E03695AE
:1032F00027958A95E1F781E090E0AC0102C0440F88
:10330000551F2A95E2F720910D0230910E02242BD1
:10331000352B259645E0D695C7954A95E1F702C02D
:10332000880F991FCA95E2F7822B932B90930E0278
:1033300080930D020EC0E0916305F09164059F013A
:103340002A5F3F4F2E173F0709F2808180958193B6
:10335000F9CF0E941819DF91CF911F910895CF9353
:10336000E82F20916305309164052F55334040913B
:103370000802642F70E0C9010E944125481B842F78
:10338000EE2359F066E00E943525C82FC150B0F0F9
:1033900060E080E20E943719F9CFA901480F511D62
:1033A0004115524018F080E020E030E0280F311D38
:1033B000215A3C4F3093640520936305CF910895C3
:1033C000FF920F931F93CF93DF93EC01F62EFC0136
:1033D00001900020E9F78F0101501109C017D107B2
:1033E00028F46F2D89910E943719F8CFCDB7DEB739
:1033F000E5E00C9498251F93CF93DF93EC01162FF3
:10340000FE018491882329F0612F0E9437192196AB
:10341000F7CFDF91CF911F91089580910C028823FF
:1034200021F10E945B20DC01CB01805A9541AF4F16
:10343000BF4F80935F0590936005A0936105B093A3
:10344000620580910B02811110C062E070E082E59C
:1034500093E00E944C18811105C08EE393E00E9416
:10346000DE0503C081E080930B0280910B0208957A
:10347000A0E0B0E0EEE3FAE10C94712580910D023A
:1034800090910E02892B09F4EAC080910C028823E6
:1034900009F4E5C080910A028111E1C00E940D1A71
:1034A00020910D0230910E022115310509F4D7C08B
:1034B00090E041E050E0C92FD0E08A01092E02C01F
:1034C000000F111F0A94E2F7B80162237323672BE0
:1034D00011F49F5FF0CF809109029E01F5E0220F69
:1034E000331FFA95E1F780FF13C0E5E03695279585
:1034F000EA95E1F7220F220F220F20930401109288
:103500000701295F2093050183E08093080111C022
:10351000220F232F221F330B31959295990F90760E
:103520009093040120930701915E909305012093ED
:10353000080167E070E082E091E00E943F18882374
:1035400009F483C08091090280FF64C080E2E8EE44
:10355000F1E0DF011D928A95E9F76E0155E0CC0C90
:10356000DD1C5A95E1F7A9E3B1E065E3462E61E081
:10357000562E8DE391E0772473942D91E2013991D9
:103580002E01B601630F711D615A7C4F30E0285146
:103590003E4FF90147E0A42EAF01421B530B872C8D
:1035A00001C0880C4A95EAF77B01912CE701B9909C
:1035B0007E01B8204A2D49194770642E042E000C54
:1035C000550BDB2D01C0DD0F6A94EAF76D2E519586
:1035D000419551094770552701C0B6944A95EAF7BD
:1035E000BD2A4081B42AB082939448E09412DECF81
:1035F000AA943196CFEFAC12CFCF8A179B0709F070
:10360000BCCF60E270E088EE91E00E9477188111F3
:103610000FC021C0CE0125E0880F991F2A95E1F740
:1036200060E270E0815A9C4F0E947718882381F0F5
:103630000095109580910D0290910E020823192398
:1036400010930E0200930D020AC088E893E005C0B3
:103650008FE693E002C084E593E00E94DE05CDB7DB
:10366000DEB7E0E10C948D2580910C0290910B0265
:103670008823A9F0992389F062E070E08CE393E05D
:103680000E944C18811107C087E293E00E94DE057A
:1036900080910B02089510920B0290910B0281E031
:1036A000892708950F931F9380910C02882319F1A5
:1036B00060E080E00E9401190E94DC070E94381A35
:1036C00080910B028823B9F00E945B2000915F0576
:1036D000109160052091610530916205DC01CB01FC
:1036E000801B910BA20BB30B8F3F9F4FAF4FBF4778
:1036F00010F40E94341B1F910F910895CF93DF9314
:10370000FC01DB0115968C91882309F4DDC09F0133
:1037100030572332310508F0D8C0EF010E94F31270
:103720009093500380934F03FE01E150F047E23243
:10373000F10520F4E05CFF4F0C94692580914F0364
:103740008160AAC0809150038860B2C080914F030D
:103750008260A2C080914F0320C080914F03886097
:103760009BC0809150031EC0809150038260A0C016
:1037700080914F03806190C080914F0380628CC024
:1037800080914F03806488C00E94390D80914F035F
:10379000806882C080914F03886084607DC0809182
:1037A00050038260816084C080914F038E7F74C01B
:1037B00080915003877F7CC080914F038D7F6CC0C8
:1037C00080914F0320C080914F03877F65C0809117
:1037D00050031EC0809150038D7F6AC080914F03BB
:1037E0008F7E5AC080914F038F7D56C080914F03CA
:1037F0008F7B52C00E94390D80914F038F774CC050
:1038000080914F03877F8B7F47C0809150038D7FCE
:103810008E7F4EC080914F0382FB222720F991E0DA
:10382000922790FB82F990FB83F936C08091500378
:10383000982F909591708E7F892B90FB81F938C0DD
:1038400080914F0386FB222720F991E0922790FB7D
:1038500086F922C00E94390D80914F0387FB2227F1
:1038600020F991E0922790FB87F916C081E001C012
:1038700080E00E947F131EC080914F0384FB2227AB
:1038800020F991E0922790FB84F906C080914F03C4
:10389000982F909590FB80F980934F030BC08091F7
:1038A000500383FB222720F991E0922790FB83F9B4
:1038B0008093500380914F03909150030E94F8121F
:1038C0000E94390D80E001C081E0DF91CF91089521
:1038D0008FE891E00197F1F700C00000089581E0C2
:1038E0008093100224982C9A25982D9A0E94681C87
:1038F00030911002E2E1F2E090E0931761F083B1C1
:10390000829581701D9902C020E001C022E0822BC7
:1039100081939F5FF2CF0895A8E1B0E0E2E9FCE176
:103920000C94722510E000E082E0982E94E0A92E1D
:10393000B12C2DEF822E772473943CEF632E43E05D
:10394000542E80911002181708F0A5C0E12EF12C1A
:10395000E3B1E295E1701D9902C080E001C082E010
:103960008E2BD701AE5EBD4FEC912E2F237030E031
:10397000482F082E000C550B2417350709F489C071
:10398000EE0FEE0FE82BEC93EF70F0E0E35CFE4FF0
:10399000C7018F5E9D4F6C019081F6018081890F78
:1039A00080838430A4F1F701E15FFD4F80818F5F58
:1039B00080830E944F201D876E86682F8F87988B8B
:1039C000598A7A8A412F5CEF792F83E091E00E9437
:1039D000DC098FE39CE90197F1F700C000000E9429
:1039E0004F201B8B6C8A682F8D8B9E8B5F8A188E65
:1039F000412F5CEF792F83E090E00E94DC09EFE338
:103A0000FCE93197F1F700C0000021E001C020E09F
:103A1000F60180818D3F9CF5F701E15FFD4F8081CC
:103A2000815080830E944F2019838A82682F8B8364
:103A30009C839D827E82412F5DEF792F82E091E011
:103A40000E94DC098FE39CE90197F1F700C00000B8
:103A50000E944F201F838886682F89879A879B86BC
:103A60001C86412F5DEF792F82E090E00E94DC09F7
:103A7000EFE3FCE93197F1F700C0000021E0F60127
:103A80008081082E000C990BB5010E94552580837A
:103A9000022B1F5F56CF802F6896EFE00C948E2587
:103AA000CF93DF9386319C4741F5EB010E94DB11F8
:103AB000982F8D812091000130910101882379F0A8
:103AC0009A7A81E009F480E080931302911102C098
:103AD00069E201C065E3C9010E94BB1F0AC0809171
:103AE0001302811102C069E201C065E3C9010E94AD
:103AF000BE1F0E94271280E001C081E0DF91CF91BC
:103B000008950F931F93CF93DF93C42FD22FFC01FF
:103B100085818823B1F0409316020E944F20909334
:103B200015028093140280E28C0F883008F04DC09B
:103B3000C77081E001C0880FCA95EAF70E94120B96
:103B400044C080911602481330C0809114029091B5
:103B500015020E946720883C910538F510E21D0F80
:103B6000CD17B9F080E28C0F883040F4C77081E047
:103B700001C0880FCA95EAF70E94190B183010F59A
:103B800081E09D2F977001C0880F9A95EAF70E94F7
:103B9000120B802F0E94080B1830B8F4D77081E008
:103BA00001C0880FDA95EAF70AC080E28C0F8830EE
:103BB00060F4C77081E001C0880FCA95EAF70E94DF
:103BC000190B03C0802F0E94080BDF91CF911F912A
:103BD0000F9108950F93FC01E851FC47E730F10580
:103BE00090F5CB01EE59FF4F0C94692506E221EECA
:103BF00041EE6AE17CE723C007E225EE45EE6BE18A
:103C00007CE71DC006E221EE40EE68E17CE717C0CC
:103C100007E225EE44EE69E17CE711C006E221EE01
:103C200042EE6CE17CE70BC007E225EE46EE6DE16B
:103C30007CE705C008E221E045EE6EE17CE70E94EA
:103C4000811D80E008C0FB018581882319F0109256
:103C5000160201C081E00F9108951092B9008CE026
:103C60008093B8000895A0E0B0E0E9E3FEE10C9491
:103C70007625B82EEB010E944F206C01C431D1058E
:103C800058F0CF3F8FEFD80759F0CE0164E170E0D4
:103C90000E9441257B0107C0EE24E394F12C03C070
:103CA00025E0E22EF12C84E8A82E94EA992E1092B9
:103CB000BC009092BC000E944F208C018091BC00FF
:103CC00087FD07C0C8010E946720E816F906B0F713
:103CD00029C08091B900887F883041F08091B90077
:103CE000887F803119F00FEF1FEF1EC0B092BB002C
:103CF000A092BC000E944F208C018091BC0087FDE7
:103D000007C0C8010E946720E816F906B0F70AC08C
:103D10008091B900887F883111F0803421F700E06C
:103D200010E00EC00EEF1FEFCF3F8FEFD80709F462
:103D3000BECFC6010E946720C817D90708F0B7CFC9
:103D4000C801CDB7DEB7EBE00C9492250F931F931B
:103D5000CF93DF93EB018093BB0084E88093BC009A
:103D60000E944F208C018091BC0087FD0DC0CF3F89
:103D70008FEFD807C1F3C8010E946720C817D90781
:103D800090F78EEF9FEF0CC02091B900287F81E063
:103D900090E0283211F480E090E0919581959109AE
:103DA000DF91CF911F910F910895A0E0B0E0EBED6E
:103DB000FEE10C9479256B018A017901B9010E9419
:103DC000331EE6010C0D1D1DC017D10741F424E977
:103DD0002093BC00CDB7DEB7E8E00C94952597FDA5
:103DE000F6CFB70189910E94A61EEECFA0E0B0E009
:103DF000ECEFFEE10C947925C62F6A017901B80138
:103E00000E94331E97FD11C0B8018C2F0E94A61E80
:103E1000E601EC0CFD1CCE15DF0539F097FD05C061
:103E2000B80189910E94A61EF6CF24E92093BC0018
:103E3000CDB7DEB7E8E00C94952584E98093BC000B
:103E4000089590934F0180934E0108959093180226
:103E5000809317020895E0911702F09118023097AD
:103E600029F00190F081E02D0995089580E00895F2
:103E7000EF92FF920F931F93CF93DF93E09117027E
:103E8000F0911802309781F18C010280F381E02DCE
:103E900009958091DE0182FF27C080FF04C086E87B
:103EA00099E00E94DE05E80118E080E8E82E89E04C
:103EB000F82E8091DE0180FF0BC088811F928F93C6
:103EC000FF92EF920E9477060F900F900F900F9045
:103ED000115021961111EDCF8091DE0180FF04C0B9
:103EE0008EE799E00E94DE05CDB7DEB7E6E00C94E0
:103EF0009725FC01329697E080E0915029F02191BE
:103F00002223D9F38F5FF9CF0895662349F0FC018E
:103F1000329608962191621729F0E817F907D1F730
:103F200080E0089581E008959C01FC0132969FEFA6
:103F300080E04191461789F09F3F19F4411101C07B
:103F4000982F8F5F8630A9F79F3F39F0F901E90F6D
:103F5000F11D97FDFA956283089508959C012A5FEB
:103F60003F4FFC014281461301C012820196821725
:103F70009307B9F708950E94941F08950E94AE1FF9
:103F80000895029626E0FC0111922A95E9F708951A
:103F900008950E94C81F08950E94C91F08950E9495
:103FA000C81F08950E94C81F08950E94C81F089541
:103FB000CF930E94D21F0E94B6170E94CF1FC0E06D
:103FC0008C2F0E94AF16811104C0CF5FC730C1F79C
:103FD00001C081E0CF91089508951F920F920FB60E
:103FE0000F9211248F939F93AF93BF9380911902E7
:103FF000811113C08091650590916605A0916705B8
:10400000B09168054196A11DB11D809365059093FF
:104010006605A0936705B0936805BF91AF919F9126
:104020008F910F900FBE0F901F90189580911C02DA
:10403000882331F10E945D091092190220E488E181
:1040400090E00FB6F894A895809360000FBE20937F
:10405000600083B7817F846083BF83B7816083BF43
:104060007894889583B78E7F83BF0FB6F894A89510
:1040700080916000886180936000109260000FBEA4
:1040800008950E94390D0E946409089582E084BD5C
:1040900093E095BD9AEF97BD80936E0008952FB77A
:1040A000F8948091650590916605A0916705B0919F
:1040B00068052FBF08952FB7F8946091650570913A
:1040C000660580916705909168052FBF08959C0152
:1040D0004FB7F8948091650590916605A0916705AA
:1040E000B09168054FBF821B930B089578941F927F
:1040F0000F920FB60F9211248F939F93AF93BF939C
:104100008091650590916605A0916705B09168055D
:104110000196A11DB11D8093650590936605A0933E
:104120006705B0936805BF91AF919F918F910F90F4
:104130000FBE0F901F90189598E088E10FB6F89485
:10414000A895809360000FBE90936000A895F894A6
:10415000D8E0CEEF28E3299320E0299314BEFFCFC7
:10416000089598E088E10FB6F894A89580936000D0
:104170000FBE90936000FFCF0E944F2090931B02D0
:1041800080931A0290E080E80FB6F8948093610063
:10419000909361000FBE08950E941A25539A80E003
:1041A000815041F0A895EFE9FFE03197F1F700C0A9
:1041B0000000F6CF5398789408950E94B6220E948A
:1041C000261F2FEF80E792E0215080409040E1F7DA
:1041D00000C00000089580919005882389F0109216
:1041E00090050E944F2090931B0280931A028091A9
:1041F0001C028823D9F110921C020E94412011C098
:1042000080911C02811111C080911A0290911B02B1
:104210000E946720069728F081E080931C020E948C
:10422000162080911C02882309F10E9416200E940A
:10423000D81F882309F43DC0F8942AB15B9A822FD5
:104240008C608AB99BB18CE098279BB93FE748E323
:1042500091E0315040409040E1F700C000009BB138
:1042600089278BB92AB95B98789408950E942324F2
:1042700080919605882329F08091740584FD0E9421
:104280000A140E9487210E94232480919605882386
:1042900029F08091800584FD0E9439220E94232408
:1042A00080919605882329F08091AD0584FD0E94B8
:1042B0005D2208959FB7F89481E03091CE0220915D
:1042C000CD02321301C080E09FBF08958091CC02DF
:1042D00008950F931F93CF93DF938C01D62FC6E0E1
:1042E0008091AD0584FD05C0C15049F00E94232492
:1042F000F7CF6D2FC8010E94192481E001C080E032
:10430000DF91CF911F910F91089508950895CF9354
:10431000DF93CAE0D0E08091740584FF3DC08091B6
:10432000490290914A02981709F441C028E0829FFF
:10433000C001112468E0855B9D4F0E941424809188
:10434000490290E001968F7099278093490220914D
:10435000DE0122FF2CC020FF2AC040914A02242FF8
:1043600030E0281B390B481710F4205F3F4F3F9374
:104370002F931F924F939F938F9387E29AE09F937F
:104380008F930E9477068DB79EB708960FB6F89464
:104390009EBF0FBE8DBF0BC00E9423248FE99FE0FC
:1043A0000197F1F700C00000219709F0B4CFDF9129
:1043B000CF910895CF93DF93EC01A0914A02B0E032
:1043C000CD0101968F70992720914902281781F01D
:1043D00093E0AA0FBB1F9A95E1F7A55BBD4F98E04C
:1043E000FE0101900D929A95E1F780934A0208C070
:1043F0008091DE0180FF04C08BE19AE00E94DE051F
:104400000E9423240E94872188E0FE01A1E4B2E0FB
:1044100001900D928A95E1F7DF91CF9108950F9366
:104420001F93CF93DF93EC016032F1F48C01005EB7
:104430001F4F8091800584FD03C00E942324F9CF83
:1044400068E0CE010E941E2428960C171D0789F7EC
:104450008091800584FD03C00E942324F9CF60E091
:1044600080E090E00E941E24DF91CF911F910F9178
:10447000089580912002803239F460E281E292E076
:104480000E94EC071092200208956FB7F894909163
:10449000CE02492F50E09A012F5F3F4F2F773327ED
:1044A0007091CD02721731F0FA01E153FD4F808314
:1044B0002093CE026FBF80E00895A0E2B0E0E3E673
:1044C000F2E20C94792580919605882309F44AC07C
:1044D0000E945A21882309F445C08E010F5F1F4FA7
:1044E00080E2F80111928A95E9F778016E01F9E00E
:1044F000CF0ED11C0E945A218823F1F0EC14FD0448
:10450000D9F03FB7F8948091CD029091CE029813E4
:1045100004C09093CD0220E00AC090E0FC01E1537A
:10452000FD4F208101968F7799278093CD023FBF61
:10453000F70121937F01DECF7E01F1E2EF0EF11C46
:1045400068E0C8010E946921882329F0085F1F4F95
:104550000E151F05A9F760E080E090E00E94692138
:104560000E942324A096E8E00C94952589E091E030
:104570000895CF93DF93EC01988190768091DE01CE
:10458000903209F062C09981913099F480FF04C0A3
:104590008FE09AE00E94DE058C819D81892B09F0D5
:1045A0005AC081E492E0909392058093910588E04F
:1045B0005EC0923071F480FF04C085E09AE00E94F2
:1045C000DE058BEC92E0909392058093910581E05B
:1045D0004EC09A3091F49B819093CB0280FF46C0ED
:1045E0001F929F9386EF99E09F938F930E94770687
:1045F0000F900F900F900F902EC0993009F580FF0B
:1046000004C08AEE99E00E94DE058A819B818115B3
:10461000924051F58C819D81892B31F58091DE018D
:1046200080FF04C081EE99E00E94DE0581E0809366
:104630001F028E819F8190931E0280931D0214C0E1
:1046400080FF14C088ED99E004C080FF0FC080EDAA
:1046500099E00E94DE058091DE0180FF07C08EECAC
:1046600099E00E94DE0502C08FEF01C080E0DF917B
:10467000CF910895CF93DF9320911D0230911E02B8
:10468000232BF9F020911F022130D9F4EC01809105
:10469000DE0180FF0DC088811F928F938FEB99E020
:1046A0009F938F930E9477060F900F900F900F901B
:1046B00088818093CC0210921E0210921D0281E02C
:1046C00001C08FEFDF91CF910895683059F080914C
:1046D000DE0180FF04C08AEA99E00E94DE051092A4
:1046E0002002089520912002A22FB0E0A931B10547
:1046F0003CF08091DE0180FFF2CF88E999E0EDCFB8
:10470000FC01AF5DBD4F089631913D93E817F90765
:10471000D9F7285F209320020895FC0193819330FC
:10472000B1F068F4913081F0923009F059C082E420
:104730009AE0909392058093910582E608959132D4
:1047400001F1923291F14CC084EA9AE014C0828166
:10475000813079F030F0823009F042C086EB9AE087
:104760000AC08EED9AE0909392058093910584E0C3
:1047700008958AEC9AE0909392058093910582E1E6
:1047800008958281813049F028F0823049F58DE822
:104790009AE005C084E59AE002C08DE69AE0909325
:1047A00092058093910589E00895848195818130F7
:1047B000910571F028F0029799F482EE9AE00AC010
:1047C00086E29BE0909392058093910580E40895A2
:1047D00084E09BE0909392058093910582E2089596
:1047E00080E008951F93CF93DF93162FEA0128816D
:1047F00024FF05C0398128E82327298302C02AE540
:104800002883212FFC01CE010296DC0131913D93DA
:1048100021501216DCF3612F0E9495061C5F18834D
:10482000DF91CF911F91089544E755E00E94F22354
:1048300008954DEA55E00E94F223089540E855E0BE
:104840000E94F2230895CF93DF9360919305635004
:1048500067FD93C080918F05CCE0D0E0C81BD109E3
:10486000C956DA4F80918E05803120F4CE010E9426
:10487000652381C08D3209F06EC0683009F07BC0BD
:1048800083EC809369058AE58093120110928D056F
:104890008881807621F0CE010E94B92249C09A8198
:1048A000109272058981811106C01092730522E76A
:1048B00035E082E038C0853019F49093940530C01B
:1048C0008630A1F48B81813041F0823031F0833029
:1048D00021F0813211F0823221F4CE010E948D2329
:1048E00001C080E090E490938D0522C0883089F06B
:1048F000893019F49093960513C08A3069F08B3093
:1049000079F48BE4809375058093AE0580938105DF
:1049100007C026E935E002C022E735E081E003C0A8
:1049200022E735E080E0309392052093910509C09D
:104930008F3F39F4988197FD8E8190E890938D0593
:1049400007C09F81911104C09E81981708F4892F98
:104950008093110110C080918D0587FF0CC0CE019E
:104960000E943A238F3F21F48EE18093120103C00D
:10497000811110921101109293058091120184FF10
:104980004CC0809111018F3F09F447C0C82F893076
:1049900008F0C8E08C1B809311019091690588E8AC
:1049A000892780936905CC2359F1809191059091D5
:1049B000920520918D0526FF12C0A9E6B5E02C2FA7
:1049C000AC0149565540FA01EA0FFB1FE4911196DC
:1049D000EC931197215011962111F5CF08C0EAE60A
:1049E000F5E0DC012C2F3D9131932150E1F7019648
:1049F0002FEF2C0F820F911D9093920580939105BC
:104A00006C2F8AE695E00E949506CC5FCC3019F0B9
:104A10008FEF80931101C093120184E199B19C70D2
:104A200031F48150D9F71092940510928C05DF91E2
:104A3000CF910895CF93DF93E9E6F0E0808188601D
:104A40008083E99AC4E7D5E08BE48983ADEAB5E0D9
:104A500011968C931197E0E8F5E081838AE58883CD
:104A60008C938083DF91CF910895991B79E004C0E6
:104A7000991F961708F0961B881F7A95C9F780959D
:104A80000895AA1BBB1B51E107C0AA1FBB1FA61795
:104A9000B70710F0A61BB70B881F991F5A95A9F7E7
:104AA00080959095BC01CD01089597FB072E16F4D3
:104AB000009407D077FD09D00E94412507FC05D05E
:104AC0003EF4909581959F4F0895709561957F4F25
:104AD0000895EE0FFF1F0590F491E02D09942F9299
:104AE0003F924F925F926F927F928F929F92AF927E
:104AF000BF92CF92DF92EF92FF920F931F93CF93CB
:104B0000DF93CDB7DEB7CA1BDB0B0FB6F894DEBF61
:104B10000FBECDBF09942A88398848885F846E8487
:104B20007D848C849B84AA84B984C884DF80EE80D1
:104B3000FD800C811B81AA81B981CE0FD11D0FB6DA
:104B4000F894DEBF0FBECDBFED010895FB01DC017F
:104B500002C005900D9241505040D8F70895FB01D6
:104B6000DC0104C08D910190801921F44150504026
:104B7000C8F7881B990B0895FB01DC0102C0019066
:104B80000D9241505040D8F70895DC0101C06D935B
:104B900041505040E0F70895F999FECF92BD81BD94
:104BA000F89A992780B50895A8E1B0E042E050E076
:104BB0000C941026DC01A40FB51F4150504048F062
:104BC000CB01840F951F2E910E94EB254150504040
:104BD000D0F70895262FF999FECF92BD81BDF89A9E
:104BE000019700B4021639F01FBA20BD0FB6F89431
:104BF000FA9AF99A0FBE08950396272F0E94EB2583
:104C00000E94EA25252F0E94EB25242F0C94EB25EA
:104C10000196272F0E94EB250C94EA25DC01CB019D
:104C2000FC01F999FECF06C0F2BDE1BDF89A3196BC
:104C300000B40D9241505040B8F70895F894FFCF5A
:104C4000BF010021007F2200036621DA2185218631
:104C500021FF5A57616974696E6720666F7220641C
:104C60006174612E2E2E00309796953132339091DB
:104C70009463606162000810181810080000FF01BA
:0E4C800000010000FFFF0000010001FF000026
:00000001FF
