:100000000C94C5050C94E2050C94AB060C94E20527
:100010000C94E2050C94E2050C94E21F0C94E205AA
:100020000C94E2050C94E2050C94E2050C94E205B4
:100030000C94E2050C94E2050C946B200C94E20500
:100040000C94E2050C94E2050C94E2050C94E20594
:100050000C94E2050C94E2050C94E2050C94E20584
:100060000C94E2050C94E205540B540B800B800BAE
:10007000C50CC50CC50CC50CD60B4C0C5D0C5D0C31
:10008000C91B3B1CD11B9B1B9F1BD51BA21BD81B39
:10009000E31BAD1B311CB11BE71BB51BEB1B151C78
:1000A000B91BEF1B1F1CBF1BF51BFF1BA61BDC1B7B
:1000B000A91BDF1BC41BFA1B0B1C2B1C2D1C971B25
:1000C000CD1B441CF71DFD1DEB1DF11D031E091E5C
:1000D0000F1EB6B6B6B6B6B6B6B6B6B6B6B6B6B6FF
:1000E000B695B596D5B6B680818283848586878895
:1000F000898A8B8C8D8E8F9091929394A0A1A2A3CC
:10010000A4A5A6A7A8A9AAABACADAEAFB0B1B2B337
:10011000B4C0C1C2C3C4C5C6C7C8C9CACBCCCDCE82
:10012000CFD0D1D2D3D4000A57616974696E6720E9
:10013000666F7220646174612E2E2E000A52656310
:100140006569766564206461746100A900AA000194
:1001500000010001000100010001002B0014001A41
:10016000000800150017001C0021520400160007AB
:100170000009000A000B00E1003800E4001B000643
:100180000019000500E000E2002252E6002C002CDD
:10019000002C0000003400A800130012000C00180E
:1001A000000000E3002A0028000F000E000D0000F0
:1001B000001D00E500370036001000110029001E68
:1001C000001F002000210022002300010001003553
:1001D000003100010001000100010001004F000199
:1001E0000001000100010001000100510050004A1F
:1001F0000001004D0000000100010027002600253D
:10020000002400000001004C003400330030002FB7
:100210000000000100520038002E002D00010001F6
:10022000003A003B003C003D003E003F0039000129
:1002300000010001000100010001000100010001B6
:1002400000010001000100010001000100010001A6
:100250000001000100010000000100010043004214
:100260000041004000000001000100010001000108
:100270000001000000010001000100010001000177
:100280000001000100010001000100010001000166
:100290000001000100010001000100010001000156
:1002A0000001000100010001000100010001000146
:1002B0000001000100010001000000010001000137
:1002C0000001000100010000000100010001000127
:1002D0000001000100000001000100010001000117
:1002E00000010044454255473A2064697361626CDD
:1002F00065642E0A0044454255473A20656E6162A6
:100300006C65642E0A000A0025303258006C656462
:100310005F7461736B3A20004F6E6573686F743A57
:10032000206163746976653A2025640A000A002515
:10033000303862003A200025303258000A722F63AC
:100340002030313233343536370A006F6C65645FE4
:100350006F666620636D64206661696C65640A007F
:1003600000AE6F6C65645F6F6E20636D64206661C4
:10037000696C65640A0000AF6F6C65645F72656EDE
:1003800064657239302064617461206661696C65EE
:10039000640A006F6C65645F72656E6465722064E8
:1003A000617461206661696C65640A006F6C6564E4
:1003B0005F72656E646572206F6666736574206334
:1003C0006F6D6D616E64206661696C65640A0064BE
:1003D0006973706C61795F736574757032206661E2
:1003E000696C65640A0000DA0281FFD9F1DB20A4A0
:1003F000A62EAF646973706C61795F666C6970700A
:100400006564206661696C65640A0000A0C0D30061
:100410006F6C65645F696E697420636D64206E6FD4
:10042000726D616C20726F746174696F6E206661A9
:10043000696C65640A0000A1C8D3006F6C65645FD5
:10044000696E697420636D64207365742031206661
:1004500061696C65640A0000AED580A81F408D14E8
:1004600020000000000000003E5B4F5B3E003E6B42
:100470004F6B3E001C3E7C3E1C00183C7E3C18002E
:100480001C577D571C001C5E7F5E1C0000183C182A
:100490000000FFE7C3E7FF00001824180000FFE793
:1004A000DBE7FF0030483A060E00262979292600AE
:1004B000407F05050700407F05253F005A3CE73C8B
:1004C0005A007F3E1C1C0800081C1C3E7F001422A2
:1004D0007F2214005F5F005F5F0006097F017F00DD
:1004E000006689956A0060606060600094A2FFA267
:1004F000940008047E04080010207E2010000808E4
:100500002A1C0800081C2A0808001E1010101000E1
:100510000C1E0C1E0C0030383E383000060E3E0E0D
:10052000060000000000000000005F00000000075F
:1005300000070000147F147F1400242A7F2A120071
:100540002313086462003649562050000008070350
:100550000000001C224100000041221C00002A1C57
:100560007F1C2A0008083E08080000807030000048
:100570000808080808000000606000002010080457
:1005800002003E5149453E0000427F400000724952
:10059000494946002141494D33001814127F10008B
:1005A0002745454539003C4A494931004121110957
:1005B0000700364949493600464949291E000000CE
:1005C0001400000000403400000000081422410024
:1005D00014141414140000412214080002015909D3
:1005E00006003E415D594E007C1211127C007F498D
:1005F000494936003E41414122007F4141413E0090
:100600007F49494941007F09090901003E414151A3
:1006100073007F0808087F0000417F4100002040F0
:10062000413F01007F08142241007F4040404000CC
:100630007F021C027F007F0408107F003E41414181
:100640003E007F09090906003E4151215E007F09F5
:100650001929460026494949320003017F01030058
:100660003F4040403F001F2040201F003F40384097
:100670003F00631408146300030478040300615905
:10068000494D4300007F4141410002040810200011
:10069000004141417F00040201020400404040400B
:1006A00040000003070800002054547840007F28D1
:1006B00044443800384444442800384444287E00E8
:1006C00038545454180000087E0902001824241CD1
:1006D00078007F080404780000447D40000020403A
:1006E000403D00007F102844000000417F40000092
:1006F0007C04780478007C0804047800384444447E
:1007000038007C1824241800182424187C007C0845
:100710000404080048545454240004043F442400B2
:100720003C4040207C001C2040201C003C403040CD
:100730003C004428102844004C9090907C00446475
:10074000544C4400000836410000000077000000CF
:100750000041360800000201020402003C26232664
:100760003C00000000000080C0E0F0F0300000C05D
:1007700060F0F0F0300080C020F0F0F020000000C9
:10078000000080C0E0703018B8F8F00000000000F1
:10079000DC7E3FBEF0F0E000000000000080C0E022
:1007A00070101818F8F06000000000C060F0F8F851
:1007B0003000000080E0F0F8F8300000000080E039
:1007C000F0FCFF3F0F0100000080C0E0F0F878006F
:1007D0000000000080C060309040203070E0C00019
:1007E000004040404040404040404040000000E069
:1007F000FEFFFEF8C00000000000E0FCFFFEF0007D
:100800000000000000000000013EE080700E0100CA
:10081000000000073CE080780700000000000000B6
:10082000000000180C06C3F9FE3FC7711806C3F09C
:100830007C1FC7711806C3F8FE3F0F0180C0F0F897
:10084000FEDF47636030381E0F0781402018060323
:1008500081F0FC7F1F0780C0E0F8FC3E0F03010021
:1008600000000003018060100806E3FCFF3F070161
:10087000C0308CE3FF7F1F0380C030188CE3F9FF8A
:100880003F070180C030180CC3F1FC7F0F0380C00C
:10089000F0FCFE3F0701003EC18080E0FC3F8F403E
:1008A00040C0F0FC7E4E0000000000000000F8FF99
:1008B000FF1F071FFFFEF0C0F8FF7F0F077FFFFE3F
:1008C000FC04047880000000C0380C1C608000002C
:1008D00000F00C04F41C80C0FCE6C3C1C1C3E6FCFC
:1008E000C0800000383F3F1F07030000383E3F1F15
:1008F0000E030000307F7F3F190C0603010F1F3FDE
:100900007160607030180804020100000000387E39
:100910007F3F3B18040301000F1F312020202010CF
:1009200018080402010000001C3F7F7F31180603F5
:10093000183E3F3F1B0804020100001E3F3F3F10CE
:10094000080402010000183E3F3F190C0603010095
:100950000F1F3160606030181C0F07030101000099
:1009600000183C3C1C00000000000000001F1F1F7E
:100970000700000000031F1F0F0100000000071FF9
:100980001F1EF8000F70300EC138070E70831C60F8
:100990001E03C03E01003F7FFFFFF9C0C0F9FFFF0B
:1009A0007F3F0A002530325820006B6579626F6105
:1009B00072645F7265706F72743A20005241573AE8
:1009C000206275666665722066756C6C0A0052411D
:1009D000573A20696E76616C6964206C656E677445
:1009E000680A005345545F4C45443A20253032583C
:1009F0000A000A0056454E444F523A00554E4B4E9F
:100A00004F574E3A005345545F4C45443A005345C6
:100A1000545F5245504F52543A005345545F494435
:100A20004C453A2025303258004745545F49444CE4
:100A3000453A004745545F5245504F52543A006B77
:100A40006275663A2066756C6C0A00562D555342E5
:100A50003A206B6275665B25642D3E25645D282512
:100A6000303258290A0009026200030100A0FA0985
:100A700004000001030101000921010100012240DD
:100A800000070581030800010904010002030000BA
:100A9000000921010100012222000705840308004A
:100AA0000107050403080001090402000203000015
:100AB000000921110100012222000705830308001B
:100AC00001070503030800011201100100000008DE
:100AD0003713317300010102000112034D0065005C
:100AE000720063007500740069006F00000012035B
:100AF0004D00650063006800570069006C006400E9
:100B00000000040309040631FF0974A101097515E9
:100B10000026FF009520750881020976150026FF42
:100B200000952075089102C00660FF0961A10109C6
:100B300062150026FF0095207508810209631500E3
:100B400026FF00952075089102C005010906A10144
:100B5000050719E029E715002501950875018102AF
:100B60009501750881030507190029FF150026FF67
:100B70000095067508810005081901290595057578
:100B8000019102950175039103C011241FBECFEF9F
:100B9000D8E0DEBFCDBF11E0A0E0B1E0EEEBFBE4BA
:100BA00002C005900D92A835B107D9F725E0A8E558
:100BB000B1E001C01D92A33CB207E1F70E942718E3
:100BC0000C94DD250C940000FF93EF93E091580105
:100BD000F0915901309709F00995EF91FF9108952F
:100BE000FC018591803011F0EFDFFBCF0895FF27E6
:100BF000E0E230E247FF0CC0419597FF09C0EDE20B
:100C00006095709580959095611D711D811D911D58
:100C100027FF02C0219530E350E2AA27660F771F15
:100C2000881F991FAA1FA41710F0A41B63955A953B
:100C3000A9F7AA3008F0A95FA05DAF93F3956115FD
:100C400071058105910541F7ED3211F4EF93F395AC
:100C5000F21718F43F93F395FBCF8F91B5DFFA9518
:100C6000E1F70895E991F9918591803021F085327D
:100C700019F0AADFF9CF089520E0E8945591553294
:100C8000C1F3503311F4689455915A3348F45053DA
:100C900090F3220F022E220F220F200D250FF4CFEA
:100CA0000EF4219589919991533619F3533729F10F
:100CB000533559F1BC0188279927E8945C3621F413
:100CC0008991999168945591543639F446EF7EF0A4
:100CD00077FF0DC08FEF9FEF0AC055374AE039F01C
:100CE000583540E121F0523642E009F00895FF9373
:100CF000EF937DDFEF91FF91B7CFFF93EF93FC016F
:100D000081918030B9F360DFFBCFFF93EF9368DF11
:100D1000F1CFDF93CF93CDB7DEB72596A3DFCF9189
:100D2000DF910895A82FB92F80E090E041E050EACC
:100D3000609530E009C02D9182279795879510F036
:100D400084279527305EC8F36F5FA8F30895EADF24
:100D50008D939D930895CF93CFB7CF93DF93C39592
:100D60004B9BE9F74B9B10C04B9B0EC04B9B0CC0A1
:100D70004B9B0AC04B9B08C04B9B06C0C0919A0579
:100D8000C395C0939A058EC06F93C0919905DD27D6
:100D9000CF55DA4F2F9365E54B9B03C02F916F9191
:100DA000E1CF0F931F934F9320E040E15F9309B190
:100DB0000C7003FB27F93F9350E03BE039C01C70F7
:100DC00040642F77012F5F5F1EC0406819B11C700F
:100DD0002F7752501FC0406409B12F770C70D1F1AA
:100DE0005F5F00C023C0406219B12F771C7091F182
:100DF0005F5F00C025C00C701027515012F45D5F7A
:100E00000000115027952C3F19B1C8F61C7001271E
:100E1000015027952C3FC8F64227499309B10C7021
:100E200010274F73115027952C3FA8F646954695ED
:100E300019B11C7079F00127015027952C3F98F6C5
:100E40006B5A60F3315009B1B0F600C012E01CBB20
:100E500000271CC03B503195C31BD04012E01CBB87
:100E60000881033C21F10B3411F120919605198181
:100E7000110F1213EDCF4A81441F093679F10D325B
:100E800011F0013E29F74F7009F0042F00939F05E0
:100E90003F915F914F911F910F912F916F91CCB323
:100EA000C1FD5DCFDF91CF91CFBFCF91189520913C
:100EB0009F05222369F310919D05112309F049C074
:100EC00034300AF448C030939D0520939805109162
:100ED00099053BE0311B309399053DC000919D057C
:100EE0000130BCF50AE54F7049F43091120134FD30
:100EF00033C000931201C3E7D5E032C0433059F04C
:100F0000443091F030917E0534FD26C000937E057B
:100F1000CFE7D5E025C03091B70534FD1DC0009363
:100F2000B705C8EBD5E01CC030918A0534FD14C06C
:100F300000938A05CBE8D5E013C0052710E000C078
:100F400000000BB91AC0052710E0221F1DC010E0D9
:100F500021C04AE502C032ED432FC4E1D0E032E0C7
:100F60001AB11C605B9A0BB11AB95CE020E865E32A
:100F700020FF05270BB9279517951C3FF0F66695BE
:100F8000B8F7B1F720FF05270BB9279517951C3F38
:100F9000D0F62795179517FF052700001C3F0BB9C2
:100FA000B0F629913A9519F7037F10919E05110F1C
:100FB000C651D0400BB911F01093960512E01CBB3E
:100FC00008601AB1137F402F437F54E05A95F1F720
:100FD0000BB91AB94BB95CCF82E00895CF930E9448
:100FE0001A08C82F882329F060E082ED90E00E9463
:100FF000F0198C2FCF91089582E00895CF93DF935D
:10100000FC012081213099F4EC010E9481180E949A
:101010002D1A60E083E191E00E94D51960E0CE01D5
:1010200001960E94D5198CE391E00E94F005DF91B2
:10103000CF91089580915A0181110FC00E948118AB
:101040000E942D1A60E08EE191E00E94D51987E29E
:1010500091E00E94F00510925A0180E008958430DA
:10106000B0F46730A0F4473090F491E3899FF00129
:10107000112487E0689FE00DF11D1124E40FF11D9C
:10108000EE0FFF1FE55AFE4F85919491089581E080
:1010900090E008950E942F080895843088F461112B
:1010A0000FC0E82FF0E0EE0FFF1F81E04827E40FAC
:1010B000F11DEE0FFF1FE55BFE4F859194910895A2
:1010C00081E090E008950E944D08089581E0089520
:1010D00081E008950E94680808950E946A080895B2
:1010E0000E946808089508950E9473080895A6E074
:1010F000B0E0EDE7F8E00C94442549835A839E83E1
:101100003091600189819A81311115C03E8133236C
:1011100059F0222349F00E948A0E182F682F8981E6
:101120009A810E94570E03C00E94710E182F698188
:101130007A81812F04C00E948A0E69817A810E947F
:101140006B152696E3E00C946025FC01262F408168
:10115000518162817381848195810E94770808950D
:10116000CF93DF93EC0161E00E94A508BE010E94CD
:101170006D08DF91CF910895CF93DF93EC0160E08C
:101180000E94A508BE010E947408DF91CF910895C6
:1011900008950E942E0D0E94C8082FEF84E39CE062
:1011A000215080409040E1F700C0000008950E9467
:1011B000C9080E94912008950E94C9080E94A62093
:1011C00008950F931F93CF93DF938C0161E00E94EA
:1011D000A508EC01B8010E947008882309F45BC0DF
:1011E000B801CE010E94DF1D882309F454C0B80164
:1011F000CE010E94731B882309F44DC0B801CE01B3
:101200000E94451D882309F446C0F8018581882382
:10121000E9F1C3308CE7D80779F158F4C130FCE725
:10122000DF0761F1A0F4C115DC4781F50E94D70802
:1012300032C0CB35FCE7DF0739F1CC358CE7D80776
:1012400001F1CA35DC4711F50E94C4121FC080911C
:10125000E801C82FC095C170C0FB80F98093E801F8
:10126000CC2329F085EF92E00E94F00514C083EEB4
:1012700092E00E94F00510C00E94CC120E94DC088F
:101280000AC00E94BA1202C00E94C812C8010E947D
:101290006608C82F01C0C0E08C2FDF91CF911F914D
:1012A0000F9108950E94C11F0E948D090E94291B61
:1012B00008950E9491090E94CA1F08958295982F4F
:1012C000937344E0949F900111248C7C86958695BD
:1012D000282B822F8575880F2A7A2695822B0895D0
:1012E000089581E008950895CF93DF93D82F0E9449
:1012F0007109C82F882319F08D2F0E9473098C2F34
:10130000DF91CF9108950895CF93C82F0E9470095F
:101310008C2F0E947409CF91089580E00E94840967
:1013200008950E94201F0E9484090895CF930E946F
:10133000201FC82F80915B01C81789F1C0935B0102
:101340000E94502060935C0170935D0180935E0168
:1013500090935F018091E80182FF1EC080FF04C06E
:101360008DE093E00E94F0058091E80180FF0CC0C1
:101370001F92CF9388E093E09F938F930E948906FA
:101380000F900F900F900F908091E80180FF04C0A4
:1013900086E093E00E94F0058C2F0E948409CF9193
:1013A0000895ADE0B0E0E7EDF9E00C9445254887FD
:1013B00059876A877B878C879D8791110E94F011DE
:1013C000CE01019627E0FC0111922A95E9F726E06B
:1013D000FE013896DC0101900D922A95E1F72D81EE
:1013E00021110AC029813A814B815C816D817E8106
:1013F0008F810E943A1104C00E94B0088111F2CF7F
:101400002D96E2E00C946125FC012481213021F429
:10141000808191810E94BC0E0895CF93882309F4A6
:1014200081C0C82F8238C1F40E94201F81FD7AC07C
:1014300069E380910001909101010E94B01F0E9418
:101440001C122FEF87EE93E0215080409040E1F78F
:1014500000C0000069E333C08338C1F40E94201F3C
:1014600080FD60C063E580910001909101010E94C0
:10147000B01F0E941C122FEF81EE94E0215080409B
:101480009040E1F700C0000063E519C08438F1F432
:101490000E94201F82FD46C067E480910001909168
:1014A00001010E94B01F0E941C122FEF81EE94E0F8
:1014B000215080409040E1F700C0000067E4809137
:1014C0000001909101010E94B31F2AC08CEF8C0F84
:1014D000813AD0F46C2F80910001909101010E941B
:1014E0007A1F882349F06C2F8091000190910101AF
:1014F0000E94B31F0E941C126C2F809100019091DA
:1015000001010E94B01F0CC080E28C0F883050F4A3
:10151000C77081E001C0880FCA95EAF70E94D31115
:101520000E941C12CF910895882309F44DC0682FA2
:10153000823879F40E94201F81FF46C069E38091C0
:101540000001909101010E94B01F0E941C1269E3EA
:1015500026C0833879F40E94201F80FF35C063E5E0
:1015600080910001909101010E94B01F0E941C1205
:1015700063E515C0843879F40E94201F82FF24C0DF
:1015800067E480910001909101010E94B01F0E94C8
:101590001C1267E404C08CEF860F813A38F4809106
:1015A0000001909101010E94B31F0CC080E2860FE0
:1015B000883050F4677081E001C0880F6A95EAF7BF
:1015C0000E94D9110E941C1208951F93CF93DF939C
:1015D000182FEB010E940D0A209741F08FE99FE040
:1015E0000197F1F700C000002197F6CF812F0E94EC
:1015F000940ADF91CF911F910895893319F06AE021
:1016000070E002C060E570E00E94E50A089588235A
:1016100021F00E94D3110E941C120895882321F00A
:101620000E94D9110E941C120895A0E0B0E0EBE1E5
:10163000FBE00C943F257C01D62FC72FFC011581C0
:10164000068102950F700E94C9118823E9F01123C9
:10165000D9F08C2F807F803451F080E28D0F88305C
:1016600098F0011104C08C2F807E803269F0809147
:101670005A0382FF09C082E00E947A120E94C911B7
:1016800091E0D82ED92601C0D12CCC2EC2948FE067
:10169000C8228C2D90E08C30910508F076C1FC01B9
:1016A000EC5CFF4F0C942F258C2F807FCF7088230C
:1016B00011F0C295C07F112399F0CC2309F44CC1DD
:1016C00080E28D0F883010F0D11104C08C2F0E9461
:1016D000D31103C08C2F0E94E3110E941C123CC145
:1016E0008D2F0E94940ACC2309F44FC180E28D0F04
:1016F000883038F1DD2329F18C2F0E94E91124C0B4
:101700008C2F807FCF70803211F0C295C07FDD2397
:1017100019F0D13099F13CC080915A0382FD17C075
:10172000112349F0CC2329F08C2F0E94D3110E9461
:101730001C1280E012C180E00E94940ACC2309F4BC
:1017400024C18C2F0E94D9110E941C121EC111238A
:1017500049F0002309F1013009F017C18C2F0E94D4
:10176000FA1113C1011111C18C2F0E940E0B8C2F85
:101770000E9406128C2F0E944D1207C1112321F0E6
:10178000063008F002C108C0053008F0FEC00AC0EB
:10179000112331F00111E0C08C2F0E94070BF5C01E
:1017A0000111E0C08C2F0E940E0BEFC08C2F8370B4
:1017B000B1F51111EEC04D2F429546954770440F7B
:1017C000440F8D2F8F7090E09C01042E02C0220FD9
:1017D000331F0A94E2F7D4FF0AC08FE090E002C002
:1017E000880F991F4A95E2F78095909502C080E096
:1017F00090E0C695C695C370822B932BC23049F0FA
:1018000058F4C13019F00E948A0DC3C00E94810DA6
:10181000C0C00E94930DBDC00E947E0DBAC01123AE
:1018200019F08C2F817001C08695882309F4B1C00E
:101830004D2F429546954770440F440F8D2F8F7062
:1018400090E09C01042E02C0220F331F0A94E2F79D
:10185000D4FF0AC08FE090E002C0880F991F4A951C
:10186000E2F78095909502C080E090E0C695C6951D
:10187000C370822B932BC23049F058F4C13019F059
:101880000E94F20D86C00E94E90D83C00E94FB0DEC
:1018900080C00E949F0D7DC0CF70112339F08C2F26
:1018A0000E94B70D8D2F0E94070B73C08D2F0E94D1
:1018B0000E0B8C2F0E94C70D6CC0D23F21F128F473
:1018C000D03F41F0D13FC1F043C0D33F19F1D43FE5
:1018D00079F03EC0112341F0053008F056C08C2F3E
:1018E0008F710E94D90D51C0063008F04EC0F7CF5D
:1018F00080915A0382FD18C0112339F08C2F8F710B
:101900000E94B70D42C01123C9F38C2F8F710E9422
:10191000C70D3BC0112329F08C2F8F710E94AB0D96
:1019200034C00E94A60D31C0112349F0CF718C2F15
:101930000E94B70D63E08C2F0E945C1226C081E0EC
:101940000E947A12023008F182E00E947A121DC0D1
:10195000112331F0002391F28D2F0E940D0A15C042
:10196000002399F2D93341F4FFEF27EE83E0F150E1
:1019700020408040E1F704C0EFE3FCE93197F1F744
:1019800000C000008D2F0E94940A88EF8C0D8430D7
:1019900020F40E94201F0E948409DD2089F00E940B
:1019A000C51180FD0DC0F70115820E94BF110E9474
:1019B000B70DC7010E94FD0C0E94BF110E94C70D08
:1019C000CDB7DEB7E8E00C945B250F931F93CF9360
:1019D000DF93EC01688179818D810E94C70E8C01B3
:1019E0000E94040E0E946F0DB801CE010E94150BDB
:1019F000DF91CF911F910F910895CF93DF93FC0159
:101A000024812223D1F0EC010E94E10881110FC052
:101A10000E94C911882389F08D81882371F08091FB
:101A20005A0382FF0AC082E00E947A1206C0CE01E9
:101A30000E94E50CCE010E94BC08DF91CF91089571
:101A40000E94F0110E941C12089580910001909153
:101A500001010E94B61F0E94200D08950E94E0110E
:101A60000E94250D089592959F70963079F010F49C
:101A7000925001C09A50923068F4803F69F018F497
:101A8000883E40F409C0843F29F406C0883E20F017
:101A9000813F11F080E0089581E00895FC012481E8
:101AA000222339F0808191810E94BC0E0E94330D67
:101AB000089580E00895A6E0B0E0E1E6FDE00C9432
:101AC00045252696E2E00C946125A7E0B0E0EBE620
:101AD000FDE00C9445252796E2E00C9461250895DD
:101AE00008950E94700D08950E94710D08950E943E
:101AF000740D909384018093830108950E94770D63
:101B000008952091830130918401822B932B0E94B0
:101B1000770D0895209183013091840182239323CE
:101B20000E94770D089520918301309184018227CE
:101B300093270E94770D08950E94700D08950E94CA
:101B40009C0D9093820180938101089580E090E044
:101B50000E949F0D089521E030E0A90102C0440FCA
:101B6000551F8A95E2F7CA010E949F0D089521E052
:101B700030E002C0220F331F8A95E2F78091810185
:101B800090918201822B932B0E949F0D089521E05A
:101B900030E002C0220F331F8A95E2F7209530957E
:101BA0008091810190918201822393230E949F0D55
:101BB000089521E030E002C0220F331F8A95E2F73A
:101BC0008091810190918201822793270E949F0D2D
:101BD00008952091810130918201822B932B0E94E4
:101BE0009F0D0895209181013091820182239323DA
:101BF0000E949F0D089520918101309182018227DA
:101C000093270E949F0D08950895962F9770A1E045
:101C100001C0AA0F9A95EAF793E0769567959A9591
:101C2000E1F7660F771F660F771FFA01E60FF71FC0
:101C300040E050E0682F70E090819B01042E02C0CC
:101C4000369527950A94E2F72170219529272A23B2
:101C5000292721934F5F5F4F4430510569F708955D
:101C6000FB01782F777023E0969587952A95E1F709
:101C7000880F991F880F991FE80FF91F40E050E067
:101C800080E0219130E0072E02C0369527950A9416
:101C9000E2F721703327042E01C0220F0A94EAF7DD
:101CA000822B4F5F5F4F4430510559F70895282F1D
:101CB000862F973060F4273050F4622F70E027E0D1
:101CC000929F600D711D112445E651E007C09C5F95
:101CD000923030F4622F70E041E651E00E94050E30
:101CE0000895292F973058F4873048F490E065E63E
:101CF00071E037E0239F800D911D112406C02C5FF9
:101D0000223030F461E671E090E00E94300E0895D8
:101D100080E00895A0E0B0E0E0E9FEE00C943E250C
:101D20007C01009181011091820180918301909149
:101D30008401082B192BCFE0D0E0CC24C394D12C04
:101D4000C6010C2E02C0880F991F0A94E2F7802367
:101D50009123892B21F4219798F7B12C07C0BC2E31
:101D6000B7018C2F0E9485150197A9F38B2DCDB754
:101D7000DEB7E9E00C945A25CF93DF93EC010E9483
:101D80008A0EBE010E948515DF91CF9108951F93A1
:101D9000CF93DF93EB0190916001992321F0CB0168
:101DA0000E94BC0E13C0882349F0CB010E948A0E0A
:101DB000182F682FCE010E94570E04C0CB010E943D
:101DC000710E182FBE01812F0E948515DF91CF91D2
:101DD0001F9108951F93CF93DF93C091850117E062
:101DE00080918601C817A1F0D0E01C9FF0011D9FD3
:101DF000F00D1124E957FE4F20813181428153813A
:101E00006481758186810E94650D2196C770E8CF37
:101E1000DF91CF911F9108952091BF013091C001B2
:101E20004091C1015091C2016091C3017091C40100
:101E30008091C5010E94650D0895CF93DF93809135
:101E4000C50182958F7009F04EC08091C40188232E
:101E500009F449C080918501409186015091C001EB
:101E60006091BF01C091C101D091C20177E0841798
:101E7000D1F190E0789FF001799FF00D1124DF01FE
:101E8000A957BE4F14962C911497222349F111960D
:101E90002C911197251324C02C91261321C015963F
:101EA0002C91159721111CC012962D913C911397DE
:101EB0002C1B3D0B283C310598F48091C5018F7097
:101EC00080618093C501E357FE4F80818F708061F0
:101ED00080838FEB91E00E94FD0C0E94EA0E03C00C
:101EE00001968770C4CFDF91CF910895209185012D
:101EF0009091860157E02917A9F030E0529FF00138
:101F0000539FF00D1124E957FE4F7181761306C0DF
:101F10007081781303C07581741306C02F5F3F4F23
:101F20002770E9CF80E0089581E00895A4E1B0E052
:101F3000ECE9FFE00C943B258C0186E0F801DE0122
:101F40001F9601900D928A95E1F7F8018481E58052
:101F50009FEBA92E91E0B92E9091C301911118C069
:101F6000882309F480C1EE20D9F1C8010E944E0DEA
:101F7000F82E8823A9F187E0F801D50101900D9290
:101F80008A95E1F7C5010E94040A0E941D0F98C0BE
:101F9000F801C080D18082809380F090C4012091AC
:101FA000C1013091C201A401421B530BFF2009F46F
:101FB00006C1483C510508F0AFC0882309F455C15B
:101FC0008091C501282F207F9091C001222361F0CC
:101FD0009D1509F462C0C8010E944E0D811173C0A5
:101FE000C8010E94FD0C3FC19D1115C09091BF0119
:101FF0009C1111C0E1100FC08F7080618093C501EA
:102000000E940C0F8FEB91E00E94FD0C8091C501A6
:10201000F801868326C1E1103AC040E06D2D8C2D79
:102020000E94760F40E06D2D8C2D0E94760FE82ED9
:10203000811117C1CF86D88A8F8598890E94BC0EDE
:10204000292F22952F70243020F49F70223028F001
:1020500009C02A50223080F014C0992349F0811120
:1020600007C013C0992321F0F8019681907F69F091
:10207000805E883030F409C0803F38F0815F833063
:1020800020F0C8010E94FD0CEF2CFE2CEEC08091C8
:10209000C50181608093C501E4C09091BF019C118E
:1020A0009ACFE11098CFF8018683C8010E94FD0CF9
:1020B00087E0F801AFEBB1E001900D928A95E1F76E
:1020C0000E940C0FD2C0EE2009F48ACF2091C501E6
:1020D000822F82958F7090E002978CF08091BF01E3
:1020E0009091C001998788879B868A868091C301D9
:1020F0008C871D862E87CE0108960E94FD0C87E0F6
:10210000F801AFEBB1E001900D928A95E1F70E94E2
:102110001D0F0E940C0FA7C09091C501292F207F91
:10212000A1F4682D9A8A898AA6017A899E2D0E9437
:102130005B0D8FEB91E00E94FD0C87E0F5011192A1
:102140008A95E9F70E940C0F8CC0882309F48DC092
:102150008091C0018D1111C08091BF018C110DC003
:10216000E1100BC0F8019683C8010E94FD0C87E0C6
:10217000F50111928A95E9F778C0C8010E944E0DC9
:10218000882309F42DCFEE2009F42ACF2091C50130
:10219000822F82958F7090E002970CF4B0CF8091DF
:1021A000BF019091C0019A8389839C828B82809128
:1021B000C3018D831E822F83CE0101969ECF483CA2
:1021C000510508F040C0882309F44DC0FE2CEE20D4
:1021D00009F406CF8091C0018D1127C08091BF0105
:1021E0008C1123C09091C50190FD16C0892F829556
:1021F0008F70282F30E02115310571F0F80196839A
:102200002F30310509F451CF8F5F982F9295907F31
:1022100086818F70892B48CF87E0F801AFEBB1E062
:1022200001900D928A95E1F720C0C8010E944E0DE1
:10223000811165CF8091C50181608093C501C8017E
:102240000E94FD0C12C0682D9A8A898AA6017A899B
:102250009E2D0E945B0D87E0F50111928A95E9F7AA
:102260002FCFF12C02C0FF24F3948F2D6496ECE065
:102270000C945725AEE0B0E0E0E4F1E10C94442585
:10228000288739874A875B876C877D878E87CE0151
:1022900008960E94960F882361F06C856623A9F149
:1022A000288539854A855B857D858E850E94650DEB
:1022B0002CC087E0FE013896DE01119601900D9248
:1022C0008A95E1F76C85662301F12091860130E063
:1022D000C9010196877099274091850150E08417C4
:1022E0009507E1F16D8397E0929FD001939FB00D28
:1022F0001124A957BE4FFE01319601900D929A9577
:10230000E1F7809386010E94EA0E17E08091850133
:1023100090918601891779F1189FC001112489577E
:102320009E4F0E94960F882331F1E09185011E9FF8
:10233000F0011124E957FE4F208131814281538100
:102340006481758186810E94650D8091850190E090
:1023500001968770992780938501D8CF0E942E0D12
:102360001092860110928501EFEBF1E087E0DF012A
:102370001D928A95E9F72E96E3E00C9460258091F2
:10238000C60186958695869508958091C6018770C9
:1023900008959091C601977081E009F480E0089556
:1023A0008091D20108959091D201892B8093D2011E
:1023B000089580959091D20189238093D201089548
:1023C0001092D20108959091D101892B8093D1016F
:1023D000089580959091D10189238093D10108952A
:1023E0001092D101089508950E94F31108950E945A
:1023F000F41108959091C801292F2823821729F0FC
:10240000982B9093C8010E94F71108959091C801EC
:10241000292F282331F0809589238093C8010E94B9
:10242000F71108958091C801882329F01092C801FE
:1024300080E00E94F7110895E0910001F091010100
:102440008091D2018083E0910001F091010190819F
:102450008091D101892B80838091C801882381F0EC
:10246000E0910001F09101019081892B808380919E
:102470000001909101010E946E1F81110E941212B1
:1024800080910001909101010E942D1F08950E94EA
:10249000F31108950E94471208959091C701292FC2
:1024A000282331F0809589238093C7010E944A1226
:1024B00008950E94F311089590915A0392FF11C05C
:1024C00098E0899F90011124262B2093C6010E9439
:1024D000B70D8091C6018695869586950E94591202
:1024E00008950E94B70D08951092C60180E00E94E1
:1024F000591208959091C601809589238093C60151
:10250000282F277069F4981759F090915A0392FF79
:1025100007C08695869586950E94C70D0E94741205
:102520000895CF9390915A0392FB222720F9281700
:10253000F9F0C82F892FC0FB82F980935A0380914C
:10254000590390915A030E94ED1282E00E947A1280
:102550008091E80180FF0CC01F92CF9388E193E047
:102560009F938F930E9489060F900F900F900F906A
:10257000CF91089580915A0382FB882780F991E0DA
:1025800089270E949112089581E00E949112089576
:1025900080E00E94911208956FEF7FEF80E090E05D
:1025A0000E94C725089580E090E00E94932521E0D5
:1025B000863E9E4F09F020E0822F089582E090E051
:1025C0000E948B25089583E090E00E948B2508955A
:1025D00084E090E00E9493250895BC0184E090E09F
:1025E0000E94C7250895AB01BC018FE090E00E94D6
:1025F000BB250895AB01BC0183E190E00E94BB259F
:10260000089560E070E0CB010E94FA12089560E046
:1026100070E0CB010E94F3120E9401130895A8E01C
:10262000B0E0E5E1F3E10C94452566EE7EEF80E055
:1026300090E00E94C72560E082E090E00E94A9251A
:1026400060E083E090E00E94A9251092840110923E
:10265000830160E074E184E090E00E94C72560E0BF
:1026600086E090E00E94A9256FEF87E090E00E944D
:10267000A92540E050E0BA0188E090E00E94BB2527
:1026800060E084E290E00E94A92560E087E190E0AC
:102690000E94A92560E08CE090E00E94A92560E0FE
:1026A0008DE090E00E94A92519821A821B821C826B
:1026B0001D821E821F82188648E050E068E170E0AB
:1026C000CE0101960E94992540E050E0BA0180E2D7
:1026D00090E00E94BB250E9407132896E2E00C942C
:1026E00061250E940F130895682F8EE090E00E94EC
:1026F000A9250895A6E0B0E0E0E8F3E10C944325B5
:102700000E9444208C018091D3019091D40108173C
:10271000190781F019821A820E944420682F49818A
:102720005A81792F80E090E00E94D1091093D40162
:102730000093D3012696E4E00C945F250E9450207C
:102740006093E4017093E5018093E6019093E701C3
:102750006093E0017093E1018093E2019093E301C3
:1027600008950E9450206093E4017093E5018093E6
:10277000E6019093E7016093DC017093DD018093A3
:10278000DE019093DF01089581E0089581E00895CE
:102790000E94C613089508950E94CB1308950E94C5
:1027A000CB1308950E94CF1308950E94CB13089570
:1027B0000E94D51308950E94CB13089580E192E200
:1027C0000E94161F0E94DB130E94D81308950E94D6
:1027D000CC130E94CB1308950E9486160E94830991
:1027E00008950E943B200E94641C0E9495170E943D
:1027F000EC1380E00E9496180E94D2130895A6E080
:10280000B0E0E5E0F4E10C943C250E94C413811192
:1028100004C00E947A1310E054C00E94AB1785EDEB
:10282000E82E81E0F82E670100E0F60111916F01BA
:10283000802F0E94A41681270F5F073019F088238C
:10284000A1F302C0882329F38091E80181FD0E9451
:10285000AA160E94C813A82E10E099249394812FE1
:102860000E94A416B82EF701C080C82609F100E026
:10287000DD24D3948C2D8D21A9F0AA2099F0098311
:102880001A830E9444209C838B839D8291E08B2D30
:102890008D2109F490E049815A816B817C818D8181
:1028A0000E94D1090F5FDD0C073021F7F701B082DC
:1028B0001F5FFFEFEF1AFF0A173089F60E949E1381
:1028C00011E00E94811C882319F00E94B11311E0CD
:1028D0000E94471B11110E94021A0E949609269617
:1028E000EBE00C9458251F93CF93DF930E948A1539
:1028F000EC01C11582E5D807C8F5C11590E5D907E7
:1029000008F0BBC0C83ED105C0F4C03ED10508F0F8
:10291000DDC0C53AD10550F4C430D10508F0D6C0A9
:10292000219709F0D0C081E090E0D1C0CD3CD10525
:1029300008F4C9C0CE019065CAC0C11580E4D807AB
:1029400008F05AC0C11590E2D90708F0AFC0C11510
:1029500081E0D80708F4B7C08D2F0E942616182FE3
:10296000CE0199270E948A151F71ABC0C03892E52D
:10297000D90720F5C03682E5D80708F061C0C03419
:1029800092E5D90708F04AC0C03282E5D807F0F5D1
:102990004C2F4695469590E2499FA0011124C370A3
:1029A00021E030E0C90102C0880F991FCA95E2F703
:1029B000EA01C82BD92BCE019D6889C0C03C92E5A5
:1029C000D90768F48C2F8F71C03AD24508F04CC0FB
:1029D00090E0D82FCC27CE01846F906A78C0C03E9B
:1029E00082E5D80708F06FC0CF71DD27DC2FCC2738
:1029F000CE01806F906A6BC0CE0199270E948A1524
:102A0000CC27DF70D06A8C2B9D2B61C0CF71D0E0BA
:102A1000DC2FCC27CE01816F906A59C08C2F8F712B
:102A20008695869590E2899F90011124C37081E07C
:102A300090E002C0880F991FCA95E2F79C6811C008
:102A40008C2F8F718695869590E2899F9001112435
:102A5000C37081E090E002C0880F991FCA95E2F729
:102A60009A68822B932B33C00E9426168F7190E0B8
:102A7000D82FCC27CE0190622AC08C2F8F710E9454
:102A8000261695E0D695C7959A95E1F7CF70D0E0D8
:102A9000DC2FCC27282F30E084FF05C084E0220FF4
:102AA000331F8A95E1F7D069CE01DBCF8D2F8F716F
:102AB0000E942616182FCE0199270E948A151F7191
:102AC0009062912B04C080E090E001C0CE01DF91C4
:102AD000CF911F910895462F672F773028F4473004
:102AE00088F40E944A0808957D3F21F441110AC0EC
:102AF00041E004C07C3F31F4411104C060E00E9419
:102B00006308089580E090E008950E946B150E948C
:102B1000731408958238910569F1B0F481339105F9
:102B200009F475C048F48932910509F467C08A3206
:102B3000910509F471C008958533910509F459C0D0
:102B400089339105B9F00895833E910589F138F4F0
:102B5000803E9105D1F0823E910529F10895863E8F
:102B60009105C9F1873E9105D9F1843E910509F09F
:102B70006CC027C02091590320FD57C021FD55C0CE
:102B800020915A0323FD5BC008958091590380FD75
:102B900048C080915A0380FF48C08091590384FD4A
:102BA00046C083EE51C08091590382FF3CC0F5CFEF
:102BB0008091590382FD37C080915A0380FD35C052
:102BC000ECCF80915A0381FF36C08091590384FD78
:102BD0002EC087EE39C08091590383FF2AC0F5CFFC
:102BE0008091590383FD25C080915A0381FD23C044
:102BF000ECCF8091590385FD22C01FC080915903FD
:102C000085FD1BC080915A0383FF19C00AC08091C3
:102C1000590386FD16C017C08091590386FD13C065
:102C200010C089E311C082EE0FC080EE0DC080E0BD
:102C30000BC086EE09C084EE07C085E305C089E2BB
:102C400003C08AE201C081E390E0089590915903A6
:102C500092FF0DC0282F2871283019F4877F8460D7
:102C600006C0282F2471243011F48B7F886093FFD5
:102C70000DC0282F2871283119F4877E846106C081
:102C8000282F2471243111F48B7E886120915A03FE
:102C900020FF0DC0382F3871383019F4877F8160DC
:102CA00006C0382F3171313011F48E7F886021FFDA
:102CB0000DC0282F2871283119F4877E816106C044
:102CC000282F2171213111F48E7E886194FD877E39
:102CD00008950E94CC1208950E94AB172FEF86E74B
:102CE00091E0215080409040E1F700C000000E9438
:102CF000AB1780E00E94A41680FF04C00E946916F2
:102D00000E94912008950E946C1608950E94D3128B
:102D1000811102C00E9471130E94DE128093E801AB
:102D20000E94E81290935A03809359030E948316DD
:102D30000E94E31290E00E947E0D809181019091AB
:102D400082010E949C0D0895E82FF0E0EE59FC4F9F
:102D500080810895A0E0B0E0E0EBF6E10C943F251F
:102D60008CE393E00E94F00582E6E82E83E0F82EE3
:102D7000C0E0D0E097E3C92E93E0D92E0FE213E034
:102D8000DF93CF93DF92CF920E94890684E393E092
:102D90000E94F005F70181917F010E945E091F9258
:102DA0008F931F930F930E9489068DE293E00E94F8
:102DB000F00521968DB79EB708960FB6F8949EBF82
:102DC0000FBE8DBFC730D105D9F6CDB7DEB7E8E06D
:102DD0000C945B2580EA8A95F1F7089500C0089568
:102DE0000E94EA16089508950E94F31608950E941D
:102DF000F41608950E94F31608950E94FA16089595
:102E0000F894E82FE295EF70F0E031A1282F2F70B1
:102E100081E090E001C0880F2A95EAF7982F9095FD
:102E2000932391A392A1892B82A3789408950F9361
:102E30001F93CF93DF93C9E3D1E089918F3F11F0C6
:102E40000E94001781E0C034D807B9F7C2E3D1E08F
:102E500009E311E089918F3F11F00E9400170C17D0
:102E60001D07C1F7DF91CF911F910F910895A0E049
:102E7000B0E0EDE3F7E10C943F258C01C62FD0E0E4
:102E8000CE01875C9E4F7C01FC0190819F3F09F43D
:102E900047C0D62EF894E92FE295EF70F0E081A1BB
:102EA0009F7021E030E001C0220F9A95EAF7822B53
:102EB00081A382A12095282322A378940E94EE1654
:102EC000E2E3F1E049E351E031E0C12C21912F3FF1
:102ED00089F0A22FA295AF70B0E090968C9190E00F
:102EE0002F7002C0959587952A95E2F780FD02C064
:102EF000832F01C080E0C82A330F4E175F0731F7D8
:102F0000F70180818F3F11F00E94001761E0C1102E
:102F100001C060E08D2D0E94F016C00FD11FC88245
:102F2000CDB7DEB7E8E00C945B250E94171787E069
:102F3000E2E6F3E0DF01982F1D929A95E9F7EBE5C1
:102F4000F3E0DF011D928A95E9F787E00E94E6171A
:102F50000E94FD160895A7E0B0E0E1EBF7E10C94C4
:102F600042258E010F5F1F4F87E0F80111928A956D
:102F7000E9F7F12C6F2DC8010E943717F394F7E0A1
:102F8000FF12F8CF47E050E0B8018BE593E00E94D4
:102F9000752521E0009709F420E0892B41F087E0B6
:102FA000F801ABE5B3E001900D928A95E1F747E0B7
:102FB00062E673E08BE593E00E94E717182F0E940A
:102FC000F716812F2796E5E00C945E250895EF9281
:102FD000FF920F931F93CF93DF937C018B01C42F3C
:102FE000222349F081E08093EB010E9444209093DA
:102FF000EA018093E9018091EB01811102C080E038
:103000001AC08091E9019091EA010E945C20059725
:10301000B0F3D0E0AE01B701C8010E947525892B3D
:1030200039F0AE01B701C8010E94822581E001C0DC
:1030300080E01092EB01CDB7DEB7E6E00C945D25A1
:103040000E94C1200E94F1130E94D22008950E9484
:10305000E11F0E94B1200E94DE130E9420180E94EE
:10306000E0200E94E713FBCFAB0124E630E0BC0177
:1030700088E70E94CA1E21E0892B09F020E0822FF8
:103080000895EF92FF920F931F93CF93DF93EC017C
:103090007B0164E670E088E70E94281E8C01EC0E3C
:1030A000FD1ECE15DF0541F40E94121F81E00115BF
:1030B000110569F080E00BC017FDF6CFFE01849189
:1030C00064E670E00E949B1E8C012196EACFCDB78A
:1030D000DEB7E6E00C945D250F931F939B0104E699
:1030E00010E0AC0160E488E70E94EB1E21E0892B30
:1030F00009F020E0822F1F910F9108950E94221E57
:103100000895E9E6F3E080E092E0DF019C011D9282
:1031100021503040E1F7F0936E05E0936D058FEF9D
:103120009FEF90931802809317020895CF930E9407
:10313000EC070E94FC078093130280FD02C080E828
:1031400001C080E2809312020E947E186BE070E062
:1031500087E594E00E944118C82F811103C08BE3DA
:1031600094E00FC08091130265E070E081FD0CC017
:1031700086E394E00E944118C82F81110FC080E1BE
:1031800094E00E94F0052FC08BE094E00E9441186B
:10319000C82F811103C083EF93E0F3CF6DE070E09F
:1031A00086EE93E00E944118C82F811103C08FEC76
:1031B00093E0E7CF0E945020DC01CB01805A95417B
:1031C000AF4FBF4F8093690590936A05A0936B053D
:1031D000B0936C050E94811881E080931602809361
:1031E0001502109214028C2FCF9108952091120293
:1031F00036E0839FC0011124629F800D911D112430
:10320000811522E0920714F080E090E087599C4FEE
:1032100090936E0580936D05089520916D05309112
:103220006E052356334040911202642F70E0C901AD
:103230000E940725481B463010F4240F311D21152C
:1032400082E0380710F020E030E027593C4F3093FF
:103250006E0520936D0508951F93CF93DF93162F6E
:103260008A3011F481E003C08D3021F480E00E94A7
:10327000A41966C0C0916D05D0916E0596E0FE015F
:10328000ACEEB1E001900D929A95E1F7803E30F0FE
:1032900086E0FE0111928A95E9F70BC0F6E08F9F58
:1032A000B00111246E597B4F46E050E0CE010E94E0
:1032B0006C25111135C0C0916D05D0916E0546E0A9
:1032C00050E0BE018CEE91E00E947525892BB1F192
:1032D000C956D3409E0185E0369527958A95E1F73A
:1032E00081E090E0AC0102C0440F551F2A95E2F73F
:1032F0002091170230911802242B352B259645E09A
:10330000D695C7954A95E1F702C0880F991FCA95CF
:10331000E2F7822B932B90931802809317020EC032
:10332000E0916D05F0916E059F012A5F3F4F2E17CA
:103330003F0709F2808180958193F9CF0E940D1992
:10334000DF91CF911F910895CF93E82F20916D05C4
:1033500030916E052956334040911202642F70E07F
:10336000C9010E940725481B842FEE2359F066E00F
:103370000E94FB24C82FC150B0F060E080E20E94A0
:103380002C19F9CFA901480F511D4115524018F0D1
:1033900080E020E030E0280F311D27593C4F30936A
:1033A0006E0520936D05CF910895FF920F931F93A3
:1033B000CF93DF93EC01F62EFC0101900020E9F79A
:1033C0008F0101501109C017D10728F46F2D899181
:1033D0000E942C19F8CFCDB7DEB7E5E00C945E253E
:1033E0001F93CF93DF93EC01162FFE018491882366
:1033F00029F0612F0E942C192196F7CFDF91CF91F0
:103400001F91089580911602882321F10E94502077
:10341000DC01CB01805A9541AF4FBF4F80936905C6
:1034200090936A05A0936B05B0936C05809115028B
:10343000811110C062E070E086E793E00E944118BD
:10344000811105C082E693E00E94F00503C081E08F
:1034500080931502809115020895A0E0B0E0E3E3A7
:10346000FAE10C9437258091170290911802892B6C
:1034700009F4EAC080911602882309F4E5C080911E
:1034800014028111E1C00E94021A209117023091AA
:1034900018022115310509F4D7C090E041E050E051
:1034A000C92FD0E08A01092E02C0000F111F0A9413
:1034B000E2F7B80162237323672B11F49F5FF0CF0B
:1034C000809113029E01F5E0220F331FFA95E1F778
:1034D00080FF13C0E5E036952795EA95E1F7220FC6
:1034E000220F220F2093040110920701295F2093DD
:1034F000050183E08093080111C0220F232F221FB2
:10350000330B31959295990F907690930401209307
:103510000701915E909305012093080167E070E038
:1035200082E091E00E943418882309F483C08091DE
:10353000130280FF64C080E2E2EFF1E0DF011D9240
:103540008A95E9F76E0155E0CC0CDD1C5A95E1F740
:10355000A4E4B1E060E4462E61E0562E88E491E0F8
:10356000772473942D91E20139912E01B601630FF6
:10357000711D67597C4F30E02E503E4FF90147E0F6
:10358000A42EAF01421B530B872C01C0880C4A9517
:10359000EAF77B01912CE701B9907E01B8204A2D12
:1035A00049194770642E042E000C550BDB2D01C009
:1035B000DD0F6A94EAF76D2E5195419551094770D8
:1035C000552701C0B6944A95EAF7BD2A4081B42A2E
:1035D000B082939448E09412DECFAA943196CFEF54
:1035E000AC12CFCF8A179B0709F0BCCF60E270E026
:1035F00082EF91E00E946C1881110FC021C0CE01B2
:1036000025E0880F991F2A95E1F760E270E087595D
:103610009C4F0E946C18882381F000951095809132
:10362000170290911802082319231093180200938F
:1036300017020AC08CEA93E005C083E993E002C058
:1036400088E793E00E94F005CDB7DEB7E0E10C9487
:10365000532580911602909115028823A9F0992391
:1036600089F062E070E080E693E00E9441188111E9
:1036700007C08BE493E00E94F00580911502089545
:10368000109215029091150281E0892708950F93F9
:103690001F9380911602882319F160E080E00E9458
:1036A000F6180E94EE070E942D1A809115028823B9
:1036B000B9F00E9450200091690510916A0520918F
:1036C0006B0530916C05DC01CB01801B910BA20BCB
:1036D000B30B8F3F9F4FAF4FBF4710F40E94291B82
:1036E0001F910F910895CF93DF93FC01DB01159695
:1036F0008C91882309F4DDC09F01305723323105B6
:1037000008F0D8C0EF010E94E81290935A0380930A
:103710005903FE01E150F047E232F10520F4E05C8C
:10372000FF4F0C942F25809159038160AAC080918E
:103730005A038860B2C0809159038260A2C0809110
:10374000590320C08091590388609BC080915A031F
:103750001EC080915A038260A0C08091590380618D
:1037600090C08091590380628CC08091590380641D
:1037700088C00E942E0D80915903806882C080917C
:103780005903886084607DC080915A0382608160A3
:1037900084C0809159038E7F74C080915A03877FC3
:1037A0007CC0809159038D7F6CC08091590320C0EB
:1037B00080915903877F65C080915A031EC0809114
:1037C0005A038D7F6AC0809159038F7E5AC08091C1
:1037D00059038F7D56C0809159038F7B52C00E9440
:1037E0002E0D809159038F774CC080915903877FAC
:1037F0008B7F47C080915A038D7F8E7F4EC0809112
:10380000590382FB222720F991E0922790FB82F94D
:1038100090FB83F936C080915A03982F9095917050
:103820008E7F892B90FB81F938C08091590386FBEC
:10383000222720F991E0922790FB86F922C00E946E
:103840002E0D8091590387FB222720F991E09227C2
:1038500090FB87F916C081E001C080E00E947413DC
:103860001EC08091590384FB222720F991E0922702
:1038700090FB84F906C080915903982F909590FB96
:1038800080F9809359030BC080915A0383FB222750
:1038900020F991E0922790FB83F980935A0380915D
:1038A000590390915A030E94ED120E942E0D80E060
:1038B00001C081E0DF91CF9108958FE891E00197F9
:1038C000F1F700C00000089581E080931A02249867
:1038D0002C9A25982D9A0E945D1C30911A02ECE1D9
:1038E000F2E090E0931761F083B1829581701D99A9
:1038F00002C020E001C022E0822B81939F5FF2CFC3
:103900000895A8E1B0E0E7E8FCE10C94382510E068
:1039100000E082E0982E94E0A92EB12C2DEF822EAB
:10392000772473943CEF632E43E0542E80911A0267
:10393000181708F0A5C0E12EF12CE3B1E295E17073
:103940001D9902C080E001C082E08E2BD701A45EE9
:10395000BD4FEC912E2F237030E0482F082E000C25
:10396000550B2417350709F489C0EE0FEE0FE82B2D
:10397000EC93EF70F0E0E85BFE4FC701855E9D4F72
:103980006C019081F6018081890F80838430A4F1DD
:10399000F701E75EFD4F80818F5F80830E944420A6
:1039A0001D876E86682F8F87988B598A7A8A412F58
:1039B0005CEF792F83E091E00E94D1098FE39CE9CD
:1039C0000197F1F700C000000E9444201B8B6C8A15
:1039D000682F8D8B9E8B5F8A188E412F5CEF792F1D
:1039E00083E090E00E94D109EFE3FCE93197F1F721
:1039F00000C0000021E001C020E0F60180818D3F81
:103A00009CF5F701E75EFD4F8081815080830E9425
:103A1000442019838A82682F8B839C839D827E82B7
:103A2000412F5DEF792F82E091E00E94D1098FE371
:103A30009CE90197F1F700C000000E9444201F8319
:103A40008886682F89879A879B861C86412F5DEF21
:103A5000792F82E090E00E94D109EFE3FCE93197F1
:103A6000F1F700C0000021E0F6018081082E000C73
:103A7000990BB5010E941B258083022B1F5F56CF37
:103A8000802F6896EFE00C945425CF93DF93863116
:103A90009C4741F5EB010E94D011982F8D81209118
:103AA000000130910101882379F09A7A81E009F4CC
:103AB00080E080931D02911102C069E201C065E3BC
:103AC000C9010E94B01F0AC080911D02811102C06D
:103AD00069E201C065E3C9010E94B31F0E941C1284
:103AE00080E001C081E0DF91CF9108950F931F9393
:103AF000CF93DF93C42FD22FFC0185818823B1F0AF
:103B0000409320020E94442090931F0280931E0243
:103B100080E28C0F883008F04DC0C77081E001C092
:103B2000880FCA95EAF70E94070B44C080912002D3
:103B3000481330C080911E0290911F020E945C20A9
:103B4000883C910538F510E21D0FCD17B9F080E2E1
:103B50008C0F883040F4C77081E001C0880FCA958F
:103B6000EAF70E940E0B183010F581E09D2F977038
:103B700001C0880F9A95EAF70E94070B802F0E94D8
:103B8000FD0A1830B8F4D77081E001C0880FDA95CB
:103B9000EAF70AC080E28C0F883060F4C77081E0D9
:103BA00001C0880FCA95EAF70E940E0B03C0802F50
:103BB0000E94FD0ADF91CF911F910F9108950F93FD
:103BC000FC01E851FC47E730F10590F5CB01EE59D7
:103BD000FF4F0C942F2506E221EE41EE6AE17CE7CF
:103BE00023C007E225EE45EE6BE17CE71DC006E24F
:103BF00021EE40EE68E17CE717C007E225EE44EED7
:103C000069E17CE711C006E221EE42EE6CE17CE75F
:103C10000BC007E225EE46EE6DE17CE705C008E249
:103C200021E045EE6EE17CE70E94761D80E008C051
:103C3000FB018581882319F01092200201C081E0E8
:103C40000F9108951092B9008CE08093B800089508
:103C5000A0E0B0E0EEE2FEE10C943C25B82EEB01D2
:103C60000E9444206C01C431D10558F0CF3F8FEF42
:103C7000D80759F0CE0164E170E00E9407257B016E
:103C800007C0EE24E394F12C03C025E0E22EF12CD2
:103C900084E8A82E94EA992E1092BC009092BC0061
:103CA0000E9444208C018091BC0087FD07C0C801A0
:103CB0000E945C20E816F906B0F729C08091B9008F
:103CC000887F883041F08091B900887F803119F079
:103CD0000FEF1FEF1EC0B092BB00A092BC000E946D
:103CE00044208C018091BC0087FD07C0C8010E9460
:103CF0005C20E816F906B0F70AC08091B900887F09
:103D0000883111F0803421F700E010E00EC00EEF92
:103D10001FEFCF3F8FEFD80709F4BECFC6010E9437
:103D20005C20C817D90708F0B7CFC801CDB7DEB7F8
:103D3000EBE00C9458250F931F93CF93DF93EB0187
:103D40008093BB0084E88093BC000E9444208C01D7
:103D50008091BC0087FD0DC0CF3F8FEFD807C1F326
:103D6000C8010E945C20C817D90790F78EEF9FEF1B
:103D70000CC02091B900287F81E090E0283211F436
:103D800080E090E0919581959109DF91CF911F910D
:103D90000F910895A0E0B0E0E0EDFEE10C943F2526
:103DA0006B018A017901B9010E94281EE6010C0D00
:103DB0001D1DC017D10741F424E92093BC00CDB7E5
:103DC000DEB7E8E00C945B2597FDF6CFB70189914B
:103DD0000E949B1EEECFA0E0B0E0E1EFFEE10C946C
:103DE0003F25C62F6A017901B8010E94281E97FD60
:103DF00011C0B8018C2F0E949B1EE601EC0CFD1C2B
:103E0000CE15DF0539F097FD05C0B80189910E94F4
:103E10009B1EF6CF24E92093BC00CDB7DEB7E8E0C7
:103E20000C945B2584E98093BC000895909359011C
:103E3000809358010895909322028093210208955F
:103E4000E0912102F0912202309729F00190F08157
:103E5000E02D0995089580E00895EF92FF920F9369
:103E60001F93CF93DF93E0912102F09122023097CC
:103E700081F18C010280F381E02D09958091E801A8
:103E800082FF27C080FF04C08AEA99E00E94F00503
:103E9000E80118E084EAE82E89E0F82E8091E80134
:103EA00080FF0BC088811F928F93FF92EF920E9438
:103EB00089060F900F900F900F90115021961111BD
:103EC000EDCF8091E80180FF04C082EA99E00E9472
:103ED000F005CDB7DEB7E6E00C945D25FC01329627
:103EE00097E080E0915029F021912223D9F38F5F50
:103EF000F9CF0895662349F0FC0132960896219186
:103F0000621729F0E817F907D1F780E0089581E0FA
:103F100008959C01FC0132969FEF80E04191461785
:103F200089F09F3F19F4411101C0982F8F5F8630AF
:103F3000A9F79F3F39F0F901E90FF11D97FDFA95B7
:103F40006283089508959C012A5F3F4FFC014281DE
:103F5000461301C01282019682179307B9F708959C
:103F60000E94891F08950E94A31F0895029626E0CB
:103F7000FC0111922A95E9F7089508950E94BD1F4A
:103F800008950E94BE1F08950E94BD1F08950E94BB
:103F9000BD1F08950E94BD1F0895CF930E94C71FA3
:103FA0000E94AB170E94C41FC0E08C2F0E94A41671
:103FB000811104C0CF5FC730C1F701C081E0CF914C
:103FC000089508951F920F920FB60F9211248F93A8
:103FD0009F93AF93BF9380912302811113C080916F
:103FE0006F0590917005A0917105B0917205419691
:103FF000A11DB11D80936F0590937005A09371056D
:10400000B0937205BF91AF919F918F910F900FBEAA
:104010000F901F90189580912602882331F10E94FD
:1040200052091092230220E488E190E00FB6F89440
:10403000A895809360000FBE2093600083B7817FB6
:10404000846083BF83B7816083BF7894889583B78A
:104050008E7F83BF0FB6F894A89580916000886129
:1040600080936000109260000FBE08950E942E0D94
:104070000E945909089582E084BD93E095BD9AEFAE
:1040800097BD80936E0008952FB7F89480916F05C7
:1040900090917005A0917105B09172052FBF0895A0
:1040A0002FB7F89460916F0570917005809171053C
:1040B000909172052FBF08959C014FB7F89480919D
:1040C0006F0590917005A0917105B09172054FBF79
:1040D000821B930B089578941F920F920FB60F9244
:1040E00011248F939F93AF93BF9380916F0590910D
:1040F0007005A0917105B09172050196A11DB11DC9
:1041000080936F0590937005A0937105B09372052D
:10411000BF91AF919F918F910F900FBE0F901F9005
:10412000189598E088E10FB6F894A8958093600000
:104130000FBE90936000A895F894D8E0CEEF28E3E6
:10414000299320E0299314BEFFCF089598E088E1D9
:104150000FB6F894A895809360000FBE909360000E
:10416000FFCF0E944420909325028093240290E088
:1041700080E80FB6F89480936100909361000FBEC1
:1041800008950E94E024539A80E0815041F0A89560
:10419000EFE9FFE03197F1F700C00000F6CF539848
:1041A000789408950E9481220E941B1F2FEF80E7C0
:1041B00092E0215080409040E1F700C00000089557
:1041C00080919A05882389F010929A050E944420D4
:1041D0009093250280932402809126028823D9F1AE
:1041E000109226020E94362011C080912602811171
:1041F00011C080912402909125020E945C200697B4
:1042000028F081E0809326020E940B2080912602F4
:10421000882309F10E940B200E94CD1F882309F4F6
:104220003DC0F8942AB15B9A822F8C608AB99BB109
:104230008CE098279BB93FE748E391E0315040403C
:104240009040E1F700C000009BB189278BB92AB9E3
:104250005B98789408950E94E9238091A0058823B3
:1042600029F080917E0584FD0E94FF130E947C212D
:104270000E94E9238091A005882329F080918A0576
:1042800084FD0E9404220E94E9238091A0058823D6
:1042900029F08091B70584FD0E94282208959FB7D8
:1042A000F89481E03091D8022091D702321301C0F6
:1042B00080E09FBF08958091D60208950F931F93C9
:1042C000CF93DF938C01D62FC6E08091B70584FD94
:1042D00005C0C15049F00E94E923F7CF6D2FC801F6
:1042E0000E94E42381E001C080E0DF91CF911F9123
:1042F0000F91089508950895CF93DF93CAE0D0E019
:1043000080917E0584FF3DC08091530290915402BC
:10431000981709F441C028E0829FC001112468E089
:104320008B5A9D4F0E94DF238091530290E00196AB
:104330008F709927809353022091E80122FF2CC0AF
:1043400020FF2AC040915402242F30E0281B390B53
:10435000481710F4205F3F4F3F932F931F924F93C6
:104360009F938F938BE49AE09F938F930E9489068B
:104370008DB79EB708960FB6F8949EBF0FBE8DBF3F
:104380000BC00E94E9238FE99FE00197F1F700C07D
:104390000000219709F0B4CFDF91CF910895CF931A
:1043A000DF93EC01A0915402B0E0CD0101968F7033
:1043B000992720915302281781F093E0AA0FBB1F81
:1043C0009A95E1F7AB5ABD4F98E0FE0101900D922E
:1043D0009A95E1F78093540208C08091E80180FF2C
:1043E00004C08FE39AE00E94F0050E94E9230E9436
:1043F0007C2188E0FE01ABE4B2E001900D928A9549
:10440000E1F7DF91CF91089580912A02803239F44B
:1044100060E28BE292E00E94FE0710922A02089569
:104420006FB7F8949091D802492F50E09A012F5F0E
:104430003F4F2F7733277091D702721731F0FA016F
:10444000E752FD4F80832093D8026FBF80E008952C
:10445000A0E2B0E0EEE2F2E20C943F258091A005EC
:10446000882309F44AC00E944F21882309F445C0DB
:104470008E010F5F1F4F80E2F80111928A95E9F7D4
:1044800078016E01F9E0CF0ED11C0E944F218823E4
:10449000F1F0EC14FD04D9F03FB7F8948091D70205
:1044A0009091D802981304C09093D70220E00AC0DC
:1044B00090E0FC01E752FD4F208101968F7799270C
:1044C0008093D7023FBFF70121937F01DECF7E01AA
:1044D000F1E2EF0EF11C68E0C8010E945E21882322
:1044E00029F0085F1F4F0E151F05A9F760E080E057
:1044F00090E00E945E210E94E923A096E8E00C94DF
:104500005B2589E091E00895CF93DF93EC019881DA
:1045100090768091E801903209F062C099819130E3
:1045200099F480FF04C083E39AE00E94F0058C8137
:104530009D81892B09F05AC08BE492E090939C05F1
:1045400080939B0588E05EC0923071F480FF04C0C8
:1045500089E29AE00E94F00585ED92E090939C0537
:1045600080939B0581E04EC09A3091F49B8190939B
:10457000D50280FF46C01F929F938AE19AE09F93E5
:104580008F930E9489060F900F900F900F902EC06E
:10459000993009F580FF04C08EE09AE00E94F00592
:1045A0008A819B818115924051F58C819D81892B57
:1045B00031F58091E80180FF04C085E09AE00E9417
:1045C000F00581E0809329028E819F8190932802DB
:1045D0008093270214C080FF14C08CEF99E004C0C0
:1045E00080FF0FC084EF99E00E94F0058091E80100
:1045F00080FF07C082EF99E00E94F00502C08FEFB4
:1046000001C080E0DF91CF910895CF93DF93209197
:10461000270230912802232BF9F020912902213022
:10462000D9F4EC018091E80180FF0DC088811F92D0
:104630008F9383EE99E09F938F930E9489060F904A
:104640000F900F900F9088818093D60210922802CD
:104650001092270281E001C08FEFDF91CF91089582
:10466000683059F08091E80180FF04C08EEC99E039
:104670000E94F00510922A02089520912A02A22F8A
:10468000B0E0A931B1053CF08091E80180FFF2CFA4
:104690008CEB99E0EDCFFC01A55DBD4F0896319103
:1046A0003D93E817F907D9F7285F20932A02089568
:1046B000FC0193819330B1F068F4913081F0923035
:1046C00009F059C086E69AE090939C0580939B057B
:1046D00082E60895913201F1923291F14CC088EC5A
:1046E0009AE014C08281813079F030F0823009F094
:1046F00042C08AED9AE00AC082E09BE090939C055C
:1047000080939B0584E008958EEE9AE090939C053B
:1047100080939B0582E108958281813049F028F0E1
:10472000823049F581EB9AE005C088E79AE002C043
:1047300081E99AE090939C0580939B0589E0089518
:10474000848195818130910571F028F0029799F468
:1047500086E09BE00AC08AE49BE090939C058093EE
:104760009B0580E4089588E29BE090939C058093EC
:104770009B0582E2089580E008951F93CF93DF9315
:10478000162FEA01288124FF05C0398128E8232754
:10479000298302C02AE52883212FFC01CE0102963D
:1047A000DC0131913D9321501216DCF3612F0E9400
:1047B000A7061C5F1883DF91CF911F9108954EE7E4
:1047C00055E00E94BD23089547EB55E00E94BD23AC
:1047D0000895CF93DF9360919D05635067FD93C06B
:1047E00080919905CCE0D0E0C81BD109CF55DA4FB4
:1047F00080919805803120F4CE010E94302381C041
:104800008D3209F06EC0683009F07BC083EC809374
:1048100073058AE58093120110929705888180764E
:1048200021F0CE010E94842249C09A8110927C0519
:104830008981811106C010927D052CE735E082E068
:1048400038C0853019F490939E0530C08630A1F4AD
:104850008B81813041F0823031F0833021F0813220
:1048600011F0823221F4CE010E94582301C080E071
:1048700090E49093970522C0883089F0893019F42C
:104880009093A00513C08A3069F08B3079F48BE4E3
:1048900080937F058093B80580938B0507C020EA3D
:1048A00035E002C02CE735E081E003C02CE735E0BD
:1048B00080E030939C0520939B0509C08F3F39F41D
:1048C000988197FD8E8190E89093970507C09F810E
:1048D000911104C09E81981708F4892F80931101CB
:1048E00010C08091970587FF0CC0CE010E94052360
:1048F0008F3F21F48EE18093120103C08111109249
:10490000110110929D058091120184FF4CC080918D
:1049100011018F3F09F447C0C82F893008F0C8E063
:104920008C1B809311019091730588E889278093EF
:104930007305CC2359F180919B0590919C052091A2
:10494000970526FF12C0A3E7B5E02C2FAC01435713
:104950005540FA01EA0FFB1FE4911196EC93119771
:10496000215011962111F5CF08C0E4E7F5E0DC01F4
:104970002C2F3D9131932150E1F701962FEF2C0F11
:10498000820F911D90939C0580939B056C2F84E76B
:1049900095E00E94A706CC5FCC3019F08FEF809392
:1049A0001101C093120184E199B19C7031F48150DE
:1049B000D9F710929E0510929605DF91CF91089538
:1049C000CF93DF93E9E6F0E0808188608083E99A05
:1049D000CEE7D5E08BE48983A7EBB5E011968C9305
:1049E0001197EAE8F5E081838AE588838C938083D8
:1049F000DF91CF910895991B79E004C0991F961714
:104A000008F0961B881F7A95C9F780950895AA1B10
:104A1000BB1B51E107C0AA1FBB1FA617B70710F0A9
:104A2000A61BB70B881F991F5A95A9F780959095DB
:104A3000BC01CD01089597FB072E16F4009407D012
:104A400077FD09D00E94072507FC05D03EF490951C
:104A500081959F4F0895709561957F4F0895EE0F52
:104A6000FF1F0590F491E02D09942F923F924F92F1
:104A70005F926F927F928F929F92AF92BF92CF92EE
:104A8000DF92EF92FF920F931F93CF93DF93CDB7F7
:104A9000DEB7CA1BDB0B0FB6F894DEBF0FBECDBF6F
:104AA00009942A88398848885F846E847D848C8440
:104AB0009B84AA84B984C884DF80EE80FD800C8149
:104AC0001B81AA81B981CE0FD11D0FB6F894DEBF2C
:104AD0000FBECDBFED010895FB01DC0102C00590C2
:104AE0000D9241505040D8F70895FB01DC0104C0FD
:104AF0008D910190801921F441505040C8F7881BD6
:104B0000990B0895FB01DC0102C001900D92415008
:104B10005040D8F70895F999FECF92BD81BDF89A1B
:104B2000992780B50895A8E1B0E042E050E00C94E8
:104B3000CF25DC01A40FB51F4150504048F0CB01F8
:104B4000840F951F2E910E94AA2541505040D0F706
:104B50000895262FF999FECF92BD81BDF89A01974D
:104B600000B4021639F01FBA20BD0FB6F894FA9AB5
:104B7000F99A0FBE08950396272F0E94AA250E9436
:104B8000A925252F0E94AA25242F0C94AA25019639
:104B9000272F0E94AA250C94A925DC01CB01FC013A
:104BA000F999FECF06C0F2BDE1BDF89A319600B486
:0E4BB0000D9241505040B8F70895F894FFCF91
:104BBE00C9010021007F2200035B21CF217A217BD6
:104BCE0021FF5A52656365697665643A2000576124
:104BDE006974696E6720666F7220646174612E2E2F
:104BEE002E003097969531323390919463606162C6
:104BFE00000810181810080000FF0100010000FF47
:084C0E00FF0000010001FF009E
:00000001FF
